{"contracts/HogwartsStudentsService.sol":{"HogwartsStudentsService":{"abi":[{"inputs":[],"stateMutability":"payable","type":"constructor"},{"anonymous":false,"inputs":[{"indexed":true,"internalType":"address","name":"owner","type":"address"},{"indexed":true,"internalType":"address","name":"approved","type":"address"},{"indexed":true,"internalType":"uint256","name":"tokenId","type":"uint256"}],"name":"Approval","type":"event"},{"anonymous":false,"inputs":[{"indexed":true,"internalType":"address","name":"owner","type":"address"},{"indexed":true,"internalType":"address","name":"operator","type":"address"},{"indexed":false,"internalType":"bool","name":"approved","type":"bool"}],"name":"ApprovalForAll","type":"event"},{"anonymous":false,"inputs":[{"indexed":true,"internalType":"address","name":"from","type":"address"},{"indexed":true,"internalType":"address","name":"to","type":"address"},{"indexed":true,"internalType":"uint256","name":"tokenId","type":"uint256"}],"name":"Transfer","type":"event"},{"anonymous":false,"inputs":[{"indexed":true,"internalType":"address","name":"newcomer","type":"address"},{"indexed":false,"internalType":"string","name":"name","type":"string"},{"indexed":false,"internalType":"string","name":"faculty","type":"string"}],"name":"WelcomeToHogwarts","type":"event"},{"inputs":[{"internalType":"string","name":"name","type":"string"},{"internalType":"string","name":"patronus","type":"string"},{"internalType":"uint256","name":"nonce","type":"uint256"}],"name":"applyToHogwarts","outputs":[],"stateMutability":"payable","type":"function"},{"inputs":[{"internalType":"address","name":"to","type":"address"},{"internalType":"uint256","name":"tokenId","type":"uint256"}],"name":"approve","outputs":[],"stateMutability":"nonpayable","type":"function"},{"inputs":[{"internalType":"address","name":"owner","type":"address"}],"name":"balanceOf","outputs":[{"internalType":"uint256","name":"","type":"uint256"}],"stateMutability":"view","type":"function"},{"inputs":[{"internalType":"address","name":"","type":"address"}],"name":"domainTracker","outputs":[{"internalType":"bool","name":"","type":"bool"}],"stateMutability":"view","type":"function"},{"inputs":[{"internalType":"string","name":"","type":"string"}],"name":"domains","outputs":[{"internalType":"address","name":"","type":"address"}],"stateMutability":"view","type":"function"},{"inputs":[{"internalType":"string","name":"name","type":"string"}],"name":"getAddress","outputs":[{"internalType":"address","name":"","type":"address"}],"stateMutability":"view","type":"function"},{"inputs":[],"name":"getAllNames","outputs":[{"internalType":"string[]","name":"","type":"string[]"}],"stateMutability":"view","type":"function"},{"inputs":[{"internalType":"uint256","name":"tokenId","type":"uint256"}],"name":"getApproved","outputs":[{"internalType":"address","name":"","type":"address"}],"stateMutability":"view","type":"function"},{"inputs":[{"internalType":"string","name":"name","type":"string"}],"name":"getRecord","outputs":[{"components":[{"internalType":"string","name":"domain","type":"string"},{"internalType":"uint256","name":"applicationDate","type":"uint256"},{"internalType":"string","name":"faculty","type":"string"},{"internalType":"string","name":"patronus","type":"string"},{"internalType":"address","name":"applicant","type":"address"}],"internalType":"struct HogwartsStudentsService.HogwartsStudent","name":"","type":"tuple"}],"stateMutability":"view","type":"function"},{"inputs":[],"name":"gryffindorID","outputs":[{"internalType":"string","name":"","type":"string"}],"stateMutability":"view","type":"function"},{"inputs":[],"name":"gryffindorSld","outputs":[{"internalType":"string","name":"","type":"string"}],"stateMutability":"view","type":"function"},{"inputs":[],"name":"hufflepuffID","outputs":[{"internalType":"string","name":"","type":"string"}],"stateMutability":"view","type":"function"},{"inputs":[],"name":"hufflepuffSld","outputs":[{"internalType":"string","name":"","type":"string"}],"stateMutability":"view","type":"function"},{"inputs":[{"internalType":"address","name":"owner","type":"address"},{"internalType":"address","name":"operator","type":"address"}],"name":"isApprovedForAll","outputs":[{"internalType":"bool","name":"","type":"bool"}],"stateMutability":"view","type":"function"},{"inputs":[],"name":"isOwner","outputs":[{"internalType":"bool","name":"","type":"bool"}],"stateMutability":"view","type":"function"},{"inputs":[],"name":"name","outputs":[{"internalType":"string","name":"","type":"string"}],"stateMutability":"view","type":"function"},{"inputs":[{"internalType":"uint256","name":"","type":"uint256"}],"name":"names","outputs":[{"internalType":"string","name":"","type":"string"}],"stateMutability":"view","type":"function"},{"inputs":[{"internalType":"uint256","name":"tokenId","type":"uint256"}],"name":"ownerOf","outputs":[{"internalType":"address","name":"","type":"address"}],"stateMutability":"view","type":"function"},{"inputs":[],"name":"ravenclawID","outputs":[{"internalType":"string","name":"","type":"string"}],"stateMutability":"view","type":"function"},{"inputs":[],"name":"ravenclawSld","outputs":[{"internalType":"string","name":"","type":"string"}],"stateMutability":"view","type":"function"},{"inputs":[{"internalType":"string","name":"","type":"string"}],"name":"records","outputs":[{"internalType":"string","name":"domain","type":"string"},{"internalType":"uint256","name":"applicationDate","type":"uint256"},{"internalType":"string","name":"faculty","type":"string"},{"internalType":"string","name":"patronus","type":"string"},{"internalType":"address","name":"applicant","type":"address"}],"stateMutability":"view","type":"function"},{"inputs":[{"internalType":"address","name":"from","type":"address"},{"internalType":"address","name":"to","type":"address"},{"internalType":"uint256","name":"tokenId","type":"uint256"}],"name":"safeTransferFrom","outputs":[],"stateMutability":"nonpayable","type":"function"},{"inputs":[{"internalType":"address","name":"from","type":"address"},{"internalType":"address","name":"to","type":"address"},{"internalType":"uint256","name":"tokenId","type":"uint256"},{"internalType":"bytes","name":"data","type":"bytes"}],"name":"safeTransferFrom","outputs":[],"stateMutability":"nonpayable","type":"function"},{"inputs":[{"internalType":"address","name":"operator","type":"address"},{"internalType":"bool","name":"approved","type":"bool"}],"name":"setApprovalForAll","outputs":[],"stateMutability":"nonpayable","type":"function"},{"inputs":[],"name":"slytherinID","outputs":[{"internalType":"string","name":"","type":"string"}],"stateMutability":"view","type":"function"},{"inputs":[],"name":"slytherinSld","outputs":[{"internalType":"string","name":"","type":"string"}],"stateMutability":"view","type":"function"},{"inputs":[{"internalType":"bytes4","name":"interfaceId","type":"bytes4"}],"name":"supportsInterface","outputs":[{"internalType":"bool","name":"","type":"bool"}],"stateMutability":"view","type":"function"},{"inputs":[],"name":"symbol","outputs":[{"internalType":"string","name":"","type":"string"}],"stateMutability":"view","type":"function"},{"inputs":[],"name":"tld","outputs":[{"internalType":"string","name":"","type":"string"}],"stateMutability":"view","type":"function"},{"inputs":[{"internalType":"uint256","name":"tokenId","type":"uint256"}],"name":"tokenURI","outputs":[{"internalType":"string","name":"","type":"string"}],"stateMutability":"view","type":"function"},{"inputs":[{"internalType":"address","name":"from","type":"address"},{"internalType":"address","name":"to","type":"address"},{"internalType":"uint256","name":"tokenId","type":"uint256"}],"name":"transferFrom","outputs":[],"stateMutability":"nonpayable","type":"function"},{"inputs":[{"internalType":"string","name":"name","type":"string"}],"name":"valid","outputs":[{"internalType":"bool","name":"","type":"bool"}],"stateMutability":"pure","type":"function"},{"inputs":[],"name":"withdraw","outputs":[],"stateMutability":"nonpayable","type":"function"}],"evm":{"bytecode":{"linkReferences":{},"object":"608060405266038d7ea4c680006008556040518060400160405280601981526020017f486f6777617274732053747564656e74732053657276696365000000000000008152506040518060400160405280600381526020017f485353000000000000000000000000000000000000000000000000000000000081525081600090816200008c919062000362565b5080600190816200009e919062000362565b50505033600960006101000a81548173ffffffffffffffffffffffffffffffffffffffff021916908373ffffffffffffffffffffffffffffffffffffffff16021790555062000449565b600081519050919050565b7f4e487b7100000000000000000000000000000000000000000000000000000000600052604160045260246000fd5b7f4e487b7100000000000000000000000000000000000000000000000000000000600052602260045260246000fd5b600060028204905060018216806200016a57607f821691505b60208210810362000180576200017f62000122565b5b50919050565b60008190508160005260206000209050919050565b60006020601f8301049050919050565b600082821b905092915050565b600060088302620001ea7fffffffffffffffffffffffffffffffffffffffffffffffffffffffffffffffff82620001ab565b620001f68683620001ab565b95508019841693508086168417925050509392505050565b6000819050919050565b6000819050919050565b6000620002436200023d62000237846200020e565b62000218565b6200020e565b9050919050565b6000819050919050565b6200025f8362000222565b620002776200026e826200024a565b848454620001b8565b825550505050565b600090565b6200028e6200027f565b6200029b81848462000254565b505050565b5b81811015620002c357620002b760008262000284565b600181019050620002a1565b5050565b601f8211156200031257620002dc8162000186565b620002e7846200019b565b81016020851015620002f7578190505b6200030f62000306856200019b565b830182620002a0565b50505b505050565b600082821c905092915050565b6000620003376000198460080262000317565b1980831691505092915050565b600062000352838362000324565b9150826002028217905092915050565b6200036d82620000e8565b67ffffffffffffffff811115620003895762000388620000f3565b5b62000395825462000151565b620003a2828285620002c7565b600060209050601f831160018114620003da5760008415620003c5578287015190505b620003d1858262000344565b86555062000441565b601f198416620003ea8662000186565b60005b828110156200041457848901518255600182019150602085019450602081019050620003ed565b8683101562000434578489015162000430601f89168262000324565b8355505b6001600288020188555050505b505050505050565b614d6280620004596000396000f3fe6080604052600436106101ee5760003560e01c806368bd026c1161010d578063abe50fa6116100a0578063c9b4c1601161006f578063c9b4c16014610756578063e985e9c514610781578063f61722dc146107be578063fa626f6b146107e9578063fb825e5f14610814576101ee565b8063abe50fa614610676578063b88d4fde146106b3578063bf40fac1146106dc578063c87b56dd14610719576101ee565b80638f32d59b116100dc5780638f32d59b146105ba57806395d89b41146105e55780639791c09714610610578063a22cb4651461064d576101ee565b806368bd026c1461050b57806370a082311461052757806373eea211146105645780637ddd5dd81461058f576101ee565b80632d55143211610185578063537bd37111610154578063537bd37114610437578063541e771d146104625780635bf1d9dc146104a35780636352211e146104ce576101ee565b80632d5514321461038f5780633ccfd60b146103ba57806342842e0e146103d15780634622ab03146103fa576101ee565b8063095ea7b3116101c1578063095ea7b3146102c357806311dd8845146102ec57806323b872dd146103295780632644923514610352576101ee565b806301ffc9a7146101f357806306fdde0314610230578063081812fc1461025b57806308b13a1d14610298575b600080fd5b3480156101ff57600080fd5b5061021a60048036038101906102159190613137565b61083f565b604051610227919061317f565b60405180910390f35b34801561023c57600080fd5b50610245610921565b604051610252919061322a565b60405180910390f35b34801561026757600080fd5b50610282600480360381019061027d9190613282565b6109b3565b60405161028f91906132f0565b60405180910390f35b3480156102a457600080fd5b506102ad6109f9565b6040516102ba919061322a565b60405180910390f35b3480156102cf57600080fd5b506102ea60048036038101906102e59190613337565b610a32565b005b3480156102f857600080fd5b50610313600480360381019061030e91906133dc565b610b49565b6040516103209190613515565b60405180910390f35b34801561033557600080fd5b50610350600480360381019061034b9190613537565b610d9a565b005b34801561035e57600080fd5b50610379600480360381019061037491906136ba565b610dfa565b60405161038691906132f0565b60405180910390f35b34801561039b57600080fd5b506103a4610e43565b6040516103b1919061322a565b60405180910390f35b3480156103c657600080fd5b506103cf610e7c565b005b3480156103dd57600080fd5b506103f860048036038101906103f39190613537565b610f42565b005b34801561040657600080fd5b50610421600480360381019061041c9190613282565b610f62565b60405161042e919061322a565b60405180910390f35b34801561044357600080fd5b5061044c611002565b604051610459919061322a565b60405180910390f35b34801561046e57600080fd5b50610489600480360381019061048491906136ba565b61101e565b60405161049a959493929190613712565b60405180910390f35b3480156104af57600080fd5b506104b8611222565b6040516104c5919061322a565b60405180910390f35b3480156104da57600080fd5b506104f560048036038101906104f09190613282565b61123e565b60405161050291906132f0565b60405180910390f35b6105256004803603810190610520919061377a565b6112ef565b005b34801561053357600080fd5b5061054e6004803603810190610549919061380f565b6116c0565b60405161055b919061383c565b60405180910390f35b34801561057057600080fd5b50610579611777565b604051610586919061322a565b60405180910390f35b34801561059b57600080fd5b506105a46117b0565b6040516105b1919061322a565b60405180910390f35b3480156105c657600080fd5b506105cf6117e9565b6040516105dc919061317f565b60405180910390f35b3480156105f157600080fd5b506105fa611841565b604051610607919061322a565b60405180910390f35b34801561061c57600080fd5b50610637600480360381019061063291906133dc565b6118d3565b604051610644919061317f565b60405180910390f35b34801561065957600080fd5b50610674600480360381019061066f9190613883565b611987565b005b34801561068257600080fd5b5061069d6004803603810190610698919061380f565b61199d565b6040516106aa919061317f565b60405180910390f35b3480156106bf57600080fd5b506106da60048036038101906106d59190613964565b6119bd565b005b3480156106e857600080fd5b5061070360048036038101906106fe91906133dc565b611a1f565b60405161071091906132f0565b60405180910390f35b34801561072557600080fd5b50610740600480360381019061073b9190613282565b611a6a565b60405161074d919061322a565b60405180910390f35b34801561076257600080fd5b5061076b611b7c565b604051610778919061322a565b60405180910390f35b34801561078d57600080fd5b506107a860048036038101906107a391906139e7565b611b98565b6040516107b5919061317f565b60405180910390f35b3480156107ca57600080fd5b506107d3611c2c565b6040516107e0919061322a565b60405180910390f35b3480156107f557600080fd5b506107fe611c48565b60405161080b919061322a565b60405180910390f35b34801561082057600080fd5b50610829611c81565b6040516108369190613ae9565b60405180910390f35b60007f80ac58cd000000000000000000000000000000000000000000000000000000007bffffffffffffffffffffffffffffffffffffffffffffffffffffffff1916827bffffffffffffffffffffffffffffffffffffffffffffffffffffffff1916148061090a57507f5b5e139f000000000000000000000000000000000000000000000000000000007bffffffffffffffffffffffffffffffffffffffffffffffffffffffff1916827bffffffffffffffffffffffffffffffffffffffffffffffffffffffff1916145b8061091a575061091982611dc7565b5b9050919050565b60606000805461093090613b3a565b80601f016020809104026020016040519081016040528092919081815260200182805461095c90613b3a565b80156109a95780601f1061097e576101008083540402835291602001916109a9565b820191906000526020600020905b81548152906001019060200180831161098c57829003601f168201915b5050505050905090565b60006109be82611e31565b6004600083815260200190815260200160002060009054906101000a900473ffffffffffffffffffffffffffffffffffffffff169050919050565b6040518060400160405280600a81526020017f687566666c65707566660000000000000000000000000000000000000000000081525081565b6000610a3d8261123e565b90508073ffffffffffffffffffffffffffffffffffffffff168373ffffffffffffffffffffffffffffffffffffffff1603610aad576040517f08c379a0000000000000000000000000000000000000000000000000000000008152600401610aa490613bdd565b60405180910390fd5b8073ffffffffffffffffffffffffffffffffffffffff16610acc611e7c565b73ffffffffffffffffffffffffffffffffffffffff161480610afb5750610afa81610af5611e7c565b611b98565b5b610b3a576040517f08c379a0000000000000000000000000000000000000000000000000000000008152600401610b3190613c6f565b60405180910390fd5b610b448383611e84565b505050565b610b51613086565b600b8383604051610b63929190613cbf565b90815260200160405180910390206040518060a0016040529081600082018054610b8c90613b3a565b80601f0160208091040260200160405190810160405280929190818152602001828054610bb890613b3a565b8015610c055780601f10610bda57610100808354040283529160200191610c05565b820191906000526020600020905b815481529060010190602001808311610be857829003601f168201915b5050505050815260200160018201548152602001600282018054610c2890613b3a565b80601f0160208091040260200160405190810160405280929190818152602001828054610c5490613b3a565b8015610ca15780601f10610c7657610100808354040283529160200191610ca1565b820191906000526020600020905b815481529060010190602001808311610c8457829003601f168201915b50505050508152602001600382018054610cba90613b3a565b80601f0160208091040260200160405190810160405280929190818152602001828054610ce690613b3a565b8015610d335780601f10610d0857610100808354040283529160200191610d33565b820191906000526020600020905b815481529060010190602001808311610d1657829003601f168201915b505050505081526020016004820160009054906101000a900473ffffffffffffffffffffffffffffffffffffffff1673ffffffffffffffffffffffffffffffffffffffff1673ffffffffffffffffffffffffffffffffffffffff1681525050905092915050565b610dab610da5611e7c565b82611f3d565b610dea576040517f08c379a0000000000000000000000000000000000000000000000000000000008152600401610de190613d4a565b60405180910390fd5b610df5838383611fd2565b505050565b600a818051602081018201805184825260208301602085012081835280955050505050506000915054906101000a900473ffffffffffffffffffffffffffffffffffffffff1681565b6040518060400160405280600681526020017f686777727473000000000000000000000000000000000000000000000000000081525081565b610e846117e9565b610e8d57600080fd5b600047905060003373ffffffffffffffffffffffffffffffffffffffff1682604051610eb890613d9b565b60006040518083038185875af1925050503d8060008114610ef5576040519150601f19603f3d011682016040523d82523d6000602084013e610efa565b606091505b5050905080610f3e576040517f08c379a0000000000000000000000000000000000000000000000000000000008152600401610f3590613dfc565b60405180910390fd5b5050565b610f5d838383604051806020016040528060008152506119bd565b505050565b600d6020528060005260406000206000915090508054610f8190613b3a565b80601f0160208091040260200160405190810160405280929190818152602001828054610fad90613b3a565b8015610ffa5780601f10610fcf57610100808354040283529160200191610ffa565b820191906000526020600020905b815481529060010190602001808311610fdd57829003601f168201915b505050505081565b6040518060600160405280602e8152602001614c75602e913981565b600b8180516020810182018051848252602083016020850120818352809550505050505060009150905080600001805461105790613b3a565b80601f016020809104026020016040519081016040528092919081815260200182805461108390613b3a565b80156110d05780601f106110a5576101008083540402835291602001916110d0565b820191906000526020600020905b8154815290600101906020018083116110b357829003601f168201915b5050505050908060010154908060020180546110eb90613b3a565b80601f016020809104026020016040519081016040528092919081815260200182805461111790613b3a565b80156111645780601f1061113957610100808354040283529160200191611164565b820191906000526020600020905b81548152906001019060200180831161114757829003601f168201915b50505050509080600301805461117990613b3a565b80601f01602080910402602001604051908101604052809291908181526020018280546111a590613b3a565b80156111f25780601f106111c7576101008083540402835291602001916111f2565b820191906000526020600020905b8154815290600101906020018083116111d557829003601f168201915b5050505050908060040160009054906101000a900473ffffffffffffffffffffffffffffffffffffffff16905085565b6040518060600160405280602e8152602001614cd1602e913981565b6000806002600084815260200190815260200160002060009054906101000a900473ffffffffffffffffffffffffffffffffffffffff169050600073ffffffffffffffffffffffffffffffffffffffff168173ffffffffffffffffffffffffffffffffffffffff16036112e6576040517f08c379a00000000000000000000000000000000000000000000000000000000081526004016112dd90613e68565b60405180910390fd5b80915050919050565b600073ffffffffffffffffffffffffffffffffffffffff16600a8686604051611319929190613cbf565b908152602001604051809103902060009054906101000a900473ffffffffffffffffffffffffffffffffffffffff1673ffffffffffffffffffffffffffffffffffffffff161461139e576040517f08c379a000000000000000000000000000000000000000000000000000000000815260040161139590613ed4565b60405180910390fd5b6113a885856118d3565b6113e7576040517f08c379a00000000000000000000000000000000000000000000000000000000081526004016113de90613f40565b60405180910390fd5b600c60003373ffffffffffffffffffffffffffffffffffffffff1673ffffffffffffffffffffffffffffffffffffffff16815260200190815260200160002060009054906101000a900460ff1615611474576040517f08c379a000000000000000000000000000000000000000000000000000000000815260040161146b90613fac565b60405180910390fd5b6008543410156114b9576040517f08c379a00000000000000000000000000000000000000000000000000000000081526004016114b090614018565b60405180910390fd5b60006114c482612238565b90506000806114d28361227d565b9150915060008888846040518060400160405280600681526020017f686777727473000000000000000000000000000000000000000000000000000081525060405160200161152494939291906140b5565b604051602081830303815290604052905060006115416007612440565b905061154d338261244e565b6115768184604051602001611562919061414a565b60405160208183030381529060405261246c565b33600a83604051611587919061416c565b908152602001604051809103902060006101000a81548173ffffffffffffffffffffffffffffffffffffffff021916908373ffffffffffffffffffffffffffffffffffffffff1602179055506001600c60003373ffffffffffffffffffffffffffffffffffffffff1673ffffffffffffffffffffffffffffffffffffffff16815260200190815260200160002060006101000a81548160ff02191690831515021790555081600d6000838152602001908152602001600020908161164b919061432f565b50611658828989876124d9565b61166260076126c0565b3373ffffffffffffffffffffffffffffffffffffffff167f78fc4bd5049206a33e22e356ba7ae0cff1f598eef8b69790fde01de4562a95da8b8b876040516116ac9392919061442e565b60405180910390a250505050505050505050565b60008073ffffffffffffffffffffffffffffffffffffffff168273ffffffffffffffffffffffffffffffffffffffff1603611730576040517f08c379a0000000000000000000000000000000000000000000000000000000008152600401611727906144d9565b60405180910390fd5b600360008373ffffffffffffffffffffffffffffffffffffffff1673ffffffffffffffffffffffffffffffffffffffff168152602001908152602001600020549050919050565b6040518060400160405280600981526020017f736c7974686572696e000000000000000000000000000000000000000000000081525081565b6040518060400160405280600981526020017f726176656e636c6177000000000000000000000000000000000000000000000081525081565b6000600960009054906101000a900473ffffffffffffffffffffffffffffffffffffffff1673ffffffffffffffffffffffffffffffffffffffff163373ffffffffffffffffffffffffffffffffffffffff1614905090565b60606001805461185090613b3a565b80601f016020809104026020016040519081016040528092919081815260200182805461187c90613b3a565b80156118c95780601f1061189e576101008083540402835291602001916118c9565b820191906000526020600020905b8154815290600101906020018083116118ac57829003601f168201915b5050505050905090565b6000600361192484848080601f016020809104026020016040519081016040528093929190818152602001838380828437600081840152601f19601f820116905080830192505050505050506126d6565b1015801561197f5750601461197c84848080601f016020809104026020016040519081016040528093929190818152602001838380828437600081840152601f19601f820116905080830192505050505050506126d6565b11155b905092915050565b611999611992611e7c565b838361288b565b5050565b600c6020528060005260406000206000915054906101000a900460ff1681565b6119ce6119c8611e7c565b83611f3d565b611a0d576040517f08c379a0000000000000000000000000000000000000000000000000000000008152600401611a0490613d4a565b60405180910390fd5b611a19848484846129f7565b50505050565b6000600a8383604051611a33929190613cbf565b908152602001604051809103902060009054906101000a900473ffffffffffffffffffffffffffffffffffffffff16905092915050565b6060611a7582611e31565b6000600660008481526020019081526020016000208054611a9590613b3a565b80601f0160208091040260200160405190810160405280929190818152602001828054611ac190613b3a565b8015611b0e5780601f10611ae357610100808354040283529160200191611b0e565b820191906000526020600020905b815481529060010190602001808311611af157829003601f168201915b505050505090506000611b1f612a53565b90506000815103611b34578192505050611b77565b600082511115611b69578082604051602001611b519291906144f9565b60405160208183030381529060405292505050611b77565b611b7284612a6a565b925050505b919050565b6040518060600160405280602e8152602001614ca3602e913981565b6000600560008473ffffffffffffffffffffffffffffffffffffffff1673ffffffffffffffffffffffffffffffffffffffff16815260200190815260200160002060008373ffffffffffffffffffffffffffffffffffffffff1673ffffffffffffffffffffffffffffffffffffffff16815260200190815260200160002060009054906101000a900460ff16905092915050565b6040518060600160405280602e8152602001614cff602e913981565b6040518060400160405280600a81526020017f6772796666696e646f720000000000000000000000000000000000000000000081525081565b60606000611c8f6007612440565b67ffffffffffffffff811115611ca857611ca761358f565b5b604051908082528060200260200182016040528015611cdb57816020015b6060815260200190600190039081611cc65790505b50905060005b611ceb6007612440565b811015611dbf57600d60008281526020019081526020016000208054611d1090613b3a565b80601f0160208091040260200160405190810160405280929190818152602001828054611d3c90613b3a565b8015611d895780601f10611d5e57610100808354040283529160200191611d89565b820191906000526020600020905b815481529060010190602001808311611d6c57829003601f168201915b5050505050828281518110611da157611da061451d565b5b60200260200101819052508080611db79061457b565b915050611ce1565b508091505090565b60007f01ffc9a7000000000000000000000000000000000000000000000000000000007bffffffffffffffffffffffffffffffffffffffffffffffffffffffff1916827bffffffffffffffffffffffffffffffffffffffffffffffffffffffff1916149050919050565b611e3a81612ad2565b611e79576040517f08c379a0000000000000000000000000000000000000000000000000000000008152600401611e7090613e68565b60405180910390fd5b50565b600033905090565b816004600083815260200190815260200160002060006101000a81548173ffffffffffffffffffffffffffffffffffffffff021916908373ffffffffffffffffffffffffffffffffffffffff160217905550808273ffffffffffffffffffffffffffffffffffffffff16611ef78361123e565b73ffffffffffffffffffffffffffffffffffffffff167f8c5be1e5ebec7d5bd14f71427d1e84f3dd0314c0f7b2291e5b200ac8c7c3b92560405160405180910390a45050565b600080611f498361123e565b90508073ffffffffffffffffffffffffffffffffffffffff168473ffffffffffffffffffffffffffffffffffffffff161480611f8b5750611f8a8185611b98565b5b80611fc957508373ffffffffffffffffffffffffffffffffffffffff16611fb1846109b3565b73ffffffffffffffffffffffffffffffffffffffff16145b91505092915050565b8273ffffffffffffffffffffffffffffffffffffffff16611ff28261123e565b73ffffffffffffffffffffffffffffffffffffffff1614612048576040517f08c379a000000000000000000000000000000000000000000000000000000000815260040161203f90614635565b60405180910390fd5b600073ffffffffffffffffffffffffffffffffffffffff168273ffffffffffffffffffffffffffffffffffffffff16036120b7576040517f08c379a00000000000000000000000000000000000000000000000000000000081526004016120ae906146c7565b60405180910390fd5b6120c2838383612b3e565b6120cd600082611e84565b6001600360008573ffffffffffffffffffffffffffffffffffffffff1673ffffffffffffffffffffffffffffffffffffffff168152602001908152602001600020600082825461211d91906146e7565b925050819055506001600360008473ffffffffffffffffffffffffffffffffffffffff1673ffffffffffffffffffffffffffffffffffffffff1681526020019081526020016000206000828254612174919061471b565b92505081905550816002600083815260200190815260200160002060006101000a81548173ffffffffffffffffffffffffffffffffffffffff021916908373ffffffffffffffffffffffffffffffffffffffff160217905550808273ffffffffffffffffffffffffffffffffffffffff168473ffffffffffffffffffffffffffffffffffffffff167fddf252ad1be2c89b69c2b068fc378daa952ba7f163c4a11628f55a4df523b3ef60405160405180910390a4612233838383612b43565b505050565b600060644283443360405160200161225394939291906147b8565b6040516020818303038152906040528051906020012060001c6122769190614835565b9050919050565b60608060008310158015612292575060198311155b156122ef576040518060400160405280600a81526020017f6772796666696e646f720000000000000000000000000000000000000000000081525091506040518060600160405280602e8152602001614cd1602e9139905061243b565b601a8310158015612301575060328311155b1561235e576040518060400160405280600981526020017f736c7974686572696e000000000000000000000000000000000000000000000081525091506040518060600160405280602e8152602001614cff602e9139905061243a565b603383101580156123705750604b8311155b156123cd576040518060400160405280600a81526020017f687566666c65707566660000000000000000000000000000000000000000000081525091506040518060600160405280602e8152602001614ca3602e91399050612439565b604c83101580156123df575060648311155b15612438576040518060400160405280600981526020017f726176656e636c6177000000000000000000000000000000000000000000000081525091506040518060600160405280602e8152602001614c75602e913990505b5b5b5b915091565b600081600001549050919050565b612468828260405180602001604052806000815250612b48565b5050565b61247582612ad2565b6124b4576040517f08c379a00000000000000000000000000000000000000000000000000000000081526004016124ab906148d8565b60405180910390fd5b806006600084815260200190815260200160002090816124d4919061432f565b505050565b600a846040516124e9919061416c565b908152602001604051809103902060009054906101000a900473ffffffffffffffffffffffffffffffffffffffff1673ffffffffffffffffffffffffffffffffffffffff163373ffffffffffffffffffffffffffffffffffffffff1614612585576040517f08c379a000000000000000000000000000000000000000000000000000000000815260040161257c9061496a565b60405180910390fd5b6040518060a0016040528085815260200142815260200182815260200184848080601f016020809104026020016040519081016040528093929190818152602001838380828437600081840152601f19601f8201169050808301925050505050505081526020013373ffffffffffffffffffffffffffffffffffffffff16815250600b85604051612616919061416c565b90815260200160405180910390206000820151816000019081612639919061432f565b50602082015181600101556040820151816002019081612659919061432f565b50606082015181600301908161266f919061432f565b5060808201518160040160006101000a81548173ffffffffffffffffffffffffffffffffffffffff021916908373ffffffffffffffffffffffffffffffffffffffff16021790555090505050505050565b6001816000016000828254019250508190555050565b60008060008084519050600092505b808210156128805760008583815181106127025761270161451d565b5b602001015160f81c60f81b9050608060f81b817effffffffffffffffffffffffffffffffffffffffffffffffffffffffffffff191610156127515760018361274a919061471b565b925061286c565b60e060f81b817effffffffffffffffffffffffffffffffffffffffffffffffffffffffffffff191610156127935760028361278c919061471b565b925061286b565b60f060f81b817effffffffffffffffffffffffffffffffffffffffffffffffffffffffffffff191610156127d5576003836127ce919061471b565b925061286a565b60f8801b817effffffffffffffffffffffffffffffffffffffffffffffffffffffffffffff191610156128165760048361280f919061471b565b9250612869565b60fc60f81b817effffffffffffffffffffffffffffffffffffffffffffffffffffffffffffff1916101561285857600583612851919061471b565b9250612868565b600683612865919061471b565b92505b5b5b5b5b5082806128789061457b565b9350506126e5565b829350505050919050565b8173ffffffffffffffffffffffffffffffffffffffff168373ffffffffffffffffffffffffffffffffffffffff16036128f9576040517f08c379a00000000000000000000000000000000000000000000000000000000081526004016128f0906149d6565b60405180910390fd5b80600560008573ffffffffffffffffffffffffffffffffffffffff1673ffffffffffffffffffffffffffffffffffffffff16815260200190815260200160002060008473ffffffffffffffffffffffffffffffffffffffff1673ffffffffffffffffffffffffffffffffffffffff16815260200190815260200160002060006101000a81548160ff0219169083151502179055508173ffffffffffffffffffffffffffffffffffffffff168373ffffffffffffffffffffffffffffffffffffffff167f17307eab39ab6107e8899845ad3d59bd9653f200f220920489ca2b5937696c31836040516129ea919061317f565b60405180910390a3505050565b612a02848484611fd2565b612a0e84848484612ba3565b612a4d576040517f08c379a0000000000000000000000000000000000000000000000000000000008152600401612a4490614a68565b60405180910390fd5b50505050565b606060405180602001604052806000815250905090565b6060612a7582611e31565b6000612a7f612a53565b90506000815111612a9f5760405180602001604052806000815250612aca565b80612aa984612d2a565b604051602001612aba9291906144f9565b6040516020818303038152906040525b915050919050565b60008073ffffffffffffffffffffffffffffffffffffffff166002600084815260200190815260200160002060009054906101000a900473ffffffffffffffffffffffffffffffffffffffff1673ffffffffffffffffffffffffffffffffffffffff1614159050919050565b505050565b505050565b612b528383612e8a565b612b5f6000848484612ba3565b612b9e576040517f08c379a0000000000000000000000000000000000000000000000000000000008152600401612b9590614a68565b60405180910390fd5b505050565b6000612bc48473ffffffffffffffffffffffffffffffffffffffff16613063565b15612d1d578373ffffffffffffffffffffffffffffffffffffffff1663150b7a02612bed611e7c565b8786866040518563ffffffff1660e01b8152600401612c0f9493929190614add565b6020604051808303816000875af1925050508015612c4b57506040513d601f19601f82011682018060405250810190612c489190614b3e565b60015b612ccd573d8060008114612c7b576040519150601f19603f3d011682016040523d82523d6000602084013e612c80565b606091505b506000815103612cc5576040517f08c379a0000000000000000000000000000000000000000000000000000000008152600401612cbc90614a68565b60405180910390fd5b805181602001fd5b63150b7a0260e01b7bffffffffffffffffffffffffffffffffffffffffffffffffffffffff1916817bffffffffffffffffffffffffffffffffffffffffffffffffffffffff191614915050612d22565b600190505b949350505050565b606060008203612d71576040518060400160405280600181526020017f30000000000000000000000000000000000000000000000000000000000000008152509050612e85565b600082905060005b60008214612da3578080612d8c9061457b565b915050600a82612d9c9190614b6b565b9150612d79565b60008167ffffffffffffffff811115612dbf57612dbe61358f565b5b6040519080825280601f01601f191660200182016040528015612df15781602001600182028036833780820191505090505b5090505b60008514612e7e57600182612e0a91906146e7565b9150600a85612e199190614835565b6030612e25919061471b565b60f81b818381518110612e3b57612e3a61451d565b5b60200101907effffffffffffffffffffffffffffffffffffffffffffffffffffffffffffff1916908160001a905350600a85612e779190614b6b565b9450612df5565b8093505050505b919050565b600073ffffffffffffffffffffffffffffffffffffffff168273ffffffffffffffffffffffffffffffffffffffff1603612ef9576040517f08c379a0000000000000000000000000000000000000000000000000000000008152600401612ef090614be8565b60405180910390fd5b612f0281612ad2565b15612f42576040517f08c379a0000000000000000000000000000000000000000000000000000000008152600401612f3990614c54565b60405180910390fd5b612f4e60008383612b3e565b6001600360008473ffffffffffffffffffffffffffffffffffffffff1673ffffffffffffffffffffffffffffffffffffffff1681526020019081526020016000206000828254612f9e919061471b565b92505081905550816002600083815260200190815260200160002060006101000a81548173ffffffffffffffffffffffffffffffffffffffff021916908373ffffffffffffffffffffffffffffffffffffffff160217905550808273ffffffffffffffffffffffffffffffffffffffff16600073ffffffffffffffffffffffffffffffffffffffff167fddf252ad1be2c89b69c2b068fc378daa952ba7f163c4a11628f55a4df523b3ef60405160405180910390a461305f60008383612b43565b5050565b6000808273ffffffffffffffffffffffffffffffffffffffff163b119050919050565b6040518060a0016040528060608152602001600081526020016060815260200160608152602001600073ffffffffffffffffffffffffffffffffffffffff1681525090565b6000604051905090565b600080fd5b600080fd5b60007fffffffff0000000000000000000000000000000000000000000000000000000082169050919050565b613114816130df565b811461311f57600080fd5b50565b6000813590506131318161310b565b92915050565b60006020828403121561314d5761314c6130d5565b5b600061315b84828501613122565b91505092915050565b60008115159050919050565b61317981613164565b82525050565b60006020820190506131946000830184613170565b92915050565b600081519050919050565b600082825260208201905092915050565b60005b838110156131d45780820151818401526020810190506131b9565b60008484015250505050565b6000601f19601f8301169050919050565b60006131fc8261319a565b61320681856131a5565b93506132168185602086016131b6565b61321f816131e0565b840191505092915050565b6000602082019050818103600083015261324481846131f1565b905092915050565b6000819050919050565b61325f8161324c565b811461326a57600080fd5b50565b60008135905061327c81613256565b92915050565b600060208284031215613298576132976130d5565b5b60006132a68482850161326d565b91505092915050565b600073ffffffffffffffffffffffffffffffffffffffff82169050919050565b60006132da826132af565b9050919050565b6132ea816132cf565b82525050565b600060208201905061330560008301846132e1565b92915050565b613314816132cf565b811461331f57600080fd5b50565b6000813590506133318161330b565b92915050565b6000806040838503121561334e5761334d6130d5565b5b600061335c85828601613322565b925050602061336d8582860161326d565b9150509250929050565b600080fd5b600080fd5b600080fd5b60008083601f84011261339c5761339b613377565b5b8235905067ffffffffffffffff8111156133b9576133b861337c565b5b6020830191508360018202830111156133d5576133d4613381565b5b9250929050565b600080602083850312156133f3576133f26130d5565b5b600083013567ffffffffffffffff811115613411576134106130da565b5b61341d85828601613386565b92509250509250929050565b600082825260208201905092915050565b60006134458261319a565b61344f8185613429565b935061345f8185602086016131b6565b613468816131e0565b840191505092915050565b61347c8161324c565b82525050565b61348b816132cf565b82525050565b600060a08301600083015184820360008601526134ae828261343a565b91505060208301516134c36020860182613473565b50604083015184820360408601526134db828261343a565b915050606083015184820360608601526134f5828261343a565b915050608083015161350a6080860182613482565b508091505092915050565b6000602082019050818103600083015261352f8184613491565b905092915050565b6000806000606084860312156135505761354f6130d5565b5b600061355e86828701613322565b935050602061356f86828701613322565b92505060406135808682870161326d565b9150509250925092565b600080fd5b7f4e487b7100000000000000000000000000000000000000000000000000000000600052604160045260246000fd5b6135c7826131e0565b810181811067ffffffffffffffff821117156135e6576135e561358f565b5b80604052505050565b60006135f96130cb565b905061360582826135be565b919050565b600067ffffffffffffffff8211156136255761362461358f565b5b61362e826131e0565b9050602081019050919050565b82818337600083830152505050565b600061365d6136588461360a565b6135ef565b9050828152602081018484840111156136795761367861358a565b5b61368484828561363b565b509392505050565b600082601f8301126136a1576136a0613377565b5b81356136b184826020860161364a565b91505092915050565b6000602082840312156136d0576136cf6130d5565b5b600082013567ffffffffffffffff8111156136ee576136ed6130da565b5b6136fa8482850161368c565b91505092915050565b61370c8161324c565b82525050565b600060a082019050818103600083015261372c81886131f1565b905061373b6020830187613703565b818103604083015261374d81866131f1565b9050818103606083015261376181856131f1565b905061377060808301846132e1565b9695505050505050565b600080600080600060608688031215613796576137956130d5565b5b600086013567ffffffffffffffff8111156137b4576137b36130da565b5b6137c088828901613386565b9550955050602086013567ffffffffffffffff8111156137e3576137e26130da565b5b6137ef88828901613386565b935093505060406138028882890161326d565b9150509295509295909350565b600060208284031215613825576138246130d5565b5b600061383384828501613322565b91505092915050565b60006020820190506138516000830184613703565b92915050565b61386081613164565b811461386b57600080fd5b50565b60008135905061387d81613857565b92915050565b6000806040838503121561389a576138996130d5565b5b60006138a885828601613322565b92505060206138b98582860161386e565b9150509250929050565b600067ffffffffffffffff8211156138de576138dd61358f565b5b6138e7826131e0565b9050602081019050919050565b6000613907613902846138c3565b6135ef565b9050828152602081018484840111156139235761392261358a565b5b61392e84828561363b565b509392505050565b600082601f83011261394b5761394a613377565b5b813561395b8482602086016138f4565b91505092915050565b6000806000806080858703121561397e5761397d6130d5565b5b600061398c87828801613322565b945050602061399d87828801613322565b93505060406139ae8782880161326d565b925050606085013567ffffffffffffffff8111156139cf576139ce6130da565b5b6139db87828801613936565b91505092959194509250565b600080604083850312156139fe576139fd6130d5565b5b6000613a0c85828601613322565b9250506020613a1d85828601613322565b9150509250929050565b600081519050919050565b600082825260208201905092915050565b6000819050602082019050919050565b6000613a5f838361343a565b905092915050565b6000602082019050919050565b6000613a7f82613a27565b613a898185613a32565b935083602082028501613a9b85613a43565b8060005b85811015613ad75784840389528151613ab88582613a53565b9450613ac383613a67565b925060208a01995050600181019050613a9f565b50829750879550505050505092915050565b60006020820190508181036000830152613b038184613a74565b905092915050565b7f4e487b7100000000000000000000000000000000000000000000000000000000600052602260045260246000fd5b60006002820490506001821680613b5257607f821691505b602082108103613b6557613b64613b0b565b5b50919050565b7f4552433732313a20617070726f76616c20746f2063757272656e74206f776e6560008201527f7200000000000000000000000000000000000000000000000000000000000000602082015250565b6000613bc76021836131a5565b9150613bd282613b6b565b604082019050919050565b60006020820190508181036000830152613bf681613bba565b9050919050565b7f4552433732313a20617070726f76652063616c6c6572206973206e6f7420746f60008201527f6b656e206f776e6572206e6f7220617070726f76656420666f7220616c6c0000602082015250565b6000613c59603e836131a5565b9150613c6482613bfd565b604082019050919050565b60006020820190508181036000830152613c8881613c4c565b9050919050565b600081905092915050565b6000613ca68385613c8f565b9350613cb383858461363b565b82840190509392505050565b6000613ccc828486613c9a565b91508190509392505050565b7f4552433732313a2063616c6c6572206973206e6f7420746f6b656e206f776e6560008201527f72206e6f7220617070726f766564000000000000000000000000000000000000602082015250565b6000613d34602e836131a5565b9150613d3f82613cd8565b604082019050919050565b60006020820190508181036000830152613d6381613d27565b9050919050565b600081905092915050565b50565b6000613d85600083613d6a565b9150613d9082613d75565b600082019050919050565b6000613da682613d78565b9150819050919050565b7f4661696c656420746f207769746864726177204d617469630000000000000000600082015250565b6000613de66018836131a5565b9150613df182613db0565b602082019050919050565b60006020820190508181036000830152613e1581613dd9565b9050919050565b7f4552433732313a20696e76616c696420746f6b656e2049440000000000000000600082015250565b6000613e526018836131a5565b9150613e5d82613e1c565b602082019050919050565b60006020820190508181036000830152613e8181613e45565b9050919050565b7f4e616d6520616c72656164792065786973747300000000000000000000000000600082015250565b6000613ebe6013836131a5565b9150613ec982613e88565b602082019050919050565b60006020820190508181036000830152613eed81613eb1565b9050919050565b7f496e76616c6964206e616d650000000000000000000000000000000000000000600082015250565b6000613f2a600c836131a5565b9150613f3582613ef4565b602082019050919050565b60006020820190508181036000830152613f5981613f1d565b9050919050565b7f4164647265737320616c7265616479206170706c696564000000000000000000600082015250565b6000613f966017836131a5565b9150613fa182613f60565b602082019050919050565b60006020820190508181036000830152613fc581613f89565b9050919050565b7f4e6f7420656e6f756768204d6174696320706169640000000000000000000000600082015250565b60006140026015836131a5565b915061400d82613fcc565b602082019050919050565b6000602082019050818103600083015261403181613ff5565b9050919050565b7f2e00000000000000000000000000000000000000000000000000000000000000600082015250565b600061406e600183613c8f565b915061407982614038565b600182019050919050565b600061408f8261319a565b6140998185613c8f565b93506140a98185602086016131b6565b80840191505092915050565b60006140c2828688613c9a565b91506140cd82614061565b91506140d98285614084565b91506140e482614061565b91506140f08284614084565b915081905095945050505050565b7f697066733a2f2f00000000000000000000000000000000000000000000000000600082015250565b6000614134600783613c8f565b915061413f826140fe565b600782019050919050565b600061415582614127565b91506141618284614084565b915081905092915050565b60006141788284614084565b915081905092915050565b60008190508160005260206000209050919050565b60006020601f8301049050919050565b600082821b905092915050565b6000600883026141e57fffffffffffffffffffffffffffffffffffffffffffffffffffffffffffffffff826141a8565b6141ef86836141a8565b95508019841693508086168417925050509392505050565b6000819050919050565b600061422c6142276142228461324c565b614207565b61324c565b9050919050565b6000819050919050565b61424683614211565b61425a61425282614233565b8484546141b5565b825550505050565b600090565b61426f614262565b61427a81848461423d565b505050565b5b8181101561429e57614293600082614267565b600181019050614280565b5050565b601f8211156142e3576142b481614183565b6142bd84614198565b810160208510156142cc578190505b6142e06142d885614198565b83018261427f565b50505b505050565b600082821c905092915050565b6000614306600019846008026142e8565b1980831691505092915050565b600061431f83836142f5565b9150826002028217905092915050565b6143388261319a565b67ffffffffffffffff8111156143515761435061358f565b5b61435b8254613b3a565b6143668282856142a2565b600060209050601f8311600181146143995760008415614387578287015190505b6143918582614313565b8655506143f9565b601f1984166143a786614183565b60005b828110156143cf578489015182556001820191506020850194506020810190506143aa565b868310156143ec57848901516143e8601f8916826142f5565b8355505b6001600288020188555050505b505050505050565b600061440d83856131a5565b935061441a83858461363b565b614423836131e0565b840190509392505050565b60006040820190508181036000830152614449818587614401565b9050818103602083015261445d81846131f1565b9050949350505050565b7f4552433732313a2061646472657373207a65726f206973206e6f74206120766160008201527f6c6964206f776e65720000000000000000000000000000000000000000000000602082015250565b60006144c36029836131a5565b91506144ce82614467565b604082019050919050565b600060208201905081810360008301526144f2816144b6565b9050919050565b60006145058285614084565b91506145118284614084565b91508190509392505050565b7f4e487b7100000000000000000000000000000000000000000000000000000000600052603260045260246000fd5b7f4e487b7100000000000000000000000000000000000000000000000000000000600052601160045260246000fd5b60006145868261324c565b91507fffffffffffffffffffffffffffffffffffffffffffffffffffffffffffffffff82036145b8576145b761454c565b5b600182019050919050565b7f4552433732313a207472616e736665722066726f6d20696e636f72726563742060008201527f6f776e6572000000000000000000000000000000000000000000000000000000602082015250565b600061461f6025836131a5565b915061462a826145c3565b604082019050919050565b6000602082019050818103600083015261464e81614612565b9050919050565b7f4552433732313a207472616e7366657220746f20746865207a65726f2061646460008201527f7265737300000000000000000000000000000000000000000000000000000000602082015250565b60006146b16024836131a5565b91506146bc82614655565b604082019050919050565b600060208201905081810360008301526146e0816146a4565b9050919050565b60006146f28261324c565b91506146fd8361324c565b92508282039050818111156147155761471461454c565b5b92915050565b60006147268261324c565b91506147318361324c565b92508282019050808211156147495761474861454c565b5b92915050565b6000819050919050565b61476a6147658261324c565b61474f565b82525050565b60008160601b9050919050565b600061478882614770565b9050919050565b600061479a8261477d565b9050919050565b6147b26147ad826132cf565b61478f565b82525050565b60006147c48287614759565b6020820191506147d48286614759565b6020820191506147e48285614759565b6020820191506147f482846147a1565b60148201915081905095945050505050565b7f4e487b7100000000000000000000000000000000000000000000000000000000600052601260045260246000fd5b60006148408261324c565b915061484b8361324c565b92508261485b5761485a614806565b5b828206905092915050565b7f45524337323155524953746f726167653a2055524920736574206f66206e6f6e60008201527f6578697374656e7420746f6b656e000000000000000000000000000000000000602082015250565b60006148c2602e836131a5565b91506148cd82614866565b604082019050919050565b600060208201905081810360008301526148f1816148b5565b9050919050565b7f4e6f207065726d697373696f6e20746f206d6f6469667920746865207265636f60008201527f7264000000000000000000000000000000000000000000000000000000000000602082015250565b60006149546022836131a5565b915061495f826148f8565b604082019050919050565b6000602082019050818103600083015261498381614947565b9050919050565b7f4552433732313a20617070726f766520746f2063616c6c657200000000000000600082015250565b60006149c06019836131a5565b91506149cb8261498a565b602082019050919050565b600060208201905081810360008301526149ef816149b3565b9050919050565b7f4552433732313a207472616e7366657220746f206e6f6e20455243373231526560008201527f63656976657220696d706c656d656e7465720000000000000000000000000000602082015250565b6000614a526032836131a5565b9150614a5d826149f6565b604082019050919050565b60006020820190508181036000830152614a8181614a45565b9050919050565b600081519050919050565b600082825260208201905092915050565b6000614aaf82614a88565b614ab98185614a93565b9350614ac98185602086016131b6565b614ad2816131e0565b840191505092915050565b6000608082019050614af260008301876132e1565b614aff60208301866132e1565b614b0c6040830185613703565b8181036060830152614b1e8184614aa4565b905095945050505050565b600081519050614b388161310b565b92915050565b600060208284031215614b5457614b536130d5565b5b6000614b6284828501614b29565b91505092915050565b6000614b768261324c565b9150614b818361324c565b925082614b9157614b90614806565b5b828204905092915050565b7f4552433732313a206d696e7420746f20746865207a65726f2061646472657373600082015250565b6000614bd26020836131a5565b9150614bdd82614b9c565b602082019050919050565b60006020820190508181036000830152614c0181614bc5565b9050919050565b7f4552433732313a20746f6b656e20616c7265616479206d696e74656400000000600082015250565b6000614c3e601c836131a5565b9150614c4982614c08565b602082019050919050565b60006020820190508181036000830152614c6d81614c31565b905091905056fe516d5a455a31457035776743556b567a33314133474c54526b524b34576670416e335a43585a664d367673414868516d5a4c77724d707a55417534674a453972595a53727331374e767548324539695859655279584465416144444d516d6275357756583479726d7854384650477042767456624762344a71644d76715747596d623131314541557675516d6445765177527741685a456d57615955656777634a73357479565557513345617a4b7831435436646135557aa2646970667358221220a21f73cc125e9e00ad758d860ed99ce8a030fb95e445cbfc37d48af91398575b64736f6c63430008110033","opcodes":"PUSH1 0x80 PUSH1 0x40 MSTORE PUSH7 0x38D7EA4C68000 PUSH1 0x8 SSTORE PUSH1 0x40 MLOAD DUP1 PUSH1 0x40 ADD PUSH1 0x40 MSTORE DUP1 PUSH1 0x19 DUP2 MSTORE PUSH1 0x20 ADD PUSH32 0x486F6777617274732053747564656E7473205365727669636500000000000000 DUP2 MSTORE POP PUSH1 0x40 MLOAD DUP1 PUSH1 0x40 ADD PUSH1 0x40 MSTORE DUP1 PUSH1 0x3 DUP2 MSTORE PUSH1 0x20 ADD PUSH32 0x4853530000000000000000000000000000000000000000000000000000000000 DUP2 MSTORE POP DUP2 PUSH1 0x0 SWAP1 DUP2 PUSH3 0x8C SWAP2 SWAP1 PUSH3 0x362 JUMP JUMPDEST POP DUP1 PUSH1 0x1 SWAP1 DUP2 PUSH3 0x9E SWAP2 SWAP1 PUSH3 0x362 JUMP JUMPDEST POP POP POP CALLER PUSH1 0x9 PUSH1 0x0 PUSH2 0x100 EXP DUP2 SLOAD DUP2 PUSH20 0xFFFFFFFFFFFFFFFFFFFFFFFFFFFFFFFFFFFFFFFF MUL NOT AND SWAP1 DUP4 PUSH20 0xFFFFFFFFFFFFFFFFFFFFFFFFFFFFFFFFFFFFFFFF AND MUL OR SWAP1 SSTORE POP PUSH3 0x449 JUMP JUMPDEST PUSH1 0x0 DUP2 MLOAD SWAP1 POP SWAP2 SWAP1 POP JUMP JUMPDEST PUSH32 0x4E487B7100000000000000000000000000000000000000000000000000000000 PUSH1 0x0 MSTORE PUSH1 0x41 PUSH1 0x4 MSTORE PUSH1 0x24 PUSH1 0x0 REVERT JUMPDEST PUSH32 0x4E487B7100000000000000000000000000000000000000000000000000000000 PUSH1 0x0 MSTORE PUSH1 0x22 PUSH1 0x4 MSTORE PUSH1 0x24 PUSH1 0x0 REVERT JUMPDEST PUSH1 0x0 PUSH1 0x2 DUP3 DIV SWAP1 POP PUSH1 0x1 DUP3 AND DUP1 PUSH3 0x16A JUMPI PUSH1 0x7F DUP3 AND SWAP2 POP JUMPDEST PUSH1 0x20 DUP3 LT DUP2 SUB PUSH3 0x180 JUMPI PUSH3 0x17F PUSH3 0x122 JUMP JUMPDEST JUMPDEST POP SWAP2 SWAP1 POP JUMP JUMPDEST PUSH1 0x0 DUP2 SWAP1 POP DUP2 PUSH1 0x0 MSTORE PUSH1 0x20 PUSH1 0x0 KECCAK256 SWAP1 POP SWAP2 SWAP1 POP JUMP JUMPDEST PUSH1 0x0 PUSH1 0x20 PUSH1 0x1F DUP4 ADD DIV SWAP1 POP SWAP2 SWAP1 POP JUMP JUMPDEST PUSH1 0x0 DUP3 DUP3 SHL SWAP1 POP SWAP3 SWAP2 POP POP JUMP JUMPDEST PUSH1 0x0 PUSH1 0x8 DUP4 MUL PUSH3 0x1EA PUSH32 0xFFFFFFFFFFFFFFFFFFFFFFFFFFFFFFFFFFFFFFFFFFFFFFFFFFFFFFFFFFFFFFFF DUP3 PUSH3 0x1AB JUMP JUMPDEST PUSH3 0x1F6 DUP7 DUP4 PUSH3 0x1AB JUMP JUMPDEST SWAP6 POP DUP1 NOT DUP5 AND SWAP4 POP DUP1 DUP7 AND DUP5 OR SWAP3 POP POP POP SWAP4 SWAP3 POP POP POP JUMP JUMPDEST PUSH1 0x0 DUP2 SWAP1 POP SWAP2 SWAP1 POP JUMP JUMPDEST PUSH1 0x0 DUP2 SWAP1 POP SWAP2 SWAP1 POP JUMP JUMPDEST PUSH1 0x0 PUSH3 0x243 PUSH3 0x23D PUSH3 0x237 DUP5 PUSH3 0x20E JUMP JUMPDEST PUSH3 0x218 JUMP JUMPDEST PUSH3 0x20E JUMP JUMPDEST SWAP1 POP SWAP2 SWAP1 POP JUMP JUMPDEST PUSH1 0x0 DUP2 SWAP1 POP SWAP2 SWAP1 POP JUMP JUMPDEST PUSH3 0x25F DUP4 PUSH3 0x222 JUMP JUMPDEST PUSH3 0x277 PUSH3 0x26E DUP3 PUSH3 0x24A JUMP JUMPDEST DUP5 DUP5 SLOAD PUSH3 0x1B8 JUMP JUMPDEST DUP3 SSTORE POP POP POP POP JUMP JUMPDEST PUSH1 0x0 SWAP1 JUMP JUMPDEST PUSH3 0x28E PUSH3 0x27F JUMP JUMPDEST PUSH3 0x29B DUP2 DUP5 DUP5 PUSH3 0x254 JUMP JUMPDEST POP POP POP JUMP JUMPDEST JUMPDEST DUP2 DUP2 LT ISZERO PUSH3 0x2C3 JUMPI PUSH3 0x2B7 PUSH1 0x0 DUP3 PUSH3 0x284 JUMP JUMPDEST PUSH1 0x1 DUP2 ADD SWAP1 POP PUSH3 0x2A1 JUMP JUMPDEST POP POP JUMP JUMPDEST PUSH1 0x1F DUP3 GT ISZERO PUSH3 0x312 JUMPI PUSH3 0x2DC DUP2 PUSH3 0x186 JUMP JUMPDEST PUSH3 0x2E7 DUP5 PUSH3 0x19B JUMP JUMPDEST DUP2 ADD PUSH1 0x20 DUP6 LT ISZERO PUSH3 0x2F7 JUMPI DUP2 SWAP1 POP JUMPDEST PUSH3 0x30F PUSH3 0x306 DUP6 PUSH3 0x19B JUMP JUMPDEST DUP4 ADD DUP3 PUSH3 0x2A0 JUMP JUMPDEST POP POP JUMPDEST POP POP POP JUMP JUMPDEST PUSH1 0x0 DUP3 DUP3 SHR SWAP1 POP SWAP3 SWAP2 POP POP JUMP JUMPDEST PUSH1 0x0 PUSH3 0x337 PUSH1 0x0 NOT DUP5 PUSH1 0x8 MUL PUSH3 0x317 JUMP JUMPDEST NOT DUP1 DUP4 AND SWAP2 POP POP SWAP3 SWAP2 POP POP JUMP JUMPDEST PUSH1 0x0 PUSH3 0x352 DUP4 DUP4 PUSH3 0x324 JUMP JUMPDEST SWAP2 POP DUP3 PUSH1 0x2 MUL DUP3 OR SWAP1 POP SWAP3 SWAP2 POP POP JUMP JUMPDEST PUSH3 0x36D DUP3 PUSH3 0xE8 JUMP JUMPDEST PUSH8 0xFFFFFFFFFFFFFFFF DUP2 GT ISZERO PUSH3 0x389 JUMPI PUSH3 0x388 PUSH3 0xF3 JUMP JUMPDEST JUMPDEST PUSH3 0x395 DUP3 SLOAD PUSH3 0x151 JUMP JUMPDEST PUSH3 0x3A2 DUP3 DUP3 DUP6 PUSH3 0x2C7 JUMP JUMPDEST PUSH1 0x0 PUSH1 0x20 SWAP1 POP PUSH1 0x1F DUP4 GT PUSH1 0x1 DUP2 EQ PUSH3 0x3DA JUMPI PUSH1 0x0 DUP5 ISZERO PUSH3 0x3C5 JUMPI DUP3 DUP8 ADD MLOAD SWAP1 POP JUMPDEST PUSH3 0x3D1 DUP6 DUP3 PUSH3 0x344 JUMP JUMPDEST DUP7 SSTORE POP PUSH3 0x441 JUMP JUMPDEST PUSH1 0x1F NOT DUP5 AND PUSH3 0x3EA DUP7 PUSH3 0x186 JUMP JUMPDEST PUSH1 0x0 JUMPDEST DUP3 DUP2 LT ISZERO PUSH3 0x414 JUMPI DUP5 DUP10 ADD MLOAD DUP3 SSTORE PUSH1 0x1 DUP3 ADD SWAP2 POP PUSH1 0x20 DUP6 ADD SWAP5 POP PUSH1 0x20 DUP2 ADD SWAP1 POP PUSH3 0x3ED JUMP JUMPDEST DUP7 DUP4 LT ISZERO PUSH3 0x434 JUMPI DUP5 DUP10 ADD MLOAD PUSH3 0x430 PUSH1 0x1F DUP10 AND DUP3 PUSH3 0x324 JUMP JUMPDEST DUP4 SSTORE POP JUMPDEST PUSH1 0x1 PUSH1 0x2 DUP9 MUL ADD DUP9 SSTORE POP POP POP JUMPDEST POP POP POP POP POP POP JUMP JUMPDEST PUSH2 0x4D62 DUP1 PUSH3 0x459 PUSH1 0x0 CODECOPY PUSH1 0x0 RETURN INVALID PUSH1 0x80 PUSH1 0x40 MSTORE PUSH1 0x4 CALLDATASIZE LT PUSH2 0x1EE JUMPI PUSH1 0x0 CALLDATALOAD PUSH1 0xE0 SHR DUP1 PUSH4 0x68BD026C GT PUSH2 0x10D JUMPI DUP1 PUSH4 0xABE50FA6 GT PUSH2 0xA0 JUMPI DUP1 PUSH4 0xC9B4C160 GT PUSH2 0x6F JUMPI DUP1 PUSH4 0xC9B4C160 EQ PUSH2 0x756 JUMPI DUP1 PUSH4 0xE985E9C5 EQ PUSH2 0x781 JUMPI DUP1 PUSH4 0xF61722DC EQ PUSH2 0x7BE JUMPI DUP1 PUSH4 0xFA626F6B EQ PUSH2 0x7E9 JUMPI DUP1 PUSH4 0xFB825E5F EQ PUSH2 0x814 JUMPI PUSH2 0x1EE JUMP JUMPDEST DUP1 PUSH4 0xABE50FA6 EQ PUSH2 0x676 JUMPI DUP1 PUSH4 0xB88D4FDE EQ PUSH2 0x6B3 JUMPI DUP1 PUSH4 0xBF40FAC1 EQ PUSH2 0x6DC JUMPI DUP1 PUSH4 0xC87B56DD EQ PUSH2 0x719 JUMPI PUSH2 0x1EE JUMP JUMPDEST DUP1 PUSH4 0x8F32D59B GT PUSH2 0xDC JUMPI DUP1 PUSH4 0x8F32D59B EQ PUSH2 0x5BA JUMPI DUP1 PUSH4 0x95D89B41 EQ PUSH2 0x5E5 JUMPI DUP1 PUSH4 0x9791C097 EQ PUSH2 0x610 JUMPI DUP1 PUSH4 0xA22CB465 EQ PUSH2 0x64D JUMPI PUSH2 0x1EE JUMP JUMPDEST DUP1 PUSH4 0x68BD026C EQ PUSH2 0x50B JUMPI DUP1 PUSH4 0x70A08231 EQ PUSH2 0x527 JUMPI DUP1 PUSH4 0x73EEA211 EQ PUSH2 0x564 JUMPI DUP1 PUSH4 0x7DDD5DD8 EQ PUSH2 0x58F JUMPI PUSH2 0x1EE JUMP JUMPDEST DUP1 PUSH4 0x2D551432 GT PUSH2 0x185 JUMPI DUP1 PUSH4 0x537BD371 GT PUSH2 0x154 JUMPI DUP1 PUSH4 0x537BD371 EQ PUSH2 0x437 JUMPI DUP1 PUSH4 0x541E771D EQ PUSH2 0x462 JUMPI DUP1 PUSH4 0x5BF1D9DC EQ PUSH2 0x4A3 JUMPI DUP1 PUSH4 0x6352211E EQ PUSH2 0x4CE JUMPI PUSH2 0x1EE JUMP JUMPDEST DUP1 PUSH4 0x2D551432 EQ PUSH2 0x38F JUMPI DUP1 PUSH4 0x3CCFD60B EQ PUSH2 0x3BA JUMPI DUP1 PUSH4 0x42842E0E EQ PUSH2 0x3D1 JUMPI DUP1 PUSH4 0x4622AB03 EQ PUSH2 0x3FA JUMPI PUSH2 0x1EE JUMP JUMPDEST DUP1 PUSH4 0x95EA7B3 GT PUSH2 0x1C1 JUMPI DUP1 PUSH4 0x95EA7B3 EQ PUSH2 0x2C3 JUMPI DUP1 PUSH4 0x11DD8845 EQ PUSH2 0x2EC JUMPI DUP1 PUSH4 0x23B872DD EQ PUSH2 0x329 JUMPI DUP1 PUSH4 0x26449235 EQ PUSH2 0x352 JUMPI PUSH2 0x1EE JUMP JUMPDEST DUP1 PUSH4 0x1FFC9A7 EQ PUSH2 0x1F3 JUMPI DUP1 PUSH4 0x6FDDE03 EQ PUSH2 0x230 JUMPI DUP1 PUSH4 0x81812FC EQ PUSH2 0x25B JUMPI DUP1 PUSH4 0x8B13A1D EQ PUSH2 0x298 JUMPI JUMPDEST PUSH1 0x0 DUP1 REVERT JUMPDEST CALLVALUE DUP1 ISZERO PUSH2 0x1FF JUMPI PUSH1 0x0 DUP1 REVERT JUMPDEST POP PUSH2 0x21A PUSH1 0x4 DUP1 CALLDATASIZE SUB DUP2 ADD SWAP1 PUSH2 0x215 SWAP2 SWAP1 PUSH2 0x3137 JUMP JUMPDEST PUSH2 0x83F JUMP JUMPDEST PUSH1 0x40 MLOAD PUSH2 0x227 SWAP2 SWAP1 PUSH2 0x317F JUMP JUMPDEST PUSH1 0x40 MLOAD DUP1 SWAP2 SUB SWAP1 RETURN JUMPDEST CALLVALUE DUP1 ISZERO PUSH2 0x23C JUMPI PUSH1 0x0 DUP1 REVERT JUMPDEST POP PUSH2 0x245 PUSH2 0x921 JUMP JUMPDEST PUSH1 0x40 MLOAD PUSH2 0x252 SWAP2 SWAP1 PUSH2 0x322A JUMP JUMPDEST PUSH1 0x40 MLOAD DUP1 SWAP2 SUB SWAP1 RETURN JUMPDEST CALLVALUE DUP1 ISZERO PUSH2 0x267 JUMPI PUSH1 0x0 DUP1 REVERT JUMPDEST POP PUSH2 0x282 PUSH1 0x4 DUP1 CALLDATASIZE SUB DUP2 ADD SWAP1 PUSH2 0x27D SWAP2 SWAP1 PUSH2 0x3282 JUMP JUMPDEST PUSH2 0x9B3 JUMP JUMPDEST PUSH1 0x40 MLOAD PUSH2 0x28F SWAP2 SWAP1 PUSH2 0x32F0 JUMP JUMPDEST PUSH1 0x40 MLOAD DUP1 SWAP2 SUB SWAP1 RETURN JUMPDEST CALLVALUE DUP1 ISZERO PUSH2 0x2A4 JUMPI PUSH1 0x0 DUP1 REVERT JUMPDEST POP PUSH2 0x2AD PUSH2 0x9F9 JUMP JUMPDEST PUSH1 0x40 MLOAD PUSH2 0x2BA SWAP2 SWAP1 PUSH2 0x322A JUMP JUMPDEST PUSH1 0x40 MLOAD DUP1 SWAP2 SUB SWAP1 RETURN JUMPDEST CALLVALUE DUP1 ISZERO PUSH2 0x2CF JUMPI PUSH1 0x0 DUP1 REVERT JUMPDEST POP PUSH2 0x2EA PUSH1 0x4 DUP1 CALLDATASIZE SUB DUP2 ADD SWAP1 PUSH2 0x2E5 SWAP2 SWAP1 PUSH2 0x3337 JUMP JUMPDEST PUSH2 0xA32 JUMP JUMPDEST STOP JUMPDEST CALLVALUE DUP1 ISZERO PUSH2 0x2F8 JUMPI PUSH1 0x0 DUP1 REVERT JUMPDEST POP PUSH2 0x313 PUSH1 0x4 DUP1 CALLDATASIZE SUB DUP2 ADD SWAP1 PUSH2 0x30E SWAP2 SWAP1 PUSH2 0x33DC JUMP JUMPDEST PUSH2 0xB49 JUMP JUMPDEST PUSH1 0x40 MLOAD PUSH2 0x320 SWAP2 SWAP1 PUSH2 0x3515 JUMP JUMPDEST PUSH1 0x40 MLOAD DUP1 SWAP2 SUB SWAP1 RETURN JUMPDEST CALLVALUE DUP1 ISZERO PUSH2 0x335 JUMPI PUSH1 0x0 DUP1 REVERT JUMPDEST POP PUSH2 0x350 PUSH1 0x4 DUP1 CALLDATASIZE SUB DUP2 ADD SWAP1 PUSH2 0x34B SWAP2 SWAP1 PUSH2 0x3537 JUMP JUMPDEST PUSH2 0xD9A JUMP JUMPDEST STOP JUMPDEST CALLVALUE DUP1 ISZERO PUSH2 0x35E JUMPI PUSH1 0x0 DUP1 REVERT JUMPDEST POP PUSH2 0x379 PUSH1 0x4 DUP1 CALLDATASIZE SUB DUP2 ADD SWAP1 PUSH2 0x374 SWAP2 SWAP1 PUSH2 0x36BA JUMP JUMPDEST PUSH2 0xDFA JUMP JUMPDEST PUSH1 0x40 MLOAD PUSH2 0x386 SWAP2 SWAP1 PUSH2 0x32F0 JUMP JUMPDEST PUSH1 0x40 MLOAD DUP1 SWAP2 SUB SWAP1 RETURN JUMPDEST CALLVALUE DUP1 ISZERO PUSH2 0x39B JUMPI PUSH1 0x0 DUP1 REVERT JUMPDEST POP PUSH2 0x3A4 PUSH2 0xE43 JUMP JUMPDEST PUSH1 0x40 MLOAD PUSH2 0x3B1 SWAP2 SWAP1 PUSH2 0x322A JUMP JUMPDEST PUSH1 0x40 MLOAD DUP1 SWAP2 SUB SWAP1 RETURN JUMPDEST CALLVALUE DUP1 ISZERO PUSH2 0x3C6 JUMPI PUSH1 0x0 DUP1 REVERT JUMPDEST POP PUSH2 0x3CF PUSH2 0xE7C JUMP JUMPDEST STOP JUMPDEST CALLVALUE DUP1 ISZERO PUSH2 0x3DD JUMPI PUSH1 0x0 DUP1 REVERT JUMPDEST POP PUSH2 0x3F8 PUSH1 0x4 DUP1 CALLDATASIZE SUB DUP2 ADD SWAP1 PUSH2 0x3F3 SWAP2 SWAP1 PUSH2 0x3537 JUMP JUMPDEST PUSH2 0xF42 JUMP JUMPDEST STOP JUMPDEST CALLVALUE DUP1 ISZERO PUSH2 0x406 JUMPI PUSH1 0x0 DUP1 REVERT JUMPDEST POP PUSH2 0x421 PUSH1 0x4 DUP1 CALLDATASIZE SUB DUP2 ADD SWAP1 PUSH2 0x41C SWAP2 SWAP1 PUSH2 0x3282 JUMP JUMPDEST PUSH2 0xF62 JUMP JUMPDEST PUSH1 0x40 MLOAD PUSH2 0x42E SWAP2 SWAP1 PUSH2 0x322A JUMP JUMPDEST PUSH1 0x40 MLOAD DUP1 SWAP2 SUB SWAP1 RETURN JUMPDEST CALLVALUE DUP1 ISZERO PUSH2 0x443 JUMPI PUSH1 0x0 DUP1 REVERT JUMPDEST POP PUSH2 0x44C PUSH2 0x1002 JUMP JUMPDEST PUSH1 0x40 MLOAD PUSH2 0x459 SWAP2 SWAP1 PUSH2 0x322A JUMP JUMPDEST PUSH1 0x40 MLOAD DUP1 SWAP2 SUB SWAP1 RETURN JUMPDEST CALLVALUE DUP1 ISZERO PUSH2 0x46E JUMPI PUSH1 0x0 DUP1 REVERT JUMPDEST POP PUSH2 0x489 PUSH1 0x4 DUP1 CALLDATASIZE SUB DUP2 ADD SWAP1 PUSH2 0x484 SWAP2 SWAP1 PUSH2 0x36BA JUMP JUMPDEST PUSH2 0x101E JUMP JUMPDEST PUSH1 0x40 MLOAD PUSH2 0x49A SWAP6 SWAP5 SWAP4 SWAP3 SWAP2 SWAP1 PUSH2 0x3712 JUMP JUMPDEST PUSH1 0x40 MLOAD DUP1 SWAP2 SUB SWAP1 RETURN JUMPDEST CALLVALUE DUP1 ISZERO PUSH2 0x4AF JUMPI PUSH1 0x0 DUP1 REVERT JUMPDEST POP PUSH2 0x4B8 PUSH2 0x1222 JUMP JUMPDEST PUSH1 0x40 MLOAD PUSH2 0x4C5 SWAP2 SWAP1 PUSH2 0x322A JUMP JUMPDEST PUSH1 0x40 MLOAD DUP1 SWAP2 SUB SWAP1 RETURN JUMPDEST CALLVALUE DUP1 ISZERO PUSH2 0x4DA JUMPI PUSH1 0x0 DUP1 REVERT JUMPDEST POP PUSH2 0x4F5 PUSH1 0x4 DUP1 CALLDATASIZE SUB DUP2 ADD SWAP1 PUSH2 0x4F0 SWAP2 SWAP1 PUSH2 0x3282 JUMP JUMPDEST PUSH2 0x123E JUMP JUMPDEST PUSH1 0x40 MLOAD PUSH2 0x502 SWAP2 SWAP1 PUSH2 0x32F0 JUMP JUMPDEST PUSH1 0x40 MLOAD DUP1 SWAP2 SUB SWAP1 RETURN JUMPDEST PUSH2 0x525 PUSH1 0x4 DUP1 CALLDATASIZE SUB DUP2 ADD SWAP1 PUSH2 0x520 SWAP2 SWAP1 PUSH2 0x377A JUMP JUMPDEST PUSH2 0x12EF JUMP JUMPDEST STOP JUMPDEST CALLVALUE DUP1 ISZERO PUSH2 0x533 JUMPI PUSH1 0x0 DUP1 REVERT JUMPDEST POP PUSH2 0x54E PUSH1 0x4 DUP1 CALLDATASIZE SUB DUP2 ADD SWAP1 PUSH2 0x549 SWAP2 SWAP1 PUSH2 0x380F JUMP JUMPDEST PUSH2 0x16C0 JUMP JUMPDEST PUSH1 0x40 MLOAD PUSH2 0x55B SWAP2 SWAP1 PUSH2 0x383C JUMP JUMPDEST PUSH1 0x40 MLOAD DUP1 SWAP2 SUB SWAP1 RETURN JUMPDEST CALLVALUE DUP1 ISZERO PUSH2 0x570 JUMPI PUSH1 0x0 DUP1 REVERT JUMPDEST POP PUSH2 0x579 PUSH2 0x1777 JUMP JUMPDEST PUSH1 0x40 MLOAD PUSH2 0x586 SWAP2 SWAP1 PUSH2 0x322A JUMP JUMPDEST PUSH1 0x40 MLOAD DUP1 SWAP2 SUB SWAP1 RETURN JUMPDEST CALLVALUE DUP1 ISZERO PUSH2 0x59B JUMPI PUSH1 0x0 DUP1 REVERT JUMPDEST POP PUSH2 0x5A4 PUSH2 0x17B0 JUMP JUMPDEST PUSH1 0x40 MLOAD PUSH2 0x5B1 SWAP2 SWAP1 PUSH2 0x322A JUMP JUMPDEST PUSH1 0x40 MLOAD DUP1 SWAP2 SUB SWAP1 RETURN JUMPDEST CALLVALUE DUP1 ISZERO PUSH2 0x5C6 JUMPI PUSH1 0x0 DUP1 REVERT JUMPDEST POP PUSH2 0x5CF PUSH2 0x17E9 JUMP JUMPDEST PUSH1 0x40 MLOAD PUSH2 0x5DC SWAP2 SWAP1 PUSH2 0x317F JUMP JUMPDEST PUSH1 0x40 MLOAD DUP1 SWAP2 SUB SWAP1 RETURN JUMPDEST CALLVALUE DUP1 ISZERO PUSH2 0x5F1 JUMPI PUSH1 0x0 DUP1 REVERT JUMPDEST POP PUSH2 0x5FA PUSH2 0x1841 JUMP JUMPDEST PUSH1 0x40 MLOAD PUSH2 0x607 SWAP2 SWAP1 PUSH2 0x322A JUMP JUMPDEST PUSH1 0x40 MLOAD DUP1 SWAP2 SUB SWAP1 RETURN JUMPDEST CALLVALUE DUP1 ISZERO PUSH2 0x61C JUMPI PUSH1 0x0 DUP1 REVERT JUMPDEST POP PUSH2 0x637 PUSH1 0x4 DUP1 CALLDATASIZE SUB DUP2 ADD SWAP1 PUSH2 0x632 SWAP2 SWAP1 PUSH2 0x33DC JUMP JUMPDEST PUSH2 0x18D3 JUMP JUMPDEST PUSH1 0x40 MLOAD PUSH2 0x644 SWAP2 SWAP1 PUSH2 0x317F JUMP JUMPDEST PUSH1 0x40 MLOAD DUP1 SWAP2 SUB SWAP1 RETURN JUMPDEST CALLVALUE DUP1 ISZERO PUSH2 0x659 JUMPI PUSH1 0x0 DUP1 REVERT JUMPDEST POP PUSH2 0x674 PUSH1 0x4 DUP1 CALLDATASIZE SUB DUP2 ADD SWAP1 PUSH2 0x66F SWAP2 SWAP1 PUSH2 0x3883 JUMP JUMPDEST PUSH2 0x1987 JUMP JUMPDEST STOP JUMPDEST CALLVALUE DUP1 ISZERO PUSH2 0x682 JUMPI PUSH1 0x0 DUP1 REVERT JUMPDEST POP PUSH2 0x69D PUSH1 0x4 DUP1 CALLDATASIZE SUB DUP2 ADD SWAP1 PUSH2 0x698 SWAP2 SWAP1 PUSH2 0x380F JUMP JUMPDEST PUSH2 0x199D JUMP JUMPDEST PUSH1 0x40 MLOAD PUSH2 0x6AA SWAP2 SWAP1 PUSH2 0x317F JUMP JUMPDEST PUSH1 0x40 MLOAD DUP1 SWAP2 SUB SWAP1 RETURN JUMPDEST CALLVALUE DUP1 ISZERO PUSH2 0x6BF JUMPI PUSH1 0x0 DUP1 REVERT JUMPDEST POP PUSH2 0x6DA PUSH1 0x4 DUP1 CALLDATASIZE SUB DUP2 ADD SWAP1 PUSH2 0x6D5 SWAP2 SWAP1 PUSH2 0x3964 JUMP JUMPDEST PUSH2 0x19BD JUMP JUMPDEST STOP JUMPDEST CALLVALUE DUP1 ISZERO PUSH2 0x6E8 JUMPI PUSH1 0x0 DUP1 REVERT JUMPDEST POP PUSH2 0x703 PUSH1 0x4 DUP1 CALLDATASIZE SUB DUP2 ADD SWAP1 PUSH2 0x6FE SWAP2 SWAP1 PUSH2 0x33DC JUMP JUMPDEST PUSH2 0x1A1F JUMP JUMPDEST PUSH1 0x40 MLOAD PUSH2 0x710 SWAP2 SWAP1 PUSH2 0x32F0 JUMP JUMPDEST PUSH1 0x40 MLOAD DUP1 SWAP2 SUB SWAP1 RETURN JUMPDEST CALLVALUE DUP1 ISZERO PUSH2 0x725 JUMPI PUSH1 0x0 DUP1 REVERT JUMPDEST POP PUSH2 0x740 PUSH1 0x4 DUP1 CALLDATASIZE SUB DUP2 ADD SWAP1 PUSH2 0x73B SWAP2 SWAP1 PUSH2 0x3282 JUMP JUMPDEST PUSH2 0x1A6A JUMP JUMPDEST PUSH1 0x40 MLOAD PUSH2 0x74D SWAP2 SWAP1 PUSH2 0x322A JUMP JUMPDEST PUSH1 0x40 MLOAD DUP1 SWAP2 SUB SWAP1 RETURN JUMPDEST CALLVALUE DUP1 ISZERO PUSH2 0x762 JUMPI PUSH1 0x0 DUP1 REVERT JUMPDEST POP PUSH2 0x76B PUSH2 0x1B7C JUMP JUMPDEST PUSH1 0x40 MLOAD PUSH2 0x778 SWAP2 SWAP1 PUSH2 0x322A JUMP JUMPDEST PUSH1 0x40 MLOAD DUP1 SWAP2 SUB SWAP1 RETURN JUMPDEST CALLVALUE DUP1 ISZERO PUSH2 0x78D JUMPI PUSH1 0x0 DUP1 REVERT JUMPDEST POP PUSH2 0x7A8 PUSH1 0x4 DUP1 CALLDATASIZE SUB DUP2 ADD SWAP1 PUSH2 0x7A3 SWAP2 SWAP1 PUSH2 0x39E7 JUMP JUMPDEST PUSH2 0x1B98 JUMP JUMPDEST PUSH1 0x40 MLOAD PUSH2 0x7B5 SWAP2 SWAP1 PUSH2 0x317F JUMP JUMPDEST PUSH1 0x40 MLOAD DUP1 SWAP2 SUB SWAP1 RETURN JUMPDEST CALLVALUE DUP1 ISZERO PUSH2 0x7CA JUMPI PUSH1 0x0 DUP1 REVERT JUMPDEST POP PUSH2 0x7D3 PUSH2 0x1C2C JUMP JUMPDEST PUSH1 0x40 MLOAD PUSH2 0x7E0 SWAP2 SWAP1 PUSH2 0x322A JUMP JUMPDEST PUSH1 0x40 MLOAD DUP1 SWAP2 SUB SWAP1 RETURN JUMPDEST CALLVALUE DUP1 ISZERO PUSH2 0x7F5 JUMPI PUSH1 0x0 DUP1 REVERT JUMPDEST POP PUSH2 0x7FE PUSH2 0x1C48 JUMP JUMPDEST PUSH1 0x40 MLOAD PUSH2 0x80B SWAP2 SWAP1 PUSH2 0x322A JUMP JUMPDEST PUSH1 0x40 MLOAD DUP1 SWAP2 SUB SWAP1 RETURN JUMPDEST CALLVALUE DUP1 ISZERO PUSH2 0x820 JUMPI PUSH1 0x0 DUP1 REVERT JUMPDEST POP PUSH2 0x829 PUSH2 0x1C81 JUMP JUMPDEST PUSH1 0x40 MLOAD PUSH2 0x836 SWAP2 SWAP1 PUSH2 0x3AE9 JUMP JUMPDEST PUSH1 0x40 MLOAD DUP1 SWAP2 SUB SWAP1 RETURN JUMPDEST PUSH1 0x0 PUSH32 0x80AC58CD00000000000000000000000000000000000000000000000000000000 PUSH28 0xFFFFFFFFFFFFFFFFFFFFFFFFFFFFFFFFFFFFFFFFFFFFFFFFFFFFFFFF NOT AND DUP3 PUSH28 0xFFFFFFFFFFFFFFFFFFFFFFFFFFFFFFFFFFFFFFFFFFFFFFFFFFFFFFFF NOT AND EQ DUP1 PUSH2 0x90A JUMPI POP PUSH32 0x5B5E139F00000000000000000000000000000000000000000000000000000000 PUSH28 0xFFFFFFFFFFFFFFFFFFFFFFFFFFFFFFFFFFFFFFFFFFFFFFFFFFFFFFFF NOT AND DUP3 PUSH28 0xFFFFFFFFFFFFFFFFFFFFFFFFFFFFFFFFFFFFFFFFFFFFFFFFFFFFFFFF NOT AND EQ JUMPDEST DUP1 PUSH2 0x91A JUMPI POP PUSH2 0x919 DUP3 PUSH2 0x1DC7 JUMP JUMPDEST JUMPDEST SWAP1 POP SWAP2 SWAP1 POP JUMP JUMPDEST PUSH1 0x60 PUSH1 0x0 DUP1 SLOAD PUSH2 0x930 SWAP1 PUSH2 0x3B3A JUMP JUMPDEST DUP1 PUSH1 0x1F ADD PUSH1 0x20 DUP1 SWAP2 DIV MUL PUSH1 0x20 ADD PUSH1 0x40 MLOAD SWAP1 DUP2 ADD PUSH1 0x40 MSTORE DUP1 SWAP3 SWAP2 SWAP1 DUP2 DUP2 MSTORE PUSH1 0x20 ADD DUP3 DUP1 SLOAD PUSH2 0x95C SWAP1 PUSH2 0x3B3A JUMP JUMPDEST DUP1 ISZERO PUSH2 0x9A9 JUMPI DUP1 PUSH1 0x1F LT PUSH2 0x97E JUMPI PUSH2 0x100 DUP1 DUP4 SLOAD DIV MUL DUP4 MSTORE SWAP2 PUSH1 0x20 ADD SWAP2 PUSH2 0x9A9 JUMP JUMPDEST DUP3 ADD SWAP2 SWAP1 PUSH1 0x0 MSTORE PUSH1 0x20 PUSH1 0x0 KECCAK256 SWAP1 JUMPDEST DUP2 SLOAD DUP2 MSTORE SWAP1 PUSH1 0x1 ADD SWAP1 PUSH1 0x20 ADD DUP1 DUP4 GT PUSH2 0x98C JUMPI DUP3 SWAP1 SUB PUSH1 0x1F AND DUP3 ADD SWAP2 JUMPDEST POP POP POP POP POP SWAP1 POP SWAP1 JUMP JUMPDEST PUSH1 0x0 PUSH2 0x9BE DUP3 PUSH2 0x1E31 JUMP JUMPDEST PUSH1 0x4 PUSH1 0x0 DUP4 DUP2 MSTORE PUSH1 0x20 ADD SWAP1 DUP2 MSTORE PUSH1 0x20 ADD PUSH1 0x0 KECCAK256 PUSH1 0x0 SWAP1 SLOAD SWAP1 PUSH2 0x100 EXP SWAP1 DIV PUSH20 0xFFFFFFFFFFFFFFFFFFFFFFFFFFFFFFFFFFFFFFFF AND SWAP1 POP SWAP2 SWAP1 POP JUMP JUMPDEST PUSH1 0x40 MLOAD DUP1 PUSH1 0x40 ADD PUSH1 0x40 MSTORE DUP1 PUSH1 0xA DUP2 MSTORE PUSH1 0x20 ADD PUSH32 0x687566666C657075666600000000000000000000000000000000000000000000 DUP2 MSTORE POP DUP2 JUMP JUMPDEST PUSH1 0x0 PUSH2 0xA3D DUP3 PUSH2 0x123E JUMP JUMPDEST SWAP1 POP DUP1 PUSH20 0xFFFFFFFFFFFFFFFFFFFFFFFFFFFFFFFFFFFFFFFF AND DUP4 PUSH20 0xFFFFFFFFFFFFFFFFFFFFFFFFFFFFFFFFFFFFFFFF AND SUB PUSH2 0xAAD JUMPI PUSH1 0x40 MLOAD PUSH32 0x8C379A000000000000000000000000000000000000000000000000000000000 DUP2 MSTORE PUSH1 0x4 ADD PUSH2 0xAA4 SWAP1 PUSH2 0x3BDD JUMP JUMPDEST PUSH1 0x40 MLOAD DUP1 SWAP2 SUB SWAP1 REVERT JUMPDEST DUP1 PUSH20 0xFFFFFFFFFFFFFFFFFFFFFFFFFFFFFFFFFFFFFFFF AND PUSH2 0xACC PUSH2 0x1E7C JUMP JUMPDEST PUSH20 0xFFFFFFFFFFFFFFFFFFFFFFFFFFFFFFFFFFFFFFFF AND EQ DUP1 PUSH2 0xAFB JUMPI POP PUSH2 0xAFA DUP2 PUSH2 0xAF5 PUSH2 0x1E7C JUMP JUMPDEST PUSH2 0x1B98 JUMP JUMPDEST JUMPDEST PUSH2 0xB3A JUMPI PUSH1 0x40 MLOAD PUSH32 0x8C379A000000000000000000000000000000000000000000000000000000000 DUP2 MSTORE PUSH1 0x4 ADD PUSH2 0xB31 SWAP1 PUSH2 0x3C6F JUMP JUMPDEST PUSH1 0x40 MLOAD DUP1 SWAP2 SUB SWAP1 REVERT JUMPDEST PUSH2 0xB44 DUP4 DUP4 PUSH2 0x1E84 JUMP JUMPDEST POP POP POP JUMP JUMPDEST PUSH2 0xB51 PUSH2 0x3086 JUMP JUMPDEST PUSH1 0xB DUP4 DUP4 PUSH1 0x40 MLOAD PUSH2 0xB63 SWAP3 SWAP2 SWAP1 PUSH2 0x3CBF JUMP JUMPDEST SWAP1 DUP2 MSTORE PUSH1 0x20 ADD PUSH1 0x40 MLOAD DUP1 SWAP2 SUB SWAP1 KECCAK256 PUSH1 0x40 MLOAD DUP1 PUSH1 0xA0 ADD PUSH1 0x40 MSTORE SWAP1 DUP2 PUSH1 0x0 DUP3 ADD DUP1 SLOAD PUSH2 0xB8C SWAP1 PUSH2 0x3B3A JUMP JUMPDEST DUP1 PUSH1 0x1F ADD PUSH1 0x20 DUP1 SWAP2 DIV MUL PUSH1 0x20 ADD PUSH1 0x40 MLOAD SWAP1 DUP2 ADD PUSH1 0x40 MSTORE DUP1 SWAP3 SWAP2 SWAP1 DUP2 DUP2 MSTORE PUSH1 0x20 ADD DUP3 DUP1 SLOAD PUSH2 0xBB8 SWAP1 PUSH2 0x3B3A JUMP JUMPDEST DUP1 ISZERO PUSH2 0xC05 JUMPI DUP1 PUSH1 0x1F LT PUSH2 0xBDA JUMPI PUSH2 0x100 DUP1 DUP4 SLOAD DIV MUL DUP4 MSTORE SWAP2 PUSH1 0x20 ADD SWAP2 PUSH2 0xC05 JUMP JUMPDEST DUP3 ADD SWAP2 SWAP1 PUSH1 0x0 MSTORE PUSH1 0x20 PUSH1 0x0 KECCAK256 SWAP1 JUMPDEST DUP2 SLOAD DUP2 MSTORE SWAP1 PUSH1 0x1 ADD SWAP1 PUSH1 0x20 ADD DUP1 DUP4 GT PUSH2 0xBE8 JUMPI DUP3 SWAP1 SUB PUSH1 0x1F AND DUP3 ADD SWAP2 JUMPDEST POP POP POP POP POP DUP2 MSTORE PUSH1 0x20 ADD PUSH1 0x1 DUP3 ADD SLOAD DUP2 MSTORE PUSH1 0x20 ADD PUSH1 0x2 DUP3 ADD DUP1 SLOAD PUSH2 0xC28 SWAP1 PUSH2 0x3B3A JUMP JUMPDEST DUP1 PUSH1 0x1F ADD PUSH1 0x20 DUP1 SWAP2 DIV MUL PUSH1 0x20 ADD PUSH1 0x40 MLOAD SWAP1 DUP2 ADD PUSH1 0x40 MSTORE DUP1 SWAP3 SWAP2 SWAP1 DUP2 DUP2 MSTORE PUSH1 0x20 ADD DUP3 DUP1 SLOAD PUSH2 0xC54 SWAP1 PUSH2 0x3B3A JUMP JUMPDEST DUP1 ISZERO PUSH2 0xCA1 JUMPI DUP1 PUSH1 0x1F LT PUSH2 0xC76 JUMPI PUSH2 0x100 DUP1 DUP4 SLOAD DIV MUL DUP4 MSTORE SWAP2 PUSH1 0x20 ADD SWAP2 PUSH2 0xCA1 JUMP JUMPDEST DUP3 ADD SWAP2 SWAP1 PUSH1 0x0 MSTORE PUSH1 0x20 PUSH1 0x0 KECCAK256 SWAP1 JUMPDEST DUP2 SLOAD DUP2 MSTORE SWAP1 PUSH1 0x1 ADD SWAP1 PUSH1 0x20 ADD DUP1 DUP4 GT PUSH2 0xC84 JUMPI DUP3 SWAP1 SUB PUSH1 0x1F AND DUP3 ADD SWAP2 JUMPDEST POP POP POP POP POP DUP2 MSTORE PUSH1 0x20 ADD PUSH1 0x3 DUP3 ADD DUP1 SLOAD PUSH2 0xCBA SWAP1 PUSH2 0x3B3A JUMP JUMPDEST DUP1 PUSH1 0x1F ADD PUSH1 0x20 DUP1 SWAP2 DIV MUL PUSH1 0x20 ADD PUSH1 0x40 MLOAD SWAP1 DUP2 ADD PUSH1 0x40 MSTORE DUP1 SWAP3 SWAP2 SWAP1 DUP2 DUP2 MSTORE PUSH1 0x20 ADD DUP3 DUP1 SLOAD PUSH2 0xCE6 SWAP1 PUSH2 0x3B3A JUMP JUMPDEST DUP1 ISZERO PUSH2 0xD33 JUMPI DUP1 PUSH1 0x1F LT PUSH2 0xD08 JUMPI PUSH2 0x100 DUP1 DUP4 SLOAD DIV MUL DUP4 MSTORE SWAP2 PUSH1 0x20 ADD SWAP2 PUSH2 0xD33 JUMP JUMPDEST DUP3 ADD SWAP2 SWAP1 PUSH1 0x0 MSTORE PUSH1 0x20 PUSH1 0x0 KECCAK256 SWAP1 JUMPDEST DUP2 SLOAD DUP2 MSTORE SWAP1 PUSH1 0x1 ADD SWAP1 PUSH1 0x20 ADD DUP1 DUP4 GT PUSH2 0xD16 JUMPI DUP3 SWAP1 SUB PUSH1 0x1F AND DUP3 ADD SWAP2 JUMPDEST POP POP POP POP POP DUP2 MSTORE PUSH1 0x20 ADD PUSH1 0x4 DUP3 ADD PUSH1 0x0 SWAP1 SLOAD SWAP1 PUSH2 0x100 EXP SWAP1 DIV PUSH20 0xFFFFFFFFFFFFFFFFFFFFFFFFFFFFFFFFFFFFFFFF AND PUSH20 0xFFFFFFFFFFFFFFFFFFFFFFFFFFFFFFFFFFFFFFFF AND PUSH20 0xFFFFFFFFFFFFFFFFFFFFFFFFFFFFFFFFFFFFFFFF AND DUP2 MSTORE POP POP SWAP1 POP SWAP3 SWAP2 POP POP JUMP JUMPDEST PUSH2 0xDAB PUSH2 0xDA5 PUSH2 0x1E7C JUMP JUMPDEST DUP3 PUSH2 0x1F3D JUMP JUMPDEST PUSH2 0xDEA JUMPI PUSH1 0x40 MLOAD PUSH32 0x8C379A000000000000000000000000000000000000000000000000000000000 DUP2 MSTORE PUSH1 0x4 ADD PUSH2 0xDE1 SWAP1 PUSH2 0x3D4A JUMP JUMPDEST PUSH1 0x40 MLOAD DUP1 SWAP2 SUB SWAP1 REVERT JUMPDEST PUSH2 0xDF5 DUP4 DUP4 DUP4 PUSH2 0x1FD2 JUMP JUMPDEST POP POP POP JUMP JUMPDEST PUSH1 0xA DUP2 DUP1 MLOAD PUSH1 0x20 DUP2 ADD DUP3 ADD DUP1 MLOAD DUP5 DUP3 MSTORE PUSH1 0x20 DUP4 ADD PUSH1 0x20 DUP6 ADD KECCAK256 DUP2 DUP4 MSTORE DUP1 SWAP6 POP POP POP POP POP POP PUSH1 0x0 SWAP2 POP SLOAD SWAP1 PUSH2 0x100 EXP SWAP1 DIV PUSH20 0xFFFFFFFFFFFFFFFFFFFFFFFFFFFFFFFFFFFFFFFF AND DUP2 JUMP JUMPDEST PUSH1 0x40 MLOAD DUP1 PUSH1 0x40 ADD PUSH1 0x40 MSTORE DUP1 PUSH1 0x6 DUP2 MSTORE PUSH1 0x20 ADD PUSH32 0x6867777274730000000000000000000000000000000000000000000000000000 DUP2 MSTORE POP DUP2 JUMP JUMPDEST PUSH2 0xE84 PUSH2 0x17E9 JUMP JUMPDEST PUSH2 0xE8D JUMPI PUSH1 0x0 DUP1 REVERT JUMPDEST PUSH1 0x0 SELFBALANCE SWAP1 POP PUSH1 0x0 CALLER PUSH20 0xFFFFFFFFFFFFFFFFFFFFFFFFFFFFFFFFFFFFFFFF AND DUP3 PUSH1 0x40 MLOAD PUSH2 0xEB8 SWAP1 PUSH2 0x3D9B JUMP JUMPDEST PUSH1 0x0 PUSH1 0x40 MLOAD DUP1 DUP4 SUB DUP2 DUP6 DUP8 GAS CALL SWAP3 POP POP POP RETURNDATASIZE DUP1 PUSH1 0x0 DUP2 EQ PUSH2 0xEF5 JUMPI PUSH1 0x40 MLOAD SWAP2 POP PUSH1 0x1F NOT PUSH1 0x3F RETURNDATASIZE ADD AND DUP3 ADD PUSH1 0x40 MSTORE RETURNDATASIZE DUP3 MSTORE RETURNDATASIZE PUSH1 0x0 PUSH1 0x20 DUP5 ADD RETURNDATACOPY PUSH2 0xEFA JUMP JUMPDEST PUSH1 0x60 SWAP2 POP JUMPDEST POP POP SWAP1 POP DUP1 PUSH2 0xF3E JUMPI PUSH1 0x40 MLOAD PUSH32 0x8C379A000000000000000000000000000000000000000000000000000000000 DUP2 MSTORE PUSH1 0x4 ADD PUSH2 0xF35 SWAP1 PUSH2 0x3DFC JUMP JUMPDEST PUSH1 0x40 MLOAD DUP1 SWAP2 SUB SWAP1 REVERT JUMPDEST POP POP JUMP JUMPDEST PUSH2 0xF5D DUP4 DUP4 DUP4 PUSH1 0x40 MLOAD DUP1 PUSH1 0x20 ADD PUSH1 0x40 MSTORE DUP1 PUSH1 0x0 DUP2 MSTORE POP PUSH2 0x19BD JUMP JUMPDEST POP POP POP JUMP JUMPDEST PUSH1 0xD PUSH1 0x20 MSTORE DUP1 PUSH1 0x0 MSTORE PUSH1 0x40 PUSH1 0x0 KECCAK256 PUSH1 0x0 SWAP2 POP SWAP1 POP DUP1 SLOAD PUSH2 0xF81 SWAP1 PUSH2 0x3B3A JUMP JUMPDEST DUP1 PUSH1 0x1F ADD PUSH1 0x20 DUP1 SWAP2 DIV MUL PUSH1 0x20 ADD PUSH1 0x40 MLOAD SWAP1 DUP2 ADD PUSH1 0x40 MSTORE DUP1 SWAP3 SWAP2 SWAP1 DUP2 DUP2 MSTORE PUSH1 0x20 ADD DUP3 DUP1 SLOAD PUSH2 0xFAD SWAP1 PUSH2 0x3B3A JUMP JUMPDEST DUP1 ISZERO PUSH2 0xFFA JUMPI DUP1 PUSH1 0x1F LT PUSH2 0xFCF JUMPI PUSH2 0x100 DUP1 DUP4 SLOAD DIV MUL DUP4 MSTORE SWAP2 PUSH1 0x20 ADD SWAP2 PUSH2 0xFFA JUMP JUMPDEST DUP3 ADD SWAP2 SWAP1 PUSH1 0x0 MSTORE PUSH1 0x20 PUSH1 0x0 KECCAK256 SWAP1 JUMPDEST DUP2 SLOAD DUP2 MSTORE SWAP1 PUSH1 0x1 ADD SWAP1 PUSH1 0x20 ADD DUP1 DUP4 GT PUSH2 0xFDD JUMPI DUP3 SWAP1 SUB PUSH1 0x1F AND DUP3 ADD SWAP2 JUMPDEST POP POP POP POP POP DUP2 JUMP JUMPDEST PUSH1 0x40 MLOAD DUP1 PUSH1 0x60 ADD PUSH1 0x40 MSTORE DUP1 PUSH1 0x2E DUP2 MSTORE PUSH1 0x20 ADD PUSH2 0x4C75 PUSH1 0x2E SWAP2 CODECOPY DUP2 JUMP JUMPDEST PUSH1 0xB DUP2 DUP1 MLOAD PUSH1 0x20 DUP2 ADD DUP3 ADD DUP1 MLOAD DUP5 DUP3 MSTORE PUSH1 0x20 DUP4 ADD PUSH1 0x20 DUP6 ADD KECCAK256 DUP2 DUP4 MSTORE DUP1 SWAP6 POP POP POP POP POP POP PUSH1 0x0 SWAP2 POP SWAP1 POP DUP1 PUSH1 0x0 ADD DUP1 SLOAD PUSH2 0x1057 SWAP1 PUSH2 0x3B3A JUMP JUMPDEST DUP1 PUSH1 0x1F ADD PUSH1 0x20 DUP1 SWAP2 DIV MUL PUSH1 0x20 ADD PUSH1 0x40 MLOAD SWAP1 DUP2 ADD PUSH1 0x40 MSTORE DUP1 SWAP3 SWAP2 SWAP1 DUP2 DUP2 MSTORE PUSH1 0x20 ADD DUP3 DUP1 SLOAD PUSH2 0x1083 SWAP1 PUSH2 0x3B3A JUMP JUMPDEST DUP1 ISZERO PUSH2 0x10D0 JUMPI DUP1 PUSH1 0x1F LT PUSH2 0x10A5 JUMPI PUSH2 0x100 DUP1 DUP4 SLOAD DIV MUL DUP4 MSTORE SWAP2 PUSH1 0x20 ADD SWAP2 PUSH2 0x10D0 JUMP JUMPDEST DUP3 ADD SWAP2 SWAP1 PUSH1 0x0 MSTORE PUSH1 0x20 PUSH1 0x0 KECCAK256 SWAP1 JUMPDEST DUP2 SLOAD DUP2 MSTORE SWAP1 PUSH1 0x1 ADD SWAP1 PUSH1 0x20 ADD DUP1 DUP4 GT PUSH2 0x10B3 JUMPI DUP3 SWAP1 SUB PUSH1 0x1F AND DUP3 ADD SWAP2 JUMPDEST POP POP POP POP POP SWAP1 DUP1 PUSH1 0x1 ADD SLOAD SWAP1 DUP1 PUSH1 0x2 ADD DUP1 SLOAD PUSH2 0x10EB SWAP1 PUSH2 0x3B3A JUMP JUMPDEST DUP1 PUSH1 0x1F ADD PUSH1 0x20 DUP1 SWAP2 DIV MUL PUSH1 0x20 ADD PUSH1 0x40 MLOAD SWAP1 DUP2 ADD PUSH1 0x40 MSTORE DUP1 SWAP3 SWAP2 SWAP1 DUP2 DUP2 MSTORE PUSH1 0x20 ADD DUP3 DUP1 SLOAD PUSH2 0x1117 SWAP1 PUSH2 0x3B3A JUMP JUMPDEST DUP1 ISZERO PUSH2 0x1164 JUMPI DUP1 PUSH1 0x1F LT PUSH2 0x1139 JUMPI PUSH2 0x100 DUP1 DUP4 SLOAD DIV MUL DUP4 MSTORE SWAP2 PUSH1 0x20 ADD SWAP2 PUSH2 0x1164 JUMP JUMPDEST DUP3 ADD SWAP2 SWAP1 PUSH1 0x0 MSTORE PUSH1 0x20 PUSH1 0x0 KECCAK256 SWAP1 JUMPDEST DUP2 SLOAD DUP2 MSTORE SWAP1 PUSH1 0x1 ADD SWAP1 PUSH1 0x20 ADD DUP1 DUP4 GT PUSH2 0x1147 JUMPI DUP3 SWAP1 SUB PUSH1 0x1F AND DUP3 ADD SWAP2 JUMPDEST POP POP POP POP POP SWAP1 DUP1 PUSH1 0x3 ADD DUP1 SLOAD PUSH2 0x1179 SWAP1 PUSH2 0x3B3A JUMP JUMPDEST DUP1 PUSH1 0x1F ADD PUSH1 0x20 DUP1 SWAP2 DIV MUL PUSH1 0x20 ADD PUSH1 0x40 MLOAD SWAP1 DUP2 ADD PUSH1 0x40 MSTORE DUP1 SWAP3 SWAP2 SWAP1 DUP2 DUP2 MSTORE PUSH1 0x20 ADD DUP3 DUP1 SLOAD PUSH2 0x11A5 SWAP1 PUSH2 0x3B3A JUMP JUMPDEST DUP1 ISZERO PUSH2 0x11F2 JUMPI DUP1 PUSH1 0x1F LT PUSH2 0x11C7 JUMPI PUSH2 0x100 DUP1 DUP4 SLOAD DIV MUL DUP4 MSTORE SWAP2 PUSH1 0x20 ADD SWAP2 PUSH2 0x11F2 JUMP JUMPDEST DUP3 ADD SWAP2 SWAP1 PUSH1 0x0 MSTORE PUSH1 0x20 PUSH1 0x0 KECCAK256 SWAP1 JUMPDEST DUP2 SLOAD DUP2 MSTORE SWAP1 PUSH1 0x1 ADD SWAP1 PUSH1 0x20 ADD DUP1 DUP4 GT PUSH2 0x11D5 JUMPI DUP3 SWAP1 SUB PUSH1 0x1F AND DUP3 ADD SWAP2 JUMPDEST POP POP POP POP POP SWAP1 DUP1 PUSH1 0x4 ADD PUSH1 0x0 SWAP1 SLOAD SWAP1 PUSH2 0x100 EXP SWAP1 DIV PUSH20 0xFFFFFFFFFFFFFFFFFFFFFFFFFFFFFFFFFFFFFFFF AND SWAP1 POP DUP6 JUMP JUMPDEST PUSH1 0x40 MLOAD DUP1 PUSH1 0x60 ADD PUSH1 0x40 MSTORE DUP1 PUSH1 0x2E DUP2 MSTORE PUSH1 0x20 ADD PUSH2 0x4CD1 PUSH1 0x2E SWAP2 CODECOPY DUP2 JUMP JUMPDEST PUSH1 0x0 DUP1 PUSH1 0x2 PUSH1 0x0 DUP5 DUP2 MSTORE PUSH1 0x20 ADD SWAP1 DUP2 MSTORE PUSH1 0x20 ADD PUSH1 0x0 KECCAK256 PUSH1 0x0 SWAP1 SLOAD SWAP1 PUSH2 0x100 EXP SWAP1 DIV PUSH20 0xFFFFFFFFFFFFFFFFFFFFFFFFFFFFFFFFFFFFFFFF AND SWAP1 POP PUSH1 0x0 PUSH20 0xFFFFFFFFFFFFFFFFFFFFFFFFFFFFFFFFFFFFFFFF AND DUP2 PUSH20 0xFFFFFFFFFFFFFFFFFFFFFFFFFFFFFFFFFFFFFFFF AND SUB PUSH2 0x12E6 JUMPI PUSH1 0x40 MLOAD PUSH32 0x8C379A000000000000000000000000000000000000000000000000000000000 DUP2 MSTORE PUSH1 0x4 ADD PUSH2 0x12DD SWAP1 PUSH2 0x3E68 JUMP JUMPDEST PUSH1 0x40 MLOAD DUP1 SWAP2 SUB SWAP1 REVERT JUMPDEST DUP1 SWAP2 POP POP SWAP2 SWAP1 POP JUMP JUMPDEST PUSH1 0x0 PUSH20 0xFFFFFFFFFFFFFFFFFFFFFFFFFFFFFFFFFFFFFFFF AND PUSH1 0xA DUP7 DUP7 PUSH1 0x40 MLOAD PUSH2 0x1319 SWAP3 SWAP2 SWAP1 PUSH2 0x3CBF JUMP JUMPDEST SWAP1 DUP2 MSTORE PUSH1 0x20 ADD PUSH1 0x40 MLOAD DUP1 SWAP2 SUB SWAP1 KECCAK256 PUSH1 0x0 SWAP1 SLOAD SWAP1 PUSH2 0x100 EXP SWAP1 DIV PUSH20 0xFFFFFFFFFFFFFFFFFFFFFFFFFFFFFFFFFFFFFFFF AND PUSH20 0xFFFFFFFFFFFFFFFFFFFFFFFFFFFFFFFFFFFFFFFF AND EQ PUSH2 0x139E JUMPI PUSH1 0x40 MLOAD PUSH32 0x8C379A000000000000000000000000000000000000000000000000000000000 DUP2 MSTORE PUSH1 0x4 ADD PUSH2 0x1395 SWAP1 PUSH2 0x3ED4 JUMP JUMPDEST PUSH1 0x40 MLOAD DUP1 SWAP2 SUB SWAP1 REVERT JUMPDEST PUSH2 0x13A8 DUP6 DUP6 PUSH2 0x18D3 JUMP JUMPDEST PUSH2 0x13E7 JUMPI PUSH1 0x40 MLOAD PUSH32 0x8C379A000000000000000000000000000000000000000000000000000000000 DUP2 MSTORE PUSH1 0x4 ADD PUSH2 0x13DE SWAP1 PUSH2 0x3F40 JUMP JUMPDEST PUSH1 0x40 MLOAD DUP1 SWAP2 SUB SWAP1 REVERT JUMPDEST PUSH1 0xC PUSH1 0x0 CALLER PUSH20 0xFFFFFFFFFFFFFFFFFFFFFFFFFFFFFFFFFFFFFFFF AND PUSH20 0xFFFFFFFFFFFFFFFFFFFFFFFFFFFFFFFFFFFFFFFF AND DUP2 MSTORE PUSH1 0x20 ADD SWAP1 DUP2 MSTORE PUSH1 0x20 ADD PUSH1 0x0 KECCAK256 PUSH1 0x0 SWAP1 SLOAD SWAP1 PUSH2 0x100 EXP SWAP1 DIV PUSH1 0xFF AND ISZERO PUSH2 0x1474 JUMPI PUSH1 0x40 MLOAD PUSH32 0x8C379A000000000000000000000000000000000000000000000000000000000 DUP2 MSTORE PUSH1 0x4 ADD PUSH2 0x146B SWAP1 PUSH2 0x3FAC JUMP JUMPDEST PUSH1 0x40 MLOAD DUP1 SWAP2 SUB SWAP1 REVERT JUMPDEST PUSH1 0x8 SLOAD CALLVALUE LT ISZERO PUSH2 0x14B9 JUMPI PUSH1 0x40 MLOAD PUSH32 0x8C379A000000000000000000000000000000000000000000000000000000000 DUP2 MSTORE PUSH1 0x4 ADD PUSH2 0x14B0 SWAP1 PUSH2 0x4018 JUMP JUMPDEST PUSH1 0x40 MLOAD DUP1 SWAP2 SUB SWAP1 REVERT JUMPDEST PUSH1 0x0 PUSH2 0x14C4 DUP3 PUSH2 0x2238 JUMP JUMPDEST SWAP1 POP PUSH1 0x0 DUP1 PUSH2 0x14D2 DUP4 PUSH2 0x227D JUMP JUMPDEST SWAP2 POP SWAP2 POP PUSH1 0x0 DUP9 DUP9 DUP5 PUSH1 0x40 MLOAD DUP1 PUSH1 0x40 ADD PUSH1 0x40 MSTORE DUP1 PUSH1 0x6 DUP2 MSTORE PUSH1 0x20 ADD PUSH32 0x6867777274730000000000000000000000000000000000000000000000000000 DUP2 MSTORE POP PUSH1 0x40 MLOAD PUSH1 0x20 ADD PUSH2 0x1524 SWAP5 SWAP4 SWAP3 SWAP2 SWAP1 PUSH2 0x40B5 JUMP JUMPDEST PUSH1 0x40 MLOAD PUSH1 0x20 DUP2 DUP4 SUB SUB DUP2 MSTORE SWAP1 PUSH1 0x40 MSTORE SWAP1 POP PUSH1 0x0 PUSH2 0x1541 PUSH1 0x7 PUSH2 0x2440 JUMP JUMPDEST SWAP1 POP PUSH2 0x154D CALLER DUP3 PUSH2 0x244E JUMP JUMPDEST PUSH2 0x1576 DUP2 DUP5 PUSH1 0x40 MLOAD PUSH1 0x20 ADD PUSH2 0x1562 SWAP2 SWAP1 PUSH2 0x414A JUMP JUMPDEST PUSH1 0x40 MLOAD PUSH1 0x20 DUP2 DUP4 SUB SUB DUP2 MSTORE SWAP1 PUSH1 0x40 MSTORE PUSH2 0x246C JUMP JUMPDEST CALLER PUSH1 0xA DUP4 PUSH1 0x40 MLOAD PUSH2 0x1587 SWAP2 SWAP1 PUSH2 0x416C JUMP JUMPDEST SWAP1 DUP2 MSTORE PUSH1 0x20 ADD PUSH1 0x40 MLOAD DUP1 SWAP2 SUB SWAP1 KECCAK256 PUSH1 0x0 PUSH2 0x100 EXP DUP2 SLOAD DUP2 PUSH20 0xFFFFFFFFFFFFFFFFFFFFFFFFFFFFFFFFFFFFFFFF MUL NOT AND SWAP1 DUP4 PUSH20 0xFFFFFFFFFFFFFFFFFFFFFFFFFFFFFFFFFFFFFFFF AND MUL OR SWAP1 SSTORE POP PUSH1 0x1 PUSH1 0xC PUSH1 0x0 CALLER PUSH20 0xFFFFFFFFFFFFFFFFFFFFFFFFFFFFFFFFFFFFFFFF AND PUSH20 0xFFFFFFFFFFFFFFFFFFFFFFFFFFFFFFFFFFFFFFFF AND DUP2 MSTORE PUSH1 0x20 ADD SWAP1 DUP2 MSTORE PUSH1 0x20 ADD PUSH1 0x0 KECCAK256 PUSH1 0x0 PUSH2 0x100 EXP DUP2 SLOAD DUP2 PUSH1 0xFF MUL NOT AND SWAP1 DUP4 ISZERO ISZERO MUL OR SWAP1 SSTORE POP DUP2 PUSH1 0xD PUSH1 0x0 DUP4 DUP2 MSTORE PUSH1 0x20 ADD SWAP1 DUP2 MSTORE PUSH1 0x20 ADD PUSH1 0x0 KECCAK256 SWAP1 DUP2 PUSH2 0x164B SWAP2 SWAP1 PUSH2 0x432F JUMP JUMPDEST POP PUSH2 0x1658 DUP3 DUP10 DUP10 DUP8 PUSH2 0x24D9 JUMP JUMPDEST PUSH2 0x1662 PUSH1 0x7 PUSH2 0x26C0 JUMP JUMPDEST CALLER PUSH20 0xFFFFFFFFFFFFFFFFFFFFFFFFFFFFFFFFFFFFFFFF AND PUSH32 0x78FC4BD5049206A33E22E356BA7AE0CFF1F598EEF8B69790FDE01DE4562A95DA DUP12 DUP12 DUP8 PUSH1 0x40 MLOAD PUSH2 0x16AC SWAP4 SWAP3 SWAP2 SWAP1 PUSH2 0x442E JUMP JUMPDEST PUSH1 0x40 MLOAD DUP1 SWAP2 SUB SWAP1 LOG2 POP POP POP POP POP POP POP POP POP POP JUMP JUMPDEST PUSH1 0x0 DUP1 PUSH20 0xFFFFFFFFFFFFFFFFFFFFFFFFFFFFFFFFFFFFFFFF AND DUP3 PUSH20 0xFFFFFFFFFFFFFFFFFFFFFFFFFFFFFFFFFFFFFFFF AND SUB PUSH2 0x1730 JUMPI PUSH1 0x40 MLOAD PUSH32 0x8C379A000000000000000000000000000000000000000000000000000000000 DUP2 MSTORE PUSH1 0x4 ADD PUSH2 0x1727 SWAP1 PUSH2 0x44D9 JUMP JUMPDEST PUSH1 0x40 MLOAD DUP1 SWAP2 SUB SWAP1 REVERT JUMPDEST PUSH1 0x3 PUSH1 0x0 DUP4 PUSH20 0xFFFFFFFFFFFFFFFFFFFFFFFFFFFFFFFFFFFFFFFF AND PUSH20 0xFFFFFFFFFFFFFFFFFFFFFFFFFFFFFFFFFFFFFFFF AND DUP2 MSTORE PUSH1 0x20 ADD SWAP1 DUP2 MSTORE PUSH1 0x20 ADD PUSH1 0x0 KECCAK256 SLOAD SWAP1 POP SWAP2 SWAP1 POP JUMP JUMPDEST PUSH1 0x40 MLOAD DUP1 PUSH1 0x40 ADD PUSH1 0x40 MSTORE DUP1 PUSH1 0x9 DUP2 MSTORE PUSH1 0x20 ADD PUSH32 0x736C7974686572696E0000000000000000000000000000000000000000000000 DUP2 MSTORE POP DUP2 JUMP JUMPDEST PUSH1 0x40 MLOAD DUP1 PUSH1 0x40 ADD PUSH1 0x40 MSTORE DUP1 PUSH1 0x9 DUP2 MSTORE PUSH1 0x20 ADD PUSH32 0x726176656E636C61770000000000000000000000000000000000000000000000 DUP2 MSTORE POP DUP2 JUMP JUMPDEST PUSH1 0x0 PUSH1 0x9 PUSH1 0x0 SWAP1 SLOAD SWAP1 PUSH2 0x100 EXP SWAP1 DIV PUSH20 0xFFFFFFFFFFFFFFFFFFFFFFFFFFFFFFFFFFFFFFFF AND PUSH20 0xFFFFFFFFFFFFFFFFFFFFFFFFFFFFFFFFFFFFFFFF AND CALLER PUSH20 0xFFFFFFFFFFFFFFFFFFFFFFFFFFFFFFFFFFFFFFFF AND EQ SWAP1 POP SWAP1 JUMP JUMPDEST PUSH1 0x60 PUSH1 0x1 DUP1 SLOAD PUSH2 0x1850 SWAP1 PUSH2 0x3B3A JUMP JUMPDEST DUP1 PUSH1 0x1F ADD PUSH1 0x20 DUP1 SWAP2 DIV MUL PUSH1 0x20 ADD PUSH1 0x40 MLOAD SWAP1 DUP2 ADD PUSH1 0x40 MSTORE DUP1 SWAP3 SWAP2 SWAP1 DUP2 DUP2 MSTORE PUSH1 0x20 ADD DUP3 DUP1 SLOAD PUSH2 0x187C SWAP1 PUSH2 0x3B3A JUMP JUMPDEST DUP1 ISZERO PUSH2 0x18C9 JUMPI DUP1 PUSH1 0x1F LT PUSH2 0x189E JUMPI PUSH2 0x100 DUP1 DUP4 SLOAD DIV MUL DUP4 MSTORE SWAP2 PUSH1 0x20 ADD SWAP2 PUSH2 0x18C9 JUMP JUMPDEST DUP3 ADD SWAP2 SWAP1 PUSH1 0x0 MSTORE PUSH1 0x20 PUSH1 0x0 KECCAK256 SWAP1 JUMPDEST DUP2 SLOAD DUP2 MSTORE SWAP1 PUSH1 0x1 ADD SWAP1 PUSH1 0x20 ADD DUP1 DUP4 GT PUSH2 0x18AC JUMPI DUP3 SWAP1 SUB PUSH1 0x1F AND DUP3 ADD SWAP2 JUMPDEST POP POP POP POP POP SWAP1 POP SWAP1 JUMP JUMPDEST PUSH1 0x0 PUSH1 0x3 PUSH2 0x1924 DUP5 DUP5 DUP1 DUP1 PUSH1 0x1F ADD PUSH1 0x20 DUP1 SWAP2 DIV MUL PUSH1 0x20 ADD PUSH1 0x40 MLOAD SWAP1 DUP2 ADD PUSH1 0x40 MSTORE DUP1 SWAP4 SWAP3 SWAP2 SWAP1 DUP2 DUP2 MSTORE PUSH1 0x20 ADD DUP4 DUP4 DUP1 DUP3 DUP5 CALLDATACOPY PUSH1 0x0 DUP2 DUP5 ADD MSTORE PUSH1 0x1F NOT PUSH1 0x1F DUP3 ADD AND SWAP1 POP DUP1 DUP4 ADD SWAP3 POP POP POP POP POP POP POP PUSH2 0x26D6 JUMP JUMPDEST LT ISZERO DUP1 ISZERO PUSH2 0x197F JUMPI POP PUSH1 0x14 PUSH2 0x197C DUP5 DUP5 DUP1 DUP1 PUSH1 0x1F ADD PUSH1 0x20 DUP1 SWAP2 DIV MUL PUSH1 0x20 ADD PUSH1 0x40 MLOAD SWAP1 DUP2 ADD PUSH1 0x40 MSTORE DUP1 SWAP4 SWAP3 SWAP2 SWAP1 DUP2 DUP2 MSTORE PUSH1 0x20 ADD DUP4 DUP4 DUP1 DUP3 DUP5 CALLDATACOPY PUSH1 0x0 DUP2 DUP5 ADD MSTORE PUSH1 0x1F NOT PUSH1 0x1F DUP3 ADD AND SWAP1 POP DUP1 DUP4 ADD SWAP3 POP POP POP POP POP POP POP PUSH2 0x26D6 JUMP JUMPDEST GT ISZERO JUMPDEST SWAP1 POP SWAP3 SWAP2 POP POP JUMP JUMPDEST PUSH2 0x1999 PUSH2 0x1992 PUSH2 0x1E7C JUMP JUMPDEST DUP4 DUP4 PUSH2 0x288B JUMP JUMPDEST POP POP JUMP JUMPDEST PUSH1 0xC PUSH1 0x20 MSTORE DUP1 PUSH1 0x0 MSTORE PUSH1 0x40 PUSH1 0x0 KECCAK256 PUSH1 0x0 SWAP2 POP SLOAD SWAP1 PUSH2 0x100 EXP SWAP1 DIV PUSH1 0xFF AND DUP2 JUMP JUMPDEST PUSH2 0x19CE PUSH2 0x19C8 PUSH2 0x1E7C JUMP JUMPDEST DUP4 PUSH2 0x1F3D JUMP JUMPDEST PUSH2 0x1A0D JUMPI PUSH1 0x40 MLOAD PUSH32 0x8C379A000000000000000000000000000000000000000000000000000000000 DUP2 MSTORE PUSH1 0x4 ADD PUSH2 0x1A04 SWAP1 PUSH2 0x3D4A JUMP JUMPDEST PUSH1 0x40 MLOAD DUP1 SWAP2 SUB SWAP1 REVERT JUMPDEST PUSH2 0x1A19 DUP5 DUP5 DUP5 DUP5 PUSH2 0x29F7 JUMP JUMPDEST POP POP POP POP JUMP JUMPDEST PUSH1 0x0 PUSH1 0xA DUP4 DUP4 PUSH1 0x40 MLOAD PUSH2 0x1A33 SWAP3 SWAP2 SWAP1 PUSH2 0x3CBF JUMP JUMPDEST SWAP1 DUP2 MSTORE PUSH1 0x20 ADD PUSH1 0x40 MLOAD DUP1 SWAP2 SUB SWAP1 KECCAK256 PUSH1 0x0 SWAP1 SLOAD SWAP1 PUSH2 0x100 EXP SWAP1 DIV PUSH20 0xFFFFFFFFFFFFFFFFFFFFFFFFFFFFFFFFFFFFFFFF AND SWAP1 POP SWAP3 SWAP2 POP POP JUMP JUMPDEST PUSH1 0x60 PUSH2 0x1A75 DUP3 PUSH2 0x1E31 JUMP JUMPDEST PUSH1 0x0 PUSH1 0x6 PUSH1 0x0 DUP5 DUP2 MSTORE PUSH1 0x20 ADD SWAP1 DUP2 MSTORE PUSH1 0x20 ADD PUSH1 0x0 KECCAK256 DUP1 SLOAD PUSH2 0x1A95 SWAP1 PUSH2 0x3B3A JUMP JUMPDEST DUP1 PUSH1 0x1F ADD PUSH1 0x20 DUP1 SWAP2 DIV MUL PUSH1 0x20 ADD PUSH1 0x40 MLOAD SWAP1 DUP2 ADD PUSH1 0x40 MSTORE DUP1 SWAP3 SWAP2 SWAP1 DUP2 DUP2 MSTORE PUSH1 0x20 ADD DUP3 DUP1 SLOAD PUSH2 0x1AC1 SWAP1 PUSH2 0x3B3A JUMP JUMPDEST DUP1 ISZERO PUSH2 0x1B0E JUMPI DUP1 PUSH1 0x1F LT PUSH2 0x1AE3 JUMPI PUSH2 0x100 DUP1 DUP4 SLOAD DIV MUL DUP4 MSTORE SWAP2 PUSH1 0x20 ADD SWAP2 PUSH2 0x1B0E JUMP JUMPDEST DUP3 ADD SWAP2 SWAP1 PUSH1 0x0 MSTORE PUSH1 0x20 PUSH1 0x0 KECCAK256 SWAP1 JUMPDEST DUP2 SLOAD DUP2 MSTORE SWAP1 PUSH1 0x1 ADD SWAP1 PUSH1 0x20 ADD DUP1 DUP4 GT PUSH2 0x1AF1 JUMPI DUP3 SWAP1 SUB PUSH1 0x1F AND DUP3 ADD SWAP2 JUMPDEST POP POP POP POP POP SWAP1 POP PUSH1 0x0 PUSH2 0x1B1F PUSH2 0x2A53 JUMP JUMPDEST SWAP1 POP PUSH1 0x0 DUP2 MLOAD SUB PUSH2 0x1B34 JUMPI DUP2 SWAP3 POP POP POP PUSH2 0x1B77 JUMP JUMPDEST PUSH1 0x0 DUP3 MLOAD GT ISZERO PUSH2 0x1B69 JUMPI DUP1 DUP3 PUSH1 0x40 MLOAD PUSH1 0x20 ADD PUSH2 0x1B51 SWAP3 SWAP2 SWAP1 PUSH2 0x44F9 JUMP JUMPDEST PUSH1 0x40 MLOAD PUSH1 0x20 DUP2 DUP4 SUB SUB DUP2 MSTORE SWAP1 PUSH1 0x40 MSTORE SWAP3 POP POP POP PUSH2 0x1B77 JUMP JUMPDEST PUSH2 0x1B72 DUP5 PUSH2 0x2A6A JUMP JUMPDEST SWAP3 POP POP POP JUMPDEST SWAP2 SWAP1 POP JUMP JUMPDEST PUSH1 0x40 MLOAD DUP1 PUSH1 0x60 ADD PUSH1 0x40 MSTORE DUP1 PUSH1 0x2E DUP2 MSTORE PUSH1 0x20 ADD PUSH2 0x4CA3 PUSH1 0x2E SWAP2 CODECOPY DUP2 JUMP JUMPDEST PUSH1 0x0 PUSH1 0x5 PUSH1 0x0 DUP5 PUSH20 0xFFFFFFFFFFFFFFFFFFFFFFFFFFFFFFFFFFFFFFFF AND PUSH20 0xFFFFFFFFFFFFFFFFFFFFFFFFFFFFFFFFFFFFFFFF AND DUP2 MSTORE PUSH1 0x20 ADD SWAP1 DUP2 MSTORE PUSH1 0x20 ADD PUSH1 0x0 KECCAK256 PUSH1 0x0 DUP4 PUSH20 0xFFFFFFFFFFFFFFFFFFFFFFFFFFFFFFFFFFFFFFFF AND PUSH20 0xFFFFFFFFFFFFFFFFFFFFFFFFFFFFFFFFFFFFFFFF AND DUP2 MSTORE PUSH1 0x20 ADD SWAP1 DUP2 MSTORE PUSH1 0x20 ADD PUSH1 0x0 KECCAK256 PUSH1 0x0 SWAP1 SLOAD SWAP1 PUSH2 0x100 EXP SWAP1 DIV PUSH1 0xFF AND SWAP1 POP SWAP3 SWAP2 POP POP JUMP JUMPDEST PUSH1 0x40 MLOAD DUP1 PUSH1 0x60 ADD PUSH1 0x40 MSTORE DUP1 PUSH1 0x2E DUP2 MSTORE PUSH1 0x20 ADD PUSH2 0x4CFF PUSH1 0x2E SWAP2 CODECOPY DUP2 JUMP JUMPDEST PUSH1 0x40 MLOAD DUP1 PUSH1 0x40 ADD PUSH1 0x40 MSTORE DUP1 PUSH1 0xA DUP2 MSTORE PUSH1 0x20 ADD PUSH32 0x6772796666696E646F7200000000000000000000000000000000000000000000 DUP2 MSTORE POP DUP2 JUMP JUMPDEST PUSH1 0x60 PUSH1 0x0 PUSH2 0x1C8F PUSH1 0x7 PUSH2 0x2440 JUMP JUMPDEST PUSH8 0xFFFFFFFFFFFFFFFF DUP2 GT ISZERO PUSH2 0x1CA8 JUMPI PUSH2 0x1CA7 PUSH2 0x358F JUMP JUMPDEST JUMPDEST PUSH1 0x40 MLOAD SWAP1 DUP1 DUP3 MSTORE DUP1 PUSH1 0x20 MUL PUSH1 0x20 ADD DUP3 ADD PUSH1 0x40 MSTORE DUP1 ISZERO PUSH2 0x1CDB JUMPI DUP2 PUSH1 0x20 ADD JUMPDEST PUSH1 0x60 DUP2 MSTORE PUSH1 0x20 ADD SWAP1 PUSH1 0x1 SWAP1 SUB SWAP1 DUP2 PUSH2 0x1CC6 JUMPI SWAP1 POP JUMPDEST POP SWAP1 POP PUSH1 0x0 JUMPDEST PUSH2 0x1CEB PUSH1 0x7 PUSH2 0x2440 JUMP JUMPDEST DUP2 LT ISZERO PUSH2 0x1DBF JUMPI PUSH1 0xD PUSH1 0x0 DUP3 DUP2 MSTORE PUSH1 0x20 ADD SWAP1 DUP2 MSTORE PUSH1 0x20 ADD PUSH1 0x0 KECCAK256 DUP1 SLOAD PUSH2 0x1D10 SWAP1 PUSH2 0x3B3A JUMP JUMPDEST DUP1 PUSH1 0x1F ADD PUSH1 0x20 DUP1 SWAP2 DIV MUL PUSH1 0x20 ADD PUSH1 0x40 MLOAD SWAP1 DUP2 ADD PUSH1 0x40 MSTORE DUP1 SWAP3 SWAP2 SWAP1 DUP2 DUP2 MSTORE PUSH1 0x20 ADD DUP3 DUP1 SLOAD PUSH2 0x1D3C SWAP1 PUSH2 0x3B3A JUMP JUMPDEST DUP1 ISZERO PUSH2 0x1D89 JUMPI DUP1 PUSH1 0x1F LT PUSH2 0x1D5E JUMPI PUSH2 0x100 DUP1 DUP4 SLOAD DIV MUL DUP4 MSTORE SWAP2 PUSH1 0x20 ADD SWAP2 PUSH2 0x1D89 JUMP JUMPDEST DUP3 ADD SWAP2 SWAP1 PUSH1 0x0 MSTORE PUSH1 0x20 PUSH1 0x0 KECCAK256 SWAP1 JUMPDEST DUP2 SLOAD DUP2 MSTORE SWAP1 PUSH1 0x1 ADD SWAP1 PUSH1 0x20 ADD DUP1 DUP4 GT PUSH2 0x1D6C JUMPI DUP3 SWAP1 SUB PUSH1 0x1F AND DUP3 ADD SWAP2 JUMPDEST POP POP POP POP POP DUP3 DUP3 DUP2 MLOAD DUP2 LT PUSH2 0x1DA1 JUMPI PUSH2 0x1DA0 PUSH2 0x451D JUMP JUMPDEST JUMPDEST PUSH1 0x20 MUL PUSH1 0x20 ADD ADD DUP2 SWAP1 MSTORE POP DUP1 DUP1 PUSH2 0x1DB7 SWAP1 PUSH2 0x457B JUMP JUMPDEST SWAP2 POP POP PUSH2 0x1CE1 JUMP JUMPDEST POP DUP1 SWAP2 POP POP SWAP1 JUMP JUMPDEST PUSH1 0x0 PUSH32 0x1FFC9A700000000000000000000000000000000000000000000000000000000 PUSH28 0xFFFFFFFFFFFFFFFFFFFFFFFFFFFFFFFFFFFFFFFFFFFFFFFFFFFFFFFF NOT AND DUP3 PUSH28 0xFFFFFFFFFFFFFFFFFFFFFFFFFFFFFFFFFFFFFFFFFFFFFFFFFFFFFFFF NOT AND EQ SWAP1 POP SWAP2 SWAP1 POP JUMP JUMPDEST PUSH2 0x1E3A DUP2 PUSH2 0x2AD2 JUMP JUMPDEST PUSH2 0x1E79 JUMPI PUSH1 0x40 MLOAD PUSH32 0x8C379A000000000000000000000000000000000000000000000000000000000 DUP2 MSTORE PUSH1 0x4 ADD PUSH2 0x1E70 SWAP1 PUSH2 0x3E68 JUMP JUMPDEST PUSH1 0x40 MLOAD DUP1 SWAP2 SUB SWAP1 REVERT JUMPDEST POP JUMP JUMPDEST PUSH1 0x0 CALLER SWAP1 POP SWAP1 JUMP JUMPDEST DUP2 PUSH1 0x4 PUSH1 0x0 DUP4 DUP2 MSTORE PUSH1 0x20 ADD SWAP1 DUP2 MSTORE PUSH1 0x20 ADD PUSH1 0x0 KECCAK256 PUSH1 0x0 PUSH2 0x100 EXP DUP2 SLOAD DUP2 PUSH20 0xFFFFFFFFFFFFFFFFFFFFFFFFFFFFFFFFFFFFFFFF MUL NOT AND SWAP1 DUP4 PUSH20 0xFFFFFFFFFFFFFFFFFFFFFFFFFFFFFFFFFFFFFFFF AND MUL OR SWAP1 SSTORE POP DUP1 DUP3 PUSH20 0xFFFFFFFFFFFFFFFFFFFFFFFFFFFFFFFFFFFFFFFF AND PUSH2 0x1EF7 DUP4 PUSH2 0x123E JUMP JUMPDEST PUSH20 0xFFFFFFFFFFFFFFFFFFFFFFFFFFFFFFFFFFFFFFFF AND PUSH32 0x8C5BE1E5EBEC7D5BD14F71427D1E84F3DD0314C0F7B2291E5B200AC8C7C3B925 PUSH1 0x40 MLOAD PUSH1 0x40 MLOAD DUP1 SWAP2 SUB SWAP1 LOG4 POP POP JUMP JUMPDEST PUSH1 0x0 DUP1 PUSH2 0x1F49 DUP4 PUSH2 0x123E JUMP JUMPDEST SWAP1 POP DUP1 PUSH20 0xFFFFFFFFFFFFFFFFFFFFFFFFFFFFFFFFFFFFFFFF AND DUP5 PUSH20 0xFFFFFFFFFFFFFFFFFFFFFFFFFFFFFFFFFFFFFFFF AND EQ DUP1 PUSH2 0x1F8B JUMPI POP PUSH2 0x1F8A DUP2 DUP6 PUSH2 0x1B98 JUMP JUMPDEST JUMPDEST DUP1 PUSH2 0x1FC9 JUMPI POP DUP4 PUSH20 0xFFFFFFFFFFFFFFFFFFFFFFFFFFFFFFFFFFFFFFFF AND PUSH2 0x1FB1 DUP5 PUSH2 0x9B3 JUMP JUMPDEST PUSH20 0xFFFFFFFFFFFFFFFFFFFFFFFFFFFFFFFFFFFFFFFF AND EQ JUMPDEST SWAP2 POP POP SWAP3 SWAP2 POP POP JUMP JUMPDEST DUP3 PUSH20 0xFFFFFFFFFFFFFFFFFFFFFFFFFFFFFFFFFFFFFFFF AND PUSH2 0x1FF2 DUP3 PUSH2 0x123E JUMP JUMPDEST PUSH20 0xFFFFFFFFFFFFFFFFFFFFFFFFFFFFFFFFFFFFFFFF AND EQ PUSH2 0x2048 JUMPI PUSH1 0x40 MLOAD PUSH32 0x8C379A000000000000000000000000000000000000000000000000000000000 DUP2 MSTORE PUSH1 0x4 ADD PUSH2 0x203F SWAP1 PUSH2 0x4635 JUMP JUMPDEST PUSH1 0x40 MLOAD DUP1 SWAP2 SUB SWAP1 REVERT JUMPDEST PUSH1 0x0 PUSH20 0xFFFFFFFFFFFFFFFFFFFFFFFFFFFFFFFFFFFFFFFF AND DUP3 PUSH20 0xFFFFFFFFFFFFFFFFFFFFFFFFFFFFFFFFFFFFFFFF AND SUB PUSH2 0x20B7 JUMPI PUSH1 0x40 MLOAD PUSH32 0x8C379A000000000000000000000000000000000000000000000000000000000 DUP2 MSTORE PUSH1 0x4 ADD PUSH2 0x20AE SWAP1 PUSH2 0x46C7 JUMP JUMPDEST PUSH1 0x40 MLOAD DUP1 SWAP2 SUB SWAP1 REVERT JUMPDEST PUSH2 0x20C2 DUP4 DUP4 DUP4 PUSH2 0x2B3E JUMP JUMPDEST PUSH2 0x20CD PUSH1 0x0 DUP3 PUSH2 0x1E84 JUMP JUMPDEST PUSH1 0x1 PUSH1 0x3 PUSH1 0x0 DUP6 PUSH20 0xFFFFFFFFFFFFFFFFFFFFFFFFFFFFFFFFFFFFFFFF AND PUSH20 0xFFFFFFFFFFFFFFFFFFFFFFFFFFFFFFFFFFFFFFFF AND DUP2 MSTORE PUSH1 0x20 ADD SWAP1 DUP2 MSTORE PUSH1 0x20 ADD PUSH1 0x0 KECCAK256 PUSH1 0x0 DUP3 DUP3 SLOAD PUSH2 0x211D SWAP2 SWAP1 PUSH2 0x46E7 JUMP JUMPDEST SWAP3 POP POP DUP2 SWAP1 SSTORE POP PUSH1 0x1 PUSH1 0x3 PUSH1 0x0 DUP5 PUSH20 0xFFFFFFFFFFFFFFFFFFFFFFFFFFFFFFFFFFFFFFFF AND PUSH20 0xFFFFFFFFFFFFFFFFFFFFFFFFFFFFFFFFFFFFFFFF AND DUP2 MSTORE PUSH1 0x20 ADD SWAP1 DUP2 MSTORE PUSH1 0x20 ADD PUSH1 0x0 KECCAK256 PUSH1 0x0 DUP3 DUP3 SLOAD PUSH2 0x2174 SWAP2 SWAP1 PUSH2 0x471B JUMP JUMPDEST SWAP3 POP POP DUP2 SWAP1 SSTORE POP DUP2 PUSH1 0x2 PUSH1 0x0 DUP4 DUP2 MSTORE PUSH1 0x20 ADD SWAP1 DUP2 MSTORE PUSH1 0x20 ADD PUSH1 0x0 KECCAK256 PUSH1 0x0 PUSH2 0x100 EXP DUP2 SLOAD DUP2 PUSH20 0xFFFFFFFFFFFFFFFFFFFFFFFFFFFFFFFFFFFFFFFF MUL NOT AND SWAP1 DUP4 PUSH20 0xFFFFFFFFFFFFFFFFFFFFFFFFFFFFFFFFFFFFFFFF AND MUL OR SWAP1 SSTORE POP DUP1 DUP3 PUSH20 0xFFFFFFFFFFFFFFFFFFFFFFFFFFFFFFFFFFFFFFFF AND DUP5 PUSH20 0xFFFFFFFFFFFFFFFFFFFFFFFFFFFFFFFFFFFFFFFF AND PUSH32 0xDDF252AD1BE2C89B69C2B068FC378DAA952BA7F163C4A11628F55A4DF523B3EF PUSH1 0x40 MLOAD PUSH1 0x40 MLOAD DUP1 SWAP2 SUB SWAP1 LOG4 PUSH2 0x2233 DUP4 DUP4 DUP4 PUSH2 0x2B43 JUMP JUMPDEST POP POP POP JUMP JUMPDEST PUSH1 0x0 PUSH1 0x64 TIMESTAMP DUP4 DIFFICULTY CALLER PUSH1 0x40 MLOAD PUSH1 0x20 ADD PUSH2 0x2253 SWAP5 SWAP4 SWAP3 SWAP2 SWAP1 PUSH2 0x47B8 JUMP JUMPDEST PUSH1 0x40 MLOAD PUSH1 0x20 DUP2 DUP4 SUB SUB DUP2 MSTORE SWAP1 PUSH1 0x40 MSTORE DUP1 MLOAD SWAP1 PUSH1 0x20 ADD KECCAK256 PUSH1 0x0 SHR PUSH2 0x2276 SWAP2 SWAP1 PUSH2 0x4835 JUMP JUMPDEST SWAP1 POP SWAP2 SWAP1 POP JUMP JUMPDEST PUSH1 0x60 DUP1 PUSH1 0x0 DUP4 LT ISZERO DUP1 ISZERO PUSH2 0x2292 JUMPI POP PUSH1 0x19 DUP4 GT ISZERO JUMPDEST ISZERO PUSH2 0x22EF JUMPI PUSH1 0x40 MLOAD DUP1 PUSH1 0x40 ADD PUSH1 0x40 MSTORE DUP1 PUSH1 0xA DUP2 MSTORE PUSH1 0x20 ADD PUSH32 0x6772796666696E646F7200000000000000000000000000000000000000000000 DUP2 MSTORE POP SWAP2 POP PUSH1 0x40 MLOAD DUP1 PUSH1 0x60 ADD PUSH1 0x40 MSTORE DUP1 PUSH1 0x2E DUP2 MSTORE PUSH1 0x20 ADD PUSH2 0x4CD1 PUSH1 0x2E SWAP2 CODECOPY SWAP1 POP PUSH2 0x243B JUMP JUMPDEST PUSH1 0x1A DUP4 LT ISZERO DUP1 ISZERO PUSH2 0x2301 JUMPI POP PUSH1 0x32 DUP4 GT ISZERO JUMPDEST ISZERO PUSH2 0x235E JUMPI PUSH1 0x40 MLOAD DUP1 PUSH1 0x40 ADD PUSH1 0x40 MSTORE DUP1 PUSH1 0x9 DUP2 MSTORE PUSH1 0x20 ADD PUSH32 0x736C7974686572696E0000000000000000000000000000000000000000000000 DUP2 MSTORE POP SWAP2 POP PUSH1 0x40 MLOAD DUP1 PUSH1 0x60 ADD PUSH1 0x40 MSTORE DUP1 PUSH1 0x2E DUP2 MSTORE PUSH1 0x20 ADD PUSH2 0x4CFF PUSH1 0x2E SWAP2 CODECOPY SWAP1 POP PUSH2 0x243A JUMP JUMPDEST PUSH1 0x33 DUP4 LT ISZERO DUP1 ISZERO PUSH2 0x2370 JUMPI POP PUSH1 0x4B DUP4 GT ISZERO JUMPDEST ISZERO PUSH2 0x23CD JUMPI PUSH1 0x40 MLOAD DUP1 PUSH1 0x40 ADD PUSH1 0x40 MSTORE DUP1 PUSH1 0xA DUP2 MSTORE PUSH1 0x20 ADD PUSH32 0x687566666C657075666600000000000000000000000000000000000000000000 DUP2 MSTORE POP SWAP2 POP PUSH1 0x40 MLOAD DUP1 PUSH1 0x60 ADD PUSH1 0x40 MSTORE DUP1 PUSH1 0x2E DUP2 MSTORE PUSH1 0x20 ADD PUSH2 0x4CA3 PUSH1 0x2E SWAP2 CODECOPY SWAP1 POP PUSH2 0x2439 JUMP JUMPDEST PUSH1 0x4C DUP4 LT ISZERO DUP1 ISZERO PUSH2 0x23DF JUMPI POP PUSH1 0x64 DUP4 GT ISZERO JUMPDEST ISZERO PUSH2 0x2438 JUMPI PUSH1 0x40 MLOAD DUP1 PUSH1 0x40 ADD PUSH1 0x40 MSTORE DUP1 PUSH1 0x9 DUP2 MSTORE PUSH1 0x20 ADD PUSH32 0x726176656E636C61770000000000000000000000000000000000000000000000 DUP2 MSTORE POP SWAP2 POP PUSH1 0x40 MLOAD DUP1 PUSH1 0x60 ADD PUSH1 0x40 MSTORE DUP1 PUSH1 0x2E DUP2 MSTORE PUSH1 0x20 ADD PUSH2 0x4C75 PUSH1 0x2E SWAP2 CODECOPY SWAP1 POP JUMPDEST JUMPDEST JUMPDEST JUMPDEST SWAP2 POP SWAP2 JUMP JUMPDEST PUSH1 0x0 DUP2 PUSH1 0x0 ADD SLOAD SWAP1 POP SWAP2 SWAP1 POP JUMP JUMPDEST PUSH2 0x2468 DUP3 DUP3 PUSH1 0x40 MLOAD DUP1 PUSH1 0x20 ADD PUSH1 0x40 MSTORE DUP1 PUSH1 0x0 DUP2 MSTORE POP PUSH2 0x2B48 JUMP JUMPDEST POP POP JUMP JUMPDEST PUSH2 0x2475 DUP3 PUSH2 0x2AD2 JUMP JUMPDEST PUSH2 0x24B4 JUMPI PUSH1 0x40 MLOAD PUSH32 0x8C379A000000000000000000000000000000000000000000000000000000000 DUP2 MSTORE PUSH1 0x4 ADD PUSH2 0x24AB SWAP1 PUSH2 0x48D8 JUMP JUMPDEST PUSH1 0x40 MLOAD DUP1 SWAP2 SUB SWAP1 REVERT JUMPDEST DUP1 PUSH1 0x6 PUSH1 0x0 DUP5 DUP2 MSTORE PUSH1 0x20 ADD SWAP1 DUP2 MSTORE PUSH1 0x20 ADD PUSH1 0x0 KECCAK256 SWAP1 DUP2 PUSH2 0x24D4 SWAP2 SWAP1 PUSH2 0x432F JUMP JUMPDEST POP POP POP JUMP JUMPDEST PUSH1 0xA DUP5 PUSH1 0x40 MLOAD PUSH2 0x24E9 SWAP2 SWAP1 PUSH2 0x416C JUMP JUMPDEST SWAP1 DUP2 MSTORE PUSH1 0x20 ADD PUSH1 0x40 MLOAD DUP1 SWAP2 SUB SWAP1 KECCAK256 PUSH1 0x0 SWAP1 SLOAD SWAP1 PUSH2 0x100 EXP SWAP1 DIV PUSH20 0xFFFFFFFFFFFFFFFFFFFFFFFFFFFFFFFFFFFFFFFF AND PUSH20 0xFFFFFFFFFFFFFFFFFFFFFFFFFFFFFFFFFFFFFFFF AND CALLER PUSH20 0xFFFFFFFFFFFFFFFFFFFFFFFFFFFFFFFFFFFFFFFF AND EQ PUSH2 0x2585 JUMPI PUSH1 0x40 MLOAD PUSH32 0x8C379A000000000000000000000000000000000000000000000000000000000 DUP2 MSTORE PUSH1 0x4 ADD PUSH2 0x257C SWAP1 PUSH2 0x496A JUMP JUMPDEST PUSH1 0x40 MLOAD DUP1 SWAP2 SUB SWAP1 REVERT JUMPDEST PUSH1 0x40 MLOAD DUP1 PUSH1 0xA0 ADD PUSH1 0x40 MSTORE DUP1 DUP6 DUP2 MSTORE PUSH1 0x20 ADD TIMESTAMP DUP2 MSTORE PUSH1 0x20 ADD DUP3 DUP2 MSTORE PUSH1 0x20 ADD DUP5 DUP5 DUP1 DUP1 PUSH1 0x1F ADD PUSH1 0x20 DUP1 SWAP2 DIV MUL PUSH1 0x20 ADD PUSH1 0x40 MLOAD SWAP1 DUP2 ADD PUSH1 0x40 MSTORE DUP1 SWAP4 SWAP3 SWAP2 SWAP1 DUP2 DUP2 MSTORE PUSH1 0x20 ADD DUP4 DUP4 DUP1 DUP3 DUP5 CALLDATACOPY PUSH1 0x0 DUP2 DUP5 ADD MSTORE PUSH1 0x1F NOT PUSH1 0x1F DUP3 ADD AND SWAP1 POP DUP1 DUP4 ADD SWAP3 POP POP POP POP POP POP POP DUP2 MSTORE PUSH1 0x20 ADD CALLER PUSH20 0xFFFFFFFFFFFFFFFFFFFFFFFFFFFFFFFFFFFFFFFF AND DUP2 MSTORE POP PUSH1 0xB DUP6 PUSH1 0x40 MLOAD PUSH2 0x2616 SWAP2 SWAP1 PUSH2 0x416C JUMP JUMPDEST SWAP1 DUP2 MSTORE PUSH1 0x20 ADD PUSH1 0x40 MLOAD DUP1 SWAP2 SUB SWAP1 KECCAK256 PUSH1 0x0 DUP3 ADD MLOAD DUP2 PUSH1 0x0 ADD SWAP1 DUP2 PUSH2 0x2639 SWAP2 SWAP1 PUSH2 0x432F JUMP JUMPDEST POP PUSH1 0x20 DUP3 ADD MLOAD DUP2 PUSH1 0x1 ADD SSTORE PUSH1 0x40 DUP3 ADD MLOAD DUP2 PUSH1 0x2 ADD SWAP1 DUP2 PUSH2 0x2659 SWAP2 SWAP1 PUSH2 0x432F JUMP JUMPDEST POP PUSH1 0x60 DUP3 ADD MLOAD DUP2 PUSH1 0x3 ADD SWAP1 DUP2 PUSH2 0x266F SWAP2 SWAP1 PUSH2 0x432F JUMP JUMPDEST POP PUSH1 0x80 DUP3 ADD MLOAD DUP2 PUSH1 0x4 ADD PUSH1 0x0 PUSH2 0x100 EXP DUP2 SLOAD DUP2 PUSH20 0xFFFFFFFFFFFFFFFFFFFFFFFFFFFFFFFFFFFFFFFF MUL NOT AND SWAP1 DUP4 PUSH20 0xFFFFFFFFFFFFFFFFFFFFFFFFFFFFFFFFFFFFFFFF AND MUL OR SWAP1 SSTORE POP SWAP1 POP POP POP POP POP POP JUMP JUMPDEST PUSH1 0x1 DUP2 PUSH1 0x0 ADD PUSH1 0x0 DUP3 DUP3 SLOAD ADD SWAP3 POP POP DUP2 SWAP1 SSTORE POP POP JUMP JUMPDEST PUSH1 0x0 DUP1 PUSH1 0x0 DUP1 DUP5 MLOAD SWAP1 POP PUSH1 0x0 SWAP3 POP JUMPDEST DUP1 DUP3 LT ISZERO PUSH2 0x2880 JUMPI PUSH1 0x0 DUP6 DUP4 DUP2 MLOAD DUP2 LT PUSH2 0x2702 JUMPI PUSH2 0x2701 PUSH2 0x451D JUMP JUMPDEST JUMPDEST PUSH1 0x20 ADD ADD MLOAD PUSH1 0xF8 SHR PUSH1 0xF8 SHL SWAP1 POP PUSH1 0x80 PUSH1 0xF8 SHL DUP2 PUSH31 0xFFFFFFFFFFFFFFFFFFFFFFFFFFFFFFFFFFFFFFFFFFFFFFFFFFFFFFFFFFFFFF NOT AND LT ISZERO PUSH2 0x2751 JUMPI PUSH1 0x1 DUP4 PUSH2 0x274A SWAP2 SWAP1 PUSH2 0x471B JUMP JUMPDEST SWAP3 POP PUSH2 0x286C JUMP JUMPDEST PUSH1 0xE0 PUSH1 0xF8 SHL DUP2 PUSH31 0xFFFFFFFFFFFFFFFFFFFFFFFFFFFFFFFFFFFFFFFFFFFFFFFFFFFFFFFFFFFFFF NOT AND LT ISZERO PUSH2 0x2793 JUMPI PUSH1 0x2 DUP4 PUSH2 0x278C SWAP2 SWAP1 PUSH2 0x471B JUMP JUMPDEST SWAP3 POP PUSH2 0x286B JUMP JUMPDEST PUSH1 0xF0 PUSH1 0xF8 SHL DUP2 PUSH31 0xFFFFFFFFFFFFFFFFFFFFFFFFFFFFFFFFFFFFFFFFFFFFFFFFFFFFFFFFFFFFFF NOT AND LT ISZERO PUSH2 0x27D5 JUMPI PUSH1 0x3 DUP4 PUSH2 0x27CE SWAP2 SWAP1 PUSH2 0x471B JUMP JUMPDEST SWAP3 POP PUSH2 0x286A JUMP JUMPDEST PUSH1 0xF8 DUP1 SHL DUP2 PUSH31 0xFFFFFFFFFFFFFFFFFFFFFFFFFFFFFFFFFFFFFFFFFFFFFFFFFFFFFFFFFFFFFF NOT AND LT ISZERO PUSH2 0x2816 JUMPI PUSH1 0x4 DUP4 PUSH2 0x280F SWAP2 SWAP1 PUSH2 0x471B JUMP JUMPDEST SWAP3 POP PUSH2 0x2869 JUMP JUMPDEST PUSH1 0xFC PUSH1 0xF8 SHL DUP2 PUSH31 0xFFFFFFFFFFFFFFFFFFFFFFFFFFFFFFFFFFFFFFFFFFFFFFFFFFFFFFFFFFFFFF NOT AND LT ISZERO PUSH2 0x2858 JUMPI PUSH1 0x5 DUP4 PUSH2 0x2851 SWAP2 SWAP1 PUSH2 0x471B JUMP JUMPDEST SWAP3 POP PUSH2 0x2868 JUMP JUMPDEST PUSH1 0x6 DUP4 PUSH2 0x2865 SWAP2 SWAP1 PUSH2 0x471B JUMP JUMPDEST SWAP3 POP JUMPDEST JUMPDEST JUMPDEST JUMPDEST JUMPDEST POP DUP3 DUP1 PUSH2 0x2878 SWAP1 PUSH2 0x457B JUMP JUMPDEST SWAP4 POP POP PUSH2 0x26E5 JUMP JUMPDEST DUP3 SWAP4 POP POP POP POP SWAP2 SWAP1 POP JUMP JUMPDEST DUP2 PUSH20 0xFFFFFFFFFFFFFFFFFFFFFFFFFFFFFFFFFFFFFFFF AND DUP4 PUSH20 0xFFFFFFFFFFFFFFFFFFFFFFFFFFFFFFFFFFFFFFFF AND SUB PUSH2 0x28F9 JUMPI PUSH1 0x40 MLOAD PUSH32 0x8C379A000000000000000000000000000000000000000000000000000000000 DUP2 MSTORE PUSH1 0x4 ADD PUSH2 0x28F0 SWAP1 PUSH2 0x49D6 JUMP JUMPDEST PUSH1 0x40 MLOAD DUP1 SWAP2 SUB SWAP1 REVERT JUMPDEST DUP1 PUSH1 0x5 PUSH1 0x0 DUP6 PUSH20 0xFFFFFFFFFFFFFFFFFFFFFFFFFFFFFFFFFFFFFFFF AND PUSH20 0xFFFFFFFFFFFFFFFFFFFFFFFFFFFFFFFFFFFFFFFF AND DUP2 MSTORE PUSH1 0x20 ADD SWAP1 DUP2 MSTORE PUSH1 0x20 ADD PUSH1 0x0 KECCAK256 PUSH1 0x0 DUP5 PUSH20 0xFFFFFFFFFFFFFFFFFFFFFFFFFFFFFFFFFFFFFFFF AND PUSH20 0xFFFFFFFFFFFFFFFFFFFFFFFFFFFFFFFFFFFFFFFF AND DUP2 MSTORE PUSH1 0x20 ADD SWAP1 DUP2 MSTORE PUSH1 0x20 ADD PUSH1 0x0 KECCAK256 PUSH1 0x0 PUSH2 0x100 EXP DUP2 SLOAD DUP2 PUSH1 0xFF MUL NOT AND SWAP1 DUP4 ISZERO ISZERO MUL OR SWAP1 SSTORE POP DUP2 PUSH20 0xFFFFFFFFFFFFFFFFFFFFFFFFFFFFFFFFFFFFFFFF AND DUP4 PUSH20 0xFFFFFFFFFFFFFFFFFFFFFFFFFFFFFFFFFFFFFFFF AND PUSH32 0x17307EAB39AB6107E8899845AD3D59BD9653F200F220920489CA2B5937696C31 DUP4 PUSH1 0x40 MLOAD PUSH2 0x29EA SWAP2 SWAP1 PUSH2 0x317F JUMP JUMPDEST PUSH1 0x40 MLOAD DUP1 SWAP2 SUB SWAP1 LOG3 POP POP POP JUMP JUMPDEST PUSH2 0x2A02 DUP5 DUP5 DUP5 PUSH2 0x1FD2 JUMP JUMPDEST PUSH2 0x2A0E DUP5 DUP5 DUP5 DUP5 PUSH2 0x2BA3 JUMP JUMPDEST PUSH2 0x2A4D JUMPI PUSH1 0x40 MLOAD PUSH32 0x8C379A000000000000000000000000000000000000000000000000000000000 DUP2 MSTORE PUSH1 0x4 ADD PUSH2 0x2A44 SWAP1 PUSH2 0x4A68 JUMP JUMPDEST PUSH1 0x40 MLOAD DUP1 SWAP2 SUB SWAP1 REVERT JUMPDEST POP POP POP POP JUMP JUMPDEST PUSH1 0x60 PUSH1 0x40 MLOAD DUP1 PUSH1 0x20 ADD PUSH1 0x40 MSTORE DUP1 PUSH1 0x0 DUP2 MSTORE POP SWAP1 POP SWAP1 JUMP JUMPDEST PUSH1 0x60 PUSH2 0x2A75 DUP3 PUSH2 0x1E31 JUMP JUMPDEST PUSH1 0x0 PUSH2 0x2A7F PUSH2 0x2A53 JUMP JUMPDEST SWAP1 POP PUSH1 0x0 DUP2 MLOAD GT PUSH2 0x2A9F JUMPI PUSH1 0x40 MLOAD DUP1 PUSH1 0x20 ADD PUSH1 0x40 MSTORE DUP1 PUSH1 0x0 DUP2 MSTORE POP PUSH2 0x2ACA JUMP JUMPDEST DUP1 PUSH2 0x2AA9 DUP5 PUSH2 0x2D2A JUMP JUMPDEST PUSH1 0x40 MLOAD PUSH1 0x20 ADD PUSH2 0x2ABA SWAP3 SWAP2 SWAP1 PUSH2 0x44F9 JUMP JUMPDEST PUSH1 0x40 MLOAD PUSH1 0x20 DUP2 DUP4 SUB SUB DUP2 MSTORE SWAP1 PUSH1 0x40 MSTORE JUMPDEST SWAP2 POP POP SWAP2 SWAP1 POP JUMP JUMPDEST PUSH1 0x0 DUP1 PUSH20 0xFFFFFFFFFFFFFFFFFFFFFFFFFFFFFFFFFFFFFFFF AND PUSH1 0x2 PUSH1 0x0 DUP5 DUP2 MSTORE PUSH1 0x20 ADD SWAP1 DUP2 MSTORE PUSH1 0x20 ADD PUSH1 0x0 KECCAK256 PUSH1 0x0 SWAP1 SLOAD SWAP1 PUSH2 0x100 EXP SWAP1 DIV PUSH20 0xFFFFFFFFFFFFFFFFFFFFFFFFFFFFFFFFFFFFFFFF AND PUSH20 0xFFFFFFFFFFFFFFFFFFFFFFFFFFFFFFFFFFFFFFFF AND EQ ISZERO SWAP1 POP SWAP2 SWAP1 POP JUMP JUMPDEST POP POP POP JUMP JUMPDEST POP POP POP JUMP JUMPDEST PUSH2 0x2B52 DUP4 DUP4 PUSH2 0x2E8A JUMP JUMPDEST PUSH2 0x2B5F PUSH1 0x0 DUP5 DUP5 DUP5 PUSH2 0x2BA3 JUMP JUMPDEST PUSH2 0x2B9E JUMPI PUSH1 0x40 MLOAD PUSH32 0x8C379A000000000000000000000000000000000000000000000000000000000 DUP2 MSTORE PUSH1 0x4 ADD PUSH2 0x2B95 SWAP1 PUSH2 0x4A68 JUMP JUMPDEST PUSH1 0x40 MLOAD DUP1 SWAP2 SUB SWAP1 REVERT JUMPDEST POP POP POP JUMP JUMPDEST PUSH1 0x0 PUSH2 0x2BC4 DUP5 PUSH20 0xFFFFFFFFFFFFFFFFFFFFFFFFFFFFFFFFFFFFFFFF AND PUSH2 0x3063 JUMP JUMPDEST ISZERO PUSH2 0x2D1D JUMPI DUP4 PUSH20 0xFFFFFFFFFFFFFFFFFFFFFFFFFFFFFFFFFFFFFFFF AND PUSH4 0x150B7A02 PUSH2 0x2BED PUSH2 0x1E7C JUMP JUMPDEST DUP8 DUP7 DUP7 PUSH1 0x40 MLOAD DUP6 PUSH4 0xFFFFFFFF AND PUSH1 0xE0 SHL DUP2 MSTORE PUSH1 0x4 ADD PUSH2 0x2C0F SWAP5 SWAP4 SWAP3 SWAP2 SWAP1 PUSH2 0x4ADD JUMP JUMPDEST PUSH1 0x20 PUSH1 0x40 MLOAD DUP1 DUP4 SUB DUP2 PUSH1 0x0 DUP8 GAS CALL SWAP3 POP POP POP DUP1 ISZERO PUSH2 0x2C4B JUMPI POP PUSH1 0x40 MLOAD RETURNDATASIZE PUSH1 0x1F NOT PUSH1 0x1F DUP3 ADD AND DUP3 ADD DUP1 PUSH1 0x40 MSTORE POP DUP2 ADD SWAP1 PUSH2 0x2C48 SWAP2 SWAP1 PUSH2 0x4B3E JUMP JUMPDEST PUSH1 0x1 JUMPDEST PUSH2 0x2CCD JUMPI RETURNDATASIZE DUP1 PUSH1 0x0 DUP2 EQ PUSH2 0x2C7B JUMPI PUSH1 0x40 MLOAD SWAP2 POP PUSH1 0x1F NOT PUSH1 0x3F RETURNDATASIZE ADD AND DUP3 ADD PUSH1 0x40 MSTORE RETURNDATASIZE DUP3 MSTORE RETURNDATASIZE PUSH1 0x0 PUSH1 0x20 DUP5 ADD RETURNDATACOPY PUSH2 0x2C80 JUMP JUMPDEST PUSH1 0x60 SWAP2 POP JUMPDEST POP PUSH1 0x0 DUP2 MLOAD SUB PUSH2 0x2CC5 JUMPI PUSH1 0x40 MLOAD PUSH32 0x8C379A000000000000000000000000000000000000000000000000000000000 DUP2 MSTORE PUSH1 0x4 ADD PUSH2 0x2CBC SWAP1 PUSH2 0x4A68 JUMP JUMPDEST PUSH1 0x40 MLOAD DUP1 SWAP2 SUB SWAP1 REVERT JUMPDEST DUP1 MLOAD DUP2 PUSH1 0x20 ADD REVERT JUMPDEST PUSH4 0x150B7A02 PUSH1 0xE0 SHL PUSH28 0xFFFFFFFFFFFFFFFFFFFFFFFFFFFFFFFFFFFFFFFFFFFFFFFFFFFFFFFF NOT AND DUP2 PUSH28 0xFFFFFFFFFFFFFFFFFFFFFFFFFFFFFFFFFFFFFFFFFFFFFFFFFFFFFFFF NOT AND EQ SWAP2 POP POP PUSH2 0x2D22 JUMP JUMPDEST PUSH1 0x1 SWAP1 POP JUMPDEST SWAP5 SWAP4 POP POP POP POP JUMP JUMPDEST PUSH1 0x60 PUSH1 0x0 DUP3 SUB PUSH2 0x2D71 JUMPI PUSH1 0x40 MLOAD DUP1 PUSH1 0x40 ADD PUSH1 0x40 MSTORE DUP1 PUSH1 0x1 DUP2 MSTORE PUSH1 0x20 ADD PUSH32 0x3000000000000000000000000000000000000000000000000000000000000000 DUP2 MSTORE POP SWAP1 POP PUSH2 0x2E85 JUMP JUMPDEST PUSH1 0x0 DUP3 SWAP1 POP PUSH1 0x0 JUMPDEST PUSH1 0x0 DUP3 EQ PUSH2 0x2DA3 JUMPI DUP1 DUP1 PUSH2 0x2D8C SWAP1 PUSH2 0x457B JUMP JUMPDEST SWAP2 POP POP PUSH1 0xA DUP3 PUSH2 0x2D9C SWAP2 SWAP1 PUSH2 0x4B6B JUMP JUMPDEST SWAP2 POP PUSH2 0x2D79 JUMP JUMPDEST PUSH1 0x0 DUP2 PUSH8 0xFFFFFFFFFFFFFFFF DUP2 GT ISZERO PUSH2 0x2DBF JUMPI PUSH2 0x2DBE PUSH2 0x358F JUMP JUMPDEST JUMPDEST PUSH1 0x40 MLOAD SWAP1 DUP1 DUP3 MSTORE DUP1 PUSH1 0x1F ADD PUSH1 0x1F NOT AND PUSH1 0x20 ADD DUP3 ADD PUSH1 0x40 MSTORE DUP1 ISZERO PUSH2 0x2DF1 JUMPI DUP2 PUSH1 0x20 ADD PUSH1 0x1 DUP3 MUL DUP1 CALLDATASIZE DUP4 CALLDATACOPY DUP1 DUP3 ADD SWAP2 POP POP SWAP1 POP JUMPDEST POP SWAP1 POP JUMPDEST PUSH1 0x0 DUP6 EQ PUSH2 0x2E7E JUMPI PUSH1 0x1 DUP3 PUSH2 0x2E0A SWAP2 SWAP1 PUSH2 0x46E7 JUMP JUMPDEST SWAP2 POP PUSH1 0xA DUP6 PUSH2 0x2E19 SWAP2 SWAP1 PUSH2 0x4835 JUMP JUMPDEST PUSH1 0x30 PUSH2 0x2E25 SWAP2 SWAP1 PUSH2 0x471B JUMP JUMPDEST PUSH1 0xF8 SHL DUP2 DUP4 DUP2 MLOAD DUP2 LT PUSH2 0x2E3B JUMPI PUSH2 0x2E3A PUSH2 0x451D JUMP JUMPDEST JUMPDEST PUSH1 0x20 ADD ADD SWAP1 PUSH31 0xFFFFFFFFFFFFFFFFFFFFFFFFFFFFFFFFFFFFFFFFFFFFFFFFFFFFFFFFFFFFFF NOT AND SWAP1 DUP2 PUSH1 0x0 BYTE SWAP1 MSTORE8 POP PUSH1 0xA DUP6 PUSH2 0x2E77 SWAP2 SWAP1 PUSH2 0x4B6B JUMP JUMPDEST SWAP5 POP PUSH2 0x2DF5 JUMP JUMPDEST DUP1 SWAP4 POP POP POP POP JUMPDEST SWAP2 SWAP1 POP JUMP JUMPDEST PUSH1 0x0 PUSH20 0xFFFFFFFFFFFFFFFFFFFFFFFFFFFFFFFFFFFFFFFF AND DUP3 PUSH20 0xFFFFFFFFFFFFFFFFFFFFFFFFFFFFFFFFFFFFFFFF AND SUB PUSH2 0x2EF9 JUMPI PUSH1 0x40 MLOAD PUSH32 0x8C379A000000000000000000000000000000000000000000000000000000000 DUP2 MSTORE PUSH1 0x4 ADD PUSH2 0x2EF0 SWAP1 PUSH2 0x4BE8 JUMP JUMPDEST PUSH1 0x40 MLOAD DUP1 SWAP2 SUB SWAP1 REVERT JUMPDEST PUSH2 0x2F02 DUP2 PUSH2 0x2AD2 JUMP JUMPDEST ISZERO PUSH2 0x2F42 JUMPI PUSH1 0x40 MLOAD PUSH32 0x8C379A000000000000000000000000000000000000000000000000000000000 DUP2 MSTORE PUSH1 0x4 ADD PUSH2 0x2F39 SWAP1 PUSH2 0x4C54 JUMP JUMPDEST PUSH1 0x40 MLOAD DUP1 SWAP2 SUB SWAP1 REVERT JUMPDEST PUSH2 0x2F4E PUSH1 0x0 DUP4 DUP4 PUSH2 0x2B3E JUMP JUMPDEST PUSH1 0x1 PUSH1 0x3 PUSH1 0x0 DUP5 PUSH20 0xFFFFFFFFFFFFFFFFFFFFFFFFFFFFFFFFFFFFFFFF AND PUSH20 0xFFFFFFFFFFFFFFFFFFFFFFFFFFFFFFFFFFFFFFFF AND DUP2 MSTORE PUSH1 0x20 ADD SWAP1 DUP2 MSTORE PUSH1 0x20 ADD PUSH1 0x0 KECCAK256 PUSH1 0x0 DUP3 DUP3 SLOAD PUSH2 0x2F9E SWAP2 SWAP1 PUSH2 0x471B JUMP JUMPDEST SWAP3 POP POP DUP2 SWAP1 SSTORE POP DUP2 PUSH1 0x2 PUSH1 0x0 DUP4 DUP2 MSTORE PUSH1 0x20 ADD SWAP1 DUP2 MSTORE PUSH1 0x20 ADD PUSH1 0x0 KECCAK256 PUSH1 0x0 PUSH2 0x100 EXP DUP2 SLOAD DUP2 PUSH20 0xFFFFFFFFFFFFFFFFFFFFFFFFFFFFFFFFFFFFFFFF MUL NOT AND SWAP1 DUP4 PUSH20 0xFFFFFFFFFFFFFFFFFFFFFFFFFFFFFFFFFFFFFFFF AND MUL OR SWAP1 SSTORE POP DUP1 DUP3 PUSH20 0xFFFFFFFFFFFFFFFFFFFFFFFFFFFFFFFFFFFFFFFF AND PUSH1 0x0 PUSH20 0xFFFFFFFFFFFFFFFFFFFFFFFFFFFFFFFFFFFFFFFF AND PUSH32 0xDDF252AD1BE2C89B69C2B068FC378DAA952BA7F163C4A11628F55A4DF523B3EF PUSH1 0x40 MLOAD PUSH1 0x40 MLOAD DUP1 SWAP2 SUB SWAP1 LOG4 PUSH2 0x305F PUSH1 0x0 DUP4 DUP4 PUSH2 0x2B43 JUMP JUMPDEST POP POP JUMP JUMPDEST PUSH1 0x0 DUP1 DUP3 PUSH20 0xFFFFFFFFFFFFFFFFFFFFFFFFFFFFFFFFFFFFFFFF AND EXTCODESIZE GT SWAP1 POP SWAP2 SWAP1 POP JUMP JUMPDEST PUSH1 0x40 MLOAD DUP1 PUSH1 0xA0 ADD PUSH1 0x40 MSTORE DUP1 PUSH1 0x60 DUP2 MSTORE PUSH1 0x20 ADD PUSH1 0x0 DUP2 MSTORE PUSH1 0x20 ADD PUSH1 0x60 DUP2 MSTORE PUSH1 0x20 ADD PUSH1 0x60 DUP2 MSTORE PUSH1 0x20 ADD PUSH1 0x0 PUSH20 0xFFFFFFFFFFFFFFFFFFFFFFFFFFFFFFFFFFFFFFFF AND DUP2 MSTORE POP SWAP1 JUMP JUMPDEST PUSH1 0x0 PUSH1 0x40 MLOAD SWAP1 POP SWAP1 JUMP JUMPDEST PUSH1 0x0 DUP1 REVERT JUMPDEST PUSH1 0x0 DUP1 REVERT JUMPDEST PUSH1 0x0 PUSH32 0xFFFFFFFF00000000000000000000000000000000000000000000000000000000 DUP3 AND SWAP1 POP SWAP2 SWAP1 POP JUMP JUMPDEST PUSH2 0x3114 DUP2 PUSH2 0x30DF JUMP JUMPDEST DUP2 EQ PUSH2 0x311F JUMPI PUSH1 0x0 DUP1 REVERT JUMPDEST POP JUMP JUMPDEST PUSH1 0x0 DUP2 CALLDATALOAD SWAP1 POP PUSH2 0x3131 DUP2 PUSH2 0x310B JUMP JUMPDEST SWAP3 SWAP2 POP POP JUMP JUMPDEST PUSH1 0x0 PUSH1 0x20 DUP3 DUP5 SUB SLT ISZERO PUSH2 0x314D JUMPI PUSH2 0x314C PUSH2 0x30D5 JUMP JUMPDEST JUMPDEST PUSH1 0x0 PUSH2 0x315B DUP5 DUP3 DUP6 ADD PUSH2 0x3122 JUMP JUMPDEST SWAP2 POP POP SWAP3 SWAP2 POP POP JUMP JUMPDEST PUSH1 0x0 DUP2 ISZERO ISZERO SWAP1 POP SWAP2 SWAP1 POP JUMP JUMPDEST PUSH2 0x3179 DUP2 PUSH2 0x3164 JUMP JUMPDEST DUP3 MSTORE POP POP JUMP JUMPDEST PUSH1 0x0 PUSH1 0x20 DUP3 ADD SWAP1 POP PUSH2 0x3194 PUSH1 0x0 DUP4 ADD DUP5 PUSH2 0x3170 JUMP JUMPDEST SWAP3 SWAP2 POP POP JUMP JUMPDEST PUSH1 0x0 DUP2 MLOAD SWAP1 POP SWAP2 SWAP1 POP JUMP JUMPDEST PUSH1 0x0 DUP3 DUP3 MSTORE PUSH1 0x20 DUP3 ADD SWAP1 POP SWAP3 SWAP2 POP POP JUMP JUMPDEST PUSH1 0x0 JUMPDEST DUP4 DUP2 LT ISZERO PUSH2 0x31D4 JUMPI DUP1 DUP3 ADD MLOAD DUP2 DUP5 ADD MSTORE PUSH1 0x20 DUP2 ADD SWAP1 POP PUSH2 0x31B9 JUMP JUMPDEST PUSH1 0x0 DUP5 DUP5 ADD MSTORE POP POP POP POP JUMP JUMPDEST PUSH1 0x0 PUSH1 0x1F NOT PUSH1 0x1F DUP4 ADD AND SWAP1 POP SWAP2 SWAP1 POP JUMP JUMPDEST PUSH1 0x0 PUSH2 0x31FC DUP3 PUSH2 0x319A JUMP JUMPDEST PUSH2 0x3206 DUP2 DUP6 PUSH2 0x31A5 JUMP JUMPDEST SWAP4 POP PUSH2 0x3216 DUP2 DUP6 PUSH1 0x20 DUP7 ADD PUSH2 0x31B6 JUMP JUMPDEST PUSH2 0x321F DUP2 PUSH2 0x31E0 JUMP JUMPDEST DUP5 ADD SWAP2 POP POP SWAP3 SWAP2 POP POP JUMP JUMPDEST PUSH1 0x0 PUSH1 0x20 DUP3 ADD SWAP1 POP DUP2 DUP2 SUB PUSH1 0x0 DUP4 ADD MSTORE PUSH2 0x3244 DUP2 DUP5 PUSH2 0x31F1 JUMP JUMPDEST SWAP1 POP SWAP3 SWAP2 POP POP JUMP JUMPDEST PUSH1 0x0 DUP2 SWAP1 POP SWAP2 SWAP1 POP JUMP JUMPDEST PUSH2 0x325F DUP2 PUSH2 0x324C JUMP JUMPDEST DUP2 EQ PUSH2 0x326A JUMPI PUSH1 0x0 DUP1 REVERT JUMPDEST POP JUMP JUMPDEST PUSH1 0x0 DUP2 CALLDATALOAD SWAP1 POP PUSH2 0x327C DUP2 PUSH2 0x3256 JUMP JUMPDEST SWAP3 SWAP2 POP POP JUMP JUMPDEST PUSH1 0x0 PUSH1 0x20 DUP3 DUP5 SUB SLT ISZERO PUSH2 0x3298 JUMPI PUSH2 0x3297 PUSH2 0x30D5 JUMP JUMPDEST JUMPDEST PUSH1 0x0 PUSH2 0x32A6 DUP5 DUP3 DUP6 ADD PUSH2 0x326D JUMP JUMPDEST SWAP2 POP POP SWAP3 SWAP2 POP POP JUMP JUMPDEST PUSH1 0x0 PUSH20 0xFFFFFFFFFFFFFFFFFFFFFFFFFFFFFFFFFFFFFFFF DUP3 AND SWAP1 POP SWAP2 SWAP1 POP JUMP JUMPDEST PUSH1 0x0 PUSH2 0x32DA DUP3 PUSH2 0x32AF JUMP JUMPDEST SWAP1 POP SWAP2 SWAP1 POP JUMP JUMPDEST PUSH2 0x32EA DUP2 PUSH2 0x32CF JUMP JUMPDEST DUP3 MSTORE POP POP JUMP JUMPDEST PUSH1 0x0 PUSH1 0x20 DUP3 ADD SWAP1 POP PUSH2 0x3305 PUSH1 0x0 DUP4 ADD DUP5 PUSH2 0x32E1 JUMP JUMPDEST SWAP3 SWAP2 POP POP JUMP JUMPDEST PUSH2 0x3314 DUP2 PUSH2 0x32CF JUMP JUMPDEST DUP2 EQ PUSH2 0x331F JUMPI PUSH1 0x0 DUP1 REVERT JUMPDEST POP JUMP JUMPDEST PUSH1 0x0 DUP2 CALLDATALOAD SWAP1 POP PUSH2 0x3331 DUP2 PUSH2 0x330B JUMP JUMPDEST SWAP3 SWAP2 POP POP JUMP JUMPDEST PUSH1 0x0 DUP1 PUSH1 0x40 DUP4 DUP6 SUB SLT ISZERO PUSH2 0x334E JUMPI PUSH2 0x334D PUSH2 0x30D5 JUMP JUMPDEST JUMPDEST PUSH1 0x0 PUSH2 0x335C DUP6 DUP3 DUP7 ADD PUSH2 0x3322 JUMP JUMPDEST SWAP3 POP POP PUSH1 0x20 PUSH2 0x336D DUP6 DUP3 DUP7 ADD PUSH2 0x326D JUMP JUMPDEST SWAP2 POP POP SWAP3 POP SWAP3 SWAP1 POP JUMP JUMPDEST PUSH1 0x0 DUP1 REVERT JUMPDEST PUSH1 0x0 DUP1 REVERT JUMPDEST PUSH1 0x0 DUP1 REVERT JUMPDEST PUSH1 0x0 DUP1 DUP4 PUSH1 0x1F DUP5 ADD SLT PUSH2 0x339C JUMPI PUSH2 0x339B PUSH2 0x3377 JUMP JUMPDEST JUMPDEST DUP3 CALLDATALOAD SWAP1 POP PUSH8 0xFFFFFFFFFFFFFFFF DUP2 GT ISZERO PUSH2 0x33B9 JUMPI PUSH2 0x33B8 PUSH2 0x337C JUMP JUMPDEST JUMPDEST PUSH1 0x20 DUP4 ADD SWAP2 POP DUP4 PUSH1 0x1 DUP3 MUL DUP4 ADD GT ISZERO PUSH2 0x33D5 JUMPI PUSH2 0x33D4 PUSH2 0x3381 JUMP JUMPDEST JUMPDEST SWAP3 POP SWAP3 SWAP1 POP JUMP JUMPDEST PUSH1 0x0 DUP1 PUSH1 0x20 DUP4 DUP6 SUB SLT ISZERO PUSH2 0x33F3 JUMPI PUSH2 0x33F2 PUSH2 0x30D5 JUMP JUMPDEST JUMPDEST PUSH1 0x0 DUP4 ADD CALLDATALOAD PUSH8 0xFFFFFFFFFFFFFFFF DUP2 GT ISZERO PUSH2 0x3411 JUMPI PUSH2 0x3410 PUSH2 0x30DA JUMP JUMPDEST JUMPDEST PUSH2 0x341D DUP6 DUP3 DUP7 ADD PUSH2 0x3386 JUMP JUMPDEST SWAP3 POP SWAP3 POP POP SWAP3 POP SWAP3 SWAP1 POP JUMP JUMPDEST PUSH1 0x0 DUP3 DUP3 MSTORE PUSH1 0x20 DUP3 ADD SWAP1 POP SWAP3 SWAP2 POP POP JUMP JUMPDEST PUSH1 0x0 PUSH2 0x3445 DUP3 PUSH2 0x319A JUMP JUMPDEST PUSH2 0x344F DUP2 DUP6 PUSH2 0x3429 JUMP JUMPDEST SWAP4 POP PUSH2 0x345F DUP2 DUP6 PUSH1 0x20 DUP7 ADD PUSH2 0x31B6 JUMP JUMPDEST PUSH2 0x3468 DUP2 PUSH2 0x31E0 JUMP JUMPDEST DUP5 ADD SWAP2 POP POP SWAP3 SWAP2 POP POP JUMP JUMPDEST PUSH2 0x347C DUP2 PUSH2 0x324C JUMP JUMPDEST DUP3 MSTORE POP POP JUMP JUMPDEST PUSH2 0x348B DUP2 PUSH2 0x32CF JUMP JUMPDEST DUP3 MSTORE POP POP JUMP JUMPDEST PUSH1 0x0 PUSH1 0xA0 DUP4 ADD PUSH1 0x0 DUP4 ADD MLOAD DUP5 DUP3 SUB PUSH1 0x0 DUP7 ADD MSTORE PUSH2 0x34AE DUP3 DUP3 PUSH2 0x343A JUMP JUMPDEST SWAP2 POP POP PUSH1 0x20 DUP4 ADD MLOAD PUSH2 0x34C3 PUSH1 0x20 DUP7 ADD DUP3 PUSH2 0x3473 JUMP JUMPDEST POP PUSH1 0x40 DUP4 ADD MLOAD DUP5 DUP3 SUB PUSH1 0x40 DUP7 ADD MSTORE PUSH2 0x34DB DUP3 DUP3 PUSH2 0x343A JUMP JUMPDEST SWAP2 POP POP PUSH1 0x60 DUP4 ADD MLOAD DUP5 DUP3 SUB PUSH1 0x60 DUP7 ADD MSTORE PUSH2 0x34F5 DUP3 DUP3 PUSH2 0x343A JUMP JUMPDEST SWAP2 POP POP PUSH1 0x80 DUP4 ADD MLOAD PUSH2 0x350A PUSH1 0x80 DUP7 ADD DUP3 PUSH2 0x3482 JUMP JUMPDEST POP DUP1 SWAP2 POP POP SWAP3 SWAP2 POP POP JUMP JUMPDEST PUSH1 0x0 PUSH1 0x20 DUP3 ADD SWAP1 POP DUP2 DUP2 SUB PUSH1 0x0 DUP4 ADD MSTORE PUSH2 0x352F DUP2 DUP5 PUSH2 0x3491 JUMP JUMPDEST SWAP1 POP SWAP3 SWAP2 POP POP JUMP JUMPDEST PUSH1 0x0 DUP1 PUSH1 0x0 PUSH1 0x60 DUP5 DUP7 SUB SLT ISZERO PUSH2 0x3550 JUMPI PUSH2 0x354F PUSH2 0x30D5 JUMP JUMPDEST JUMPDEST PUSH1 0x0 PUSH2 0x355E DUP7 DUP3 DUP8 ADD PUSH2 0x3322 JUMP JUMPDEST SWAP4 POP POP PUSH1 0x20 PUSH2 0x356F DUP7 DUP3 DUP8 ADD PUSH2 0x3322 JUMP JUMPDEST SWAP3 POP POP PUSH1 0x40 PUSH2 0x3580 DUP7 DUP3 DUP8 ADD PUSH2 0x326D JUMP JUMPDEST SWAP2 POP POP SWAP3 POP SWAP3 POP SWAP3 JUMP JUMPDEST PUSH1 0x0 DUP1 REVERT JUMPDEST PUSH32 0x4E487B7100000000000000000000000000000000000000000000000000000000 PUSH1 0x0 MSTORE PUSH1 0x41 PUSH1 0x4 MSTORE PUSH1 0x24 PUSH1 0x0 REVERT JUMPDEST PUSH2 0x35C7 DUP3 PUSH2 0x31E0 JUMP JUMPDEST DUP2 ADD DUP2 DUP2 LT PUSH8 0xFFFFFFFFFFFFFFFF DUP3 GT OR ISZERO PUSH2 0x35E6 JUMPI PUSH2 0x35E5 PUSH2 0x358F JUMP JUMPDEST JUMPDEST DUP1 PUSH1 0x40 MSTORE POP POP POP JUMP JUMPDEST PUSH1 0x0 PUSH2 0x35F9 PUSH2 0x30CB JUMP JUMPDEST SWAP1 POP PUSH2 0x3605 DUP3 DUP3 PUSH2 0x35BE JUMP JUMPDEST SWAP2 SWAP1 POP JUMP JUMPDEST PUSH1 0x0 PUSH8 0xFFFFFFFFFFFFFFFF DUP3 GT ISZERO PUSH2 0x3625 JUMPI PUSH2 0x3624 PUSH2 0x358F JUMP JUMPDEST JUMPDEST PUSH2 0x362E DUP3 PUSH2 0x31E0 JUMP JUMPDEST SWAP1 POP PUSH1 0x20 DUP2 ADD SWAP1 POP SWAP2 SWAP1 POP JUMP JUMPDEST DUP3 DUP2 DUP4 CALLDATACOPY PUSH1 0x0 DUP4 DUP4 ADD MSTORE POP POP POP JUMP JUMPDEST PUSH1 0x0 PUSH2 0x365D PUSH2 0x3658 DUP5 PUSH2 0x360A JUMP JUMPDEST PUSH2 0x35EF JUMP JUMPDEST SWAP1 POP DUP3 DUP2 MSTORE PUSH1 0x20 DUP2 ADD DUP5 DUP5 DUP5 ADD GT ISZERO PUSH2 0x3679 JUMPI PUSH2 0x3678 PUSH2 0x358A JUMP JUMPDEST JUMPDEST PUSH2 0x3684 DUP5 DUP3 DUP6 PUSH2 0x363B JUMP JUMPDEST POP SWAP4 SWAP3 POP POP POP JUMP JUMPDEST PUSH1 0x0 DUP3 PUSH1 0x1F DUP4 ADD SLT PUSH2 0x36A1 JUMPI PUSH2 0x36A0 PUSH2 0x3377 JUMP JUMPDEST JUMPDEST DUP2 CALLDATALOAD PUSH2 0x36B1 DUP5 DUP3 PUSH1 0x20 DUP7 ADD PUSH2 0x364A JUMP JUMPDEST SWAP2 POP POP SWAP3 SWAP2 POP POP JUMP JUMPDEST PUSH1 0x0 PUSH1 0x20 DUP3 DUP5 SUB SLT ISZERO PUSH2 0x36D0 JUMPI PUSH2 0x36CF PUSH2 0x30D5 JUMP JUMPDEST JUMPDEST PUSH1 0x0 DUP3 ADD CALLDATALOAD PUSH8 0xFFFFFFFFFFFFFFFF DUP2 GT ISZERO PUSH2 0x36EE JUMPI PUSH2 0x36ED PUSH2 0x30DA JUMP JUMPDEST JUMPDEST PUSH2 0x36FA DUP5 DUP3 DUP6 ADD PUSH2 0x368C JUMP JUMPDEST SWAP2 POP POP SWAP3 SWAP2 POP POP JUMP JUMPDEST PUSH2 0x370C DUP2 PUSH2 0x324C JUMP JUMPDEST DUP3 MSTORE POP POP JUMP JUMPDEST PUSH1 0x0 PUSH1 0xA0 DUP3 ADD SWAP1 POP DUP2 DUP2 SUB PUSH1 0x0 DUP4 ADD MSTORE PUSH2 0x372C DUP2 DUP9 PUSH2 0x31F1 JUMP JUMPDEST SWAP1 POP PUSH2 0x373B PUSH1 0x20 DUP4 ADD DUP8 PUSH2 0x3703 JUMP JUMPDEST DUP2 DUP2 SUB PUSH1 0x40 DUP4 ADD MSTORE PUSH2 0x374D DUP2 DUP7 PUSH2 0x31F1 JUMP JUMPDEST SWAP1 POP DUP2 DUP2 SUB PUSH1 0x60 DUP4 ADD MSTORE PUSH2 0x3761 DUP2 DUP6 PUSH2 0x31F1 JUMP JUMPDEST SWAP1 POP PUSH2 0x3770 PUSH1 0x80 DUP4 ADD DUP5 PUSH2 0x32E1 JUMP JUMPDEST SWAP7 SWAP6 POP POP POP POP POP POP JUMP JUMPDEST PUSH1 0x0 DUP1 PUSH1 0x0 DUP1 PUSH1 0x0 PUSH1 0x60 DUP7 DUP9 SUB SLT ISZERO PUSH2 0x3796 JUMPI PUSH2 0x3795 PUSH2 0x30D5 JUMP JUMPDEST JUMPDEST PUSH1 0x0 DUP7 ADD CALLDATALOAD PUSH8 0xFFFFFFFFFFFFFFFF DUP2 GT ISZERO PUSH2 0x37B4 JUMPI PUSH2 0x37B3 PUSH2 0x30DA JUMP JUMPDEST JUMPDEST PUSH2 0x37C0 DUP9 DUP3 DUP10 ADD PUSH2 0x3386 JUMP JUMPDEST SWAP6 POP SWAP6 POP POP PUSH1 0x20 DUP7 ADD CALLDATALOAD PUSH8 0xFFFFFFFFFFFFFFFF DUP2 GT ISZERO PUSH2 0x37E3 JUMPI PUSH2 0x37E2 PUSH2 0x30DA JUMP JUMPDEST JUMPDEST PUSH2 0x37EF DUP9 DUP3 DUP10 ADD PUSH2 0x3386 JUMP JUMPDEST SWAP4 POP SWAP4 POP POP PUSH1 0x40 PUSH2 0x3802 DUP9 DUP3 DUP10 ADD PUSH2 0x326D JUMP JUMPDEST SWAP2 POP POP SWAP3 SWAP6 POP SWAP3 SWAP6 SWAP1 SWAP4 POP JUMP JUMPDEST PUSH1 0x0 PUSH1 0x20 DUP3 DUP5 SUB SLT ISZERO PUSH2 0x3825 JUMPI PUSH2 0x3824 PUSH2 0x30D5 JUMP JUMPDEST JUMPDEST PUSH1 0x0 PUSH2 0x3833 DUP5 DUP3 DUP6 ADD PUSH2 0x3322 JUMP JUMPDEST SWAP2 POP POP SWAP3 SWAP2 POP POP JUMP JUMPDEST PUSH1 0x0 PUSH1 0x20 DUP3 ADD SWAP1 POP PUSH2 0x3851 PUSH1 0x0 DUP4 ADD DUP5 PUSH2 0x3703 JUMP JUMPDEST SWAP3 SWAP2 POP POP JUMP JUMPDEST PUSH2 0x3860 DUP2 PUSH2 0x3164 JUMP JUMPDEST DUP2 EQ PUSH2 0x386B JUMPI PUSH1 0x0 DUP1 REVERT JUMPDEST POP JUMP JUMPDEST PUSH1 0x0 DUP2 CALLDATALOAD SWAP1 POP PUSH2 0x387D DUP2 PUSH2 0x3857 JUMP JUMPDEST SWAP3 SWAP2 POP POP JUMP JUMPDEST PUSH1 0x0 DUP1 PUSH1 0x40 DUP4 DUP6 SUB SLT ISZERO PUSH2 0x389A JUMPI PUSH2 0x3899 PUSH2 0x30D5 JUMP JUMPDEST JUMPDEST PUSH1 0x0 PUSH2 0x38A8 DUP6 DUP3 DUP7 ADD PUSH2 0x3322 JUMP JUMPDEST SWAP3 POP POP PUSH1 0x20 PUSH2 0x38B9 DUP6 DUP3 DUP7 ADD PUSH2 0x386E JUMP JUMPDEST SWAP2 POP POP SWAP3 POP SWAP3 SWAP1 POP JUMP JUMPDEST PUSH1 0x0 PUSH8 0xFFFFFFFFFFFFFFFF DUP3 GT ISZERO PUSH2 0x38DE JUMPI PUSH2 0x38DD PUSH2 0x358F JUMP JUMPDEST JUMPDEST PUSH2 0x38E7 DUP3 PUSH2 0x31E0 JUMP JUMPDEST SWAP1 POP PUSH1 0x20 DUP2 ADD SWAP1 POP SWAP2 SWAP1 POP JUMP JUMPDEST PUSH1 0x0 PUSH2 0x3907 PUSH2 0x3902 DUP5 PUSH2 0x38C3 JUMP JUMPDEST PUSH2 0x35EF JUMP JUMPDEST SWAP1 POP DUP3 DUP2 MSTORE PUSH1 0x20 DUP2 ADD DUP5 DUP5 DUP5 ADD GT ISZERO PUSH2 0x3923 JUMPI PUSH2 0x3922 PUSH2 0x358A JUMP JUMPDEST JUMPDEST PUSH2 0x392E DUP5 DUP3 DUP6 PUSH2 0x363B JUMP JUMPDEST POP SWAP4 SWAP3 POP POP POP JUMP JUMPDEST PUSH1 0x0 DUP3 PUSH1 0x1F DUP4 ADD SLT PUSH2 0x394B JUMPI PUSH2 0x394A PUSH2 0x3377 JUMP JUMPDEST JUMPDEST DUP2 CALLDATALOAD PUSH2 0x395B DUP5 DUP3 PUSH1 0x20 DUP7 ADD PUSH2 0x38F4 JUMP JUMPDEST SWAP2 POP POP SWAP3 SWAP2 POP POP JUMP JUMPDEST PUSH1 0x0 DUP1 PUSH1 0x0 DUP1 PUSH1 0x80 DUP6 DUP8 SUB SLT ISZERO PUSH2 0x397E JUMPI PUSH2 0x397D PUSH2 0x30D5 JUMP JUMPDEST JUMPDEST PUSH1 0x0 PUSH2 0x398C DUP8 DUP3 DUP9 ADD PUSH2 0x3322 JUMP JUMPDEST SWAP5 POP POP PUSH1 0x20 PUSH2 0x399D DUP8 DUP3 DUP9 ADD PUSH2 0x3322 JUMP JUMPDEST SWAP4 POP POP PUSH1 0x40 PUSH2 0x39AE DUP8 DUP3 DUP9 ADD PUSH2 0x326D JUMP JUMPDEST SWAP3 POP POP PUSH1 0x60 DUP6 ADD CALLDATALOAD PUSH8 0xFFFFFFFFFFFFFFFF DUP2 GT ISZERO PUSH2 0x39CF JUMPI PUSH2 0x39CE PUSH2 0x30DA JUMP JUMPDEST JUMPDEST PUSH2 0x39DB DUP8 DUP3 DUP9 ADD PUSH2 0x3936 JUMP JUMPDEST SWAP2 POP POP SWAP3 SWAP6 SWAP2 SWAP5 POP SWAP3 POP JUMP JUMPDEST PUSH1 0x0 DUP1 PUSH1 0x40 DUP4 DUP6 SUB SLT ISZERO PUSH2 0x39FE JUMPI PUSH2 0x39FD PUSH2 0x30D5 JUMP JUMPDEST JUMPDEST PUSH1 0x0 PUSH2 0x3A0C DUP6 DUP3 DUP7 ADD PUSH2 0x3322 JUMP JUMPDEST SWAP3 POP POP PUSH1 0x20 PUSH2 0x3A1D DUP6 DUP3 DUP7 ADD PUSH2 0x3322 JUMP JUMPDEST SWAP2 POP POP SWAP3 POP SWAP3 SWAP1 POP JUMP JUMPDEST PUSH1 0x0 DUP2 MLOAD SWAP1 POP SWAP2 SWAP1 POP JUMP JUMPDEST PUSH1 0x0 DUP3 DUP3 MSTORE PUSH1 0x20 DUP3 ADD SWAP1 POP SWAP3 SWAP2 POP POP JUMP JUMPDEST PUSH1 0x0 DUP2 SWAP1 POP PUSH1 0x20 DUP3 ADD SWAP1 POP SWAP2 SWAP1 POP JUMP JUMPDEST PUSH1 0x0 PUSH2 0x3A5F DUP4 DUP4 PUSH2 0x343A JUMP JUMPDEST SWAP1 POP SWAP3 SWAP2 POP POP JUMP JUMPDEST PUSH1 0x0 PUSH1 0x20 DUP3 ADD SWAP1 POP SWAP2 SWAP1 POP JUMP JUMPDEST PUSH1 0x0 PUSH2 0x3A7F DUP3 PUSH2 0x3A27 JUMP JUMPDEST PUSH2 0x3A89 DUP2 DUP6 PUSH2 0x3A32 JUMP JUMPDEST SWAP4 POP DUP4 PUSH1 0x20 DUP3 MUL DUP6 ADD PUSH2 0x3A9B DUP6 PUSH2 0x3A43 JUMP JUMPDEST DUP1 PUSH1 0x0 JUMPDEST DUP6 DUP2 LT ISZERO PUSH2 0x3AD7 JUMPI DUP5 DUP5 SUB DUP10 MSTORE DUP2 MLOAD PUSH2 0x3AB8 DUP6 DUP3 PUSH2 0x3A53 JUMP JUMPDEST SWAP5 POP PUSH2 0x3AC3 DUP4 PUSH2 0x3A67 JUMP JUMPDEST SWAP3 POP PUSH1 0x20 DUP11 ADD SWAP10 POP POP PUSH1 0x1 DUP2 ADD SWAP1 POP PUSH2 0x3A9F JUMP JUMPDEST POP DUP3 SWAP8 POP DUP8 SWAP6 POP POP POP POP POP POP SWAP3 SWAP2 POP POP JUMP JUMPDEST PUSH1 0x0 PUSH1 0x20 DUP3 ADD SWAP1 POP DUP2 DUP2 SUB PUSH1 0x0 DUP4 ADD MSTORE PUSH2 0x3B03 DUP2 DUP5 PUSH2 0x3A74 JUMP JUMPDEST SWAP1 POP SWAP3 SWAP2 POP POP JUMP JUMPDEST PUSH32 0x4E487B7100000000000000000000000000000000000000000000000000000000 PUSH1 0x0 MSTORE PUSH1 0x22 PUSH1 0x4 MSTORE PUSH1 0x24 PUSH1 0x0 REVERT JUMPDEST PUSH1 0x0 PUSH1 0x2 DUP3 DIV SWAP1 POP PUSH1 0x1 DUP3 AND DUP1 PUSH2 0x3B52 JUMPI PUSH1 0x7F DUP3 AND SWAP2 POP JUMPDEST PUSH1 0x20 DUP3 LT DUP2 SUB PUSH2 0x3B65 JUMPI PUSH2 0x3B64 PUSH2 0x3B0B JUMP JUMPDEST JUMPDEST POP SWAP2 SWAP1 POP JUMP JUMPDEST PUSH32 0x4552433732313A20617070726F76616C20746F2063757272656E74206F776E65 PUSH1 0x0 DUP3 ADD MSTORE PUSH32 0x7200000000000000000000000000000000000000000000000000000000000000 PUSH1 0x20 DUP3 ADD MSTORE POP JUMP JUMPDEST PUSH1 0x0 PUSH2 0x3BC7 PUSH1 0x21 DUP4 PUSH2 0x31A5 JUMP JUMPDEST SWAP2 POP PUSH2 0x3BD2 DUP3 PUSH2 0x3B6B JUMP JUMPDEST PUSH1 0x40 DUP3 ADD SWAP1 POP SWAP2 SWAP1 POP JUMP JUMPDEST PUSH1 0x0 PUSH1 0x20 DUP3 ADD SWAP1 POP DUP2 DUP2 SUB PUSH1 0x0 DUP4 ADD MSTORE PUSH2 0x3BF6 DUP2 PUSH2 0x3BBA JUMP JUMPDEST SWAP1 POP SWAP2 SWAP1 POP JUMP JUMPDEST PUSH32 0x4552433732313A20617070726F76652063616C6C6572206973206E6F7420746F PUSH1 0x0 DUP3 ADD MSTORE PUSH32 0x6B656E206F776E6572206E6F7220617070726F76656420666F7220616C6C0000 PUSH1 0x20 DUP3 ADD MSTORE POP JUMP JUMPDEST PUSH1 0x0 PUSH2 0x3C59 PUSH1 0x3E DUP4 PUSH2 0x31A5 JUMP JUMPDEST SWAP2 POP PUSH2 0x3C64 DUP3 PUSH2 0x3BFD JUMP JUMPDEST PUSH1 0x40 DUP3 ADD SWAP1 POP SWAP2 SWAP1 POP JUMP JUMPDEST PUSH1 0x0 PUSH1 0x20 DUP3 ADD SWAP1 POP DUP2 DUP2 SUB PUSH1 0x0 DUP4 ADD MSTORE PUSH2 0x3C88 DUP2 PUSH2 0x3C4C JUMP JUMPDEST SWAP1 POP SWAP2 SWAP1 POP JUMP JUMPDEST PUSH1 0x0 DUP2 SWAP1 POP SWAP3 SWAP2 POP POP JUMP JUMPDEST PUSH1 0x0 PUSH2 0x3CA6 DUP4 DUP6 PUSH2 0x3C8F JUMP JUMPDEST SWAP4 POP PUSH2 0x3CB3 DUP4 DUP6 DUP5 PUSH2 0x363B JUMP JUMPDEST DUP3 DUP5 ADD SWAP1 POP SWAP4 SWAP3 POP POP POP JUMP JUMPDEST PUSH1 0x0 PUSH2 0x3CCC DUP3 DUP5 DUP7 PUSH2 0x3C9A JUMP JUMPDEST SWAP2 POP DUP2 SWAP1 POP SWAP4 SWAP3 POP POP POP JUMP JUMPDEST PUSH32 0x4552433732313A2063616C6C6572206973206E6F7420746F6B656E206F776E65 PUSH1 0x0 DUP3 ADD MSTORE PUSH32 0x72206E6F7220617070726F766564000000000000000000000000000000000000 PUSH1 0x20 DUP3 ADD MSTORE POP JUMP JUMPDEST PUSH1 0x0 PUSH2 0x3D34 PUSH1 0x2E DUP4 PUSH2 0x31A5 JUMP JUMPDEST SWAP2 POP PUSH2 0x3D3F DUP3 PUSH2 0x3CD8 JUMP JUMPDEST PUSH1 0x40 DUP3 ADD SWAP1 POP SWAP2 SWAP1 POP JUMP JUMPDEST PUSH1 0x0 PUSH1 0x20 DUP3 ADD SWAP1 POP DUP2 DUP2 SUB PUSH1 0x0 DUP4 ADD MSTORE PUSH2 0x3D63 DUP2 PUSH2 0x3D27 JUMP JUMPDEST SWAP1 POP SWAP2 SWAP1 POP JUMP JUMPDEST PUSH1 0x0 DUP2 SWAP1 POP SWAP3 SWAP2 POP POP JUMP JUMPDEST POP JUMP JUMPDEST PUSH1 0x0 PUSH2 0x3D85 PUSH1 0x0 DUP4 PUSH2 0x3D6A JUMP JUMPDEST SWAP2 POP PUSH2 0x3D90 DUP3 PUSH2 0x3D75 JUMP JUMPDEST PUSH1 0x0 DUP3 ADD SWAP1 POP SWAP2 SWAP1 POP JUMP JUMPDEST PUSH1 0x0 PUSH2 0x3DA6 DUP3 PUSH2 0x3D78 JUMP JUMPDEST SWAP2 POP DUP2 SWAP1 POP SWAP2 SWAP1 POP JUMP JUMPDEST PUSH32 0x4661696C656420746F207769746864726177204D617469630000000000000000 PUSH1 0x0 DUP3 ADD MSTORE POP JUMP JUMPDEST PUSH1 0x0 PUSH2 0x3DE6 PUSH1 0x18 DUP4 PUSH2 0x31A5 JUMP JUMPDEST SWAP2 POP PUSH2 0x3DF1 DUP3 PUSH2 0x3DB0 JUMP JUMPDEST PUSH1 0x20 DUP3 ADD SWAP1 POP SWAP2 SWAP1 POP JUMP JUMPDEST PUSH1 0x0 PUSH1 0x20 DUP3 ADD SWAP1 POP DUP2 DUP2 SUB PUSH1 0x0 DUP4 ADD MSTORE PUSH2 0x3E15 DUP2 PUSH2 0x3DD9 JUMP JUMPDEST SWAP1 POP SWAP2 SWAP1 POP JUMP JUMPDEST PUSH32 0x4552433732313A20696E76616C696420746F6B656E2049440000000000000000 PUSH1 0x0 DUP3 ADD MSTORE POP JUMP JUMPDEST PUSH1 0x0 PUSH2 0x3E52 PUSH1 0x18 DUP4 PUSH2 0x31A5 JUMP JUMPDEST SWAP2 POP PUSH2 0x3E5D DUP3 PUSH2 0x3E1C JUMP JUMPDEST PUSH1 0x20 DUP3 ADD SWAP1 POP SWAP2 SWAP1 POP JUMP JUMPDEST PUSH1 0x0 PUSH1 0x20 DUP3 ADD SWAP1 POP DUP2 DUP2 SUB PUSH1 0x0 DUP4 ADD MSTORE PUSH2 0x3E81 DUP2 PUSH2 0x3E45 JUMP JUMPDEST SWAP1 POP SWAP2 SWAP1 POP JUMP JUMPDEST PUSH32 0x4E616D6520616C72656164792065786973747300000000000000000000000000 PUSH1 0x0 DUP3 ADD MSTORE POP JUMP JUMPDEST PUSH1 0x0 PUSH2 0x3EBE PUSH1 0x13 DUP4 PUSH2 0x31A5 JUMP JUMPDEST SWAP2 POP PUSH2 0x3EC9 DUP3 PUSH2 0x3E88 JUMP JUMPDEST PUSH1 0x20 DUP3 ADD SWAP1 POP SWAP2 SWAP1 POP JUMP JUMPDEST PUSH1 0x0 PUSH1 0x20 DUP3 ADD SWAP1 POP DUP2 DUP2 SUB PUSH1 0x0 DUP4 ADD MSTORE PUSH2 0x3EED DUP2 PUSH2 0x3EB1 JUMP JUMPDEST SWAP1 POP SWAP2 SWAP1 POP JUMP JUMPDEST PUSH32 0x496E76616C6964206E616D650000000000000000000000000000000000000000 PUSH1 0x0 DUP3 ADD MSTORE POP JUMP JUMPDEST PUSH1 0x0 PUSH2 0x3F2A PUSH1 0xC DUP4 PUSH2 0x31A5 JUMP JUMPDEST SWAP2 POP PUSH2 0x3F35 DUP3 PUSH2 0x3EF4 JUMP JUMPDEST PUSH1 0x20 DUP3 ADD SWAP1 POP SWAP2 SWAP1 POP JUMP JUMPDEST PUSH1 0x0 PUSH1 0x20 DUP3 ADD SWAP1 POP DUP2 DUP2 SUB PUSH1 0x0 DUP4 ADD MSTORE PUSH2 0x3F59 DUP2 PUSH2 0x3F1D JUMP JUMPDEST SWAP1 POP SWAP2 SWAP1 POP JUMP JUMPDEST PUSH32 0x4164647265737320616C7265616479206170706C696564000000000000000000 PUSH1 0x0 DUP3 ADD MSTORE POP JUMP JUMPDEST PUSH1 0x0 PUSH2 0x3F96 PUSH1 0x17 DUP4 PUSH2 0x31A5 JUMP JUMPDEST SWAP2 POP PUSH2 0x3FA1 DUP3 PUSH2 0x3F60 JUMP JUMPDEST PUSH1 0x20 DUP3 ADD SWAP1 POP SWAP2 SWAP1 POP JUMP JUMPDEST PUSH1 0x0 PUSH1 0x20 DUP3 ADD SWAP1 POP DUP2 DUP2 SUB PUSH1 0x0 DUP4 ADD MSTORE PUSH2 0x3FC5 DUP2 PUSH2 0x3F89 JUMP JUMPDEST SWAP1 POP SWAP2 SWAP1 POP JUMP JUMPDEST PUSH32 0x4E6F7420656E6F756768204D6174696320706169640000000000000000000000 PUSH1 0x0 DUP3 ADD MSTORE POP JUMP JUMPDEST PUSH1 0x0 PUSH2 0x4002 PUSH1 0x15 DUP4 PUSH2 0x31A5 JUMP JUMPDEST SWAP2 POP PUSH2 0x400D DUP3 PUSH2 0x3FCC JUMP JUMPDEST PUSH1 0x20 DUP3 ADD SWAP1 POP SWAP2 SWAP1 POP JUMP JUMPDEST PUSH1 0x0 PUSH1 0x20 DUP3 ADD SWAP1 POP DUP2 DUP2 SUB PUSH1 0x0 DUP4 ADD MSTORE PUSH2 0x4031 DUP2 PUSH2 0x3FF5 JUMP JUMPDEST SWAP1 POP SWAP2 SWAP1 POP JUMP JUMPDEST PUSH32 0x2E00000000000000000000000000000000000000000000000000000000000000 PUSH1 0x0 DUP3 ADD MSTORE POP JUMP JUMPDEST PUSH1 0x0 PUSH2 0x406E PUSH1 0x1 DUP4 PUSH2 0x3C8F JUMP JUMPDEST SWAP2 POP PUSH2 0x4079 DUP3 PUSH2 0x4038 JUMP JUMPDEST PUSH1 0x1 DUP3 ADD SWAP1 POP SWAP2 SWAP1 POP JUMP JUMPDEST PUSH1 0x0 PUSH2 0x408F DUP3 PUSH2 0x319A JUMP JUMPDEST PUSH2 0x4099 DUP2 DUP6 PUSH2 0x3C8F JUMP JUMPDEST SWAP4 POP PUSH2 0x40A9 DUP2 DUP6 PUSH1 0x20 DUP7 ADD PUSH2 0x31B6 JUMP JUMPDEST DUP1 DUP5 ADD SWAP2 POP POP SWAP3 SWAP2 POP POP JUMP JUMPDEST PUSH1 0x0 PUSH2 0x40C2 DUP3 DUP7 DUP9 PUSH2 0x3C9A JUMP JUMPDEST SWAP2 POP PUSH2 0x40CD DUP3 PUSH2 0x4061 JUMP JUMPDEST SWAP2 POP PUSH2 0x40D9 DUP3 DUP6 PUSH2 0x4084 JUMP JUMPDEST SWAP2 POP PUSH2 0x40E4 DUP3 PUSH2 0x4061 JUMP JUMPDEST SWAP2 POP PUSH2 0x40F0 DUP3 DUP5 PUSH2 0x4084 JUMP JUMPDEST SWAP2 POP DUP2 SWAP1 POP SWAP6 SWAP5 POP POP POP POP POP JUMP JUMPDEST PUSH32 0x697066733A2F2F00000000000000000000000000000000000000000000000000 PUSH1 0x0 DUP3 ADD MSTORE POP JUMP JUMPDEST PUSH1 0x0 PUSH2 0x4134 PUSH1 0x7 DUP4 PUSH2 0x3C8F JUMP JUMPDEST SWAP2 POP PUSH2 0x413F DUP3 PUSH2 0x40FE JUMP JUMPDEST PUSH1 0x7 DUP3 ADD SWAP1 POP SWAP2 SWAP1 POP JUMP JUMPDEST PUSH1 0x0 PUSH2 0x4155 DUP3 PUSH2 0x4127 JUMP JUMPDEST SWAP2 POP PUSH2 0x4161 DUP3 DUP5 PUSH2 0x4084 JUMP JUMPDEST SWAP2 POP DUP2 SWAP1 POP SWAP3 SWAP2 POP POP JUMP JUMPDEST PUSH1 0x0 PUSH2 0x4178 DUP3 DUP5 PUSH2 0x4084 JUMP JUMPDEST SWAP2 POP DUP2 SWAP1 POP SWAP3 SWAP2 POP POP JUMP JUMPDEST PUSH1 0x0 DUP2 SWAP1 POP DUP2 PUSH1 0x0 MSTORE PUSH1 0x20 PUSH1 0x0 KECCAK256 SWAP1 POP SWAP2 SWAP1 POP JUMP JUMPDEST PUSH1 0x0 PUSH1 0x20 PUSH1 0x1F DUP4 ADD DIV SWAP1 POP SWAP2 SWAP1 POP JUMP JUMPDEST PUSH1 0x0 DUP3 DUP3 SHL SWAP1 POP SWAP3 SWAP2 POP POP JUMP JUMPDEST PUSH1 0x0 PUSH1 0x8 DUP4 MUL PUSH2 0x41E5 PUSH32 0xFFFFFFFFFFFFFFFFFFFFFFFFFFFFFFFFFFFFFFFFFFFFFFFFFFFFFFFFFFFFFFFF DUP3 PUSH2 0x41A8 JUMP JUMPDEST PUSH2 0x41EF DUP7 DUP4 PUSH2 0x41A8 JUMP JUMPDEST SWAP6 POP DUP1 NOT DUP5 AND SWAP4 POP DUP1 DUP7 AND DUP5 OR SWAP3 POP POP POP SWAP4 SWAP3 POP POP POP JUMP JUMPDEST PUSH1 0x0 DUP2 SWAP1 POP SWAP2 SWAP1 POP JUMP JUMPDEST PUSH1 0x0 PUSH2 0x422C PUSH2 0x4227 PUSH2 0x4222 DUP5 PUSH2 0x324C JUMP JUMPDEST PUSH2 0x4207 JUMP JUMPDEST PUSH2 0x324C JUMP JUMPDEST SWAP1 POP SWAP2 SWAP1 POP JUMP JUMPDEST PUSH1 0x0 DUP2 SWAP1 POP SWAP2 SWAP1 POP JUMP JUMPDEST PUSH2 0x4246 DUP4 PUSH2 0x4211 JUMP JUMPDEST PUSH2 0x425A PUSH2 0x4252 DUP3 PUSH2 0x4233 JUMP JUMPDEST DUP5 DUP5 SLOAD PUSH2 0x41B5 JUMP JUMPDEST DUP3 SSTORE POP POP POP POP JUMP JUMPDEST PUSH1 0x0 SWAP1 JUMP JUMPDEST PUSH2 0x426F PUSH2 0x4262 JUMP JUMPDEST PUSH2 0x427A DUP2 DUP5 DUP5 PUSH2 0x423D JUMP JUMPDEST POP POP POP JUMP JUMPDEST JUMPDEST DUP2 DUP2 LT ISZERO PUSH2 0x429E JUMPI PUSH2 0x4293 PUSH1 0x0 DUP3 PUSH2 0x4267 JUMP JUMPDEST PUSH1 0x1 DUP2 ADD SWAP1 POP PUSH2 0x4280 JUMP JUMPDEST POP POP JUMP JUMPDEST PUSH1 0x1F DUP3 GT ISZERO PUSH2 0x42E3 JUMPI PUSH2 0x42B4 DUP2 PUSH2 0x4183 JUMP JUMPDEST PUSH2 0x42BD DUP5 PUSH2 0x4198 JUMP JUMPDEST DUP2 ADD PUSH1 0x20 DUP6 LT ISZERO PUSH2 0x42CC JUMPI DUP2 SWAP1 POP JUMPDEST PUSH2 0x42E0 PUSH2 0x42D8 DUP6 PUSH2 0x4198 JUMP JUMPDEST DUP4 ADD DUP3 PUSH2 0x427F JUMP JUMPDEST POP POP JUMPDEST POP POP POP JUMP JUMPDEST PUSH1 0x0 DUP3 DUP3 SHR SWAP1 POP SWAP3 SWAP2 POP POP JUMP JUMPDEST PUSH1 0x0 PUSH2 0x4306 PUSH1 0x0 NOT DUP5 PUSH1 0x8 MUL PUSH2 0x42E8 JUMP JUMPDEST NOT DUP1 DUP4 AND SWAP2 POP POP SWAP3 SWAP2 POP POP JUMP JUMPDEST PUSH1 0x0 PUSH2 0x431F DUP4 DUP4 PUSH2 0x42F5 JUMP JUMPDEST SWAP2 POP DUP3 PUSH1 0x2 MUL DUP3 OR SWAP1 POP SWAP3 SWAP2 POP POP JUMP JUMPDEST PUSH2 0x4338 DUP3 PUSH2 0x319A JUMP JUMPDEST PUSH8 0xFFFFFFFFFFFFFFFF DUP2 GT ISZERO PUSH2 0x4351 JUMPI PUSH2 0x4350 PUSH2 0x358F JUMP JUMPDEST JUMPDEST PUSH2 0x435B DUP3 SLOAD PUSH2 0x3B3A JUMP JUMPDEST PUSH2 0x4366 DUP3 DUP3 DUP6 PUSH2 0x42A2 JUMP JUMPDEST PUSH1 0x0 PUSH1 0x20 SWAP1 POP PUSH1 0x1F DUP4 GT PUSH1 0x1 DUP2 EQ PUSH2 0x4399 JUMPI PUSH1 0x0 DUP5 ISZERO PUSH2 0x4387 JUMPI DUP3 DUP8 ADD MLOAD SWAP1 POP JUMPDEST PUSH2 0x4391 DUP6 DUP3 PUSH2 0x4313 JUMP JUMPDEST DUP7 SSTORE POP PUSH2 0x43F9 JUMP JUMPDEST PUSH1 0x1F NOT DUP5 AND PUSH2 0x43A7 DUP7 PUSH2 0x4183 JUMP JUMPDEST PUSH1 0x0 JUMPDEST DUP3 DUP2 LT ISZERO PUSH2 0x43CF JUMPI DUP5 DUP10 ADD MLOAD DUP3 SSTORE PUSH1 0x1 DUP3 ADD SWAP2 POP PUSH1 0x20 DUP6 ADD SWAP5 POP PUSH1 0x20 DUP2 ADD SWAP1 POP PUSH2 0x43AA JUMP JUMPDEST DUP7 DUP4 LT ISZERO PUSH2 0x43EC JUMPI DUP5 DUP10 ADD MLOAD PUSH2 0x43E8 PUSH1 0x1F DUP10 AND DUP3 PUSH2 0x42F5 JUMP JUMPDEST DUP4 SSTORE POP JUMPDEST PUSH1 0x1 PUSH1 0x2 DUP9 MUL ADD DUP9 SSTORE POP POP POP JUMPDEST POP POP POP POP POP POP JUMP JUMPDEST PUSH1 0x0 PUSH2 0x440D DUP4 DUP6 PUSH2 0x31A5 JUMP JUMPDEST SWAP4 POP PUSH2 0x441A DUP4 DUP6 DUP5 PUSH2 0x363B JUMP JUMPDEST PUSH2 0x4423 DUP4 PUSH2 0x31E0 JUMP JUMPDEST DUP5 ADD SWAP1 POP SWAP4 SWAP3 POP POP POP JUMP JUMPDEST PUSH1 0x0 PUSH1 0x40 DUP3 ADD SWAP1 POP DUP2 DUP2 SUB PUSH1 0x0 DUP4 ADD MSTORE PUSH2 0x4449 DUP2 DUP6 DUP8 PUSH2 0x4401 JUMP JUMPDEST SWAP1 POP DUP2 DUP2 SUB PUSH1 0x20 DUP4 ADD MSTORE PUSH2 0x445D DUP2 DUP5 PUSH2 0x31F1 JUMP JUMPDEST SWAP1 POP SWAP5 SWAP4 POP POP POP POP JUMP JUMPDEST PUSH32 0x4552433732313A2061646472657373207A65726F206973206E6F742061207661 PUSH1 0x0 DUP3 ADD MSTORE PUSH32 0x6C6964206F776E65720000000000000000000000000000000000000000000000 PUSH1 0x20 DUP3 ADD MSTORE POP JUMP JUMPDEST PUSH1 0x0 PUSH2 0x44C3 PUSH1 0x29 DUP4 PUSH2 0x31A5 JUMP JUMPDEST SWAP2 POP PUSH2 0x44CE DUP3 PUSH2 0x4467 JUMP JUMPDEST PUSH1 0x40 DUP3 ADD SWAP1 POP SWAP2 SWAP1 POP JUMP JUMPDEST PUSH1 0x0 PUSH1 0x20 DUP3 ADD SWAP1 POP DUP2 DUP2 SUB PUSH1 0x0 DUP4 ADD MSTORE PUSH2 0x44F2 DUP2 PUSH2 0x44B6 JUMP JUMPDEST SWAP1 POP SWAP2 SWAP1 POP JUMP JUMPDEST PUSH1 0x0 PUSH2 0x4505 DUP3 DUP6 PUSH2 0x4084 JUMP JUMPDEST SWAP2 POP PUSH2 0x4511 DUP3 DUP5 PUSH2 0x4084 JUMP JUMPDEST SWAP2 POP DUP2 SWAP1 POP SWAP4 SWAP3 POP POP POP JUMP JUMPDEST PUSH32 0x4E487B7100000000000000000000000000000000000000000000000000000000 PUSH1 0x0 MSTORE PUSH1 0x32 PUSH1 0x4 MSTORE PUSH1 0x24 PUSH1 0x0 REVERT JUMPDEST PUSH32 0x4E487B7100000000000000000000000000000000000000000000000000000000 PUSH1 0x0 MSTORE PUSH1 0x11 PUSH1 0x4 MSTORE PUSH1 0x24 PUSH1 0x0 REVERT JUMPDEST PUSH1 0x0 PUSH2 0x4586 DUP3 PUSH2 0x324C JUMP JUMPDEST SWAP2 POP PUSH32 0xFFFFFFFFFFFFFFFFFFFFFFFFFFFFFFFFFFFFFFFFFFFFFFFFFFFFFFFFFFFFFFFF DUP3 SUB PUSH2 0x45B8 JUMPI PUSH2 0x45B7 PUSH2 0x454C JUMP JUMPDEST JUMPDEST PUSH1 0x1 DUP3 ADD SWAP1 POP SWAP2 SWAP1 POP JUMP JUMPDEST PUSH32 0x4552433732313A207472616E736665722066726F6D20696E636F727265637420 PUSH1 0x0 DUP3 ADD MSTORE PUSH32 0x6F776E6572000000000000000000000000000000000000000000000000000000 PUSH1 0x20 DUP3 ADD MSTORE POP JUMP JUMPDEST PUSH1 0x0 PUSH2 0x461F PUSH1 0x25 DUP4 PUSH2 0x31A5 JUMP JUMPDEST SWAP2 POP PUSH2 0x462A DUP3 PUSH2 0x45C3 JUMP JUMPDEST PUSH1 0x40 DUP3 ADD SWAP1 POP SWAP2 SWAP1 POP JUMP JUMPDEST PUSH1 0x0 PUSH1 0x20 DUP3 ADD SWAP1 POP DUP2 DUP2 SUB PUSH1 0x0 DUP4 ADD MSTORE PUSH2 0x464E DUP2 PUSH2 0x4612 JUMP JUMPDEST SWAP1 POP SWAP2 SWAP1 POP JUMP JUMPDEST PUSH32 0x4552433732313A207472616E7366657220746F20746865207A65726F20616464 PUSH1 0x0 DUP3 ADD MSTORE PUSH32 0x7265737300000000000000000000000000000000000000000000000000000000 PUSH1 0x20 DUP3 ADD MSTORE POP JUMP JUMPDEST PUSH1 0x0 PUSH2 0x46B1 PUSH1 0x24 DUP4 PUSH2 0x31A5 JUMP JUMPDEST SWAP2 POP PUSH2 0x46BC DUP3 PUSH2 0x4655 JUMP JUMPDEST PUSH1 0x40 DUP3 ADD SWAP1 POP SWAP2 SWAP1 POP JUMP JUMPDEST PUSH1 0x0 PUSH1 0x20 DUP3 ADD SWAP1 POP DUP2 DUP2 SUB PUSH1 0x0 DUP4 ADD MSTORE PUSH2 0x46E0 DUP2 PUSH2 0x46A4 JUMP JUMPDEST SWAP1 POP SWAP2 SWAP1 POP JUMP JUMPDEST PUSH1 0x0 PUSH2 0x46F2 DUP3 PUSH2 0x324C JUMP JUMPDEST SWAP2 POP PUSH2 0x46FD DUP4 PUSH2 0x324C JUMP JUMPDEST SWAP3 POP DUP3 DUP3 SUB SWAP1 POP DUP2 DUP2 GT ISZERO PUSH2 0x4715 JUMPI PUSH2 0x4714 PUSH2 0x454C JUMP JUMPDEST JUMPDEST SWAP3 SWAP2 POP POP JUMP JUMPDEST PUSH1 0x0 PUSH2 0x4726 DUP3 PUSH2 0x324C JUMP JUMPDEST SWAP2 POP PUSH2 0x4731 DUP4 PUSH2 0x324C JUMP JUMPDEST SWAP3 POP DUP3 DUP3 ADD SWAP1 POP DUP1 DUP3 GT ISZERO PUSH2 0x4749 JUMPI PUSH2 0x4748 PUSH2 0x454C JUMP JUMPDEST JUMPDEST SWAP3 SWAP2 POP POP JUMP JUMPDEST PUSH1 0x0 DUP2 SWAP1 POP SWAP2 SWAP1 POP JUMP JUMPDEST PUSH2 0x476A PUSH2 0x4765 DUP3 PUSH2 0x324C JUMP JUMPDEST PUSH2 0x474F JUMP JUMPDEST DUP3 MSTORE POP POP JUMP JUMPDEST PUSH1 0x0 DUP2 PUSH1 0x60 SHL SWAP1 POP SWAP2 SWAP1 POP JUMP JUMPDEST PUSH1 0x0 PUSH2 0x4788 DUP3 PUSH2 0x4770 JUMP JUMPDEST SWAP1 POP SWAP2 SWAP1 POP JUMP JUMPDEST PUSH1 0x0 PUSH2 0x479A DUP3 PUSH2 0x477D JUMP JUMPDEST SWAP1 POP SWAP2 SWAP1 POP JUMP JUMPDEST PUSH2 0x47B2 PUSH2 0x47AD DUP3 PUSH2 0x32CF JUMP JUMPDEST PUSH2 0x478F JUMP JUMPDEST DUP3 MSTORE POP POP JUMP JUMPDEST PUSH1 0x0 PUSH2 0x47C4 DUP3 DUP8 PUSH2 0x4759 JUMP JUMPDEST PUSH1 0x20 DUP3 ADD SWAP2 POP PUSH2 0x47D4 DUP3 DUP7 PUSH2 0x4759 JUMP JUMPDEST PUSH1 0x20 DUP3 ADD SWAP2 POP PUSH2 0x47E4 DUP3 DUP6 PUSH2 0x4759 JUMP JUMPDEST PUSH1 0x20 DUP3 ADD SWAP2 POP PUSH2 0x47F4 DUP3 DUP5 PUSH2 0x47A1 JUMP JUMPDEST PUSH1 0x14 DUP3 ADD SWAP2 POP DUP2 SWAP1 POP SWAP6 SWAP5 POP POP POP POP POP JUMP JUMPDEST PUSH32 0x4E487B7100000000000000000000000000000000000000000000000000000000 PUSH1 0x0 MSTORE PUSH1 0x12 PUSH1 0x4 MSTORE PUSH1 0x24 PUSH1 0x0 REVERT JUMPDEST PUSH1 0x0 PUSH2 0x4840 DUP3 PUSH2 0x324C JUMP JUMPDEST SWAP2 POP PUSH2 0x484B DUP4 PUSH2 0x324C JUMP JUMPDEST SWAP3 POP DUP3 PUSH2 0x485B JUMPI PUSH2 0x485A PUSH2 0x4806 JUMP JUMPDEST JUMPDEST DUP3 DUP3 MOD SWAP1 POP SWAP3 SWAP2 POP POP JUMP JUMPDEST PUSH32 0x45524337323155524953746F726167653A2055524920736574206F66206E6F6E PUSH1 0x0 DUP3 ADD MSTORE PUSH32 0x6578697374656E7420746F6B656E000000000000000000000000000000000000 PUSH1 0x20 DUP3 ADD MSTORE POP JUMP JUMPDEST PUSH1 0x0 PUSH2 0x48C2 PUSH1 0x2E DUP4 PUSH2 0x31A5 JUMP JUMPDEST SWAP2 POP PUSH2 0x48CD DUP3 PUSH2 0x4866 JUMP JUMPDEST PUSH1 0x40 DUP3 ADD SWAP1 POP SWAP2 SWAP1 POP JUMP JUMPDEST PUSH1 0x0 PUSH1 0x20 DUP3 ADD SWAP1 POP DUP2 DUP2 SUB PUSH1 0x0 DUP4 ADD MSTORE PUSH2 0x48F1 DUP2 PUSH2 0x48B5 JUMP JUMPDEST SWAP1 POP SWAP2 SWAP1 POP JUMP JUMPDEST PUSH32 0x4E6F207065726D697373696F6E20746F206D6F6469667920746865207265636F PUSH1 0x0 DUP3 ADD MSTORE PUSH32 0x7264000000000000000000000000000000000000000000000000000000000000 PUSH1 0x20 DUP3 ADD MSTORE POP JUMP JUMPDEST PUSH1 0x0 PUSH2 0x4954 PUSH1 0x22 DUP4 PUSH2 0x31A5 JUMP JUMPDEST SWAP2 POP PUSH2 0x495F DUP3 PUSH2 0x48F8 JUMP JUMPDEST PUSH1 0x40 DUP3 ADD SWAP1 POP SWAP2 SWAP1 POP JUMP JUMPDEST PUSH1 0x0 PUSH1 0x20 DUP3 ADD SWAP1 POP DUP2 DUP2 SUB PUSH1 0x0 DUP4 ADD MSTORE PUSH2 0x4983 DUP2 PUSH2 0x4947 JUMP JUMPDEST SWAP1 POP SWAP2 SWAP1 POP JUMP JUMPDEST PUSH32 0x4552433732313A20617070726F766520746F2063616C6C657200000000000000 PUSH1 0x0 DUP3 ADD MSTORE POP JUMP JUMPDEST PUSH1 0x0 PUSH2 0x49C0 PUSH1 0x19 DUP4 PUSH2 0x31A5 JUMP JUMPDEST SWAP2 POP PUSH2 0x49CB DUP3 PUSH2 0x498A JUMP JUMPDEST PUSH1 0x20 DUP3 ADD SWAP1 POP SWAP2 SWAP1 POP JUMP JUMPDEST PUSH1 0x0 PUSH1 0x20 DUP3 ADD SWAP1 POP DUP2 DUP2 SUB PUSH1 0x0 DUP4 ADD MSTORE PUSH2 0x49EF DUP2 PUSH2 0x49B3 JUMP JUMPDEST SWAP1 POP SWAP2 SWAP1 POP JUMP JUMPDEST PUSH32 0x4552433732313A207472616E7366657220746F206E6F6E204552433732315265 PUSH1 0x0 DUP3 ADD MSTORE PUSH32 0x63656976657220696D706C656D656E7465720000000000000000000000000000 PUSH1 0x20 DUP3 ADD MSTORE POP JUMP JUMPDEST PUSH1 0x0 PUSH2 0x4A52 PUSH1 0x32 DUP4 PUSH2 0x31A5 JUMP JUMPDEST SWAP2 POP PUSH2 0x4A5D DUP3 PUSH2 0x49F6 JUMP JUMPDEST PUSH1 0x40 DUP3 ADD SWAP1 POP SWAP2 SWAP1 POP JUMP JUMPDEST PUSH1 0x0 PUSH1 0x20 DUP3 ADD SWAP1 POP DUP2 DUP2 SUB PUSH1 0x0 DUP4 ADD MSTORE PUSH2 0x4A81 DUP2 PUSH2 0x4A45 JUMP JUMPDEST SWAP1 POP SWAP2 SWAP1 POP JUMP JUMPDEST PUSH1 0x0 DUP2 MLOAD SWAP1 POP SWAP2 SWAP1 POP JUMP JUMPDEST PUSH1 0x0 DUP3 DUP3 MSTORE PUSH1 0x20 DUP3 ADD SWAP1 POP SWAP3 SWAP2 POP POP JUMP JUMPDEST PUSH1 0x0 PUSH2 0x4AAF DUP3 PUSH2 0x4A88 JUMP JUMPDEST PUSH2 0x4AB9 DUP2 DUP6 PUSH2 0x4A93 JUMP JUMPDEST SWAP4 POP PUSH2 0x4AC9 DUP2 DUP6 PUSH1 0x20 DUP7 ADD PUSH2 0x31B6 JUMP JUMPDEST PUSH2 0x4AD2 DUP2 PUSH2 0x31E0 JUMP JUMPDEST DUP5 ADD SWAP2 POP POP SWAP3 SWAP2 POP POP JUMP JUMPDEST PUSH1 0x0 PUSH1 0x80 DUP3 ADD SWAP1 POP PUSH2 0x4AF2 PUSH1 0x0 DUP4 ADD DUP8 PUSH2 0x32E1 JUMP JUMPDEST PUSH2 0x4AFF PUSH1 0x20 DUP4 ADD DUP7 PUSH2 0x32E1 JUMP JUMPDEST PUSH2 0x4B0C PUSH1 0x40 DUP4 ADD DUP6 PUSH2 0x3703 JUMP JUMPDEST DUP2 DUP2 SUB PUSH1 0x60 DUP4 ADD MSTORE PUSH2 0x4B1E DUP2 DUP5 PUSH2 0x4AA4 JUMP JUMPDEST SWAP1 POP SWAP6 SWAP5 POP POP POP POP POP JUMP JUMPDEST PUSH1 0x0 DUP2 MLOAD SWAP1 POP PUSH2 0x4B38 DUP2 PUSH2 0x310B JUMP JUMPDEST SWAP3 SWAP2 POP POP JUMP JUMPDEST PUSH1 0x0 PUSH1 0x20 DUP3 DUP5 SUB SLT ISZERO PUSH2 0x4B54 JUMPI PUSH2 0x4B53 PUSH2 0x30D5 JUMP JUMPDEST JUMPDEST PUSH1 0x0 PUSH2 0x4B62 DUP5 DUP3 DUP6 ADD PUSH2 0x4B29 JUMP JUMPDEST SWAP2 POP POP SWAP3 SWAP2 POP POP JUMP JUMPDEST PUSH1 0x0 PUSH2 0x4B76 DUP3 PUSH2 0x324C JUMP JUMPDEST SWAP2 POP PUSH2 0x4B81 DUP4 PUSH2 0x324C JUMP JUMPDEST SWAP3 POP DUP3 PUSH2 0x4B91 JUMPI PUSH2 0x4B90 PUSH2 0x4806 JUMP JUMPDEST JUMPDEST DUP3 DUP3 DIV SWAP1 POP SWAP3 SWAP2 POP POP JUMP JUMPDEST PUSH32 0x4552433732313A206D696E7420746F20746865207A65726F2061646472657373 PUSH1 0x0 DUP3 ADD MSTORE POP JUMP JUMPDEST PUSH1 0x0 PUSH2 0x4BD2 PUSH1 0x20 DUP4 PUSH2 0x31A5 JUMP JUMPDEST SWAP2 POP PUSH2 0x4BDD DUP3 PUSH2 0x4B9C JUMP JUMPDEST PUSH1 0x20 DUP3 ADD SWAP1 POP SWAP2 SWAP1 POP JUMP JUMPDEST PUSH1 0x0 PUSH1 0x20 DUP3 ADD SWAP1 POP DUP2 DUP2 SUB PUSH1 0x0 DUP4 ADD MSTORE PUSH2 0x4C01 DUP2 PUSH2 0x4BC5 JUMP JUMPDEST SWAP1 POP SWAP2 SWAP1 POP JUMP JUMPDEST PUSH32 0x4552433732313A20746F6B656E20616C7265616479206D696E74656400000000 PUSH1 0x0 DUP3 ADD MSTORE POP JUMP JUMPDEST PUSH1 0x0 PUSH2 0x4C3E PUSH1 0x1C DUP4 PUSH2 0x31A5 JUMP JUMPDEST SWAP2 POP PUSH2 0x4C49 DUP3 PUSH2 0x4C08 JUMP JUMPDEST PUSH1 0x20 DUP3 ADD SWAP1 POP SWAP2 SWAP1 POP JUMP JUMPDEST PUSH1 0x0 PUSH1 0x20 DUP3 ADD SWAP1 POP DUP2 DUP2 SUB PUSH1 0x0 DUP4 ADD MSTORE PUSH2 0x4C6D DUP2 PUSH2 0x4C31 JUMP JUMPDEST SWAP1 POP SWAP2 SWAP1 POP JUMP INVALID MLOAD PUSH14 0x5A455A31457035776743556B567A CALLER BALANCE COINBASE CALLER SELFBALANCE 0x4C SLOAD MSTORE PUSH12 0x524B34576670416E335A4358 GAS PUSH7 0x4D367673414868 MLOAD PUSH14 0x5A4C77724D707A55417534674A45 CODECOPY PUSH19 0x595A53727331374E7675483245396958596552 PUSH26 0x584465416144444D516D6275357756583479726D785438465047 PUSH17 0x42767456624762344A71644D7671574759 PUSH14 0x623131314541557675516D644576 MLOAD PUSH24 0x527741685A456D57615955656777634A7335747956555751 CALLER GASLIMIT PUSH2 0x7A4B PUSH25 0x31435436646135557AA2646970667358221220A21F73CC125E SWAP15 STOP 0xAD PUSH22 0x8D860ED99CE8A030FB95E445CBFC37D48AF91398575B PUSH5 0x736F6C6343 STOP ADDMOD GT STOP CALLER "},"methodIdentifiers":{"applyToHogwarts(string,string,uint256)":"68bd026c","approve(address,uint256)":"095ea7b3","balanceOf(address)":"70a08231","domainTracker(address)":"abe50fa6","domains(string)":"26449235","getAddress(string)":"bf40fac1","getAllNames()":"fb825e5f","getApproved(uint256)":"081812fc","getRecord(string)":"11dd8845","gryffindorID()":"5bf1d9dc","gryffindorSld()":"fa626f6b","hufflepuffID()":"c9b4c160","hufflepuffSld()":"08b13a1d","isApprovedForAll(address,address)":"e985e9c5","isOwner()":"8f32d59b","name()":"06fdde03","names(uint256)":"4622ab03","ownerOf(uint256)":"6352211e","ravenclawID()":"537bd371","ravenclawSld()":"7ddd5dd8","records(string)":"541e771d","safeTransferFrom(address,address,uint256)":"42842e0e","safeTransferFrom(address,address,uint256,bytes)":"b88d4fde","setApprovalForAll(address,bool)":"a22cb465","slytherinID()":"f61722dc","slytherinSld()":"73eea211","supportsInterface(bytes4)":"01ffc9a7","symbol()":"95d89b41","tld()":"2d551432","tokenURI(uint256)":"c87b56dd","transferFrom(address,address,uint256)":"23b872dd","valid(string)":"9791c097","withdraw()":"3ccfd60b"}}}}}