{"contracts/HogwartsStudentsService.sol":{"HogwartsStudentsService":{"abi":[{"inputs":[],"stateMutability":"payable","type":"constructor"},{"anonymous":false,"inputs":[{"indexed":true,"internalType":"address","name":"owner","type":"address"},{"indexed":true,"internalType":"address","name":"approved","type":"address"},{"indexed":true,"internalType":"uint256","name":"tokenId","type":"uint256"}],"name":"Approval","type":"event"},{"anonymous":false,"inputs":[{"indexed":true,"internalType":"address","name":"owner","type":"address"},{"indexed":true,"internalType":"address","name":"operator","type":"address"},{"indexed":false,"internalType":"bool","name":"approved","type":"bool"}],"name":"ApprovalForAll","type":"event"},{"anonymous":false,"inputs":[{"indexed":true,"internalType":"address","name":"from","type":"address"},{"indexed":true,"internalType":"address","name":"to","type":"address"},{"indexed":true,"internalType":"uint256","name":"tokenId","type":"uint256"}],"name":"Transfer","type":"event"},{"anonymous":false,"inputs":[{"indexed":true,"internalType":"address","name":"newcomer","type":"address"},{"indexed":false,"internalType":"string","name":"name","type":"string"},{"indexed":false,"internalType":"string","name":"faculty","type":"string"}],"name":"WelcomeToHogwarts","type":"event"},{"inputs":[{"internalType":"string","name":"name","type":"string"},{"internalType":"uint256","name":"nonce","type":"uint256"}],"name":"applyToHogwarts","outputs":[],"stateMutability":"payable","type":"function"},{"inputs":[{"internalType":"address","name":"to","type":"address"},{"internalType":"uint256","name":"tokenId","type":"uint256"}],"name":"approve","outputs":[],"stateMutability":"nonpayable","type":"function"},{"inputs":[{"internalType":"address","name":"owner","type":"address"}],"name":"balanceOf","outputs":[{"internalType":"uint256","name":"","type":"uint256"}],"stateMutability":"view","type":"function"},{"inputs":[{"internalType":"address","name":"","type":"address"}],"name":"domainTracker","outputs":[{"internalType":"bool","name":"","type":"bool"}],"stateMutability":"view","type":"function"},{"inputs":[{"internalType":"string","name":"","type":"string"}],"name":"domains","outputs":[{"internalType":"address","name":"","type":"address"}],"stateMutability":"view","type":"function"},{"inputs":[{"internalType":"string","name":"name","type":"string"}],"name":"getAddress","outputs":[{"internalType":"address","name":"","type":"address"}],"stateMutability":"view","type":"function"},{"inputs":[],"name":"getAllNames","outputs":[{"internalType":"string[]","name":"","type":"string[]"}],"stateMutability":"view","type":"function"},{"inputs":[{"internalType":"uint256","name":"tokenId","type":"uint256"}],"name":"getApproved","outputs":[{"internalType":"address","name":"","type":"address"}],"stateMutability":"view","type":"function"},{"inputs":[{"internalType":"string","name":"name","type":"string"}],"name":"getRecord","outputs":[{"internalType":"string","name":"","type":"string"}],"stateMutability":"view","type":"function"},{"inputs":[],"name":"gryffindorColor","outputs":[{"internalType":"string","name":"","type":"string"}],"stateMutability":"view","type":"function"},{"inputs":[],"name":"gryffindorSld","outputs":[{"internalType":"string","name":"","type":"string"}],"stateMutability":"view","type":"function"},{"inputs":[],"name":"hufflepuffColor","outputs":[{"internalType":"string","name":"","type":"string"}],"stateMutability":"view","type":"function"},{"inputs":[],"name":"hufflepuffSld","outputs":[{"internalType":"string","name":"","type":"string"}],"stateMutability":"view","type":"function"},{"inputs":[{"internalType":"address","name":"owner","type":"address"},{"internalType":"address","name":"operator","type":"address"}],"name":"isApprovedForAll","outputs":[{"internalType":"bool","name":"","type":"bool"}],"stateMutability":"view","type":"function"},{"inputs":[],"name":"isOwner","outputs":[{"internalType":"bool","name":"","type":"bool"}],"stateMutability":"view","type":"function"},{"inputs":[],"name":"name","outputs":[{"internalType":"string","name":"","type":"string"}],"stateMutability":"view","type":"function"},{"inputs":[{"internalType":"uint256","name":"","type":"uint256"}],"name":"names","outputs":[{"internalType":"string","name":"","type":"string"}],"stateMutability":"view","type":"function"},{"inputs":[{"internalType":"uint256","name":"tokenId","type":"uint256"}],"name":"ownerOf","outputs":[{"internalType":"address","name":"","type":"address"}],"stateMutability":"view","type":"function"},{"inputs":[],"name":"ravenclawColor","outputs":[{"internalType":"string","name":"","type":"string"}],"stateMutability":"view","type":"function"},{"inputs":[],"name":"ravenclawSld","outputs":[{"internalType":"string","name":"","type":"string"}],"stateMutability":"view","type":"function"},{"inputs":[{"internalType":"string","name":"","type":"string"}],"name":"records","outputs":[{"internalType":"string","name":"","type":"string"}],"stateMutability":"view","type":"function"},{"inputs":[{"internalType":"address","name":"from","type":"address"},{"internalType":"address","name":"to","type":"address"},{"internalType":"uint256","name":"tokenId","type":"uint256"}],"name":"safeTransferFrom","outputs":[],"stateMutability":"nonpayable","type":"function"},{"inputs":[{"internalType":"address","name":"from","type":"address"},{"internalType":"address","name":"to","type":"address"},{"internalType":"uint256","name":"tokenId","type":"uint256"},{"internalType":"bytes","name":"data","type":"bytes"}],"name":"safeTransferFrom","outputs":[],"stateMutability":"nonpayable","type":"function"},{"inputs":[{"internalType":"address","name":"operator","type":"address"},{"internalType":"bool","name":"approved","type":"bool"}],"name":"setApprovalForAll","outputs":[],"stateMutability":"nonpayable","type":"function"},{"inputs":[{"internalType":"string","name":"name","type":"string"},{"internalType":"string","name":"record","type":"string"}],"name":"setRecord","outputs":[],"stateMutability":"nonpayable","type":"function"},{"inputs":[],"name":"slytherinColor","outputs":[{"internalType":"string","name":"","type":"string"}],"stateMutability":"view","type":"function"},{"inputs":[],"name":"slytherinSld","outputs":[{"internalType":"string","name":"","type":"string"}],"stateMutability":"view","type":"function"},{"inputs":[{"internalType":"bytes4","name":"interfaceId","type":"bytes4"}],"name":"supportsInterface","outputs":[{"internalType":"bool","name":"","type":"bool"}],"stateMutability":"view","type":"function"},{"inputs":[],"name":"symbol","outputs":[{"internalType":"string","name":"","type":"string"}],"stateMutability":"view","type":"function"},{"inputs":[],"name":"tld","outputs":[{"internalType":"string","name":"","type":"string"}],"stateMutability":"view","type":"function"},{"inputs":[{"internalType":"uint256","name":"tokenId","type":"uint256"}],"name":"tokenURI","outputs":[{"internalType":"string","name":"","type":"string"}],"stateMutability":"view","type":"function"},{"inputs":[{"internalType":"address","name":"from","type":"address"},{"internalType":"address","name":"to","type":"address"},{"internalType":"uint256","name":"tokenId","type":"uint256"}],"name":"transferFrom","outputs":[],"stateMutability":"nonpayable","type":"function"},{"inputs":[{"internalType":"string","name":"name","type":"string"}],"name":"valid","outputs":[{"internalType":"bool","name":"","type":"bool"}],"stateMutability":"pure","type":"function"},{"inputs":[],"name":"withdraw","outputs":[],"stateMutability":"nonpayable","type":"function"}],"evm":{"bytecode":{"linkReferences":{},"object":"60806040526040518060e0016040528060be8152602001620053ee60be9139600890816200002e919062000402565b5060405180610f600160405280610f308152602001620054ac610f309139600990816200005c919062000402565b506040518060400160405280600d81526020017f3c2f746578743e3c2f7376673e00000000000000000000000000000000000000815250600a9081620000a3919062000402565b5066038d7ea4c68000600b556040518060400160405280601981526020017f486f6777617274732053747564656e74732053657276696365000000000000008152506040518060400160405280600381526020017f485353000000000000000000000000000000000000000000000000000000000081525081600090816200012c919062000402565b5080600190816200013e919062000402565b50505033600c60006101000a81548173ffffffffffffffffffffffffffffffffffffffff021916908373ffffffffffffffffffffffffffffffffffffffff160217905550620004e9565b600081519050919050565b7f4e487b7100000000000000000000000000000000000000000000000000000000600052604160045260246000fd5b7f4e487b7100000000000000000000000000000000000000000000000000000000600052602260045260246000fd5b600060028204905060018216806200020a57607f821691505b60208210810362000220576200021f620001c2565b5b50919050565b60008190508160005260206000209050919050565b60006020601f8301049050919050565b600082821b905092915050565b6000600883026200028a7fffffffffffffffffffffffffffffffffffffffffffffffffffffffffffffffff826200024b565b6200029686836200024b565b95508019841693508086168417925050509392505050565b6000819050919050565b6000819050919050565b6000620002e3620002dd620002d784620002ae565b620002b8565b620002ae565b9050919050565b6000819050919050565b620002ff83620002c2565b620003176200030e82620002ea565b84845462000258565b825550505050565b600090565b6200032e6200031f565b6200033b818484620002f4565b505050565b5b8181101562000363576200035760008262000324565b60018101905062000341565b5050565b601f821115620003b2576200037c8162000226565b62000387846200023b565b8101602085101562000397578190505b620003af620003a6856200023b565b83018262000340565b50505b505050565b600082821c905092915050565b6000620003d760001984600802620003b7565b1980831691505092915050565b6000620003f28383620003c4565b9150826002028217905092915050565b6200040d8262000188565b67ffffffffffffffff81111562000429576200042862000193565b5b620004358254620001f1565b6200044282828562000367565b600060209050601f8311600181146200047a576000841562000465578287015190505b620004718582620003e4565b865550620004e1565b601f1984166200048a8662000226565b60005b82811015620004b4578489015182556001820191506020850194506020810190506200048d565b86831015620004d45784890151620004d0601f891682620003c4565b8355505b6001600288020188555050505b505050505050565b614ef580620004f96000396000f3fe6080604052600436106101f95760003560e01c8063791372751161010d578063b88d4fde116100a0578063c87b56dd1161006f578063c87b56dd14610774578063d3cbcfea146107b1578063e985e9c5146107dc578063fa626f6b14610819578063fb825e5f14610844576101f9565b8063b88d4fde146106c9578063bf40fac1146106f2578063c1880a981461072f578063c60ce34814610758576101f9565b80639791c097116100dc5780639791c097146105fb578063a22cb46514610638578063abe50fa614610661578063b51400571461069e576101f9565b8063791372751461054f5780637ddd5dd81461057a5780638f32d59b146105a557806395d89b41146105d0576101f9565b806326449235116101905780634622ab031161015f5780634622ab0314610430578063541e771d1461046d5780636352211e146104aa57806370a08231146104e757806373eea21114610524576101f9565b806326449235146103885780632d551432146103c55780633ccfd60b146103f057806342842e0e14610407576101f9565b8063095ea7b3116101cc578063095ea7b3146102ce5780630b912301146102f757806311dd88451461032257806323b872dd1461035f576101f9565b806301ffc9a7146101fe57806306fdde031461023b578063081812fc1461026657806308b13a1d146102a3575b600080fd5b34801561020a57600080fd5b5061022560048036038101906102209190613075565b61086f565b60405161023291906130bd565b60405180910390f35b34801561024757600080fd5b50610250610951565b60405161025d9190613168565b60405180910390f35b34801561027257600080fd5b5061028d600480360381019061028891906131c0565b6109e3565b60405161029a919061322e565b60405180910390f35b3480156102af57600080fd5b506102b8610a29565b6040516102c59190613168565b60405180910390f35b3480156102da57600080fd5b506102f560048036038101906102f09190613275565b610a62565b005b34801561030357600080fd5b5061030c610b79565b6040516103199190613168565b60405180910390f35b34801561032e57600080fd5b506103496004803603810190610344919061331a565b610bb2565b6040516103569190613168565b60405180910390f35b34801561036b57600080fd5b5061038660048036038101906103819190613367565b610c65565b005b34801561039457600080fd5b506103af60048036038101906103aa91906134ea565b610cc5565b6040516103bc919061322e565b60405180910390f35b3480156103d157600080fd5b506103da610d0e565b6040516103e79190613168565b60405180910390f35b3480156103fc57600080fd5b50610405610d47565b005b34801561041357600080fd5b5061042e60048036038101906104299190613367565b610e0d565b005b34801561043c57600080fd5b50610457600480360381019061045291906131c0565b610e2d565b6040516104649190613168565b60405180910390f35b34801561047957600080fd5b50610494600480360381019061048f91906134ea565b610ecd565b6040516104a19190613168565b60405180910390f35b3480156104b657600080fd5b506104d160048036038101906104cc91906131c0565b610f83565b6040516104de919061322e565b60405180910390f35b3480156104f357600080fd5b5061050e60048036038101906105099190613533565b611034565b60405161051b919061356f565b60405180910390f35b34801561053057600080fd5b506105396110eb565b6040516105469190613168565b60405180910390f35b34801561055b57600080fd5b50610564611124565b6040516105719190613168565b60405180910390f35b34801561058657600080fd5b5061058f61115d565b60405161059c9190613168565b60405180910390f35b3480156105b157600080fd5b506105ba611196565b6040516105c791906130bd565b60405180910390f35b3480156105dc57600080fd5b506105e56111ee565b6040516105f29190613168565b60405180910390f35b34801561060757600080fd5b50610622600480360381019061061d919061331a565b611280565b60405161062f91906130bd565b60405180910390f35b34801561064457600080fd5b5061065f600480360381019061065a91906135b6565b611334565b005b34801561066d57600080fd5b5061068860048036038101906106839190613533565b61134a565b60405161069591906130bd565b60405180910390f35b3480156106aa57600080fd5b506106b361136a565b6040516106c09190613168565b60405180910390f35b3480156106d557600080fd5b506106f060048036038101906106eb9190613697565b6113a3565b005b3480156106fe57600080fd5b506107196004803603810190610714919061331a565b611405565b604051610726919061322e565b60405180910390f35b34801561073b57600080fd5b506107566004803603810190610751919061371a565b611450565b005b610772600480360381019061076d919061379b565b611534565b005b34801561078057600080fd5b5061079b600480360381019061079691906131c0565b6119c8565b6040516107a89190613168565b60405180910390f35b3480156107bd57600080fd5b506107c6611ada565b6040516107d39190613168565b60405180910390f35b3480156107e857600080fd5b5061080360048036038101906107fe91906137fb565b611b13565b60405161081091906130bd565b60405180910390f35b34801561082557600080fd5b5061082e611ba7565b60405161083b9190613168565b60405180910390f35b34801561085057600080fd5b50610859611be0565b6040516108669190613947565b60405180910390f35b60007f80ac58cd000000000000000000000000000000000000000000000000000000007bffffffffffffffffffffffffffffffffffffffffffffffffffffffff1916827bffffffffffffffffffffffffffffffffffffffffffffffffffffffff1916148061093a57507f5b5e139f000000000000000000000000000000000000000000000000000000007bffffffffffffffffffffffffffffffffffffffffffffffffffffffff1916827bffffffffffffffffffffffffffffffffffffffffffffffffffffffff1916145b8061094a575061094982611d26565b5b9050919050565b60606000805461096090613998565b80601f016020809104026020016040519081016040528092919081815260200182805461098c90613998565b80156109d95780601f106109ae576101008083540402835291602001916109d9565b820191906000526020600020905b8154815290600101906020018083116109bc57829003601f168201915b5050505050905090565b60006109ee82611d90565b6004600083815260200190815260200160002060009054906101000a900473ffffffffffffffffffffffffffffffffffffffff169050919050565b6040518060400160405280600a81526020017f687566666c65707566660000000000000000000000000000000000000000000081525081565b6000610a6d82610f83565b90508073ffffffffffffffffffffffffffffffffffffffff168373ffffffffffffffffffffffffffffffffffffffff1603610add576040517f08c379a0000000000000000000000000000000000000000000000000000000008152600401610ad490613a3b565b60405180910390fd5b8073ffffffffffffffffffffffffffffffffffffffff16610afc611ddb565b73ffffffffffffffffffffffffffffffffffffffff161480610b2b5750610b2a81610b25611ddb565b611b13565b5b610b6a576040517f08c379a0000000000000000000000000000000000000000000000000000000008152600401610b6190613acd565b60405180910390fd5b610b748383611de3565b505050565b6040518060400160405280600781526020017f233843464642330000000000000000000000000000000000000000000000000081525081565b6060600e8383604051610bc6929190613b1d565b90815260200160405180910390208054610bdf90613998565b80601f0160208091040260200160405190810160405280929190818152602001828054610c0b90613998565b8015610c585780601f10610c2d57610100808354040283529160200191610c58565b820191906000526020600020905b815481529060010190602001808311610c3b57829003601f168201915b5050505050905092915050565b610c76610c70611ddb565b82611e9c565b610cb5576040517f08c379a0000000000000000000000000000000000000000000000000000000008152600401610cac90613ba8565b60405180910390fd5b610cc0838383611f31565b505050565b600d818051602081018201805184825260208301602085012081835280955050505050506000915054906101000a900473ffffffffffffffffffffffffffffffffffffffff1681565b6040518060400160405280600681526020017f686777727473000000000000000000000000000000000000000000000000000081525081565b610d4f611196565b610d5857600080fd5b600047905060003373ffffffffffffffffffffffffffffffffffffffff1682604051610d8390613bf9565b60006040518083038185875af1925050503d8060008114610dc0576040519150601f19603f3d011682016040523d82523d6000602084013e610dc5565b606091505b5050905080610e09576040517f08c379a0000000000000000000000000000000000000000000000000000000008152600401610e0090613c5a565b60405180910390fd5b5050565b610e28838383604051806020016040528060008152506113a3565b505050565b60106020528060005260406000206000915090508054610e4c90613998565b80601f0160208091040260200160405190810160405280929190818152602001828054610e7890613998565b8015610ec55780601f10610e9a57610100808354040283529160200191610ec5565b820191906000526020600020905b815481529060010190602001808311610ea857829003601f168201915b505050505081565b600e818051602081018201805184825260208301602085012081835280955050505050506000915090508054610f0290613998565b80601f0160208091040260200160405190810160405280929190818152602001828054610f2e90613998565b8015610f7b5780601f10610f5057610100808354040283529160200191610f7b565b820191906000526020600020905b815481529060010190602001808311610f5e57829003601f168201915b505050505081565b6000806002600084815260200190815260200160002060009054906101000a900473ffffffffffffffffffffffffffffffffffffffff169050600073ffffffffffffffffffffffffffffffffffffffff168173ffffffffffffffffffffffffffffffffffffffff160361102b576040517f08c379a000000000000000000000000000000000000000000000000000000000815260040161102290613cc6565b60405180910390fd5b80915050919050565b60008073ffffffffffffffffffffffffffffffffffffffff168273ffffffffffffffffffffffffffffffffffffffff16036110a4576040517f08c379a000000000000000000000000000000000000000000000000000000000815260040161109b90613d58565b60405180910390fd5b600360008373ffffffffffffffffffffffffffffffffffffffff1673ffffffffffffffffffffffffffffffffffffffff168152602001908152602001600020549050919050565b6040518060400160405280600981526020017f736c7974686572696e000000000000000000000000000000000000000000000081525081565b6040518060400160405280600781526020017f234646384338430000000000000000000000000000000000000000000000000081525081565b6040518060400160405280600981526020017f726176656e636c6177000000000000000000000000000000000000000000000081525081565b6000600c60009054906101000a900473ffffffffffffffffffffffffffffffffffffffff1673ffffffffffffffffffffffffffffffffffffffff163373ffffffffffffffffffffffffffffffffffffffff1614905090565b6060600180546111fd90613998565b80601f016020809104026020016040519081016040528092919081815260200182805461122990613998565b80156112765780601f1061124b57610100808354040283529160200191611276565b820191906000526020600020905b81548152906001019060200180831161125957829003601f168201915b5050505050905090565b600060036112d184848080601f016020809104026020016040519081016040528093929190818152602001838380828437600081840152601f19601f82011690508083019250505050505050612197565b1015801561132c5750600a61132984848080601f016020809104026020016040519081016040528093929190818152602001838380828437600081840152601f19601f82011690508083019250505050505050612197565b11155b905092915050565b61134661133f611ddb565b838361234c565b5050565b600f6020528060005260406000206000915054906101000a900460ff1681565b6040518060400160405280600781526020017f234644464638430000000000000000000000000000000000000000000000000081525081565b6113b46113ae611ddb565b83611e9c565b6113f3576040517f08c379a00000000000000000000000000000000000000000000000000000000081526004016113ea90613ba8565b60405180910390fd5b6113ff848484846124b8565b50505050565b6000600d8383604051611419929190613b1d565b908152602001604051809103902060009054906101000a900473ffffffffffffffffffffffffffffffffffffffff16905092915050565b600d8484604051611462929190613b1d565b908152602001604051809103902060009054906101000a900473ffffffffffffffffffffffffffffffffffffffff1673ffffffffffffffffffffffffffffffffffffffff163373ffffffffffffffffffffffffffffffffffffffff16146114fe576040517f08c379a00000000000000000000000000000000000000000000000000000000081526004016114f590613dea565b60405180910390fd5b8181600e8686604051611512929190613b1d565b9081526020016040518091039020918261152d929190613fc1565b5050505050565b600073ffffffffffffffffffffffffffffffffffffffff16600d848460405161155e929190613b1d565b908152602001604051809103902060009054906101000a900473ffffffffffffffffffffffffffffffffffffffff1673ffffffffffffffffffffffffffffffffffffffff16146115e3576040517f08c379a00000000000000000000000000000000000000000000000000000000081526004016115da906140dd565b60405180910390fd5b6115ed8383611280565b61162c576040517f08c379a000000000000000000000000000000000000000000000000000000000815260040161162390614149565b60405180910390fd5b600f60003373ffffffffffffffffffffffffffffffffffffffff1673ffffffffffffffffffffffffffffffffffffffff16815260200190815260200160002060009054906101000a900460ff16156116b9576040517f08c379a00000000000000000000000000000000000000000000000000000000081526004016116b0906141b5565b60405180910390fd5b600b543410156116fe576040517f08c379a00000000000000000000000000000000000000000000000000000000081526004016116f590614221565b60405180910390fd5b600061170982612514565b905060008061171783612559565b9150915060008686846040518060400160405280600681526020017f686777727473000000000000000000000000000000000000000000000000000081525060405160200161176994939291906142be565b60405160208183030381529060405290506000600883600984600a60405160200161179895949392919061438a565b604051602081830303815290604052905060006117b56007612790565b905060006118068a8a8080601f016020809104026020016040519081016040528093929190818152602001838380828437600081840152601f19601f82011690508083019250505050505050612197565b905060006118138261279e565b9050600061184b86611824876128fe565b8460405160200161183793929190614551565b6040516020818303038152906040526128fe565b905060008160405160200161186091906145fa565b604051602081830303815290604052905061187b3386612a95565b6118858582612ab3565b33600d8e8e604051611898929190613b1d565b908152602001604051809103902060006101000a81548173ffffffffffffffffffffffffffffffffffffffff021916908373ffffffffffffffffffffffffffffffffffffffff1602179055506001600f60003373ffffffffffffffffffffffffffffffffffffffff1673ffffffffffffffffffffffffffffffffffffffff16815260200190815260200160002060006101000a81548160ff0219169083151502179055508660106000878152602001908152602001600020908161195c919061461c565b506119676007612b20565b3373ffffffffffffffffffffffffffffffffffffffff167f78fc4bd5049206a33e22e356ba7ae0cff1f598eef8b69790fde01de4562a95da8e8e8c6040516119b19392919061471b565b60405180910390a250505050505050505050505050565b60606119d382611d90565b60006006600084815260200190815260200160002080546119f390613998565b80601f0160208091040260200160405190810160405280929190818152602001828054611a1f90613998565b8015611a6c5780601f10611a4157610100808354040283529160200191611a6c565b820191906000526020600020905b815481529060010190602001808311611a4f57829003601f168201915b505050505090506000611a7d612b36565b90506000815103611a92578192505050611ad5565b600082511115611ac7578082604051602001611aaf929190614754565b60405160208183030381529060405292505050611ad5565b611ad084612b4d565b925050505b919050565b6040518060400160405280600781526020017f233843424146460000000000000000000000000000000000000000000000000081525081565b6000600560008473ffffffffffffffffffffffffffffffffffffffff1673ffffffffffffffffffffffffffffffffffffffff16815260200190815260200160002060008373ffffffffffffffffffffffffffffffffffffffff1673ffffffffffffffffffffffffffffffffffffffff16815260200190815260200160002060009054906101000a900460ff16905092915050565b6040518060400160405280600a81526020017f6772796666696e646f720000000000000000000000000000000000000000000081525081565b60606000611bee6007612790565b67ffffffffffffffff811115611c0757611c066133bf565b5b604051908082528060200260200182016040528015611c3a57816020015b6060815260200190600190039081611c255790505b50905060005b611c4a6007612790565b811015611d1e57601060008281526020019081526020016000208054611c6f90613998565b80601f0160208091040260200160405190810160405280929190818152602001828054611c9b90613998565b8015611ce85780601f10611cbd57610100808354040283529160200191611ce8565b820191906000526020600020905b815481529060010190602001808311611ccb57829003601f168201915b5050505050828281518110611d0057611cff614778565b5b60200260200101819052508080611d16906147d6565b915050611c40565b508091505090565b60007f01ffc9a7000000000000000000000000000000000000000000000000000000007bffffffffffffffffffffffffffffffffffffffffffffffffffffffff1916827bffffffffffffffffffffffffffffffffffffffffffffffffffffffff1916149050919050565b611d9981612bb5565b611dd8576040517f08c379a0000000000000000000000000000000000000000000000000000000008152600401611dcf90613cc6565b60405180910390fd5b50565b600033905090565b816004600083815260200190815260200160002060006101000a81548173ffffffffffffffffffffffffffffffffffffffff021916908373ffffffffffffffffffffffffffffffffffffffff160217905550808273ffffffffffffffffffffffffffffffffffffffff16611e5683610f83565b73ffffffffffffffffffffffffffffffffffffffff167f8c5be1e5ebec7d5bd14f71427d1e84f3dd0314c0f7b2291e5b200ac8c7c3b92560405160405180910390a45050565b600080611ea883610f83565b90508073ffffffffffffffffffffffffffffffffffffffff168473ffffffffffffffffffffffffffffffffffffffff161480611eea5750611ee98185611b13565b5b80611f2857508373ffffffffffffffffffffffffffffffffffffffff16611f10846109e3565b73ffffffffffffffffffffffffffffffffffffffff16145b91505092915050565b8273ffffffffffffffffffffffffffffffffffffffff16611f5182610f83565b73ffffffffffffffffffffffffffffffffffffffff1614611fa7576040517f08c379a0000000000000000000000000000000000000000000000000000000008152600401611f9e90614890565b60405180910390fd5b600073ffffffffffffffffffffffffffffffffffffffff168273ffffffffffffffffffffffffffffffffffffffff1603612016576040517f08c379a000000000000000000000000000000000000000000000000000000000815260040161200d90614922565b60405180910390fd5b612021838383612c21565b61202c600082611de3565b6001600360008573ffffffffffffffffffffffffffffffffffffffff1673ffffffffffffffffffffffffffffffffffffffff168152602001908152602001600020600082825461207c9190614942565b925050819055506001600360008473ffffffffffffffffffffffffffffffffffffffff1673ffffffffffffffffffffffffffffffffffffffff16815260200190815260200160002060008282546120d39190614976565b92505081905550816002600083815260200190815260200160002060006101000a81548173ffffffffffffffffffffffffffffffffffffffff021916908373ffffffffffffffffffffffffffffffffffffffff160217905550808273ffffffffffffffffffffffffffffffffffffffff168473ffffffffffffffffffffffffffffffffffffffff167fddf252ad1be2c89b69c2b068fc378daa952ba7f163c4a11628f55a4df523b3ef60405160405180910390a4612192838383612c26565b505050565b60008060008084519050600092505b808210156123415760008583815181106121c3576121c2614778565b5b602001015160f81c60f81b9050608060f81b817effffffffffffffffffffffffffffffffffffffffffffffffffffffffffffff191610156122125760018361220b9190614976565b925061232d565b60e060f81b817effffffffffffffffffffffffffffffffffffffffffffffffffffffffffffff191610156122545760028361224d9190614976565b925061232c565b60f060f81b817effffffffffffffffffffffffffffffffffffffffffffffffffffffffffffff191610156122965760038361228f9190614976565b925061232b565b60f8801b817effffffffffffffffffffffffffffffffffffffffffffffffffffffffffffff191610156122d7576004836122d09190614976565b925061232a565b60fc60f81b817effffffffffffffffffffffffffffffffffffffffffffffffffffffffffffff19161015612319576005836123129190614976565b9250612329565b6006836123269190614976565b92505b5b5b5b5b508280612339906147d6565b9350506121a6565b829350505050919050565b8173ffffffffffffffffffffffffffffffffffffffff168373ffffffffffffffffffffffffffffffffffffffff16036123ba576040517f08c379a00000000000000000000000000000000000000000000000000000000081526004016123b1906149f6565b60405180910390fd5b80600560008573ffffffffffffffffffffffffffffffffffffffff1673ffffffffffffffffffffffffffffffffffffffff16815260200190815260200160002060008473ffffffffffffffffffffffffffffffffffffffff1673ffffffffffffffffffffffffffffffffffffffff16815260200190815260200160002060006101000a81548160ff0219169083151502179055508173ffffffffffffffffffffffffffffffffffffffff168373ffffffffffffffffffffffffffffffffffffffff167f17307eab39ab6107e8899845ad3d59bd9653f200f220920489ca2b5937696c31836040516124ab91906130bd565b60405180910390a3505050565b6124c3848484611f31565b6124cf84848484612c2b565b61250e576040517f08c379a000000000000000000000000000000000000000000000000000000000815260040161250590614a88565b60405180910390fd5b50505050565b600060644283443360405160200161252f9493929190614b11565b6040516020818303038152906040528051906020012060001c6125529190614b8e565b9050919050565b6060806000831015801561256e575060198311155b156125e8576040518060400160405280600a81526020017f6772796666696e646f720000000000000000000000000000000000000000000081525091506040518060400160405280600781526020017f2346463843384300000000000000000000000000000000000000000000000000815250905061278b565b601a83101580156125fa575060328311155b15612674576040518060400160405280600981526020017f736c7974686572696e000000000000000000000000000000000000000000000081525091506040518060400160405280600781526020017f2338434646423300000000000000000000000000000000000000000000000000815250905061278a565b603383101580156126865750604b8311155b15612700576040518060400160405280600a81526020017f687566666c65707566660000000000000000000000000000000000000000000081525091506040518060400160405280600781526020017f23464446463843000000000000000000000000000000000000000000000000008152509050612789565b604c8310158015612712575060648311155b15612788576040518060400160405280600981526020017f726176656e636c6177000000000000000000000000000000000000000000000081525091506040518060400160405280600781526020017f233843424146460000000000000000000000000000000000000000000000000081525090505b5b5b5b915091565b600081600001549050919050565b6060600082036127e5576040518060400160405280600181526020017f300000000000000000000000000000000000000000000000000000000000000081525090506128f9565b600082905060005b60008214612817578080612800906147d6565b915050600a826128109190614bbf565b91506127ed565b60008167ffffffffffffffff811115612833576128326133bf565b5b6040519080825280601f01601f1916602001820160405280156128655781602001600182028036833780820191505090505b5090505b600085146128f25760018261287e9190614942565b9150600a8561288d9190614b8e565b60306128999190614976565b60f81b8183815181106128af576128ae614778565b5b60200101907effffffffffffffffffffffffffffffffffffffffffffffffffffffffffffff1916908160001a905350600a856128eb9190614bbf565b9450612869565b8093505050505b919050565b6060600082519050600081036129265760405180602001604052806000815250915050612a90565b600060036002836129379190614976565b6129419190614bbf565b600461294d9190614bf0565b9050600060208261295e9190614976565b67ffffffffffffffff811115612977576129766133bf565b5b6040519080825280601f01601f1916602001820160405280156129a95781602001600182028036833780820191505090505b5090506000604051806060016040528060408152602001614e80604091399050600181016020830160005b86811015612a4d5760038101905062ffffff818a015116603f8160121c168401518060081b905060ff603f83600c1c1686015116810190508060081b905060ff603f8360061c1686015116810190508060081b905060ff603f831686015116810190508060e01b905080845260048401935050506129d4565b506003860660018114612a675760028114612a7757612a82565b613d3d60f01b6002830352612a82565b603d60f81b60018303525b508484525050819450505050505b919050565b612aaf828260405180602001604052806000815250612db2565b5050565b612abc82612bb5565b612afb576040517f08c379a0000000000000000000000000000000000000000000000000000000008152600401612af290614ca4565b60405180910390fd5b80600660008481526020019081526020016000209081612b1b919061461c565b505050565b6001816000016000828254019250508190555050565b606060405180602001604052806000815250905090565b6060612b5882611d90565b6000612b62612b36565b90506000815111612b825760405180602001604052806000815250612bad565b80612b8c8461279e565b604051602001612b9d929190614754565b6040516020818303038152906040525b915050919050565b60008073ffffffffffffffffffffffffffffffffffffffff166002600084815260200190815260200160002060009054906101000a900473ffffffffffffffffffffffffffffffffffffffff1673ffffffffffffffffffffffffffffffffffffffff1614159050919050565b505050565b505050565b6000612c4c8473ffffffffffffffffffffffffffffffffffffffff16612e0d565b15612da5578373ffffffffffffffffffffffffffffffffffffffff1663150b7a02612c75611ddb565b8786866040518563ffffffff1660e01b8152600401612c979493929190614d19565b6020604051808303816000875af1925050508015612cd357506040513d601f19601f82011682018060405250810190612cd09190614d7a565b60015b612d55573d8060008114612d03576040519150601f19603f3d011682016040523d82523d6000602084013e612d08565b606091505b506000815103612d4d576040517f08c379a0000000000000000000000000000000000000000000000000000000008152600401612d4490614a88565b60405180910390fd5b805181602001fd5b63150b7a0260e01b7bffffffffffffffffffffffffffffffffffffffffffffffffffffffff1916817bffffffffffffffffffffffffffffffffffffffffffffffffffffffff191614915050612daa565b600190505b949350505050565b612dbc8383612e30565b612dc96000848484612c2b565b612e08576040517f08c379a0000000000000000000000000000000000000000000000000000000008152600401612dff90614a88565b60405180910390fd5b505050565b6000808273ffffffffffffffffffffffffffffffffffffffff163b119050919050565b600073ffffffffffffffffffffffffffffffffffffffff168273ffffffffffffffffffffffffffffffffffffffff1603612e9f576040517f08c379a0000000000000000000000000000000000000000000000000000000008152600401612e9690614df3565b60405180910390fd5b612ea881612bb5565b15612ee8576040517f08c379a0000000000000000000000000000000000000000000000000000000008152600401612edf90614e5f565b60405180910390fd5b612ef460008383612c21565b6001600360008473ffffffffffffffffffffffffffffffffffffffff1673ffffffffffffffffffffffffffffffffffffffff1681526020019081526020016000206000828254612f449190614976565b92505081905550816002600083815260200190815260200160002060006101000a81548173ffffffffffffffffffffffffffffffffffffffff021916908373ffffffffffffffffffffffffffffffffffffffff160217905550808273ffffffffffffffffffffffffffffffffffffffff16600073ffffffffffffffffffffffffffffffffffffffff167fddf252ad1be2c89b69c2b068fc378daa952ba7f163c4a11628f55a4df523b3ef60405160405180910390a461300560008383612c26565b5050565b6000604051905090565b600080fd5b600080fd5b60007fffffffff0000000000000000000000000000000000000000000000000000000082169050919050565b6130528161301d565b811461305d57600080fd5b50565b60008135905061306f81613049565b92915050565b60006020828403121561308b5761308a613013565b5b600061309984828501613060565b91505092915050565b60008115159050919050565b6130b7816130a2565b82525050565b60006020820190506130d260008301846130ae565b92915050565b600081519050919050565b600082825260208201905092915050565b60005b838110156131125780820151818401526020810190506130f7565b60008484015250505050565b6000601f19601f8301169050919050565b600061313a826130d8565b61314481856130e3565b93506131548185602086016130f4565b61315d8161311e565b840191505092915050565b60006020820190508181036000830152613182818461312f565b905092915050565b6000819050919050565b61319d8161318a565b81146131a857600080fd5b50565b6000813590506131ba81613194565b92915050565b6000602082840312156131d6576131d5613013565b5b60006131e4848285016131ab565b91505092915050565b600073ffffffffffffffffffffffffffffffffffffffff82169050919050565b6000613218826131ed565b9050919050565b6132288161320d565b82525050565b6000602082019050613243600083018461321f565b92915050565b6132528161320d565b811461325d57600080fd5b50565b60008135905061326f81613249565b92915050565b6000806040838503121561328c5761328b613013565b5b600061329a85828601613260565b92505060206132ab858286016131ab565b9150509250929050565b600080fd5b600080fd5b600080fd5b60008083601f8401126132da576132d96132b5565b5b8235905067ffffffffffffffff8111156132f7576132f66132ba565b5b602083019150836001820283011115613313576133126132bf565b5b9250929050565b6000806020838503121561333157613330613013565b5b600083013567ffffffffffffffff81111561334f5761334e613018565b5b61335b858286016132c4565b92509250509250929050565b6000806000606084860312156133805761337f613013565b5b600061338e86828701613260565b935050602061339f86828701613260565b92505060406133b0868287016131ab565b9150509250925092565b600080fd5b7f4e487b7100000000000000000000000000000000000000000000000000000000600052604160045260246000fd5b6133f78261311e565b810181811067ffffffffffffffff82111715613416576134156133bf565b5b80604052505050565b6000613429613009565b905061343582826133ee565b919050565b600067ffffffffffffffff821115613455576134546133bf565b5b61345e8261311e565b9050602081019050919050565b82818337600083830152505050565b600061348d6134888461343a565b61341f565b9050828152602081018484840111156134a9576134a86133ba565b5b6134b484828561346b565b509392505050565b600082601f8301126134d1576134d06132b5565b5b81356134e184826020860161347a565b91505092915050565b600060208284031215613500576134ff613013565b5b600082013567ffffffffffffffff81111561351e5761351d613018565b5b61352a848285016134bc565b91505092915050565b60006020828403121561354957613548613013565b5b600061355784828501613260565b91505092915050565b6135698161318a565b82525050565b60006020820190506135846000830184613560565b92915050565b613593816130a2565b811461359e57600080fd5b50565b6000813590506135b08161358a565b92915050565b600080604083850312156135cd576135cc613013565b5b60006135db85828601613260565b92505060206135ec858286016135a1565b9150509250929050565b600067ffffffffffffffff821115613611576136106133bf565b5b61361a8261311e565b9050602081019050919050565b600061363a613635846135f6565b61341f565b905082815260208101848484011115613656576136556133ba565b5b61366184828561346b565b509392505050565b600082601f83011261367e5761367d6132b5565b5b813561368e848260208601613627565b91505092915050565b600080600080608085870312156136b1576136b0613013565b5b60006136bf87828801613260565b94505060206136d087828801613260565b93505060406136e1878288016131ab565b925050606085013567ffffffffffffffff81111561370257613701613018565b5b61370e87828801613669565b91505092959194509250565b6000806000806040858703121561373457613733613013565b5b600085013567ffffffffffffffff81111561375257613751613018565b5b61375e878288016132c4565b9450945050602085013567ffffffffffffffff81111561378157613780613018565b5b61378d878288016132c4565b925092505092959194509250565b6000806000604084860312156137b4576137b3613013565b5b600084013567ffffffffffffffff8111156137d2576137d1613018565b5b6137de868287016132c4565b935093505060206137f1868287016131ab565b9150509250925092565b6000806040838503121561381257613811613013565b5b600061382085828601613260565b925050602061383185828601613260565b9150509250929050565b600081519050919050565b600082825260208201905092915050565b6000819050602082019050919050565b600082825260208201905092915050565b6000613883826130d8565b61388d8185613867565b935061389d8185602086016130f4565b6138a68161311e565b840191505092915050565b60006138bd8383613878565b905092915050565b6000602082019050919050565b60006138dd8261383b565b6138e78185613846565b9350836020820285016138f985613857565b8060005b85811015613935578484038952815161391685826138b1565b9450613921836138c5565b925060208a019950506001810190506138fd565b50829750879550505050505092915050565b6000602082019050818103600083015261396181846138d2565b905092915050565b7f4e487b7100000000000000000000000000000000000000000000000000000000600052602260045260246000fd5b600060028204905060018216806139b057607f821691505b6020821081036139c3576139c2613969565b5b50919050565b7f4552433732313a20617070726f76616c20746f2063757272656e74206f776e6560008201527f7200000000000000000000000000000000000000000000000000000000000000602082015250565b6000613a256021836130e3565b9150613a30826139c9565b604082019050919050565b60006020820190508181036000830152613a5481613a18565b9050919050565b7f4552433732313a20617070726f76652063616c6c6572206973206e6f7420746f60008201527f6b656e206f776e6572206e6f7220617070726f76656420666f7220616c6c0000602082015250565b6000613ab7603e836130e3565b9150613ac282613a5b565b604082019050919050565b60006020820190508181036000830152613ae681613aaa565b9050919050565b600081905092915050565b6000613b048385613aed565b9350613b1183858461346b565b82840190509392505050565b6000613b2a828486613af8565b91508190509392505050565b7f4552433732313a2063616c6c6572206973206e6f7420746f6b656e206f776e6560008201527f72206e6f7220617070726f766564000000000000000000000000000000000000602082015250565b6000613b92602e836130e3565b9150613b9d82613b36565b604082019050919050565b60006020820190508181036000830152613bc181613b85565b9050919050565b600081905092915050565b50565b6000613be3600083613bc8565b9150613bee82613bd3565b600082019050919050565b6000613c0482613bd6565b9150819050919050565b7f4661696c656420746f207769746864726177204d617469630000000000000000600082015250565b6000613c446018836130e3565b9150613c4f82613c0e565b602082019050919050565b60006020820190508181036000830152613c7381613c37565b9050919050565b7f4552433732313a20696e76616c696420746f6b656e2049440000000000000000600082015250565b6000613cb06018836130e3565b9150613cbb82613c7a565b602082019050919050565b60006020820190508181036000830152613cdf81613ca3565b9050919050565b7f4552433732313a2061646472657373207a65726f206973206e6f74206120766160008201527f6c6964206f776e65720000000000000000000000000000000000000000000000602082015250565b6000613d426029836130e3565b9150613d4d82613ce6565b604082019050919050565b60006020820190508181036000830152613d7181613d35565b9050919050565b7f4e6f207065726d697373696f6e20746f206d6f6469667920746865207265636f60008201527f7264000000000000000000000000000000000000000000000000000000000000602082015250565b6000613dd46022836130e3565b9150613ddf82613d78565b604082019050919050565b60006020820190508181036000830152613e0381613dc7565b9050919050565b600082905092915050565b60008190508160005260206000209050919050565b60006020601f8301049050919050565b600082821b905092915050565b600060088302613e777fffffffffffffffffffffffffffffffffffffffffffffffffffffffffffffffff82613e3a565b613e818683613e3a565b95508019841693508086168417925050509392505050565b6000819050919050565b6000613ebe613eb9613eb48461318a565b613e99565b61318a565b9050919050565b6000819050919050565b613ed883613ea3565b613eec613ee482613ec5565b848454613e47565b825550505050565b600090565b613f01613ef4565b613f0c818484613ecf565b505050565b5b81811015613f3057613f25600082613ef9565b600181019050613f12565b5050565b601f821115613f7557613f4681613e15565b613f4f84613e2a565b81016020851015613f5e578190505b613f72613f6a85613e2a565b830182613f11565b50505b505050565b600082821c905092915050565b6000613f9860001984600802613f7a565b1980831691505092915050565b6000613fb18383613f87565b9150826002028217905092915050565b613fcb8383613e0a565b67ffffffffffffffff811115613fe457613fe36133bf565b5b613fee8254613998565b613ff9828285613f34565b6000601f8311600181146140285760008415614016578287013590505b6140208582613fa5565b865550614088565b601f19841661403686613e15565b60005b8281101561405e57848901358255600182019150602085019450602081019050614039565b8683101561407b5784890135614077601f891682613f87565b8355505b6001600288020188555050505b50505050505050565b7f4e616d6520616c72656164792065786973747300000000000000000000000000600082015250565b60006140c76013836130e3565b91506140d282614091565b602082019050919050565b600060208201905081810360008301526140f6816140ba565b9050919050565b7f496e76616c6964206e616d650000000000000000000000000000000000000000600082015250565b6000614133600c836130e3565b915061413e826140fd565b602082019050919050565b6000602082019050818103600083015261416281614126565b9050919050565b7f4164647265737320616c7265616479206170706c696564000000000000000000600082015250565b600061419f6017836130e3565b91506141aa82614169565b602082019050919050565b600060208201905081810360008301526141ce81614192565b9050919050565b7f4e6f7420656e6f756768204d6174696320706169640000000000000000000000600082015250565b600061420b6015836130e3565b9150614216826141d5565b602082019050919050565b6000602082019050818103600083015261423a816141fe565b9050919050565b7f2e00000000000000000000000000000000000000000000000000000000000000600082015250565b6000614277600183613aed565b915061428282614241565b600182019050919050565b6000614298826130d8565b6142a28185613aed565b93506142b28185602086016130f4565b80840191505092915050565b60006142cb828688613af8565b91506142d68261426a565b91506142e2828561428d565b91506142ed8261426a565b91506142f9828461428d565b915081905095945050505050565b6000815461431481613998565b61431e8186613aed565b94506001821660008114614339576001811461434e57614381565b60ff1983168652811515820286019350614381565b61435785613e15565b60005b838110156143795781548189015260018201915060208101905061435a565b838801955050505b50505092915050565b60006143968288614307565b91506143a2828761428d565b91506143ae8286614307565b91506143ba828561428d565b91506143c68284614307565b91508190509695505050505050565b7f7b226e616d65223a202200000000000000000000000000000000000000000000600082015250565b600061440b600a83613aed565b9150614416826143d5565b600a82019050919050565b7f222c20226465736372697074696f6e223a2022412073747564656e742061742060008201527f486f677761727473222c2022696d616765223a2022646174613a696d6167652f60208201527f7376672b786d6c3b6261736536342c0000000000000000000000000000000000604082015250565b60006144a3604f83613aed565b91506144ae82614421565b604f82019050919050565b7f222c226c656e677468223a220000000000000000000000000000000000000000600082015250565b60006144ef600c83613aed565b91506144fa826144b9565b600c82019050919050565b7f227d000000000000000000000000000000000000000000000000000000000000600082015250565b600061453b600283613aed565b915061454682614505565b600282019050919050565b600061455c826143fe565b9150614568828661428d565b915061457382614496565b915061457f828561428d565b915061458a826144e2565b9150614596828461428d565b91506145a18261452e565b9150819050949350505050565b7f646174613a6170706c69636174696f6e2f6a736f6e3b6261736536342c000000600082015250565b60006145e4601d83613aed565b91506145ef826145ae565b601d82019050919050565b6000614605826145d7565b9150614611828461428d565b915081905092915050565b614625826130d8565b67ffffffffffffffff81111561463e5761463d6133bf565b5b6146488254613998565b614653828285613f34565b600060209050601f8311600181146146865760008415614674578287015190505b61467e8582613fa5565b8655506146e6565b601f19841661469486613e15565b60005b828110156146bc57848901518255600182019150602085019450602081019050614697565b868310156146d957848901516146d5601f891682613f87565b8355505b6001600288020188555050505b505050505050565b60006146fa83856130e3565b935061470783858461346b565b6147108361311e565b840190509392505050565b600060408201905081810360008301526147368185876146ee565b9050818103602083015261474a818461312f565b9050949350505050565b6000614760828561428d565b915061476c828461428d565b91508190509392505050565b7f4e487b7100000000000000000000000000000000000000000000000000000000600052603260045260246000fd5b7f4e487b7100000000000000000000000000000000000000000000000000000000600052601160045260246000fd5b60006147e18261318a565b91507fffffffffffffffffffffffffffffffffffffffffffffffffffffffffffffffff8203614813576148126147a7565b5b600182019050919050565b7f4552433732313a207472616e736665722066726f6d20696e636f72726563742060008201527f6f776e6572000000000000000000000000000000000000000000000000000000602082015250565b600061487a6025836130e3565b91506148858261481e565b604082019050919050565b600060208201905081810360008301526148a98161486d565b9050919050565b7f4552433732313a207472616e7366657220746f20746865207a65726f2061646460008201527f7265737300000000000000000000000000000000000000000000000000000000602082015250565b600061490c6024836130e3565b9150614917826148b0565b604082019050919050565b6000602082019050818103600083015261493b816148ff565b9050919050565b600061494d8261318a565b91506149588361318a565b92508282039050818111156149705761496f6147a7565b5b92915050565b60006149818261318a565b915061498c8361318a565b92508282019050808211156149a4576149a36147a7565b5b92915050565b7f4552433732313a20617070726f766520746f2063616c6c657200000000000000600082015250565b60006149e06019836130e3565b91506149eb826149aa565b602082019050919050565b60006020820190508181036000830152614a0f816149d3565b9050919050565b7f4552433732313a207472616e7366657220746f206e6f6e20455243373231526560008201527f63656976657220696d706c656d656e7465720000000000000000000000000000602082015250565b6000614a726032836130e3565b9150614a7d82614a16565b604082019050919050565b60006020820190508181036000830152614aa181614a65565b9050919050565b6000819050919050565b614ac3614abe8261318a565b614aa8565b82525050565b60008160601b9050919050565b6000614ae182614ac9565b9050919050565b6000614af382614ad6565b9050919050565b614b0b614b068261320d565b614ae8565b82525050565b6000614b1d8287614ab2565b602082019150614b2d8286614ab2565b602082019150614b3d8285614ab2565b602082019150614b4d8284614afa565b60148201915081905095945050505050565b7f4e487b7100000000000000000000000000000000000000000000000000000000600052601260045260246000fd5b6000614b998261318a565b9150614ba48361318a565b925082614bb457614bb3614b5f565b5b828206905092915050565b6000614bca8261318a565b9150614bd58361318a565b925082614be557614be4614b5f565b5b828204905092915050565b6000614bfb8261318a565b9150614c068361318a565b9250828202614c148161318a565b91508282048414831517614c2b57614c2a6147a7565b5b5092915050565b7f45524337323155524953746f726167653a2055524920736574206f66206e6f6e60008201527f6578697374656e7420746f6b656e000000000000000000000000000000000000602082015250565b6000614c8e602e836130e3565b9150614c9982614c32565b604082019050919050565b60006020820190508181036000830152614cbd81614c81565b9050919050565b600081519050919050565b600082825260208201905092915050565b6000614ceb82614cc4565b614cf58185614ccf565b9350614d058185602086016130f4565b614d0e8161311e565b840191505092915050565b6000608082019050614d2e600083018761321f565b614d3b602083018661321f565b614d486040830185613560565b8181036060830152614d5a8184614ce0565b905095945050505050565b600081519050614d7481613049565b92915050565b600060208284031215614d9057614d8f613013565b5b6000614d9e84828501614d65565b91505092915050565b7f4552433732313a206d696e7420746f20746865207a65726f2061646472657373600082015250565b6000614ddd6020836130e3565b9150614de882614da7565b602082019050919050565b60006020820190508181036000830152614e0c81614dd0565b9050919050565b7f4552433732313a20746f6b656e20616c7265616479206d696e74656400000000600082015250565b6000614e49601c836130e3565b9150614e5482614e13565b602082019050919050565b60006020820190508181036000830152614e7881614e3c565b905091905056fe4142434445464748494a4b4c4d4e4f505152535455565758595a6162636465666768696a6b6c6d6e6f707172737475767778797a303132333435363738392b2fa2646970667358221220263b1da6bd54d5a1f6e2b0966a7ea51d164381eafa259809a5316b520105ee3b64736f6c634300081100333c73766720786d6c6e733d22687474703a2f2f7777772e77332e6f72672f323030302f737667222077696474683d2232373022206865696768743d22323730222066696c6c3d226e6f6e65223e3c6720636c69702d706174683d2275726c2823636c6970305f325f3429223e3c726563742077696474683d2232373022206865696768743d22323730222066696c6c3d227768697465222f3e3c726563742077696474683d2232373022206865696768743d22323730222066696c6c3d22222f3e3c7265637420783d223131332220793d22313237222077696474683d22353722206865696768743d223436222066696c6c3d2275726c28237061747465726e3029222f3e3c7265637420783d2239392220793d223937222077696474683d22353422206865696768743d223438222066696c6c3d2275726c28237061747465726e3129222f3e3c2f673e3c646566733e3c7061747465726e2069643d227061747465726e3022207061747465726e436f6e74656e74556e6974733d226f626a656374426f756e64696e67426f78222077696474683d223122206865696768743d2231223e3c75736520687265663d2223696d616765305f325f3422207472616e73666f726d3d227472616e736c61746528302e3039363439313229207363616c6528302e303038343036343320302e3031303431363729222f3e3c2f7061747465726e3e3c7061747465726e2069643d227061747465726e3122207061747465726e436f6e74656e74556e6974733d226f626a656374426f756e64696e67426f78222077696474683d223122206865696768743d2231223e3c75736520687265663d2223696d616765315f325f3422207472616e73666f726d3d227472616e736c61746528302e3035353535353629207363616c6528302e303039323539323620302e3031303431363729222f3e3c2f7061747465726e3e3c636c6970506174682069643d22636c6970305f325f34223e3c726563742077696474683d2232373022206865696768743d22323730222066696c6c3d227768697465222f3e3c2f636c6970506174683e3c696d6167652069643d22696d616765305f325f34222077696474683d22393622206865696768743d2239362220687265663d22646174613a696d6167652f706e673b6261736536342c6956424f5277304b47676f414141414e5355684555674141414741414141426743415941414144696d48633441414141426d4a4c523051412f77442f41502b67766165544141414471456c45515652346e4f32644f576756555252417a385445445156525551524249316a45526b456842446455304d4a57454a743042745465306c30544377733342473073465255734241556c6c59697068494346416130535538576654534a69484975586a7a484f2f374f2b643265354232373159656265637964764a752b3950783855463351417a34467859415a34425777587a616843644149317746385155326754724e4f4a75656f5879712f4853376e55796b2b596642387a48436b5769434c664237354c4a56686d6f737233675764434f5a61574f504a727742615a4e4d764a54754162306553505935716c5a49544b4630546c43364c7942564835677168385156532b49437066454a5576694d6f58524f554c6f76494655666d437148784274684b3868717679486645516c532f4b454370666c416c55766968684464676a6c316f316d4b4a3541315a6b65624b574c413957457279517a2f30735436594e2b4a38774a3739646e71794b36462b414d453462304a726c775170414b37437977576531694d6649744146565952746d542f34766f76325832797a61484f6465654f4a73463477536939796d58327a697a4770476a62423768444b4844666b362f6b636b3632476e48684d75697967717475543777464f48645251536d2f4c484d4973315367506979502b4a75542f556f396b4533446a77474e6a6f727054696f577534677168385156532b51355944657a455332346733357176386c505141302f77564f6b4c343071484b7a34674c4a48393056506b7055666d4356454b2b79356d397063412b34436a6d36575539734748757336397a38525a34417877417a6955387a775277424268496b32795a57417630417050596d53496f354a5876676862674c4f4837624c4b4d456171337a4272494f7377536f43767838324f58672f70797a57466746426e3550724462666f6e355a416c7741374e785355722b4a4c444d6471463570415034674a7a3465707930585767653665626661514b704f472b37304c7978436e69457650684b796a384944434d76766e4c794677505867566e6b786676415262766c356f74323442337930756648667173564f794471377568755942446f7370684c4567354a4a32436231634154354b2f305274467672335235756f417679457475466b505771686645777a785a354f56473279796d4c446b513552547959715047744355486f6e7843586d7a552b477a4a67544f436e6f4c616e5765526e464870424e49533149416933646a65537965516c71414739446e50496a6d7670524f777852586b782f6577474b506b632f2b586b5a66634c436f784433514e656446424d59315a643634456552794f7a6c69744f49663049532b3948763155394b75695635475858774d32325334307a306a66453437624c7a482f534458686e6f7669696b49766275562f7848784452706d487179624d6f443936325241585430656e6e56565451447a674a76626b763643696a357878734e57455957434e777a6f4b6a516663496a763573356a4e58306f4d736d7a434a6365356c775950754530362b51506f65396c53345146335343612f426d78326e334c35534e714545784c4a6c685550754574302b66646c30697733555a7377524d5a764a56662b457461454838414f7365777151677677674f414739416a6d56536b387a464c69494f5a31417633414d64474d46455652464557515036777566744f6569446e744141414141456c46546b5375516d4343222f3e3c696d6167652069643d22696d616765315f325f34222077696474683d22393622206865696768743d2239362220687265663d22646174613a696d6167652f706e673b6261736536342c6956424f5277304b47676f414141414e5355684555674141414741414141426743415941414144696d48633441414141426d4a4c523051412f77442f41502b67766165544141414556306c45515652346e4f326453597356535243415032326e7355456432745a78785630504b71346736726a67306e7231496a4e6531482f67306173694b4d35683844427a6d463867714f4464425556515041796f7543414b436f4a4c69394274747a497933646f653468574939764b364b6a4d6a71696f2b4342343072374d694d696f694d794f7a366f486a4f49376a4f49376a4f45353439674e766763464138674634414a7742566961306f39524d423834527a676d5a6641622b426c72546d564a75516b64444a6c64784a7a524e72476a344b365552565342304e4177414b354a6155414861675838493534512f3036706648554a46772f3355696c654a454e48516d317a72436c49304368616c567a6b2f34375556694d427562515847516855647345746267624a544e4157396f356f33566a4b4f5574774a36354e726e5a4d57625157473443627769574b352f466d6a4861634152534c686b6f4b2b6c535376452f34443268543072527a7a79423846705a694f577038742f467267663073784861327941306f5241646135512f345539426d596c6c376c366a415a7166455857512f7354363731474c4763676a5a52664a316966687977374941692b54396a62344132617373566970636b7a4a656e72555a41433741685546756d5a304e57486241614759524459486f63734f714145506b2f5978643237545372574567486441427241375958464b734f324279345064506a6744574b464f43385042324141345233674e6e79744d555546444c2f5a30794d314735684c4470675336523254553948725443463467573434655466684861556c6a33453658797a35576c724b53686d6e68345037496a59666937713541447763574245577044547a62465330434477504a6b314a5751646354732f4531506c615573704b4e55383356525a6f6f344f38484667474636514a67583536656b686d452b617a732f457a4f6c704b336443366a714e6d58484148654141634a65304b636873655671446d4157346b635245464668495152765265564c487848545567674f304e6b6f366c6135726a6c416e344d59714a7372543268455138675463574446526e745a32774272436e59444c672f6f346f4f30413759317939645054645866414170544c30396f4f434830434c672b713677464e423877483569706550364f324474424f50786b375565794843516d764e524e353065704b354f5636366a4f51426833416265416538504162655a586934754d697454734232655064444778463776595a6b61345669396649437a3975417265515232623756545561685137674948414236454e6e64527454656f487a445276565639415a72634476794a74724e537161576a4b416c46422b512b6d4e76644f415530425845387057586271416b306747694534726341546f546d52636d6151504f4562456a5a366c794f784132314472386868596e724f506836555465472f41754c4a4944774558654d756f3571776d7476514353334c3039772f45654e563858655473614a33627a454b73422f6935696538355039494e5442337043383355515034506f3073744758586c334977444c676451704b3445655435354b54344479694d39774f49632f54306b6e636a5052326b625652627049304b31647a5877314942783175554a7343706e4834394b473341432b476a41554776794554694f504a55666e562b41502f43613047436a443034332b69513562634268344472314b3064664177355273506757636b64734a7241504762433359576a54496844766742764974507769556f5975544b77747958484976752f32686d796a664675536235414f763446452b43506b3767394b4c41634d5254747943476f465571374e5068636d31754e377570484f66666a4e35374f475245665438497a4a7742786b454a754e524d6f4d5946626a622b3349527442454a4e2f2b424578435676465a6a656f393841565a712f516a5438423851736f6f33636950784c3147306b595863754c684c6641536d624d376a754d346a754d346a754d6b347975514732742b35696d54536741414141424a52553545726b4a6767673d3d222f3e3c2f646566733e3c7465787420783d223530252220793d223830252220646f6d696e616e742d626173656c696e653d226d6964646c652220746578742d616e63686f723d226d6964646c652220666f6e742d73697a653d223135222066696c6c3d22626c61636b2220666f6e742d66616d696c793d22506c7573204a616b617274612053616e732c44656a6156752053616e732c4e6f746f20436f6c6f7220456d6f6a692c4170706c6520436f6c6f7220456d6f6a692c73616e732d73657269662220666f6e742d7765696768743d22626f6c64223e","opcodes":"PUSH1 0x80 PUSH1 0x40 MSTORE PUSH1 0x40 MLOAD DUP1 PUSH1 0xE0 ADD PUSH1 0x40 MSTORE DUP1 PUSH1 0xBE DUP2 MSTORE PUSH1 0x20 ADD PUSH3 0x53EE PUSH1 0xBE SWAP2 CODECOPY PUSH1 0x8 SWAP1 DUP2 PUSH3 0x2E SWAP2 SWAP1 PUSH3 0x402 JUMP JUMPDEST POP PUSH1 0x40 MLOAD DUP1 PUSH2 0xF60 ADD PUSH1 0x40 MSTORE DUP1 PUSH2 0xF30 DUP2 MSTORE PUSH1 0x20 ADD PUSH3 0x54AC PUSH2 0xF30 SWAP2 CODECOPY PUSH1 0x9 SWAP1 DUP2 PUSH3 0x5C SWAP2 SWAP1 PUSH3 0x402 JUMP JUMPDEST POP PUSH1 0x40 MLOAD DUP1 PUSH1 0x40 ADD PUSH1 0x40 MSTORE DUP1 PUSH1 0xD DUP2 MSTORE PUSH1 0x20 ADD PUSH32 0x3C2F746578743E3C2F7376673E00000000000000000000000000000000000000 DUP2 MSTORE POP PUSH1 0xA SWAP1 DUP2 PUSH3 0xA3 SWAP2 SWAP1 PUSH3 0x402 JUMP JUMPDEST POP PUSH7 0x38D7EA4C68000 PUSH1 0xB SSTORE PUSH1 0x40 MLOAD DUP1 PUSH1 0x40 ADD PUSH1 0x40 MSTORE DUP1 PUSH1 0x19 DUP2 MSTORE PUSH1 0x20 ADD PUSH32 0x486F6777617274732053747564656E7473205365727669636500000000000000 DUP2 MSTORE POP PUSH1 0x40 MLOAD DUP1 PUSH1 0x40 ADD PUSH1 0x40 MSTORE DUP1 PUSH1 0x3 DUP2 MSTORE PUSH1 0x20 ADD PUSH32 0x4853530000000000000000000000000000000000000000000000000000000000 DUP2 MSTORE POP DUP2 PUSH1 0x0 SWAP1 DUP2 PUSH3 0x12C SWAP2 SWAP1 PUSH3 0x402 JUMP JUMPDEST POP DUP1 PUSH1 0x1 SWAP1 DUP2 PUSH3 0x13E SWAP2 SWAP1 PUSH3 0x402 JUMP JUMPDEST POP POP POP CALLER PUSH1 0xC PUSH1 0x0 PUSH2 0x100 EXP DUP2 SLOAD DUP2 PUSH20 0xFFFFFFFFFFFFFFFFFFFFFFFFFFFFFFFFFFFFFFFF MUL NOT AND SWAP1 DUP4 PUSH20 0xFFFFFFFFFFFFFFFFFFFFFFFFFFFFFFFFFFFFFFFF AND MUL OR SWAP1 SSTORE POP PUSH3 0x4E9 JUMP JUMPDEST PUSH1 0x0 DUP2 MLOAD SWAP1 POP SWAP2 SWAP1 POP JUMP JUMPDEST PUSH32 0x4E487B7100000000000000000000000000000000000000000000000000000000 PUSH1 0x0 MSTORE PUSH1 0x41 PUSH1 0x4 MSTORE PUSH1 0x24 PUSH1 0x0 REVERT JUMPDEST PUSH32 0x4E487B7100000000000000000000000000000000000000000000000000000000 PUSH1 0x0 MSTORE PUSH1 0x22 PUSH1 0x4 MSTORE PUSH1 0x24 PUSH1 0x0 REVERT JUMPDEST PUSH1 0x0 PUSH1 0x2 DUP3 DIV SWAP1 POP PUSH1 0x1 DUP3 AND DUP1 PUSH3 0x20A JUMPI PUSH1 0x7F DUP3 AND SWAP2 POP JUMPDEST PUSH1 0x20 DUP3 LT DUP2 SUB PUSH3 0x220 JUMPI PUSH3 0x21F PUSH3 0x1C2 JUMP JUMPDEST JUMPDEST POP SWAP2 SWAP1 POP JUMP JUMPDEST PUSH1 0x0 DUP2 SWAP1 POP DUP2 PUSH1 0x0 MSTORE PUSH1 0x20 PUSH1 0x0 KECCAK256 SWAP1 POP SWAP2 SWAP1 POP JUMP JUMPDEST PUSH1 0x0 PUSH1 0x20 PUSH1 0x1F DUP4 ADD DIV SWAP1 POP SWAP2 SWAP1 POP JUMP JUMPDEST PUSH1 0x0 DUP3 DUP3 SHL SWAP1 POP SWAP3 SWAP2 POP POP JUMP JUMPDEST PUSH1 0x0 PUSH1 0x8 DUP4 MUL PUSH3 0x28A PUSH32 0xFFFFFFFFFFFFFFFFFFFFFFFFFFFFFFFFFFFFFFFFFFFFFFFFFFFFFFFFFFFFFFFF DUP3 PUSH3 0x24B JUMP JUMPDEST PUSH3 0x296 DUP7 DUP4 PUSH3 0x24B JUMP JUMPDEST SWAP6 POP DUP1 NOT DUP5 AND SWAP4 POP DUP1 DUP7 AND DUP5 OR SWAP3 POP POP POP SWAP4 SWAP3 POP POP POP JUMP JUMPDEST PUSH1 0x0 DUP2 SWAP1 POP SWAP2 SWAP1 POP JUMP JUMPDEST PUSH1 0x0 DUP2 SWAP1 POP SWAP2 SWAP1 POP JUMP JUMPDEST PUSH1 0x0 PUSH3 0x2E3 PUSH3 0x2DD PUSH3 0x2D7 DUP5 PUSH3 0x2AE JUMP JUMPDEST PUSH3 0x2B8 JUMP JUMPDEST PUSH3 0x2AE JUMP JUMPDEST SWAP1 POP SWAP2 SWAP1 POP JUMP JUMPDEST PUSH1 0x0 DUP2 SWAP1 POP SWAP2 SWAP1 POP JUMP JUMPDEST PUSH3 0x2FF DUP4 PUSH3 0x2C2 JUMP JUMPDEST PUSH3 0x317 PUSH3 0x30E DUP3 PUSH3 0x2EA JUMP JUMPDEST DUP5 DUP5 SLOAD PUSH3 0x258 JUMP JUMPDEST DUP3 SSTORE POP POP POP POP JUMP JUMPDEST PUSH1 0x0 SWAP1 JUMP JUMPDEST PUSH3 0x32E PUSH3 0x31F JUMP JUMPDEST PUSH3 0x33B DUP2 DUP5 DUP5 PUSH3 0x2F4 JUMP JUMPDEST POP POP POP JUMP JUMPDEST JUMPDEST DUP2 DUP2 LT ISZERO PUSH3 0x363 JUMPI PUSH3 0x357 PUSH1 0x0 DUP3 PUSH3 0x324 JUMP JUMPDEST PUSH1 0x1 DUP2 ADD SWAP1 POP PUSH3 0x341 JUMP JUMPDEST POP POP JUMP JUMPDEST PUSH1 0x1F DUP3 GT ISZERO PUSH3 0x3B2 JUMPI PUSH3 0x37C DUP2 PUSH3 0x226 JUMP JUMPDEST PUSH3 0x387 DUP5 PUSH3 0x23B JUMP JUMPDEST DUP2 ADD PUSH1 0x20 DUP6 LT ISZERO PUSH3 0x397 JUMPI DUP2 SWAP1 POP JUMPDEST PUSH3 0x3AF PUSH3 0x3A6 DUP6 PUSH3 0x23B JUMP JUMPDEST DUP4 ADD DUP3 PUSH3 0x340 JUMP JUMPDEST POP POP JUMPDEST POP POP POP JUMP JUMPDEST PUSH1 0x0 DUP3 DUP3 SHR SWAP1 POP SWAP3 SWAP2 POP POP JUMP JUMPDEST PUSH1 0x0 PUSH3 0x3D7 PUSH1 0x0 NOT DUP5 PUSH1 0x8 MUL PUSH3 0x3B7 JUMP JUMPDEST NOT DUP1 DUP4 AND SWAP2 POP POP SWAP3 SWAP2 POP POP JUMP JUMPDEST PUSH1 0x0 PUSH3 0x3F2 DUP4 DUP4 PUSH3 0x3C4 JUMP JUMPDEST SWAP2 POP DUP3 PUSH1 0x2 MUL DUP3 OR SWAP1 POP SWAP3 SWAP2 POP POP JUMP JUMPDEST PUSH3 0x40D DUP3 PUSH3 0x188 JUMP JUMPDEST PUSH8 0xFFFFFFFFFFFFFFFF DUP2 GT ISZERO PUSH3 0x429 JUMPI PUSH3 0x428 PUSH3 0x193 JUMP JUMPDEST JUMPDEST PUSH3 0x435 DUP3 SLOAD PUSH3 0x1F1 JUMP JUMPDEST PUSH3 0x442 DUP3 DUP3 DUP6 PUSH3 0x367 JUMP JUMPDEST PUSH1 0x0 PUSH1 0x20 SWAP1 POP PUSH1 0x1F DUP4 GT PUSH1 0x1 DUP2 EQ PUSH3 0x47A JUMPI PUSH1 0x0 DUP5 ISZERO PUSH3 0x465 JUMPI DUP3 DUP8 ADD MLOAD SWAP1 POP JUMPDEST PUSH3 0x471 DUP6 DUP3 PUSH3 0x3E4 JUMP JUMPDEST DUP7 SSTORE POP PUSH3 0x4E1 JUMP JUMPDEST PUSH1 0x1F NOT DUP5 AND PUSH3 0x48A DUP7 PUSH3 0x226 JUMP JUMPDEST PUSH1 0x0 JUMPDEST DUP3 DUP2 LT ISZERO PUSH3 0x4B4 JUMPI DUP5 DUP10 ADD MLOAD DUP3 SSTORE PUSH1 0x1 DUP3 ADD SWAP2 POP PUSH1 0x20 DUP6 ADD SWAP5 POP PUSH1 0x20 DUP2 ADD SWAP1 POP PUSH3 0x48D JUMP JUMPDEST DUP7 DUP4 LT ISZERO PUSH3 0x4D4 JUMPI DUP5 DUP10 ADD MLOAD PUSH3 0x4D0 PUSH1 0x1F DUP10 AND DUP3 PUSH3 0x3C4 JUMP JUMPDEST DUP4 SSTORE POP JUMPDEST PUSH1 0x1 PUSH1 0x2 DUP9 MUL ADD DUP9 SSTORE POP POP POP JUMPDEST POP POP POP POP POP POP JUMP JUMPDEST PUSH2 0x4EF5 DUP1 PUSH3 0x4F9 PUSH1 0x0 CODECOPY PUSH1 0x0 RETURN INVALID PUSH1 0x80 PUSH1 0x40 MSTORE PUSH1 0x4 CALLDATASIZE LT PUSH2 0x1F9 JUMPI PUSH1 0x0 CALLDATALOAD PUSH1 0xE0 SHR DUP1 PUSH4 0x79137275 GT PUSH2 0x10D JUMPI DUP1 PUSH4 0xB88D4FDE GT PUSH2 0xA0 JUMPI DUP1 PUSH4 0xC87B56DD GT PUSH2 0x6F JUMPI DUP1 PUSH4 0xC87B56DD EQ PUSH2 0x774 JUMPI DUP1 PUSH4 0xD3CBCFEA EQ PUSH2 0x7B1 JUMPI DUP1 PUSH4 0xE985E9C5 EQ PUSH2 0x7DC JUMPI DUP1 PUSH4 0xFA626F6B EQ PUSH2 0x819 JUMPI DUP1 PUSH4 0xFB825E5F EQ PUSH2 0x844 JUMPI PUSH2 0x1F9 JUMP JUMPDEST DUP1 PUSH4 0xB88D4FDE EQ PUSH2 0x6C9 JUMPI DUP1 PUSH4 0xBF40FAC1 EQ PUSH2 0x6F2 JUMPI DUP1 PUSH4 0xC1880A98 EQ PUSH2 0x72F JUMPI DUP1 PUSH4 0xC60CE348 EQ PUSH2 0x758 JUMPI PUSH2 0x1F9 JUMP JUMPDEST DUP1 PUSH4 0x9791C097 GT PUSH2 0xDC JUMPI DUP1 PUSH4 0x9791C097 EQ PUSH2 0x5FB JUMPI DUP1 PUSH4 0xA22CB465 EQ PUSH2 0x638 JUMPI DUP1 PUSH4 0xABE50FA6 EQ PUSH2 0x661 JUMPI DUP1 PUSH4 0xB5140057 EQ PUSH2 0x69E JUMPI PUSH2 0x1F9 JUMP JUMPDEST DUP1 PUSH4 0x79137275 EQ PUSH2 0x54F JUMPI DUP1 PUSH4 0x7DDD5DD8 EQ PUSH2 0x57A JUMPI DUP1 PUSH4 0x8F32D59B EQ PUSH2 0x5A5 JUMPI DUP1 PUSH4 0x95D89B41 EQ PUSH2 0x5D0 JUMPI PUSH2 0x1F9 JUMP JUMPDEST DUP1 PUSH4 0x26449235 GT PUSH2 0x190 JUMPI DUP1 PUSH4 0x4622AB03 GT PUSH2 0x15F JUMPI DUP1 PUSH4 0x4622AB03 EQ PUSH2 0x430 JUMPI DUP1 PUSH4 0x541E771D EQ PUSH2 0x46D JUMPI DUP1 PUSH4 0x6352211E EQ PUSH2 0x4AA JUMPI DUP1 PUSH4 0x70A08231 EQ PUSH2 0x4E7 JUMPI DUP1 PUSH4 0x73EEA211 EQ PUSH2 0x524 JUMPI PUSH2 0x1F9 JUMP JUMPDEST DUP1 PUSH4 0x26449235 EQ PUSH2 0x388 JUMPI DUP1 PUSH4 0x2D551432 EQ PUSH2 0x3C5 JUMPI DUP1 PUSH4 0x3CCFD60B EQ PUSH2 0x3F0 JUMPI DUP1 PUSH4 0x42842E0E EQ PUSH2 0x407 JUMPI PUSH2 0x1F9 JUMP JUMPDEST DUP1 PUSH4 0x95EA7B3 GT PUSH2 0x1CC JUMPI DUP1 PUSH4 0x95EA7B3 EQ PUSH2 0x2CE JUMPI DUP1 PUSH4 0xB912301 EQ PUSH2 0x2F7 JUMPI DUP1 PUSH4 0x11DD8845 EQ PUSH2 0x322 JUMPI DUP1 PUSH4 0x23B872DD EQ PUSH2 0x35F JUMPI PUSH2 0x1F9 JUMP JUMPDEST DUP1 PUSH4 0x1FFC9A7 EQ PUSH2 0x1FE JUMPI DUP1 PUSH4 0x6FDDE03 EQ PUSH2 0x23B JUMPI DUP1 PUSH4 0x81812FC EQ PUSH2 0x266 JUMPI DUP1 PUSH4 0x8B13A1D EQ PUSH2 0x2A3 JUMPI JUMPDEST PUSH1 0x0 DUP1 REVERT JUMPDEST CALLVALUE DUP1 ISZERO PUSH2 0x20A JUMPI PUSH1 0x0 DUP1 REVERT JUMPDEST POP PUSH2 0x225 PUSH1 0x4 DUP1 CALLDATASIZE SUB DUP2 ADD SWAP1 PUSH2 0x220 SWAP2 SWAP1 PUSH2 0x3075 JUMP JUMPDEST PUSH2 0x86F JUMP JUMPDEST PUSH1 0x40 MLOAD PUSH2 0x232 SWAP2 SWAP1 PUSH2 0x30BD JUMP JUMPDEST PUSH1 0x40 MLOAD DUP1 SWAP2 SUB SWAP1 RETURN JUMPDEST CALLVALUE DUP1 ISZERO PUSH2 0x247 JUMPI PUSH1 0x0 DUP1 REVERT JUMPDEST POP PUSH2 0x250 PUSH2 0x951 JUMP JUMPDEST PUSH1 0x40 MLOAD PUSH2 0x25D SWAP2 SWAP1 PUSH2 0x3168 JUMP JUMPDEST PUSH1 0x40 MLOAD DUP1 SWAP2 SUB SWAP1 RETURN JUMPDEST CALLVALUE DUP1 ISZERO PUSH2 0x272 JUMPI PUSH1 0x0 DUP1 REVERT JUMPDEST POP PUSH2 0x28D PUSH1 0x4 DUP1 CALLDATASIZE SUB DUP2 ADD SWAP1 PUSH2 0x288 SWAP2 SWAP1 PUSH2 0x31C0 JUMP JUMPDEST PUSH2 0x9E3 JUMP JUMPDEST PUSH1 0x40 MLOAD PUSH2 0x29A SWAP2 SWAP1 PUSH2 0x322E JUMP JUMPDEST PUSH1 0x40 MLOAD DUP1 SWAP2 SUB SWAP1 RETURN JUMPDEST CALLVALUE DUP1 ISZERO PUSH2 0x2AF JUMPI PUSH1 0x0 DUP1 REVERT JUMPDEST POP PUSH2 0x2B8 PUSH2 0xA29 JUMP JUMPDEST PUSH1 0x40 MLOAD PUSH2 0x2C5 SWAP2 SWAP1 PUSH2 0x3168 JUMP JUMPDEST PUSH1 0x40 MLOAD DUP1 SWAP2 SUB SWAP1 RETURN JUMPDEST CALLVALUE DUP1 ISZERO PUSH2 0x2DA JUMPI PUSH1 0x0 DUP1 REVERT JUMPDEST POP PUSH2 0x2F5 PUSH1 0x4 DUP1 CALLDATASIZE SUB DUP2 ADD SWAP1 PUSH2 0x2F0 SWAP2 SWAP1 PUSH2 0x3275 JUMP JUMPDEST PUSH2 0xA62 JUMP JUMPDEST STOP JUMPDEST CALLVALUE DUP1 ISZERO PUSH2 0x303 JUMPI PUSH1 0x0 DUP1 REVERT JUMPDEST POP PUSH2 0x30C PUSH2 0xB79 JUMP JUMPDEST PUSH1 0x40 MLOAD PUSH2 0x319 SWAP2 SWAP1 PUSH2 0x3168 JUMP JUMPDEST PUSH1 0x40 MLOAD DUP1 SWAP2 SUB SWAP1 RETURN JUMPDEST CALLVALUE DUP1 ISZERO PUSH2 0x32E JUMPI PUSH1 0x0 DUP1 REVERT JUMPDEST POP PUSH2 0x349 PUSH1 0x4 DUP1 CALLDATASIZE SUB DUP2 ADD SWAP1 PUSH2 0x344 SWAP2 SWAP1 PUSH2 0x331A JUMP JUMPDEST PUSH2 0xBB2 JUMP JUMPDEST PUSH1 0x40 MLOAD PUSH2 0x356 SWAP2 SWAP1 PUSH2 0x3168 JUMP JUMPDEST PUSH1 0x40 MLOAD DUP1 SWAP2 SUB SWAP1 RETURN JUMPDEST CALLVALUE DUP1 ISZERO PUSH2 0x36B JUMPI PUSH1 0x0 DUP1 REVERT JUMPDEST POP PUSH2 0x386 PUSH1 0x4 DUP1 CALLDATASIZE SUB DUP2 ADD SWAP1 PUSH2 0x381 SWAP2 SWAP1 PUSH2 0x3367 JUMP JUMPDEST PUSH2 0xC65 JUMP JUMPDEST STOP JUMPDEST CALLVALUE DUP1 ISZERO PUSH2 0x394 JUMPI PUSH1 0x0 DUP1 REVERT JUMPDEST POP PUSH2 0x3AF PUSH1 0x4 DUP1 CALLDATASIZE SUB DUP2 ADD SWAP1 PUSH2 0x3AA SWAP2 SWAP1 PUSH2 0x34EA JUMP JUMPDEST PUSH2 0xCC5 JUMP JUMPDEST PUSH1 0x40 MLOAD PUSH2 0x3BC SWAP2 SWAP1 PUSH2 0x322E JUMP JUMPDEST PUSH1 0x40 MLOAD DUP1 SWAP2 SUB SWAP1 RETURN JUMPDEST CALLVALUE DUP1 ISZERO PUSH2 0x3D1 JUMPI PUSH1 0x0 DUP1 REVERT JUMPDEST POP PUSH2 0x3DA PUSH2 0xD0E JUMP JUMPDEST PUSH1 0x40 MLOAD PUSH2 0x3E7 SWAP2 SWAP1 PUSH2 0x3168 JUMP JUMPDEST PUSH1 0x40 MLOAD DUP1 SWAP2 SUB SWAP1 RETURN JUMPDEST CALLVALUE DUP1 ISZERO PUSH2 0x3FC JUMPI PUSH1 0x0 DUP1 REVERT JUMPDEST POP PUSH2 0x405 PUSH2 0xD47 JUMP JUMPDEST STOP JUMPDEST CALLVALUE DUP1 ISZERO PUSH2 0x413 JUMPI PUSH1 0x0 DUP1 REVERT JUMPDEST POP PUSH2 0x42E PUSH1 0x4 DUP1 CALLDATASIZE SUB DUP2 ADD SWAP1 PUSH2 0x429 SWAP2 SWAP1 PUSH2 0x3367 JUMP JUMPDEST PUSH2 0xE0D JUMP JUMPDEST STOP JUMPDEST CALLVALUE DUP1 ISZERO PUSH2 0x43C JUMPI PUSH1 0x0 DUP1 REVERT JUMPDEST POP PUSH2 0x457 PUSH1 0x4 DUP1 CALLDATASIZE SUB DUP2 ADD SWAP1 PUSH2 0x452 SWAP2 SWAP1 PUSH2 0x31C0 JUMP JUMPDEST PUSH2 0xE2D JUMP JUMPDEST PUSH1 0x40 MLOAD PUSH2 0x464 SWAP2 SWAP1 PUSH2 0x3168 JUMP JUMPDEST PUSH1 0x40 MLOAD DUP1 SWAP2 SUB SWAP1 RETURN JUMPDEST CALLVALUE DUP1 ISZERO PUSH2 0x479 JUMPI PUSH1 0x0 DUP1 REVERT JUMPDEST POP PUSH2 0x494 PUSH1 0x4 DUP1 CALLDATASIZE SUB DUP2 ADD SWAP1 PUSH2 0x48F SWAP2 SWAP1 PUSH2 0x34EA JUMP JUMPDEST PUSH2 0xECD JUMP JUMPDEST PUSH1 0x40 MLOAD PUSH2 0x4A1 SWAP2 SWAP1 PUSH2 0x3168 JUMP JUMPDEST PUSH1 0x40 MLOAD DUP1 SWAP2 SUB SWAP1 RETURN JUMPDEST CALLVALUE DUP1 ISZERO PUSH2 0x4B6 JUMPI PUSH1 0x0 DUP1 REVERT JUMPDEST POP PUSH2 0x4D1 PUSH1 0x4 DUP1 CALLDATASIZE SUB DUP2 ADD SWAP1 PUSH2 0x4CC SWAP2 SWAP1 PUSH2 0x31C0 JUMP JUMPDEST PUSH2 0xF83 JUMP JUMPDEST PUSH1 0x40 MLOAD PUSH2 0x4DE SWAP2 SWAP1 PUSH2 0x322E JUMP JUMPDEST PUSH1 0x40 MLOAD DUP1 SWAP2 SUB SWAP1 RETURN JUMPDEST CALLVALUE DUP1 ISZERO PUSH2 0x4F3 JUMPI PUSH1 0x0 DUP1 REVERT JUMPDEST POP PUSH2 0x50E PUSH1 0x4 DUP1 CALLDATASIZE SUB DUP2 ADD SWAP1 PUSH2 0x509 SWAP2 SWAP1 PUSH2 0x3533 JUMP JUMPDEST PUSH2 0x1034 JUMP JUMPDEST PUSH1 0x40 MLOAD PUSH2 0x51B SWAP2 SWAP1 PUSH2 0x356F JUMP JUMPDEST PUSH1 0x40 MLOAD DUP1 SWAP2 SUB SWAP1 RETURN JUMPDEST CALLVALUE DUP1 ISZERO PUSH2 0x530 JUMPI PUSH1 0x0 DUP1 REVERT JUMPDEST POP PUSH2 0x539 PUSH2 0x10EB JUMP JUMPDEST PUSH1 0x40 MLOAD PUSH2 0x546 SWAP2 SWAP1 PUSH2 0x3168 JUMP JUMPDEST PUSH1 0x40 MLOAD DUP1 SWAP2 SUB SWAP1 RETURN JUMPDEST CALLVALUE DUP1 ISZERO PUSH2 0x55B JUMPI PUSH1 0x0 DUP1 REVERT JUMPDEST POP PUSH2 0x564 PUSH2 0x1124 JUMP JUMPDEST PUSH1 0x40 MLOAD PUSH2 0x571 SWAP2 SWAP1 PUSH2 0x3168 JUMP JUMPDEST PUSH1 0x40 MLOAD DUP1 SWAP2 SUB SWAP1 RETURN JUMPDEST CALLVALUE DUP1 ISZERO PUSH2 0x586 JUMPI PUSH1 0x0 DUP1 REVERT JUMPDEST POP PUSH2 0x58F PUSH2 0x115D JUMP JUMPDEST PUSH1 0x40 MLOAD PUSH2 0x59C SWAP2 SWAP1 PUSH2 0x3168 JUMP JUMPDEST PUSH1 0x40 MLOAD DUP1 SWAP2 SUB SWAP1 RETURN JUMPDEST CALLVALUE DUP1 ISZERO PUSH2 0x5B1 JUMPI PUSH1 0x0 DUP1 REVERT JUMPDEST POP PUSH2 0x5BA PUSH2 0x1196 JUMP JUMPDEST PUSH1 0x40 MLOAD PUSH2 0x5C7 SWAP2 SWAP1 PUSH2 0x30BD JUMP JUMPDEST PUSH1 0x40 MLOAD DUP1 SWAP2 SUB SWAP1 RETURN JUMPDEST CALLVALUE DUP1 ISZERO PUSH2 0x5DC JUMPI PUSH1 0x0 DUP1 REVERT JUMPDEST POP PUSH2 0x5E5 PUSH2 0x11EE JUMP JUMPDEST PUSH1 0x40 MLOAD PUSH2 0x5F2 SWAP2 SWAP1 PUSH2 0x3168 JUMP JUMPDEST PUSH1 0x40 MLOAD DUP1 SWAP2 SUB SWAP1 RETURN JUMPDEST CALLVALUE DUP1 ISZERO PUSH2 0x607 JUMPI PUSH1 0x0 DUP1 REVERT JUMPDEST POP PUSH2 0x622 PUSH1 0x4 DUP1 CALLDATASIZE SUB DUP2 ADD SWAP1 PUSH2 0x61D SWAP2 SWAP1 PUSH2 0x331A JUMP JUMPDEST PUSH2 0x1280 JUMP JUMPDEST PUSH1 0x40 MLOAD PUSH2 0x62F SWAP2 SWAP1 PUSH2 0x30BD JUMP JUMPDEST PUSH1 0x40 MLOAD DUP1 SWAP2 SUB SWAP1 RETURN JUMPDEST CALLVALUE DUP1 ISZERO PUSH2 0x644 JUMPI PUSH1 0x0 DUP1 REVERT JUMPDEST POP PUSH2 0x65F PUSH1 0x4 DUP1 CALLDATASIZE SUB DUP2 ADD SWAP1 PUSH2 0x65A SWAP2 SWAP1 PUSH2 0x35B6 JUMP JUMPDEST PUSH2 0x1334 JUMP JUMPDEST STOP JUMPDEST CALLVALUE DUP1 ISZERO PUSH2 0x66D JUMPI PUSH1 0x0 DUP1 REVERT JUMPDEST POP PUSH2 0x688 PUSH1 0x4 DUP1 CALLDATASIZE SUB DUP2 ADD SWAP1 PUSH2 0x683 SWAP2 SWAP1 PUSH2 0x3533 JUMP JUMPDEST PUSH2 0x134A JUMP JUMPDEST PUSH1 0x40 MLOAD PUSH2 0x695 SWAP2 SWAP1 PUSH2 0x30BD JUMP JUMPDEST PUSH1 0x40 MLOAD DUP1 SWAP2 SUB SWAP1 RETURN JUMPDEST CALLVALUE DUP1 ISZERO PUSH2 0x6AA JUMPI PUSH1 0x0 DUP1 REVERT JUMPDEST POP PUSH2 0x6B3 PUSH2 0x136A JUMP JUMPDEST PUSH1 0x40 MLOAD PUSH2 0x6C0 SWAP2 SWAP1 PUSH2 0x3168 JUMP JUMPDEST PUSH1 0x40 MLOAD DUP1 SWAP2 SUB SWAP1 RETURN JUMPDEST CALLVALUE DUP1 ISZERO PUSH2 0x6D5 JUMPI PUSH1 0x0 DUP1 REVERT JUMPDEST POP PUSH2 0x6F0 PUSH1 0x4 DUP1 CALLDATASIZE SUB DUP2 ADD SWAP1 PUSH2 0x6EB SWAP2 SWAP1 PUSH2 0x3697 JUMP JUMPDEST PUSH2 0x13A3 JUMP JUMPDEST STOP JUMPDEST CALLVALUE DUP1 ISZERO PUSH2 0x6FE JUMPI PUSH1 0x0 DUP1 REVERT JUMPDEST POP PUSH2 0x719 PUSH1 0x4 DUP1 CALLDATASIZE SUB DUP2 ADD SWAP1 PUSH2 0x714 SWAP2 SWAP1 PUSH2 0x331A JUMP JUMPDEST PUSH2 0x1405 JUMP JUMPDEST PUSH1 0x40 MLOAD PUSH2 0x726 SWAP2 SWAP1 PUSH2 0x322E JUMP JUMPDEST PUSH1 0x40 MLOAD DUP1 SWAP2 SUB SWAP1 RETURN JUMPDEST CALLVALUE DUP1 ISZERO PUSH2 0x73B JUMPI PUSH1 0x0 DUP1 REVERT JUMPDEST POP PUSH2 0x756 PUSH1 0x4 DUP1 CALLDATASIZE SUB DUP2 ADD SWAP1 PUSH2 0x751 SWAP2 SWAP1 PUSH2 0x371A JUMP JUMPDEST PUSH2 0x1450 JUMP JUMPDEST STOP JUMPDEST PUSH2 0x772 PUSH1 0x4 DUP1 CALLDATASIZE SUB DUP2 ADD SWAP1 PUSH2 0x76D SWAP2 SWAP1 PUSH2 0x379B JUMP JUMPDEST PUSH2 0x1534 JUMP JUMPDEST STOP JUMPDEST CALLVALUE DUP1 ISZERO PUSH2 0x780 JUMPI PUSH1 0x0 DUP1 REVERT JUMPDEST POP PUSH2 0x79B PUSH1 0x4 DUP1 CALLDATASIZE SUB DUP2 ADD SWAP1 PUSH2 0x796 SWAP2 SWAP1 PUSH2 0x31C0 JUMP JUMPDEST PUSH2 0x19C8 JUMP JUMPDEST PUSH1 0x40 MLOAD PUSH2 0x7A8 SWAP2 SWAP1 PUSH2 0x3168 JUMP JUMPDEST PUSH1 0x40 MLOAD DUP1 SWAP2 SUB SWAP1 RETURN JUMPDEST CALLVALUE DUP1 ISZERO PUSH2 0x7BD JUMPI PUSH1 0x0 DUP1 REVERT JUMPDEST POP PUSH2 0x7C6 PUSH2 0x1ADA JUMP JUMPDEST PUSH1 0x40 MLOAD PUSH2 0x7D3 SWAP2 SWAP1 PUSH2 0x3168 JUMP JUMPDEST PUSH1 0x40 MLOAD DUP1 SWAP2 SUB SWAP1 RETURN JUMPDEST CALLVALUE DUP1 ISZERO PUSH2 0x7E8 JUMPI PUSH1 0x0 DUP1 REVERT JUMPDEST POP PUSH2 0x803 PUSH1 0x4 DUP1 CALLDATASIZE SUB DUP2 ADD SWAP1 PUSH2 0x7FE SWAP2 SWAP1 PUSH2 0x37FB JUMP JUMPDEST PUSH2 0x1B13 JUMP JUMPDEST PUSH1 0x40 MLOAD PUSH2 0x810 SWAP2 SWAP1 PUSH2 0x30BD JUMP JUMPDEST PUSH1 0x40 MLOAD DUP1 SWAP2 SUB SWAP1 RETURN JUMPDEST CALLVALUE DUP1 ISZERO PUSH2 0x825 JUMPI PUSH1 0x0 DUP1 REVERT JUMPDEST POP PUSH2 0x82E PUSH2 0x1BA7 JUMP JUMPDEST PUSH1 0x40 MLOAD PUSH2 0x83B SWAP2 SWAP1 PUSH2 0x3168 JUMP JUMPDEST PUSH1 0x40 MLOAD DUP1 SWAP2 SUB SWAP1 RETURN JUMPDEST CALLVALUE DUP1 ISZERO PUSH2 0x850 JUMPI PUSH1 0x0 DUP1 REVERT JUMPDEST POP PUSH2 0x859 PUSH2 0x1BE0 JUMP JUMPDEST PUSH1 0x40 MLOAD PUSH2 0x866 SWAP2 SWAP1 PUSH2 0x3947 JUMP JUMPDEST PUSH1 0x40 MLOAD DUP1 SWAP2 SUB SWAP1 RETURN JUMPDEST PUSH1 0x0 PUSH32 0x80AC58CD00000000000000000000000000000000000000000000000000000000 PUSH28 0xFFFFFFFFFFFFFFFFFFFFFFFFFFFFFFFFFFFFFFFFFFFFFFFFFFFFFFFF NOT AND DUP3 PUSH28 0xFFFFFFFFFFFFFFFFFFFFFFFFFFFFFFFFFFFFFFFFFFFFFFFFFFFFFFFF NOT AND EQ DUP1 PUSH2 0x93A JUMPI POP PUSH32 0x5B5E139F00000000000000000000000000000000000000000000000000000000 PUSH28 0xFFFFFFFFFFFFFFFFFFFFFFFFFFFFFFFFFFFFFFFFFFFFFFFFFFFFFFFF NOT AND DUP3 PUSH28 0xFFFFFFFFFFFFFFFFFFFFFFFFFFFFFFFFFFFFFFFFFFFFFFFFFFFFFFFF NOT AND EQ JUMPDEST DUP1 PUSH2 0x94A JUMPI POP PUSH2 0x949 DUP3 PUSH2 0x1D26 JUMP JUMPDEST JUMPDEST SWAP1 POP SWAP2 SWAP1 POP JUMP JUMPDEST PUSH1 0x60 PUSH1 0x0 DUP1 SLOAD PUSH2 0x960 SWAP1 PUSH2 0x3998 JUMP JUMPDEST DUP1 PUSH1 0x1F ADD PUSH1 0x20 DUP1 SWAP2 DIV MUL PUSH1 0x20 ADD PUSH1 0x40 MLOAD SWAP1 DUP2 ADD PUSH1 0x40 MSTORE DUP1 SWAP3 SWAP2 SWAP1 DUP2 DUP2 MSTORE PUSH1 0x20 ADD DUP3 DUP1 SLOAD PUSH2 0x98C SWAP1 PUSH2 0x3998 JUMP JUMPDEST DUP1 ISZERO PUSH2 0x9D9 JUMPI DUP1 PUSH1 0x1F LT PUSH2 0x9AE JUMPI PUSH2 0x100 DUP1 DUP4 SLOAD DIV MUL DUP4 MSTORE SWAP2 PUSH1 0x20 ADD SWAP2 PUSH2 0x9D9 JUMP JUMPDEST DUP3 ADD SWAP2 SWAP1 PUSH1 0x0 MSTORE PUSH1 0x20 PUSH1 0x0 KECCAK256 SWAP1 JUMPDEST DUP2 SLOAD DUP2 MSTORE SWAP1 PUSH1 0x1 ADD SWAP1 PUSH1 0x20 ADD DUP1 DUP4 GT PUSH2 0x9BC JUMPI DUP3 SWAP1 SUB PUSH1 0x1F AND DUP3 ADD SWAP2 JUMPDEST POP POP POP POP POP SWAP1 POP SWAP1 JUMP JUMPDEST PUSH1 0x0 PUSH2 0x9EE DUP3 PUSH2 0x1D90 JUMP JUMPDEST PUSH1 0x4 PUSH1 0x0 DUP4 DUP2 MSTORE PUSH1 0x20 ADD SWAP1 DUP2 MSTORE PUSH1 0x20 ADD PUSH1 0x0 KECCAK256 PUSH1 0x0 SWAP1 SLOAD SWAP1 PUSH2 0x100 EXP SWAP1 DIV PUSH20 0xFFFFFFFFFFFFFFFFFFFFFFFFFFFFFFFFFFFFFFFF AND SWAP1 POP SWAP2 SWAP1 POP JUMP JUMPDEST PUSH1 0x40 MLOAD DUP1 PUSH1 0x40 ADD PUSH1 0x40 MSTORE DUP1 PUSH1 0xA DUP2 MSTORE PUSH1 0x20 ADD PUSH32 0x687566666C657075666600000000000000000000000000000000000000000000 DUP2 MSTORE POP DUP2 JUMP JUMPDEST PUSH1 0x0 PUSH2 0xA6D DUP3 PUSH2 0xF83 JUMP JUMPDEST SWAP1 POP DUP1 PUSH20 0xFFFFFFFFFFFFFFFFFFFFFFFFFFFFFFFFFFFFFFFF AND DUP4 PUSH20 0xFFFFFFFFFFFFFFFFFFFFFFFFFFFFFFFFFFFFFFFF AND SUB PUSH2 0xADD JUMPI PUSH1 0x40 MLOAD PUSH32 0x8C379A000000000000000000000000000000000000000000000000000000000 DUP2 MSTORE PUSH1 0x4 ADD PUSH2 0xAD4 SWAP1 PUSH2 0x3A3B JUMP JUMPDEST PUSH1 0x40 MLOAD DUP1 SWAP2 SUB SWAP1 REVERT JUMPDEST DUP1 PUSH20 0xFFFFFFFFFFFFFFFFFFFFFFFFFFFFFFFFFFFFFFFF AND PUSH2 0xAFC PUSH2 0x1DDB JUMP JUMPDEST PUSH20 0xFFFFFFFFFFFFFFFFFFFFFFFFFFFFFFFFFFFFFFFF AND EQ DUP1 PUSH2 0xB2B JUMPI POP PUSH2 0xB2A DUP2 PUSH2 0xB25 PUSH2 0x1DDB JUMP JUMPDEST PUSH2 0x1B13 JUMP JUMPDEST JUMPDEST PUSH2 0xB6A JUMPI PUSH1 0x40 MLOAD PUSH32 0x8C379A000000000000000000000000000000000000000000000000000000000 DUP2 MSTORE PUSH1 0x4 ADD PUSH2 0xB61 SWAP1 PUSH2 0x3ACD JUMP JUMPDEST PUSH1 0x40 MLOAD DUP1 SWAP2 SUB SWAP1 REVERT JUMPDEST PUSH2 0xB74 DUP4 DUP4 PUSH2 0x1DE3 JUMP JUMPDEST POP POP POP JUMP JUMPDEST PUSH1 0x40 MLOAD DUP1 PUSH1 0x40 ADD PUSH1 0x40 MSTORE DUP1 PUSH1 0x7 DUP2 MSTORE PUSH1 0x20 ADD PUSH32 0x2338434646423300000000000000000000000000000000000000000000000000 DUP2 MSTORE POP DUP2 JUMP JUMPDEST PUSH1 0x60 PUSH1 0xE DUP4 DUP4 PUSH1 0x40 MLOAD PUSH2 0xBC6 SWAP3 SWAP2 SWAP1 PUSH2 0x3B1D JUMP JUMPDEST SWAP1 DUP2 MSTORE PUSH1 0x20 ADD PUSH1 0x40 MLOAD DUP1 SWAP2 SUB SWAP1 KECCAK256 DUP1 SLOAD PUSH2 0xBDF SWAP1 PUSH2 0x3998 JUMP JUMPDEST DUP1 PUSH1 0x1F ADD PUSH1 0x20 DUP1 SWAP2 DIV MUL PUSH1 0x20 ADD PUSH1 0x40 MLOAD SWAP1 DUP2 ADD PUSH1 0x40 MSTORE DUP1 SWAP3 SWAP2 SWAP1 DUP2 DUP2 MSTORE PUSH1 0x20 ADD DUP3 DUP1 SLOAD PUSH2 0xC0B SWAP1 PUSH2 0x3998 JUMP JUMPDEST DUP1 ISZERO PUSH2 0xC58 JUMPI DUP1 PUSH1 0x1F LT PUSH2 0xC2D JUMPI PUSH2 0x100 DUP1 DUP4 SLOAD DIV MUL DUP4 MSTORE SWAP2 PUSH1 0x20 ADD SWAP2 PUSH2 0xC58 JUMP JUMPDEST DUP3 ADD SWAP2 SWAP1 PUSH1 0x0 MSTORE PUSH1 0x20 PUSH1 0x0 KECCAK256 SWAP1 JUMPDEST DUP2 SLOAD DUP2 MSTORE SWAP1 PUSH1 0x1 ADD SWAP1 PUSH1 0x20 ADD DUP1 DUP4 GT PUSH2 0xC3B JUMPI DUP3 SWAP1 SUB PUSH1 0x1F AND DUP3 ADD SWAP2 JUMPDEST POP POP POP POP POP SWAP1 POP SWAP3 SWAP2 POP POP JUMP JUMPDEST PUSH2 0xC76 PUSH2 0xC70 PUSH2 0x1DDB JUMP JUMPDEST DUP3 PUSH2 0x1E9C JUMP JUMPDEST PUSH2 0xCB5 JUMPI PUSH1 0x40 MLOAD PUSH32 0x8C379A000000000000000000000000000000000000000000000000000000000 DUP2 MSTORE PUSH1 0x4 ADD PUSH2 0xCAC SWAP1 PUSH2 0x3BA8 JUMP JUMPDEST PUSH1 0x40 MLOAD DUP1 SWAP2 SUB SWAP1 REVERT JUMPDEST PUSH2 0xCC0 DUP4 DUP4 DUP4 PUSH2 0x1F31 JUMP JUMPDEST POP POP POP JUMP JUMPDEST PUSH1 0xD DUP2 DUP1 MLOAD PUSH1 0x20 DUP2 ADD DUP3 ADD DUP1 MLOAD DUP5 DUP3 MSTORE PUSH1 0x20 DUP4 ADD PUSH1 0x20 DUP6 ADD KECCAK256 DUP2 DUP4 MSTORE DUP1 SWAP6 POP POP POP POP POP POP PUSH1 0x0 SWAP2 POP SLOAD SWAP1 PUSH2 0x100 EXP SWAP1 DIV PUSH20 0xFFFFFFFFFFFFFFFFFFFFFFFFFFFFFFFFFFFFFFFF AND DUP2 JUMP JUMPDEST PUSH1 0x40 MLOAD DUP1 PUSH1 0x40 ADD PUSH1 0x40 MSTORE DUP1 PUSH1 0x6 DUP2 MSTORE PUSH1 0x20 ADD PUSH32 0x6867777274730000000000000000000000000000000000000000000000000000 DUP2 MSTORE POP DUP2 JUMP JUMPDEST PUSH2 0xD4F PUSH2 0x1196 JUMP JUMPDEST PUSH2 0xD58 JUMPI PUSH1 0x0 DUP1 REVERT JUMPDEST PUSH1 0x0 SELFBALANCE SWAP1 POP PUSH1 0x0 CALLER PUSH20 0xFFFFFFFFFFFFFFFFFFFFFFFFFFFFFFFFFFFFFFFF AND DUP3 PUSH1 0x40 MLOAD PUSH2 0xD83 SWAP1 PUSH2 0x3BF9 JUMP JUMPDEST PUSH1 0x0 PUSH1 0x40 MLOAD DUP1 DUP4 SUB DUP2 DUP6 DUP8 GAS CALL SWAP3 POP POP POP RETURNDATASIZE DUP1 PUSH1 0x0 DUP2 EQ PUSH2 0xDC0 JUMPI PUSH1 0x40 MLOAD SWAP2 POP PUSH1 0x1F NOT PUSH1 0x3F RETURNDATASIZE ADD AND DUP3 ADD PUSH1 0x40 MSTORE RETURNDATASIZE DUP3 MSTORE RETURNDATASIZE PUSH1 0x0 PUSH1 0x20 DUP5 ADD RETURNDATACOPY PUSH2 0xDC5 JUMP JUMPDEST PUSH1 0x60 SWAP2 POP JUMPDEST POP POP SWAP1 POP DUP1 PUSH2 0xE09 JUMPI PUSH1 0x40 MLOAD PUSH32 0x8C379A000000000000000000000000000000000000000000000000000000000 DUP2 MSTORE PUSH1 0x4 ADD PUSH2 0xE00 SWAP1 PUSH2 0x3C5A JUMP JUMPDEST PUSH1 0x40 MLOAD DUP1 SWAP2 SUB SWAP1 REVERT JUMPDEST POP POP JUMP JUMPDEST PUSH2 0xE28 DUP4 DUP4 DUP4 PUSH1 0x40 MLOAD DUP1 PUSH1 0x20 ADD PUSH1 0x40 MSTORE DUP1 PUSH1 0x0 DUP2 MSTORE POP PUSH2 0x13A3 JUMP JUMPDEST POP POP POP JUMP JUMPDEST PUSH1 0x10 PUSH1 0x20 MSTORE DUP1 PUSH1 0x0 MSTORE PUSH1 0x40 PUSH1 0x0 KECCAK256 PUSH1 0x0 SWAP2 POP SWAP1 POP DUP1 SLOAD PUSH2 0xE4C SWAP1 PUSH2 0x3998 JUMP JUMPDEST DUP1 PUSH1 0x1F ADD PUSH1 0x20 DUP1 SWAP2 DIV MUL PUSH1 0x20 ADD PUSH1 0x40 MLOAD SWAP1 DUP2 ADD PUSH1 0x40 MSTORE DUP1 SWAP3 SWAP2 SWAP1 DUP2 DUP2 MSTORE PUSH1 0x20 ADD DUP3 DUP1 SLOAD PUSH2 0xE78 SWAP1 PUSH2 0x3998 JUMP JUMPDEST DUP1 ISZERO PUSH2 0xEC5 JUMPI DUP1 PUSH1 0x1F LT PUSH2 0xE9A JUMPI PUSH2 0x100 DUP1 DUP4 SLOAD DIV MUL DUP4 MSTORE SWAP2 PUSH1 0x20 ADD SWAP2 PUSH2 0xEC5 JUMP JUMPDEST DUP3 ADD SWAP2 SWAP1 PUSH1 0x0 MSTORE PUSH1 0x20 PUSH1 0x0 KECCAK256 SWAP1 JUMPDEST DUP2 SLOAD DUP2 MSTORE SWAP1 PUSH1 0x1 ADD SWAP1 PUSH1 0x20 ADD DUP1 DUP4 GT PUSH2 0xEA8 JUMPI DUP3 SWAP1 SUB PUSH1 0x1F AND DUP3 ADD SWAP2 JUMPDEST POP POP POP POP POP DUP2 JUMP JUMPDEST PUSH1 0xE DUP2 DUP1 MLOAD PUSH1 0x20 DUP2 ADD DUP3 ADD DUP1 MLOAD DUP5 DUP3 MSTORE PUSH1 0x20 DUP4 ADD PUSH1 0x20 DUP6 ADD KECCAK256 DUP2 DUP4 MSTORE DUP1 SWAP6 POP POP POP POP POP POP PUSH1 0x0 SWAP2 POP SWAP1 POP DUP1 SLOAD PUSH2 0xF02 SWAP1 PUSH2 0x3998 JUMP JUMPDEST DUP1 PUSH1 0x1F ADD PUSH1 0x20 DUP1 SWAP2 DIV MUL PUSH1 0x20 ADD PUSH1 0x40 MLOAD SWAP1 DUP2 ADD PUSH1 0x40 MSTORE DUP1 SWAP3 SWAP2 SWAP1 DUP2 DUP2 MSTORE PUSH1 0x20 ADD DUP3 DUP1 SLOAD PUSH2 0xF2E SWAP1 PUSH2 0x3998 JUMP JUMPDEST DUP1 ISZERO PUSH2 0xF7B JUMPI DUP1 PUSH1 0x1F LT PUSH2 0xF50 JUMPI PUSH2 0x100 DUP1 DUP4 SLOAD DIV MUL DUP4 MSTORE SWAP2 PUSH1 0x20 ADD SWAP2 PUSH2 0xF7B JUMP JUMPDEST DUP3 ADD SWAP2 SWAP1 PUSH1 0x0 MSTORE PUSH1 0x20 PUSH1 0x0 KECCAK256 SWAP1 JUMPDEST DUP2 SLOAD DUP2 MSTORE SWAP1 PUSH1 0x1 ADD SWAP1 PUSH1 0x20 ADD DUP1 DUP4 GT PUSH2 0xF5E JUMPI DUP3 SWAP1 SUB PUSH1 0x1F AND DUP3 ADD SWAP2 JUMPDEST POP POP POP POP POP DUP2 JUMP JUMPDEST PUSH1 0x0 DUP1 PUSH1 0x2 PUSH1 0x0 DUP5 DUP2 MSTORE PUSH1 0x20 ADD SWAP1 DUP2 MSTORE PUSH1 0x20 ADD PUSH1 0x0 KECCAK256 PUSH1 0x0 SWAP1 SLOAD SWAP1 PUSH2 0x100 EXP SWAP1 DIV PUSH20 0xFFFFFFFFFFFFFFFFFFFFFFFFFFFFFFFFFFFFFFFF AND SWAP1 POP PUSH1 0x0 PUSH20 0xFFFFFFFFFFFFFFFFFFFFFFFFFFFFFFFFFFFFFFFF AND DUP2 PUSH20 0xFFFFFFFFFFFFFFFFFFFFFFFFFFFFFFFFFFFFFFFF AND SUB PUSH2 0x102B JUMPI PUSH1 0x40 MLOAD PUSH32 0x8C379A000000000000000000000000000000000000000000000000000000000 DUP2 MSTORE PUSH1 0x4 ADD PUSH2 0x1022 SWAP1 PUSH2 0x3CC6 JUMP JUMPDEST PUSH1 0x40 MLOAD DUP1 SWAP2 SUB SWAP1 REVERT JUMPDEST DUP1 SWAP2 POP POP SWAP2 SWAP1 POP JUMP JUMPDEST PUSH1 0x0 DUP1 PUSH20 0xFFFFFFFFFFFFFFFFFFFFFFFFFFFFFFFFFFFFFFFF AND DUP3 PUSH20 0xFFFFFFFFFFFFFFFFFFFFFFFFFFFFFFFFFFFFFFFF AND SUB PUSH2 0x10A4 JUMPI PUSH1 0x40 MLOAD PUSH32 0x8C379A000000000000000000000000000000000000000000000000000000000 DUP2 MSTORE PUSH1 0x4 ADD PUSH2 0x109B SWAP1 PUSH2 0x3D58 JUMP JUMPDEST PUSH1 0x40 MLOAD DUP1 SWAP2 SUB SWAP1 REVERT JUMPDEST PUSH1 0x3 PUSH1 0x0 DUP4 PUSH20 0xFFFFFFFFFFFFFFFFFFFFFFFFFFFFFFFFFFFFFFFF AND PUSH20 0xFFFFFFFFFFFFFFFFFFFFFFFFFFFFFFFFFFFFFFFF AND DUP2 MSTORE PUSH1 0x20 ADD SWAP1 DUP2 MSTORE PUSH1 0x20 ADD PUSH1 0x0 KECCAK256 SLOAD SWAP1 POP SWAP2 SWAP1 POP JUMP JUMPDEST PUSH1 0x40 MLOAD DUP1 PUSH1 0x40 ADD PUSH1 0x40 MSTORE DUP1 PUSH1 0x9 DUP2 MSTORE PUSH1 0x20 ADD PUSH32 0x736C7974686572696E0000000000000000000000000000000000000000000000 DUP2 MSTORE POP DUP2 JUMP JUMPDEST PUSH1 0x40 MLOAD DUP1 PUSH1 0x40 ADD PUSH1 0x40 MSTORE DUP1 PUSH1 0x7 DUP2 MSTORE PUSH1 0x20 ADD PUSH32 0x2346463843384300000000000000000000000000000000000000000000000000 DUP2 MSTORE POP DUP2 JUMP JUMPDEST PUSH1 0x40 MLOAD DUP1 PUSH1 0x40 ADD PUSH1 0x40 MSTORE DUP1 PUSH1 0x9 DUP2 MSTORE PUSH1 0x20 ADD PUSH32 0x726176656E636C61770000000000000000000000000000000000000000000000 DUP2 MSTORE POP DUP2 JUMP JUMPDEST PUSH1 0x0 PUSH1 0xC PUSH1 0x0 SWAP1 SLOAD SWAP1 PUSH2 0x100 EXP SWAP1 DIV PUSH20 0xFFFFFFFFFFFFFFFFFFFFFFFFFFFFFFFFFFFFFFFF AND PUSH20 0xFFFFFFFFFFFFFFFFFFFFFFFFFFFFFFFFFFFFFFFF AND CALLER PUSH20 0xFFFFFFFFFFFFFFFFFFFFFFFFFFFFFFFFFFFFFFFF AND EQ SWAP1 POP SWAP1 JUMP JUMPDEST PUSH1 0x60 PUSH1 0x1 DUP1 SLOAD PUSH2 0x11FD SWAP1 PUSH2 0x3998 JUMP JUMPDEST DUP1 PUSH1 0x1F ADD PUSH1 0x20 DUP1 SWAP2 DIV MUL PUSH1 0x20 ADD PUSH1 0x40 MLOAD SWAP1 DUP2 ADD PUSH1 0x40 MSTORE DUP1 SWAP3 SWAP2 SWAP1 DUP2 DUP2 MSTORE PUSH1 0x20 ADD DUP3 DUP1 SLOAD PUSH2 0x1229 SWAP1 PUSH2 0x3998 JUMP JUMPDEST DUP1 ISZERO PUSH2 0x1276 JUMPI DUP1 PUSH1 0x1F LT PUSH2 0x124B JUMPI PUSH2 0x100 DUP1 DUP4 SLOAD DIV MUL DUP4 MSTORE SWAP2 PUSH1 0x20 ADD SWAP2 PUSH2 0x1276 JUMP JUMPDEST DUP3 ADD SWAP2 SWAP1 PUSH1 0x0 MSTORE PUSH1 0x20 PUSH1 0x0 KECCAK256 SWAP1 JUMPDEST DUP2 SLOAD DUP2 MSTORE SWAP1 PUSH1 0x1 ADD SWAP1 PUSH1 0x20 ADD DUP1 DUP4 GT PUSH2 0x1259 JUMPI DUP3 SWAP1 SUB PUSH1 0x1F AND DUP3 ADD SWAP2 JUMPDEST POP POP POP POP POP SWAP1 POP SWAP1 JUMP JUMPDEST PUSH1 0x0 PUSH1 0x3 PUSH2 0x12D1 DUP5 DUP5 DUP1 DUP1 PUSH1 0x1F ADD PUSH1 0x20 DUP1 SWAP2 DIV MUL PUSH1 0x20 ADD PUSH1 0x40 MLOAD SWAP1 DUP2 ADD PUSH1 0x40 MSTORE DUP1 SWAP4 SWAP3 SWAP2 SWAP1 DUP2 DUP2 MSTORE PUSH1 0x20 ADD DUP4 DUP4 DUP1 DUP3 DUP5 CALLDATACOPY PUSH1 0x0 DUP2 DUP5 ADD MSTORE PUSH1 0x1F NOT PUSH1 0x1F DUP3 ADD AND SWAP1 POP DUP1 DUP4 ADD SWAP3 POP POP POP POP POP POP POP PUSH2 0x2197 JUMP JUMPDEST LT ISZERO DUP1 ISZERO PUSH2 0x132C JUMPI POP PUSH1 0xA PUSH2 0x1329 DUP5 DUP5 DUP1 DUP1 PUSH1 0x1F ADD PUSH1 0x20 DUP1 SWAP2 DIV MUL PUSH1 0x20 ADD PUSH1 0x40 MLOAD SWAP1 DUP2 ADD PUSH1 0x40 MSTORE DUP1 SWAP4 SWAP3 SWAP2 SWAP1 DUP2 DUP2 MSTORE PUSH1 0x20 ADD DUP4 DUP4 DUP1 DUP3 DUP5 CALLDATACOPY PUSH1 0x0 DUP2 DUP5 ADD MSTORE PUSH1 0x1F NOT PUSH1 0x1F DUP3 ADD AND SWAP1 POP DUP1 DUP4 ADD SWAP3 POP POP POP POP POP POP POP PUSH2 0x2197 JUMP JUMPDEST GT ISZERO JUMPDEST SWAP1 POP SWAP3 SWAP2 POP POP JUMP JUMPDEST PUSH2 0x1346 PUSH2 0x133F PUSH2 0x1DDB JUMP JUMPDEST DUP4 DUP4 PUSH2 0x234C JUMP JUMPDEST POP POP JUMP JUMPDEST PUSH1 0xF PUSH1 0x20 MSTORE DUP1 PUSH1 0x0 MSTORE PUSH1 0x40 PUSH1 0x0 KECCAK256 PUSH1 0x0 SWAP2 POP SLOAD SWAP1 PUSH2 0x100 EXP SWAP1 DIV PUSH1 0xFF AND DUP2 JUMP JUMPDEST PUSH1 0x40 MLOAD DUP1 PUSH1 0x40 ADD PUSH1 0x40 MSTORE DUP1 PUSH1 0x7 DUP2 MSTORE PUSH1 0x20 ADD PUSH32 0x2346444646384300000000000000000000000000000000000000000000000000 DUP2 MSTORE POP DUP2 JUMP JUMPDEST PUSH2 0x13B4 PUSH2 0x13AE PUSH2 0x1DDB JUMP JUMPDEST DUP4 PUSH2 0x1E9C JUMP JUMPDEST PUSH2 0x13F3 JUMPI PUSH1 0x40 MLOAD PUSH32 0x8C379A000000000000000000000000000000000000000000000000000000000 DUP2 MSTORE PUSH1 0x4 ADD PUSH2 0x13EA SWAP1 PUSH2 0x3BA8 JUMP JUMPDEST PUSH1 0x40 MLOAD DUP1 SWAP2 SUB SWAP1 REVERT JUMPDEST PUSH2 0x13FF DUP5 DUP5 DUP5 DUP5 PUSH2 0x24B8 JUMP JUMPDEST POP POP POP POP JUMP JUMPDEST PUSH1 0x0 PUSH1 0xD DUP4 DUP4 PUSH1 0x40 MLOAD PUSH2 0x1419 SWAP3 SWAP2 SWAP1 PUSH2 0x3B1D JUMP JUMPDEST SWAP1 DUP2 MSTORE PUSH1 0x20 ADD PUSH1 0x40 MLOAD DUP1 SWAP2 SUB SWAP1 KECCAK256 PUSH1 0x0 SWAP1 SLOAD SWAP1 PUSH2 0x100 EXP SWAP1 DIV PUSH20 0xFFFFFFFFFFFFFFFFFFFFFFFFFFFFFFFFFFFFFFFF AND SWAP1 POP SWAP3 SWAP2 POP POP JUMP JUMPDEST PUSH1 0xD DUP5 DUP5 PUSH1 0x40 MLOAD PUSH2 0x1462 SWAP3 SWAP2 SWAP1 PUSH2 0x3B1D JUMP JUMPDEST SWAP1 DUP2 MSTORE PUSH1 0x20 ADD PUSH1 0x40 MLOAD DUP1 SWAP2 SUB SWAP1 KECCAK256 PUSH1 0x0 SWAP1 SLOAD SWAP1 PUSH2 0x100 EXP SWAP1 DIV PUSH20 0xFFFFFFFFFFFFFFFFFFFFFFFFFFFFFFFFFFFFFFFF AND PUSH20 0xFFFFFFFFFFFFFFFFFFFFFFFFFFFFFFFFFFFFFFFF AND CALLER PUSH20 0xFFFFFFFFFFFFFFFFFFFFFFFFFFFFFFFFFFFFFFFF AND EQ PUSH2 0x14FE JUMPI PUSH1 0x40 MLOAD PUSH32 0x8C379A000000000000000000000000000000000000000000000000000000000 DUP2 MSTORE PUSH1 0x4 ADD PUSH2 0x14F5 SWAP1 PUSH2 0x3DEA JUMP JUMPDEST PUSH1 0x40 MLOAD DUP1 SWAP2 SUB SWAP1 REVERT JUMPDEST DUP2 DUP2 PUSH1 0xE DUP7 DUP7 PUSH1 0x40 MLOAD PUSH2 0x1512 SWAP3 SWAP2 SWAP1 PUSH2 0x3B1D JUMP JUMPDEST SWAP1 DUP2 MSTORE PUSH1 0x20 ADD PUSH1 0x40 MLOAD DUP1 SWAP2 SUB SWAP1 KECCAK256 SWAP2 DUP3 PUSH2 0x152D SWAP3 SWAP2 SWAP1 PUSH2 0x3FC1 JUMP JUMPDEST POP POP POP POP POP JUMP JUMPDEST PUSH1 0x0 PUSH20 0xFFFFFFFFFFFFFFFFFFFFFFFFFFFFFFFFFFFFFFFF AND PUSH1 0xD DUP5 DUP5 PUSH1 0x40 MLOAD PUSH2 0x155E SWAP3 SWAP2 SWAP1 PUSH2 0x3B1D JUMP JUMPDEST SWAP1 DUP2 MSTORE PUSH1 0x20 ADD PUSH1 0x40 MLOAD DUP1 SWAP2 SUB SWAP1 KECCAK256 PUSH1 0x0 SWAP1 SLOAD SWAP1 PUSH2 0x100 EXP SWAP1 DIV PUSH20 0xFFFFFFFFFFFFFFFFFFFFFFFFFFFFFFFFFFFFFFFF AND PUSH20 0xFFFFFFFFFFFFFFFFFFFFFFFFFFFFFFFFFFFFFFFF AND EQ PUSH2 0x15E3 JUMPI PUSH1 0x40 MLOAD PUSH32 0x8C379A000000000000000000000000000000000000000000000000000000000 DUP2 MSTORE PUSH1 0x4 ADD PUSH2 0x15DA SWAP1 PUSH2 0x40DD JUMP JUMPDEST PUSH1 0x40 MLOAD DUP1 SWAP2 SUB SWAP1 REVERT JUMPDEST PUSH2 0x15ED DUP4 DUP4 PUSH2 0x1280 JUMP JUMPDEST PUSH2 0x162C JUMPI PUSH1 0x40 MLOAD PUSH32 0x8C379A000000000000000000000000000000000000000000000000000000000 DUP2 MSTORE PUSH1 0x4 ADD PUSH2 0x1623 SWAP1 PUSH2 0x4149 JUMP JUMPDEST PUSH1 0x40 MLOAD DUP1 SWAP2 SUB SWAP1 REVERT JUMPDEST PUSH1 0xF PUSH1 0x0 CALLER PUSH20 0xFFFFFFFFFFFFFFFFFFFFFFFFFFFFFFFFFFFFFFFF AND PUSH20 0xFFFFFFFFFFFFFFFFFFFFFFFFFFFFFFFFFFFFFFFF AND DUP2 MSTORE PUSH1 0x20 ADD SWAP1 DUP2 MSTORE PUSH1 0x20 ADD PUSH1 0x0 KECCAK256 PUSH1 0x0 SWAP1 SLOAD SWAP1 PUSH2 0x100 EXP SWAP1 DIV PUSH1 0xFF AND ISZERO PUSH2 0x16B9 JUMPI PUSH1 0x40 MLOAD PUSH32 0x8C379A000000000000000000000000000000000000000000000000000000000 DUP2 MSTORE PUSH1 0x4 ADD PUSH2 0x16B0 SWAP1 PUSH2 0x41B5 JUMP JUMPDEST PUSH1 0x40 MLOAD DUP1 SWAP2 SUB SWAP1 REVERT JUMPDEST PUSH1 0xB SLOAD CALLVALUE LT ISZERO PUSH2 0x16FE JUMPI PUSH1 0x40 MLOAD PUSH32 0x8C379A000000000000000000000000000000000000000000000000000000000 DUP2 MSTORE PUSH1 0x4 ADD PUSH2 0x16F5 SWAP1 PUSH2 0x4221 JUMP JUMPDEST PUSH1 0x40 MLOAD DUP1 SWAP2 SUB SWAP1 REVERT JUMPDEST PUSH1 0x0 PUSH2 0x1709 DUP3 PUSH2 0x2514 JUMP JUMPDEST SWAP1 POP PUSH1 0x0 DUP1 PUSH2 0x1717 DUP4 PUSH2 0x2559 JUMP JUMPDEST SWAP2 POP SWAP2 POP PUSH1 0x0 DUP7 DUP7 DUP5 PUSH1 0x40 MLOAD DUP1 PUSH1 0x40 ADD PUSH1 0x40 MSTORE DUP1 PUSH1 0x6 DUP2 MSTORE PUSH1 0x20 ADD PUSH32 0x6867777274730000000000000000000000000000000000000000000000000000 DUP2 MSTORE POP PUSH1 0x40 MLOAD PUSH1 0x20 ADD PUSH2 0x1769 SWAP5 SWAP4 SWAP3 SWAP2 SWAP1 PUSH2 0x42BE JUMP JUMPDEST PUSH1 0x40 MLOAD PUSH1 0x20 DUP2 DUP4 SUB SUB DUP2 MSTORE SWAP1 PUSH1 0x40 MSTORE SWAP1 POP PUSH1 0x0 PUSH1 0x8 DUP4 PUSH1 0x9 DUP5 PUSH1 0xA PUSH1 0x40 MLOAD PUSH1 0x20 ADD PUSH2 0x1798 SWAP6 SWAP5 SWAP4 SWAP3 SWAP2 SWAP1 PUSH2 0x438A JUMP JUMPDEST PUSH1 0x40 MLOAD PUSH1 0x20 DUP2 DUP4 SUB SUB DUP2 MSTORE SWAP1 PUSH1 0x40 MSTORE SWAP1 POP PUSH1 0x0 PUSH2 0x17B5 PUSH1 0x7 PUSH2 0x2790 JUMP JUMPDEST SWAP1 POP PUSH1 0x0 PUSH2 0x1806 DUP11 DUP11 DUP1 DUP1 PUSH1 0x1F ADD PUSH1 0x20 DUP1 SWAP2 DIV MUL PUSH1 0x20 ADD PUSH1 0x40 MLOAD SWAP1 DUP2 ADD PUSH1 0x40 MSTORE DUP1 SWAP4 SWAP3 SWAP2 SWAP1 DUP2 DUP2 MSTORE PUSH1 0x20 ADD DUP4 DUP4 DUP1 DUP3 DUP5 CALLDATACOPY PUSH1 0x0 DUP2 DUP5 ADD MSTORE PUSH1 0x1F NOT PUSH1 0x1F DUP3 ADD AND SWAP1 POP DUP1 DUP4 ADD SWAP3 POP POP POP POP POP POP POP PUSH2 0x2197 JUMP JUMPDEST SWAP1 POP PUSH1 0x0 PUSH2 0x1813 DUP3 PUSH2 0x279E JUMP JUMPDEST SWAP1 POP PUSH1 0x0 PUSH2 0x184B DUP7 PUSH2 0x1824 DUP8 PUSH2 0x28FE JUMP JUMPDEST DUP5 PUSH1 0x40 MLOAD PUSH1 0x20 ADD PUSH2 0x1837 SWAP4 SWAP3 SWAP2 SWAP1 PUSH2 0x4551 JUMP JUMPDEST PUSH1 0x40 MLOAD PUSH1 0x20 DUP2 DUP4 SUB SUB DUP2 MSTORE SWAP1 PUSH1 0x40 MSTORE PUSH2 0x28FE JUMP JUMPDEST SWAP1 POP PUSH1 0x0 DUP2 PUSH1 0x40 MLOAD PUSH1 0x20 ADD PUSH2 0x1860 SWAP2 SWAP1 PUSH2 0x45FA JUMP JUMPDEST PUSH1 0x40 MLOAD PUSH1 0x20 DUP2 DUP4 SUB SUB DUP2 MSTORE SWAP1 PUSH1 0x40 MSTORE SWAP1 POP PUSH2 0x187B CALLER DUP7 PUSH2 0x2A95 JUMP JUMPDEST PUSH2 0x1885 DUP6 DUP3 PUSH2 0x2AB3 JUMP JUMPDEST CALLER PUSH1 0xD DUP15 DUP15 PUSH1 0x40 MLOAD PUSH2 0x1898 SWAP3 SWAP2 SWAP1 PUSH2 0x3B1D JUMP JUMPDEST SWAP1 DUP2 MSTORE PUSH1 0x20 ADD PUSH1 0x40 MLOAD DUP1 SWAP2 SUB SWAP1 KECCAK256 PUSH1 0x0 PUSH2 0x100 EXP DUP2 SLOAD DUP2 PUSH20 0xFFFFFFFFFFFFFFFFFFFFFFFFFFFFFFFFFFFFFFFF MUL NOT AND SWAP1 DUP4 PUSH20 0xFFFFFFFFFFFFFFFFFFFFFFFFFFFFFFFFFFFFFFFF AND MUL OR SWAP1 SSTORE POP PUSH1 0x1 PUSH1 0xF PUSH1 0x0 CALLER PUSH20 0xFFFFFFFFFFFFFFFFFFFFFFFFFFFFFFFFFFFFFFFF AND PUSH20 0xFFFFFFFFFFFFFFFFFFFFFFFFFFFFFFFFFFFFFFFF AND DUP2 MSTORE PUSH1 0x20 ADD SWAP1 DUP2 MSTORE PUSH1 0x20 ADD PUSH1 0x0 KECCAK256 PUSH1 0x0 PUSH2 0x100 EXP DUP2 SLOAD DUP2 PUSH1 0xFF MUL NOT AND SWAP1 DUP4 ISZERO ISZERO MUL OR SWAP1 SSTORE POP DUP7 PUSH1 0x10 PUSH1 0x0 DUP8 DUP2 MSTORE PUSH1 0x20 ADD SWAP1 DUP2 MSTORE PUSH1 0x20 ADD PUSH1 0x0 KECCAK256 SWAP1 DUP2 PUSH2 0x195C SWAP2 SWAP1 PUSH2 0x461C JUMP JUMPDEST POP PUSH2 0x1967 PUSH1 0x7 PUSH2 0x2B20 JUMP JUMPDEST CALLER PUSH20 0xFFFFFFFFFFFFFFFFFFFFFFFFFFFFFFFFFFFFFFFF AND PUSH32 0x78FC4BD5049206A33E22E356BA7AE0CFF1F598EEF8B69790FDE01DE4562A95DA DUP15 DUP15 DUP13 PUSH1 0x40 MLOAD PUSH2 0x19B1 SWAP4 SWAP3 SWAP2 SWAP1 PUSH2 0x471B JUMP JUMPDEST PUSH1 0x40 MLOAD DUP1 SWAP2 SUB SWAP1 LOG2 POP POP POP POP POP POP POP POP POP POP POP POP POP JUMP JUMPDEST PUSH1 0x60 PUSH2 0x19D3 DUP3 PUSH2 0x1D90 JUMP JUMPDEST PUSH1 0x0 PUSH1 0x6 PUSH1 0x0 DUP5 DUP2 MSTORE PUSH1 0x20 ADD SWAP1 DUP2 MSTORE PUSH1 0x20 ADD PUSH1 0x0 KECCAK256 DUP1 SLOAD PUSH2 0x19F3 SWAP1 PUSH2 0x3998 JUMP JUMPDEST DUP1 PUSH1 0x1F ADD PUSH1 0x20 DUP1 SWAP2 DIV MUL PUSH1 0x20 ADD PUSH1 0x40 MLOAD SWAP1 DUP2 ADD PUSH1 0x40 MSTORE DUP1 SWAP3 SWAP2 SWAP1 DUP2 DUP2 MSTORE PUSH1 0x20 ADD DUP3 DUP1 SLOAD PUSH2 0x1A1F SWAP1 PUSH2 0x3998 JUMP JUMPDEST DUP1 ISZERO PUSH2 0x1A6C JUMPI DUP1 PUSH1 0x1F LT PUSH2 0x1A41 JUMPI PUSH2 0x100 DUP1 DUP4 SLOAD DIV MUL DUP4 MSTORE SWAP2 PUSH1 0x20 ADD SWAP2 PUSH2 0x1A6C JUMP JUMPDEST DUP3 ADD SWAP2 SWAP1 PUSH1 0x0 MSTORE PUSH1 0x20 PUSH1 0x0 KECCAK256 SWAP1 JUMPDEST DUP2 SLOAD DUP2 MSTORE SWAP1 PUSH1 0x1 ADD SWAP1 PUSH1 0x20 ADD DUP1 DUP4 GT PUSH2 0x1A4F JUMPI DUP3 SWAP1 SUB PUSH1 0x1F AND DUP3 ADD SWAP2 JUMPDEST POP POP POP POP POP SWAP1 POP PUSH1 0x0 PUSH2 0x1A7D PUSH2 0x2B36 JUMP JUMPDEST SWAP1 POP PUSH1 0x0 DUP2 MLOAD SUB PUSH2 0x1A92 JUMPI DUP2 SWAP3 POP POP POP PUSH2 0x1AD5 JUMP JUMPDEST PUSH1 0x0 DUP3 MLOAD GT ISZERO PUSH2 0x1AC7 JUMPI DUP1 DUP3 PUSH1 0x40 MLOAD PUSH1 0x20 ADD PUSH2 0x1AAF SWAP3 SWAP2 SWAP1 PUSH2 0x4754 JUMP JUMPDEST PUSH1 0x40 MLOAD PUSH1 0x20 DUP2 DUP4 SUB SUB DUP2 MSTORE SWAP1 PUSH1 0x40 MSTORE SWAP3 POP POP POP PUSH2 0x1AD5 JUMP JUMPDEST PUSH2 0x1AD0 DUP5 PUSH2 0x2B4D JUMP JUMPDEST SWAP3 POP POP POP JUMPDEST SWAP2 SWAP1 POP JUMP JUMPDEST PUSH1 0x40 MLOAD DUP1 PUSH1 0x40 ADD PUSH1 0x40 MSTORE DUP1 PUSH1 0x7 DUP2 MSTORE PUSH1 0x20 ADD PUSH32 0x2338434241464600000000000000000000000000000000000000000000000000 DUP2 MSTORE POP DUP2 JUMP JUMPDEST PUSH1 0x0 PUSH1 0x5 PUSH1 0x0 DUP5 PUSH20 0xFFFFFFFFFFFFFFFFFFFFFFFFFFFFFFFFFFFFFFFF AND PUSH20 0xFFFFFFFFFFFFFFFFFFFFFFFFFFFFFFFFFFFFFFFF AND DUP2 MSTORE PUSH1 0x20 ADD SWAP1 DUP2 MSTORE PUSH1 0x20 ADD PUSH1 0x0 KECCAK256 PUSH1 0x0 DUP4 PUSH20 0xFFFFFFFFFFFFFFFFFFFFFFFFFFFFFFFFFFFFFFFF AND PUSH20 0xFFFFFFFFFFFFFFFFFFFFFFFFFFFFFFFFFFFFFFFF AND DUP2 MSTORE PUSH1 0x20 ADD SWAP1 DUP2 MSTORE PUSH1 0x20 ADD PUSH1 0x0 KECCAK256 PUSH1 0x0 SWAP1 SLOAD SWAP1 PUSH2 0x100 EXP SWAP1 DIV PUSH1 0xFF AND SWAP1 POP SWAP3 SWAP2 POP POP JUMP JUMPDEST PUSH1 0x40 MLOAD DUP1 PUSH1 0x40 ADD PUSH1 0x40 MSTORE DUP1 PUSH1 0xA DUP2 MSTORE PUSH1 0x20 ADD PUSH32 0x6772796666696E646F7200000000000000000000000000000000000000000000 DUP2 MSTORE POP DUP2 JUMP JUMPDEST PUSH1 0x60 PUSH1 0x0 PUSH2 0x1BEE PUSH1 0x7 PUSH2 0x2790 JUMP JUMPDEST PUSH8 0xFFFFFFFFFFFFFFFF DUP2 GT ISZERO PUSH2 0x1C07 JUMPI PUSH2 0x1C06 PUSH2 0x33BF JUMP JUMPDEST JUMPDEST PUSH1 0x40 MLOAD SWAP1 DUP1 DUP3 MSTORE DUP1 PUSH1 0x20 MUL PUSH1 0x20 ADD DUP3 ADD PUSH1 0x40 MSTORE DUP1 ISZERO PUSH2 0x1C3A JUMPI DUP2 PUSH1 0x20 ADD JUMPDEST PUSH1 0x60 DUP2 MSTORE PUSH1 0x20 ADD SWAP1 PUSH1 0x1 SWAP1 SUB SWAP1 DUP2 PUSH2 0x1C25 JUMPI SWAP1 POP JUMPDEST POP SWAP1 POP PUSH1 0x0 JUMPDEST PUSH2 0x1C4A PUSH1 0x7 PUSH2 0x2790 JUMP JUMPDEST DUP2 LT ISZERO PUSH2 0x1D1E JUMPI PUSH1 0x10 PUSH1 0x0 DUP3 DUP2 MSTORE PUSH1 0x20 ADD SWAP1 DUP2 MSTORE PUSH1 0x20 ADD PUSH1 0x0 KECCAK256 DUP1 SLOAD PUSH2 0x1C6F SWAP1 PUSH2 0x3998 JUMP JUMPDEST DUP1 PUSH1 0x1F ADD PUSH1 0x20 DUP1 SWAP2 DIV MUL PUSH1 0x20 ADD PUSH1 0x40 MLOAD SWAP1 DUP2 ADD PUSH1 0x40 MSTORE DUP1 SWAP3 SWAP2 SWAP1 DUP2 DUP2 MSTORE PUSH1 0x20 ADD DUP3 DUP1 SLOAD PUSH2 0x1C9B SWAP1 PUSH2 0x3998 JUMP JUMPDEST DUP1 ISZERO PUSH2 0x1CE8 JUMPI DUP1 PUSH1 0x1F LT PUSH2 0x1CBD JUMPI PUSH2 0x100 DUP1 DUP4 SLOAD DIV MUL DUP4 MSTORE SWAP2 PUSH1 0x20 ADD SWAP2 PUSH2 0x1CE8 JUMP JUMPDEST DUP3 ADD SWAP2 SWAP1 PUSH1 0x0 MSTORE PUSH1 0x20 PUSH1 0x0 KECCAK256 SWAP1 JUMPDEST DUP2 SLOAD DUP2 MSTORE SWAP1 PUSH1 0x1 ADD SWAP1 PUSH1 0x20 ADD DUP1 DUP4 GT PUSH2 0x1CCB JUMPI DUP3 SWAP1 SUB PUSH1 0x1F AND DUP3 ADD SWAP2 JUMPDEST POP POP POP POP POP DUP3 DUP3 DUP2 MLOAD DUP2 LT PUSH2 0x1D00 JUMPI PUSH2 0x1CFF PUSH2 0x4778 JUMP JUMPDEST JUMPDEST PUSH1 0x20 MUL PUSH1 0x20 ADD ADD DUP2 SWAP1 MSTORE POP DUP1 DUP1 PUSH2 0x1D16 SWAP1 PUSH2 0x47D6 JUMP JUMPDEST SWAP2 POP POP PUSH2 0x1C40 JUMP JUMPDEST POP DUP1 SWAP2 POP POP SWAP1 JUMP JUMPDEST PUSH1 0x0 PUSH32 0x1FFC9A700000000000000000000000000000000000000000000000000000000 PUSH28 0xFFFFFFFFFFFFFFFFFFFFFFFFFFFFFFFFFFFFFFFFFFFFFFFFFFFFFFFF NOT AND DUP3 PUSH28 0xFFFFFFFFFFFFFFFFFFFFFFFFFFFFFFFFFFFFFFFFFFFFFFFFFFFFFFFF NOT AND EQ SWAP1 POP SWAP2 SWAP1 POP JUMP JUMPDEST PUSH2 0x1D99 DUP2 PUSH2 0x2BB5 JUMP JUMPDEST PUSH2 0x1DD8 JUMPI PUSH1 0x40 MLOAD PUSH32 0x8C379A000000000000000000000000000000000000000000000000000000000 DUP2 MSTORE PUSH1 0x4 ADD PUSH2 0x1DCF SWAP1 PUSH2 0x3CC6 JUMP JUMPDEST PUSH1 0x40 MLOAD DUP1 SWAP2 SUB SWAP1 REVERT JUMPDEST POP JUMP JUMPDEST PUSH1 0x0 CALLER SWAP1 POP SWAP1 JUMP JUMPDEST DUP2 PUSH1 0x4 PUSH1 0x0 DUP4 DUP2 MSTORE PUSH1 0x20 ADD SWAP1 DUP2 MSTORE PUSH1 0x20 ADD PUSH1 0x0 KECCAK256 PUSH1 0x0 PUSH2 0x100 EXP DUP2 SLOAD DUP2 PUSH20 0xFFFFFFFFFFFFFFFFFFFFFFFFFFFFFFFFFFFFFFFF MUL NOT AND SWAP1 DUP4 PUSH20 0xFFFFFFFFFFFFFFFFFFFFFFFFFFFFFFFFFFFFFFFF AND MUL OR SWAP1 SSTORE POP DUP1 DUP3 PUSH20 0xFFFFFFFFFFFFFFFFFFFFFFFFFFFFFFFFFFFFFFFF AND PUSH2 0x1E56 DUP4 PUSH2 0xF83 JUMP JUMPDEST PUSH20 0xFFFFFFFFFFFFFFFFFFFFFFFFFFFFFFFFFFFFFFFF AND PUSH32 0x8C5BE1E5EBEC7D5BD14F71427D1E84F3DD0314C0F7B2291E5B200AC8C7C3B925 PUSH1 0x40 MLOAD PUSH1 0x40 MLOAD DUP1 SWAP2 SUB SWAP1 LOG4 POP POP JUMP JUMPDEST PUSH1 0x0 DUP1 PUSH2 0x1EA8 DUP4 PUSH2 0xF83 JUMP JUMPDEST SWAP1 POP DUP1 PUSH20 0xFFFFFFFFFFFFFFFFFFFFFFFFFFFFFFFFFFFFFFFF AND DUP5 PUSH20 0xFFFFFFFFFFFFFFFFFFFFFFFFFFFFFFFFFFFFFFFF AND EQ DUP1 PUSH2 0x1EEA JUMPI POP PUSH2 0x1EE9 DUP2 DUP6 PUSH2 0x1B13 JUMP JUMPDEST JUMPDEST DUP1 PUSH2 0x1F28 JUMPI POP DUP4 PUSH20 0xFFFFFFFFFFFFFFFFFFFFFFFFFFFFFFFFFFFFFFFF AND PUSH2 0x1F10 DUP5 PUSH2 0x9E3 JUMP JUMPDEST PUSH20 0xFFFFFFFFFFFFFFFFFFFFFFFFFFFFFFFFFFFFFFFF AND EQ JUMPDEST SWAP2 POP POP SWAP3 SWAP2 POP POP JUMP JUMPDEST DUP3 PUSH20 0xFFFFFFFFFFFFFFFFFFFFFFFFFFFFFFFFFFFFFFFF AND PUSH2 0x1F51 DUP3 PUSH2 0xF83 JUMP JUMPDEST PUSH20 0xFFFFFFFFFFFFFFFFFFFFFFFFFFFFFFFFFFFFFFFF AND EQ PUSH2 0x1FA7 JUMPI PUSH1 0x40 MLOAD PUSH32 0x8C379A000000000000000000000000000000000000000000000000000000000 DUP2 MSTORE PUSH1 0x4 ADD PUSH2 0x1F9E SWAP1 PUSH2 0x4890 JUMP JUMPDEST PUSH1 0x40 MLOAD DUP1 SWAP2 SUB SWAP1 REVERT JUMPDEST PUSH1 0x0 PUSH20 0xFFFFFFFFFFFFFFFFFFFFFFFFFFFFFFFFFFFFFFFF AND DUP3 PUSH20 0xFFFFFFFFFFFFFFFFFFFFFFFFFFFFFFFFFFFFFFFF AND SUB PUSH2 0x2016 JUMPI PUSH1 0x40 MLOAD PUSH32 0x8C379A000000000000000000000000000000000000000000000000000000000 DUP2 MSTORE PUSH1 0x4 ADD PUSH2 0x200D SWAP1 PUSH2 0x4922 JUMP JUMPDEST PUSH1 0x40 MLOAD DUP1 SWAP2 SUB SWAP1 REVERT JUMPDEST PUSH2 0x2021 DUP4 DUP4 DUP4 PUSH2 0x2C21 JUMP JUMPDEST PUSH2 0x202C PUSH1 0x0 DUP3 PUSH2 0x1DE3 JUMP JUMPDEST PUSH1 0x1 PUSH1 0x3 PUSH1 0x0 DUP6 PUSH20 0xFFFFFFFFFFFFFFFFFFFFFFFFFFFFFFFFFFFFFFFF AND PUSH20 0xFFFFFFFFFFFFFFFFFFFFFFFFFFFFFFFFFFFFFFFF AND DUP2 MSTORE PUSH1 0x20 ADD SWAP1 DUP2 MSTORE PUSH1 0x20 ADD PUSH1 0x0 KECCAK256 PUSH1 0x0 DUP3 DUP3 SLOAD PUSH2 0x207C SWAP2 SWAP1 PUSH2 0x4942 JUMP JUMPDEST SWAP3 POP POP DUP2 SWAP1 SSTORE POP PUSH1 0x1 PUSH1 0x3 PUSH1 0x0 DUP5 PUSH20 0xFFFFFFFFFFFFFFFFFFFFFFFFFFFFFFFFFFFFFFFF AND PUSH20 0xFFFFFFFFFFFFFFFFFFFFFFFFFFFFFFFFFFFFFFFF AND DUP2 MSTORE PUSH1 0x20 ADD SWAP1 DUP2 MSTORE PUSH1 0x20 ADD PUSH1 0x0 KECCAK256 PUSH1 0x0 DUP3 DUP3 SLOAD PUSH2 0x20D3 SWAP2 SWAP1 PUSH2 0x4976 JUMP JUMPDEST SWAP3 POP POP DUP2 SWAP1 SSTORE POP DUP2 PUSH1 0x2 PUSH1 0x0 DUP4 DUP2 MSTORE PUSH1 0x20 ADD SWAP1 DUP2 MSTORE PUSH1 0x20 ADD PUSH1 0x0 KECCAK256 PUSH1 0x0 PUSH2 0x100 EXP DUP2 SLOAD DUP2 PUSH20 0xFFFFFFFFFFFFFFFFFFFFFFFFFFFFFFFFFFFFFFFF MUL NOT AND SWAP1 DUP4 PUSH20 0xFFFFFFFFFFFFFFFFFFFFFFFFFFFFFFFFFFFFFFFF AND MUL OR SWAP1 SSTORE POP DUP1 DUP3 PUSH20 0xFFFFFFFFFFFFFFFFFFFFFFFFFFFFFFFFFFFFFFFF AND DUP5 PUSH20 0xFFFFFFFFFFFFFFFFFFFFFFFFFFFFFFFFFFFFFFFF AND PUSH32 0xDDF252AD1BE2C89B69C2B068FC378DAA952BA7F163C4A11628F55A4DF523B3EF PUSH1 0x40 MLOAD PUSH1 0x40 MLOAD DUP1 SWAP2 SUB SWAP1 LOG4 PUSH2 0x2192 DUP4 DUP4 DUP4 PUSH2 0x2C26 JUMP JUMPDEST POP POP POP JUMP JUMPDEST PUSH1 0x0 DUP1 PUSH1 0x0 DUP1 DUP5 MLOAD SWAP1 POP PUSH1 0x0 SWAP3 POP JUMPDEST DUP1 DUP3 LT ISZERO PUSH2 0x2341 JUMPI PUSH1 0x0 DUP6 DUP4 DUP2 MLOAD DUP2 LT PUSH2 0x21C3 JUMPI PUSH2 0x21C2 PUSH2 0x4778 JUMP JUMPDEST JUMPDEST PUSH1 0x20 ADD ADD MLOAD PUSH1 0xF8 SHR PUSH1 0xF8 SHL SWAP1 POP PUSH1 0x80 PUSH1 0xF8 SHL DUP2 PUSH31 0xFFFFFFFFFFFFFFFFFFFFFFFFFFFFFFFFFFFFFFFFFFFFFFFFFFFFFFFFFFFFFF NOT AND LT ISZERO PUSH2 0x2212 JUMPI PUSH1 0x1 DUP4 PUSH2 0x220B SWAP2 SWAP1 PUSH2 0x4976 JUMP JUMPDEST SWAP3 POP PUSH2 0x232D JUMP JUMPDEST PUSH1 0xE0 PUSH1 0xF8 SHL DUP2 PUSH31 0xFFFFFFFFFFFFFFFFFFFFFFFFFFFFFFFFFFFFFFFFFFFFFFFFFFFFFFFFFFFFFF NOT AND LT ISZERO PUSH2 0x2254 JUMPI PUSH1 0x2 DUP4 PUSH2 0x224D SWAP2 SWAP1 PUSH2 0x4976 JUMP JUMPDEST SWAP3 POP PUSH2 0x232C JUMP JUMPDEST PUSH1 0xF0 PUSH1 0xF8 SHL DUP2 PUSH31 0xFFFFFFFFFFFFFFFFFFFFFFFFFFFFFFFFFFFFFFFFFFFFFFFFFFFFFFFFFFFFFF NOT AND LT ISZERO PUSH2 0x2296 JUMPI PUSH1 0x3 DUP4 PUSH2 0x228F SWAP2 SWAP1 PUSH2 0x4976 JUMP JUMPDEST SWAP3 POP PUSH2 0x232B JUMP JUMPDEST PUSH1 0xF8 DUP1 SHL DUP2 PUSH31 0xFFFFFFFFFFFFFFFFFFFFFFFFFFFFFFFFFFFFFFFFFFFFFFFFFFFFFFFFFFFFFF NOT AND LT ISZERO PUSH2 0x22D7 JUMPI PUSH1 0x4 DUP4 PUSH2 0x22D0 SWAP2 SWAP1 PUSH2 0x4976 JUMP JUMPDEST SWAP3 POP PUSH2 0x232A JUMP JUMPDEST PUSH1 0xFC PUSH1 0xF8 SHL DUP2 PUSH31 0xFFFFFFFFFFFFFFFFFFFFFFFFFFFFFFFFFFFFFFFFFFFFFFFFFFFFFFFFFFFFFF NOT AND LT ISZERO PUSH2 0x2319 JUMPI PUSH1 0x5 DUP4 PUSH2 0x2312 SWAP2 SWAP1 PUSH2 0x4976 JUMP JUMPDEST SWAP3 POP PUSH2 0x2329 JUMP JUMPDEST PUSH1 0x6 DUP4 PUSH2 0x2326 SWAP2 SWAP1 PUSH2 0x4976 JUMP JUMPDEST SWAP3 POP JUMPDEST JUMPDEST JUMPDEST JUMPDEST JUMPDEST POP DUP3 DUP1 PUSH2 0x2339 SWAP1 PUSH2 0x47D6 JUMP JUMPDEST SWAP4 POP POP PUSH2 0x21A6 JUMP JUMPDEST DUP3 SWAP4 POP POP POP POP SWAP2 SWAP1 POP JUMP JUMPDEST DUP2 PUSH20 0xFFFFFFFFFFFFFFFFFFFFFFFFFFFFFFFFFFFFFFFF AND DUP4 PUSH20 0xFFFFFFFFFFFFFFFFFFFFFFFFFFFFFFFFFFFFFFFF AND SUB PUSH2 0x23BA JUMPI PUSH1 0x40 MLOAD PUSH32 0x8C379A000000000000000000000000000000000000000000000000000000000 DUP2 MSTORE PUSH1 0x4 ADD PUSH2 0x23B1 SWAP1 PUSH2 0x49F6 JUMP JUMPDEST PUSH1 0x40 MLOAD DUP1 SWAP2 SUB SWAP1 REVERT JUMPDEST DUP1 PUSH1 0x5 PUSH1 0x0 DUP6 PUSH20 0xFFFFFFFFFFFFFFFFFFFFFFFFFFFFFFFFFFFFFFFF AND PUSH20 0xFFFFFFFFFFFFFFFFFFFFFFFFFFFFFFFFFFFFFFFF AND DUP2 MSTORE PUSH1 0x20 ADD SWAP1 DUP2 MSTORE PUSH1 0x20 ADD PUSH1 0x0 KECCAK256 PUSH1 0x0 DUP5 PUSH20 0xFFFFFFFFFFFFFFFFFFFFFFFFFFFFFFFFFFFFFFFF AND PUSH20 0xFFFFFFFFFFFFFFFFFFFFFFFFFFFFFFFFFFFFFFFF AND DUP2 MSTORE PUSH1 0x20 ADD SWAP1 DUP2 MSTORE PUSH1 0x20 ADD PUSH1 0x0 KECCAK256 PUSH1 0x0 PUSH2 0x100 EXP DUP2 SLOAD DUP2 PUSH1 0xFF MUL NOT AND SWAP1 DUP4 ISZERO ISZERO MUL OR SWAP1 SSTORE POP DUP2 PUSH20 0xFFFFFFFFFFFFFFFFFFFFFFFFFFFFFFFFFFFFFFFF AND DUP4 PUSH20 0xFFFFFFFFFFFFFFFFFFFFFFFFFFFFFFFFFFFFFFFF AND PUSH32 0x17307EAB39AB6107E8899845AD3D59BD9653F200F220920489CA2B5937696C31 DUP4 PUSH1 0x40 MLOAD PUSH2 0x24AB SWAP2 SWAP1 PUSH2 0x30BD JUMP JUMPDEST PUSH1 0x40 MLOAD DUP1 SWAP2 SUB SWAP1 LOG3 POP POP POP JUMP JUMPDEST PUSH2 0x24C3 DUP5 DUP5 DUP5 PUSH2 0x1F31 JUMP JUMPDEST PUSH2 0x24CF DUP5 DUP5 DUP5 DUP5 PUSH2 0x2C2B JUMP JUMPDEST PUSH2 0x250E JUMPI PUSH1 0x40 MLOAD PUSH32 0x8C379A000000000000000000000000000000000000000000000000000000000 DUP2 MSTORE PUSH1 0x4 ADD PUSH2 0x2505 SWAP1 PUSH2 0x4A88 JUMP JUMPDEST PUSH1 0x40 MLOAD DUP1 SWAP2 SUB SWAP1 REVERT JUMPDEST POP POP POP POP JUMP JUMPDEST PUSH1 0x0 PUSH1 0x64 TIMESTAMP DUP4 DIFFICULTY CALLER PUSH1 0x40 MLOAD PUSH1 0x20 ADD PUSH2 0x252F SWAP5 SWAP4 SWAP3 SWAP2 SWAP1 PUSH2 0x4B11 JUMP JUMPDEST PUSH1 0x40 MLOAD PUSH1 0x20 DUP2 DUP4 SUB SUB DUP2 MSTORE SWAP1 PUSH1 0x40 MSTORE DUP1 MLOAD SWAP1 PUSH1 0x20 ADD KECCAK256 PUSH1 0x0 SHR PUSH2 0x2552 SWAP2 SWAP1 PUSH2 0x4B8E JUMP JUMPDEST SWAP1 POP SWAP2 SWAP1 POP JUMP JUMPDEST PUSH1 0x60 DUP1 PUSH1 0x0 DUP4 LT ISZERO DUP1 ISZERO PUSH2 0x256E JUMPI POP PUSH1 0x19 DUP4 GT ISZERO JUMPDEST ISZERO PUSH2 0x25E8 JUMPI PUSH1 0x40 MLOAD DUP1 PUSH1 0x40 ADD PUSH1 0x40 MSTORE DUP1 PUSH1 0xA DUP2 MSTORE PUSH1 0x20 ADD PUSH32 0x6772796666696E646F7200000000000000000000000000000000000000000000 DUP2 MSTORE POP SWAP2 POP PUSH1 0x40 MLOAD DUP1 PUSH1 0x40 ADD PUSH1 0x40 MSTORE DUP1 PUSH1 0x7 DUP2 MSTORE PUSH1 0x20 ADD PUSH32 0x2346463843384300000000000000000000000000000000000000000000000000 DUP2 MSTORE POP SWAP1 POP PUSH2 0x278B JUMP JUMPDEST PUSH1 0x1A DUP4 LT ISZERO DUP1 ISZERO PUSH2 0x25FA JUMPI POP PUSH1 0x32 DUP4 GT ISZERO JUMPDEST ISZERO PUSH2 0x2674 JUMPI PUSH1 0x40 MLOAD DUP1 PUSH1 0x40 ADD PUSH1 0x40 MSTORE DUP1 PUSH1 0x9 DUP2 MSTORE PUSH1 0x20 ADD PUSH32 0x736C7974686572696E0000000000000000000000000000000000000000000000 DUP2 MSTORE POP SWAP2 POP PUSH1 0x40 MLOAD DUP1 PUSH1 0x40 ADD PUSH1 0x40 MSTORE DUP1 PUSH1 0x7 DUP2 MSTORE PUSH1 0x20 ADD PUSH32 0x2338434646423300000000000000000000000000000000000000000000000000 DUP2 MSTORE POP SWAP1 POP PUSH2 0x278A JUMP JUMPDEST PUSH1 0x33 DUP4 LT ISZERO DUP1 ISZERO PUSH2 0x2686 JUMPI POP PUSH1 0x4B DUP4 GT ISZERO JUMPDEST ISZERO PUSH2 0x2700 JUMPI PUSH1 0x40 MLOAD DUP1 PUSH1 0x40 ADD PUSH1 0x40 MSTORE DUP1 PUSH1 0xA DUP2 MSTORE PUSH1 0x20 ADD PUSH32 0x687566666C657075666600000000000000000000000000000000000000000000 DUP2 MSTORE POP SWAP2 POP PUSH1 0x40 MLOAD DUP1 PUSH1 0x40 ADD PUSH1 0x40 MSTORE DUP1 PUSH1 0x7 DUP2 MSTORE PUSH1 0x20 ADD PUSH32 0x2346444646384300000000000000000000000000000000000000000000000000 DUP2 MSTORE POP SWAP1 POP PUSH2 0x2789 JUMP JUMPDEST PUSH1 0x4C DUP4 LT ISZERO DUP1 ISZERO PUSH2 0x2712 JUMPI POP PUSH1 0x64 DUP4 GT ISZERO JUMPDEST ISZERO PUSH2 0x2788 JUMPI PUSH1 0x40 MLOAD DUP1 PUSH1 0x40 ADD PUSH1 0x40 MSTORE DUP1 PUSH1 0x9 DUP2 MSTORE PUSH1 0x20 ADD PUSH32 0x726176656E636C61770000000000000000000000000000000000000000000000 DUP2 MSTORE POP SWAP2 POP PUSH1 0x40 MLOAD DUP1 PUSH1 0x40 ADD PUSH1 0x40 MSTORE DUP1 PUSH1 0x7 DUP2 MSTORE PUSH1 0x20 ADD PUSH32 0x2338434241464600000000000000000000000000000000000000000000000000 DUP2 MSTORE POP SWAP1 POP JUMPDEST JUMPDEST JUMPDEST JUMPDEST SWAP2 POP SWAP2 JUMP JUMPDEST PUSH1 0x0 DUP2 PUSH1 0x0 ADD SLOAD SWAP1 POP SWAP2 SWAP1 POP JUMP JUMPDEST PUSH1 0x60 PUSH1 0x0 DUP3 SUB PUSH2 0x27E5 JUMPI PUSH1 0x40 MLOAD DUP1 PUSH1 0x40 ADD PUSH1 0x40 MSTORE DUP1 PUSH1 0x1 DUP2 MSTORE PUSH1 0x20 ADD PUSH32 0x3000000000000000000000000000000000000000000000000000000000000000 DUP2 MSTORE POP SWAP1 POP PUSH2 0x28F9 JUMP JUMPDEST PUSH1 0x0 DUP3 SWAP1 POP PUSH1 0x0 JUMPDEST PUSH1 0x0 DUP3 EQ PUSH2 0x2817 JUMPI DUP1 DUP1 PUSH2 0x2800 SWAP1 PUSH2 0x47D6 JUMP JUMPDEST SWAP2 POP POP PUSH1 0xA DUP3 PUSH2 0x2810 SWAP2 SWAP1 PUSH2 0x4BBF JUMP JUMPDEST SWAP2 POP PUSH2 0x27ED JUMP JUMPDEST PUSH1 0x0 DUP2 PUSH8 0xFFFFFFFFFFFFFFFF DUP2 GT ISZERO PUSH2 0x2833 JUMPI PUSH2 0x2832 PUSH2 0x33BF JUMP JUMPDEST JUMPDEST PUSH1 0x40 MLOAD SWAP1 DUP1 DUP3 MSTORE DUP1 PUSH1 0x1F ADD PUSH1 0x1F NOT AND PUSH1 0x20 ADD DUP3 ADD PUSH1 0x40 MSTORE DUP1 ISZERO PUSH2 0x2865 JUMPI DUP2 PUSH1 0x20 ADD PUSH1 0x1 DUP3 MUL DUP1 CALLDATASIZE DUP4 CALLDATACOPY DUP1 DUP3 ADD SWAP2 POP POP SWAP1 POP JUMPDEST POP SWAP1 POP JUMPDEST PUSH1 0x0 DUP6 EQ PUSH2 0x28F2 JUMPI PUSH1 0x1 DUP3 PUSH2 0x287E SWAP2 SWAP1 PUSH2 0x4942 JUMP JUMPDEST SWAP2 POP PUSH1 0xA DUP6 PUSH2 0x288D SWAP2 SWAP1 PUSH2 0x4B8E JUMP JUMPDEST PUSH1 0x30 PUSH2 0x2899 SWAP2 SWAP1 PUSH2 0x4976 JUMP JUMPDEST PUSH1 0xF8 SHL DUP2 DUP4 DUP2 MLOAD DUP2 LT PUSH2 0x28AF JUMPI PUSH2 0x28AE PUSH2 0x4778 JUMP JUMPDEST JUMPDEST PUSH1 0x20 ADD ADD SWAP1 PUSH31 0xFFFFFFFFFFFFFFFFFFFFFFFFFFFFFFFFFFFFFFFFFFFFFFFFFFFFFFFFFFFFFF NOT AND SWAP1 DUP2 PUSH1 0x0 BYTE SWAP1 MSTORE8 POP PUSH1 0xA DUP6 PUSH2 0x28EB SWAP2 SWAP1 PUSH2 0x4BBF JUMP JUMPDEST SWAP5 POP PUSH2 0x2869 JUMP JUMPDEST DUP1 SWAP4 POP POP POP POP JUMPDEST SWAP2 SWAP1 POP JUMP JUMPDEST PUSH1 0x60 PUSH1 0x0 DUP3 MLOAD SWAP1 POP PUSH1 0x0 DUP2 SUB PUSH2 0x2926 JUMPI PUSH1 0x40 MLOAD DUP1 PUSH1 0x20 ADD PUSH1 0x40 MSTORE DUP1 PUSH1 0x0 DUP2 MSTORE POP SWAP2 POP POP PUSH2 0x2A90 JUMP JUMPDEST PUSH1 0x0 PUSH1 0x3 PUSH1 0x2 DUP4 PUSH2 0x2937 SWAP2 SWAP1 PUSH2 0x4976 JUMP JUMPDEST PUSH2 0x2941 SWAP2 SWAP1 PUSH2 0x4BBF JUMP JUMPDEST PUSH1 0x4 PUSH2 0x294D SWAP2 SWAP1 PUSH2 0x4BF0 JUMP JUMPDEST SWAP1 POP PUSH1 0x0 PUSH1 0x20 DUP3 PUSH2 0x295E SWAP2 SWAP1 PUSH2 0x4976 JUMP JUMPDEST PUSH8 0xFFFFFFFFFFFFFFFF DUP2 GT ISZERO PUSH2 0x2977 JUMPI PUSH2 0x2976 PUSH2 0x33BF JUMP JUMPDEST JUMPDEST PUSH1 0x40 MLOAD SWAP1 DUP1 DUP3 MSTORE DUP1 PUSH1 0x1F ADD PUSH1 0x1F NOT AND PUSH1 0x20 ADD DUP3 ADD PUSH1 0x40 MSTORE DUP1 ISZERO PUSH2 0x29A9 JUMPI DUP2 PUSH1 0x20 ADD PUSH1 0x1 DUP3 MUL DUP1 CALLDATASIZE DUP4 CALLDATACOPY DUP1 DUP3 ADD SWAP2 POP POP SWAP1 POP JUMPDEST POP SWAP1 POP PUSH1 0x0 PUSH1 0x40 MLOAD DUP1 PUSH1 0x60 ADD PUSH1 0x40 MSTORE DUP1 PUSH1 0x40 DUP2 MSTORE PUSH1 0x20 ADD PUSH2 0x4E80 PUSH1 0x40 SWAP2 CODECOPY SWAP1 POP PUSH1 0x1 DUP2 ADD PUSH1 0x20 DUP4 ADD PUSH1 0x0 JUMPDEST DUP7 DUP2 LT ISZERO PUSH2 0x2A4D JUMPI PUSH1 0x3 DUP2 ADD SWAP1 POP PUSH3 0xFFFFFF DUP2 DUP11 ADD MLOAD AND PUSH1 0x3F DUP2 PUSH1 0x12 SHR AND DUP5 ADD MLOAD DUP1 PUSH1 0x8 SHL SWAP1 POP PUSH1 0xFF PUSH1 0x3F DUP4 PUSH1 0xC SHR AND DUP7 ADD MLOAD AND DUP2 ADD SWAP1 POP DUP1 PUSH1 0x8 SHL SWAP1 POP PUSH1 0xFF PUSH1 0x3F DUP4 PUSH1 0x6 SHR AND DUP7 ADD MLOAD AND DUP2 ADD SWAP1 POP DUP1 PUSH1 0x8 SHL SWAP1 POP PUSH1 0xFF PUSH1 0x3F DUP4 AND DUP7 ADD MLOAD AND DUP2 ADD SWAP1 POP DUP1 PUSH1 0xE0 SHL SWAP1 POP DUP1 DUP5 MSTORE PUSH1 0x4 DUP5 ADD SWAP4 POP POP POP PUSH2 0x29D4 JUMP JUMPDEST POP PUSH1 0x3 DUP7 MOD PUSH1 0x1 DUP2 EQ PUSH2 0x2A67 JUMPI PUSH1 0x2 DUP2 EQ PUSH2 0x2A77 JUMPI PUSH2 0x2A82 JUMP JUMPDEST PUSH2 0x3D3D PUSH1 0xF0 SHL PUSH1 0x2 DUP4 SUB MSTORE PUSH2 0x2A82 JUMP JUMPDEST PUSH1 0x3D PUSH1 0xF8 SHL PUSH1 0x1 DUP4 SUB MSTORE JUMPDEST POP DUP5 DUP5 MSTORE POP POP DUP2 SWAP5 POP POP POP POP POP JUMPDEST SWAP2 SWAP1 POP JUMP JUMPDEST PUSH2 0x2AAF DUP3 DUP3 PUSH1 0x40 MLOAD DUP1 PUSH1 0x20 ADD PUSH1 0x40 MSTORE DUP1 PUSH1 0x0 DUP2 MSTORE POP PUSH2 0x2DB2 JUMP JUMPDEST POP POP JUMP JUMPDEST PUSH2 0x2ABC DUP3 PUSH2 0x2BB5 JUMP JUMPDEST PUSH2 0x2AFB JUMPI PUSH1 0x40 MLOAD PUSH32 0x8C379A000000000000000000000000000000000000000000000000000000000 DUP2 MSTORE PUSH1 0x4 ADD PUSH2 0x2AF2 SWAP1 PUSH2 0x4CA4 JUMP JUMPDEST PUSH1 0x40 MLOAD DUP1 SWAP2 SUB SWAP1 REVERT JUMPDEST DUP1 PUSH1 0x6 PUSH1 0x0 DUP5 DUP2 MSTORE PUSH1 0x20 ADD SWAP1 DUP2 MSTORE PUSH1 0x20 ADD PUSH1 0x0 KECCAK256 SWAP1 DUP2 PUSH2 0x2B1B SWAP2 SWAP1 PUSH2 0x461C JUMP JUMPDEST POP POP POP JUMP JUMPDEST PUSH1 0x1 DUP2 PUSH1 0x0 ADD PUSH1 0x0 DUP3 DUP3 SLOAD ADD SWAP3 POP POP DUP2 SWAP1 SSTORE POP POP JUMP JUMPDEST PUSH1 0x60 PUSH1 0x40 MLOAD DUP1 PUSH1 0x20 ADD PUSH1 0x40 MSTORE DUP1 PUSH1 0x0 DUP2 MSTORE POP SWAP1 POP SWAP1 JUMP JUMPDEST PUSH1 0x60 PUSH2 0x2B58 DUP3 PUSH2 0x1D90 JUMP JUMPDEST PUSH1 0x0 PUSH2 0x2B62 PUSH2 0x2B36 JUMP JUMPDEST SWAP1 POP PUSH1 0x0 DUP2 MLOAD GT PUSH2 0x2B82 JUMPI PUSH1 0x40 MLOAD DUP1 PUSH1 0x20 ADD PUSH1 0x40 MSTORE DUP1 PUSH1 0x0 DUP2 MSTORE POP PUSH2 0x2BAD JUMP JUMPDEST DUP1 PUSH2 0x2B8C DUP5 PUSH2 0x279E JUMP JUMPDEST PUSH1 0x40 MLOAD PUSH1 0x20 ADD PUSH2 0x2B9D SWAP3 SWAP2 SWAP1 PUSH2 0x4754 JUMP JUMPDEST PUSH1 0x40 MLOAD PUSH1 0x20 DUP2 DUP4 SUB SUB DUP2 MSTORE SWAP1 PUSH1 0x40 MSTORE JUMPDEST SWAP2 POP POP SWAP2 SWAP1 POP JUMP JUMPDEST PUSH1 0x0 DUP1 PUSH20 0xFFFFFFFFFFFFFFFFFFFFFFFFFFFFFFFFFFFFFFFF AND PUSH1 0x2 PUSH1 0x0 DUP5 DUP2 MSTORE PUSH1 0x20 ADD SWAP1 DUP2 MSTORE PUSH1 0x20 ADD PUSH1 0x0 KECCAK256 PUSH1 0x0 SWAP1 SLOAD SWAP1 PUSH2 0x100 EXP SWAP1 DIV PUSH20 0xFFFFFFFFFFFFFFFFFFFFFFFFFFFFFFFFFFFFFFFF AND PUSH20 0xFFFFFFFFFFFFFFFFFFFFFFFFFFFFFFFFFFFFFFFF AND EQ ISZERO SWAP1 POP SWAP2 SWAP1 POP JUMP JUMPDEST POP POP POP JUMP JUMPDEST POP POP POP JUMP JUMPDEST PUSH1 0x0 PUSH2 0x2C4C DUP5 PUSH20 0xFFFFFFFFFFFFFFFFFFFFFFFFFFFFFFFFFFFFFFFF AND PUSH2 0x2E0D JUMP JUMPDEST ISZERO PUSH2 0x2DA5 JUMPI DUP4 PUSH20 0xFFFFFFFFFFFFFFFFFFFFFFFFFFFFFFFFFFFFFFFF AND PUSH4 0x150B7A02 PUSH2 0x2C75 PUSH2 0x1DDB JUMP JUMPDEST DUP8 DUP7 DUP7 PUSH1 0x40 MLOAD DUP6 PUSH4 0xFFFFFFFF AND PUSH1 0xE0 SHL DUP2 MSTORE PUSH1 0x4 ADD PUSH2 0x2C97 SWAP5 SWAP4 SWAP3 SWAP2 SWAP1 PUSH2 0x4D19 JUMP JUMPDEST PUSH1 0x20 PUSH1 0x40 MLOAD DUP1 DUP4 SUB DUP2 PUSH1 0x0 DUP8 GAS CALL SWAP3 POP POP POP DUP1 ISZERO PUSH2 0x2CD3 JUMPI POP PUSH1 0x40 MLOAD RETURNDATASIZE PUSH1 0x1F NOT PUSH1 0x1F DUP3 ADD AND DUP3 ADD DUP1 PUSH1 0x40 MSTORE POP DUP2 ADD SWAP1 PUSH2 0x2CD0 SWAP2 SWAP1 PUSH2 0x4D7A JUMP JUMPDEST PUSH1 0x1 JUMPDEST PUSH2 0x2D55 JUMPI RETURNDATASIZE DUP1 PUSH1 0x0 DUP2 EQ PUSH2 0x2D03 JUMPI PUSH1 0x40 MLOAD SWAP2 POP PUSH1 0x1F NOT PUSH1 0x3F RETURNDATASIZE ADD AND DUP3 ADD PUSH1 0x40 MSTORE RETURNDATASIZE DUP3 MSTORE RETURNDATASIZE PUSH1 0x0 PUSH1 0x20 DUP5 ADD RETURNDATACOPY PUSH2 0x2D08 JUMP JUMPDEST PUSH1 0x60 SWAP2 POP JUMPDEST POP PUSH1 0x0 DUP2 MLOAD SUB PUSH2 0x2D4D JUMPI PUSH1 0x40 MLOAD PUSH32 0x8C379A000000000000000000000000000000000000000000000000000000000 DUP2 MSTORE PUSH1 0x4 ADD PUSH2 0x2D44 SWAP1 PUSH2 0x4A88 JUMP JUMPDEST PUSH1 0x40 MLOAD DUP1 SWAP2 SUB SWAP1 REVERT JUMPDEST DUP1 MLOAD DUP2 PUSH1 0x20 ADD REVERT JUMPDEST PUSH4 0x150B7A02 PUSH1 0xE0 SHL PUSH28 0xFFFFFFFFFFFFFFFFFFFFFFFFFFFFFFFFFFFFFFFFFFFFFFFFFFFFFFFF NOT AND DUP2 PUSH28 0xFFFFFFFFFFFFFFFFFFFFFFFFFFFFFFFFFFFFFFFFFFFFFFFFFFFFFFFF NOT AND EQ SWAP2 POP POP PUSH2 0x2DAA JUMP JUMPDEST PUSH1 0x1 SWAP1 POP JUMPDEST SWAP5 SWAP4 POP POP POP POP JUMP JUMPDEST PUSH2 0x2DBC DUP4 DUP4 PUSH2 0x2E30 JUMP JUMPDEST PUSH2 0x2DC9 PUSH1 0x0 DUP5 DUP5 DUP5 PUSH2 0x2C2B JUMP JUMPDEST PUSH2 0x2E08 JUMPI PUSH1 0x40 MLOAD PUSH32 0x8C379A000000000000000000000000000000000000000000000000000000000 DUP2 MSTORE PUSH1 0x4 ADD PUSH2 0x2DFF SWAP1 PUSH2 0x4A88 JUMP JUMPDEST PUSH1 0x40 MLOAD DUP1 SWAP2 SUB SWAP1 REVERT JUMPDEST POP POP POP JUMP JUMPDEST PUSH1 0x0 DUP1 DUP3 PUSH20 0xFFFFFFFFFFFFFFFFFFFFFFFFFFFFFFFFFFFFFFFF AND EXTCODESIZE GT SWAP1 POP SWAP2 SWAP1 POP JUMP JUMPDEST PUSH1 0x0 PUSH20 0xFFFFFFFFFFFFFFFFFFFFFFFFFFFFFFFFFFFFFFFF AND DUP3 PUSH20 0xFFFFFFFFFFFFFFFFFFFFFFFFFFFFFFFFFFFFFFFF AND SUB PUSH2 0x2E9F JUMPI PUSH1 0x40 MLOAD PUSH32 0x8C379A000000000000000000000000000000000000000000000000000000000 DUP2 MSTORE PUSH1 0x4 ADD PUSH2 0x2E96 SWAP1 PUSH2 0x4DF3 JUMP JUMPDEST PUSH1 0x40 MLOAD DUP1 SWAP2 SUB SWAP1 REVERT JUMPDEST PUSH2 0x2EA8 DUP2 PUSH2 0x2BB5 JUMP JUMPDEST ISZERO PUSH2 0x2EE8 JUMPI PUSH1 0x40 MLOAD PUSH32 0x8C379A000000000000000000000000000000000000000000000000000000000 DUP2 MSTORE PUSH1 0x4 ADD PUSH2 0x2EDF SWAP1 PUSH2 0x4E5F JUMP JUMPDEST PUSH1 0x40 MLOAD DUP1 SWAP2 SUB SWAP1 REVERT JUMPDEST PUSH2 0x2EF4 PUSH1 0x0 DUP4 DUP4 PUSH2 0x2C21 JUMP JUMPDEST PUSH1 0x1 PUSH1 0x3 PUSH1 0x0 DUP5 PUSH20 0xFFFFFFFFFFFFFFFFFFFFFFFFFFFFFFFFFFFFFFFF AND PUSH20 0xFFFFFFFFFFFFFFFFFFFFFFFFFFFFFFFFFFFFFFFF AND DUP2 MSTORE PUSH1 0x20 ADD SWAP1 DUP2 MSTORE PUSH1 0x20 ADD PUSH1 0x0 KECCAK256 PUSH1 0x0 DUP3 DUP3 SLOAD PUSH2 0x2F44 SWAP2 SWAP1 PUSH2 0x4976 JUMP JUMPDEST SWAP3 POP POP DUP2 SWAP1 SSTORE POP DUP2 PUSH1 0x2 PUSH1 0x0 DUP4 DUP2 MSTORE PUSH1 0x20 ADD SWAP1 DUP2 MSTORE PUSH1 0x20 ADD PUSH1 0x0 KECCAK256 PUSH1 0x0 PUSH2 0x100 EXP DUP2 SLOAD DUP2 PUSH20 0xFFFFFFFFFFFFFFFFFFFFFFFFFFFFFFFFFFFFFFFF MUL NOT AND SWAP1 DUP4 PUSH20 0xFFFFFFFFFFFFFFFFFFFFFFFFFFFFFFFFFFFFFFFF AND MUL OR SWAP1 SSTORE POP DUP1 DUP3 PUSH20 0xFFFFFFFFFFFFFFFFFFFFFFFFFFFFFFFFFFFFFFFF AND PUSH1 0x0 PUSH20 0xFFFFFFFFFFFFFFFFFFFFFFFFFFFFFFFFFFFFFFFF AND PUSH32 0xDDF252AD1BE2C89B69C2B068FC378DAA952BA7F163C4A11628F55A4DF523B3EF PUSH1 0x40 MLOAD PUSH1 0x40 MLOAD DUP1 SWAP2 SUB SWAP1 LOG4 PUSH2 0x3005 PUSH1 0x0 DUP4 DUP4 PUSH2 0x2C26 JUMP JUMPDEST POP POP JUMP JUMPDEST PUSH1 0x0 PUSH1 0x40 MLOAD SWAP1 POP SWAP1 JUMP JUMPDEST PUSH1 0x0 DUP1 REVERT JUMPDEST PUSH1 0x0 DUP1 REVERT JUMPDEST PUSH1 0x0 PUSH32 0xFFFFFFFF00000000000000000000000000000000000000000000000000000000 DUP3 AND SWAP1 POP SWAP2 SWAP1 POP JUMP JUMPDEST PUSH2 0x3052 DUP2 PUSH2 0x301D JUMP JUMPDEST DUP2 EQ PUSH2 0x305D JUMPI PUSH1 0x0 DUP1 REVERT JUMPDEST POP JUMP JUMPDEST PUSH1 0x0 DUP2 CALLDATALOAD SWAP1 POP PUSH2 0x306F DUP2 PUSH2 0x3049 JUMP JUMPDEST SWAP3 SWAP2 POP POP JUMP JUMPDEST PUSH1 0x0 PUSH1 0x20 DUP3 DUP5 SUB SLT ISZERO PUSH2 0x308B JUMPI PUSH2 0x308A PUSH2 0x3013 JUMP JUMPDEST JUMPDEST PUSH1 0x0 PUSH2 0x3099 DUP5 DUP3 DUP6 ADD PUSH2 0x3060 JUMP JUMPDEST SWAP2 POP POP SWAP3 SWAP2 POP POP JUMP JUMPDEST PUSH1 0x0 DUP2 ISZERO ISZERO SWAP1 POP SWAP2 SWAP1 POP JUMP JUMPDEST PUSH2 0x30B7 DUP2 PUSH2 0x30A2 JUMP JUMPDEST DUP3 MSTORE POP POP JUMP JUMPDEST PUSH1 0x0 PUSH1 0x20 DUP3 ADD SWAP1 POP PUSH2 0x30D2 PUSH1 0x0 DUP4 ADD DUP5 PUSH2 0x30AE JUMP JUMPDEST SWAP3 SWAP2 POP POP JUMP JUMPDEST PUSH1 0x0 DUP2 MLOAD SWAP1 POP SWAP2 SWAP1 POP JUMP JUMPDEST PUSH1 0x0 DUP3 DUP3 MSTORE PUSH1 0x20 DUP3 ADD SWAP1 POP SWAP3 SWAP2 POP POP JUMP JUMPDEST PUSH1 0x0 JUMPDEST DUP4 DUP2 LT ISZERO PUSH2 0x3112 JUMPI DUP1 DUP3 ADD MLOAD DUP2 DUP5 ADD MSTORE PUSH1 0x20 DUP2 ADD SWAP1 POP PUSH2 0x30F7 JUMP JUMPDEST PUSH1 0x0 DUP5 DUP5 ADD MSTORE POP POP POP POP JUMP JUMPDEST PUSH1 0x0 PUSH1 0x1F NOT PUSH1 0x1F DUP4 ADD AND SWAP1 POP SWAP2 SWAP1 POP JUMP JUMPDEST PUSH1 0x0 PUSH2 0x313A DUP3 PUSH2 0x30D8 JUMP JUMPDEST PUSH2 0x3144 DUP2 DUP6 PUSH2 0x30E3 JUMP JUMPDEST SWAP4 POP PUSH2 0x3154 DUP2 DUP6 PUSH1 0x20 DUP7 ADD PUSH2 0x30F4 JUMP JUMPDEST PUSH2 0x315D DUP2 PUSH2 0x311E JUMP JUMPDEST DUP5 ADD SWAP2 POP POP SWAP3 SWAP2 POP POP JUMP JUMPDEST PUSH1 0x0 PUSH1 0x20 DUP3 ADD SWAP1 POP DUP2 DUP2 SUB PUSH1 0x0 DUP4 ADD MSTORE PUSH2 0x3182 DUP2 DUP5 PUSH2 0x312F JUMP JUMPDEST SWAP1 POP SWAP3 SWAP2 POP POP JUMP JUMPDEST PUSH1 0x0 DUP2 SWAP1 POP SWAP2 SWAP1 POP JUMP JUMPDEST PUSH2 0x319D DUP2 PUSH2 0x318A JUMP JUMPDEST DUP2 EQ PUSH2 0x31A8 JUMPI PUSH1 0x0 DUP1 REVERT JUMPDEST POP JUMP JUMPDEST PUSH1 0x0 DUP2 CALLDATALOAD SWAP1 POP PUSH2 0x31BA DUP2 PUSH2 0x3194 JUMP JUMPDEST SWAP3 SWAP2 POP POP JUMP JUMPDEST PUSH1 0x0 PUSH1 0x20 DUP3 DUP5 SUB SLT ISZERO PUSH2 0x31D6 JUMPI PUSH2 0x31D5 PUSH2 0x3013 JUMP JUMPDEST JUMPDEST PUSH1 0x0 PUSH2 0x31E4 DUP5 DUP3 DUP6 ADD PUSH2 0x31AB JUMP JUMPDEST SWAP2 POP POP SWAP3 SWAP2 POP POP JUMP JUMPDEST PUSH1 0x0 PUSH20 0xFFFFFFFFFFFFFFFFFFFFFFFFFFFFFFFFFFFFFFFF DUP3 AND SWAP1 POP SWAP2 SWAP1 POP JUMP JUMPDEST PUSH1 0x0 PUSH2 0x3218 DUP3 PUSH2 0x31ED JUMP JUMPDEST SWAP1 POP SWAP2 SWAP1 POP JUMP JUMPDEST PUSH2 0x3228 DUP2 PUSH2 0x320D JUMP JUMPDEST DUP3 MSTORE POP POP JUMP JUMPDEST PUSH1 0x0 PUSH1 0x20 DUP3 ADD SWAP1 POP PUSH2 0x3243 PUSH1 0x0 DUP4 ADD DUP5 PUSH2 0x321F JUMP JUMPDEST SWAP3 SWAP2 POP POP JUMP JUMPDEST PUSH2 0x3252 DUP2 PUSH2 0x320D JUMP JUMPDEST DUP2 EQ PUSH2 0x325D JUMPI PUSH1 0x0 DUP1 REVERT JUMPDEST POP JUMP JUMPDEST PUSH1 0x0 DUP2 CALLDATALOAD SWAP1 POP PUSH2 0x326F DUP2 PUSH2 0x3249 JUMP JUMPDEST SWAP3 SWAP2 POP POP JUMP JUMPDEST PUSH1 0x0 DUP1 PUSH1 0x40 DUP4 DUP6 SUB SLT ISZERO PUSH2 0x328C JUMPI PUSH2 0x328B PUSH2 0x3013 JUMP JUMPDEST JUMPDEST PUSH1 0x0 PUSH2 0x329A DUP6 DUP3 DUP7 ADD PUSH2 0x3260 JUMP JUMPDEST SWAP3 POP POP PUSH1 0x20 PUSH2 0x32AB DUP6 DUP3 DUP7 ADD PUSH2 0x31AB JUMP JUMPDEST SWAP2 POP POP SWAP3 POP SWAP3 SWAP1 POP JUMP JUMPDEST PUSH1 0x0 DUP1 REVERT JUMPDEST PUSH1 0x0 DUP1 REVERT JUMPDEST PUSH1 0x0 DUP1 REVERT JUMPDEST PUSH1 0x0 DUP1 DUP4 PUSH1 0x1F DUP5 ADD SLT PUSH2 0x32DA JUMPI PUSH2 0x32D9 PUSH2 0x32B5 JUMP JUMPDEST JUMPDEST DUP3 CALLDATALOAD SWAP1 POP PUSH8 0xFFFFFFFFFFFFFFFF DUP2 GT ISZERO PUSH2 0x32F7 JUMPI PUSH2 0x32F6 PUSH2 0x32BA JUMP JUMPDEST JUMPDEST PUSH1 0x20 DUP4 ADD SWAP2 POP DUP4 PUSH1 0x1 DUP3 MUL DUP4 ADD GT ISZERO PUSH2 0x3313 JUMPI PUSH2 0x3312 PUSH2 0x32BF JUMP JUMPDEST JUMPDEST SWAP3 POP SWAP3 SWAP1 POP JUMP JUMPDEST PUSH1 0x0 DUP1 PUSH1 0x20 DUP4 DUP6 SUB SLT ISZERO PUSH2 0x3331 JUMPI PUSH2 0x3330 PUSH2 0x3013 JUMP JUMPDEST JUMPDEST PUSH1 0x0 DUP4 ADD CALLDATALOAD PUSH8 0xFFFFFFFFFFFFFFFF DUP2 GT ISZERO PUSH2 0x334F JUMPI PUSH2 0x334E PUSH2 0x3018 JUMP JUMPDEST JUMPDEST PUSH2 0x335B DUP6 DUP3 DUP7 ADD PUSH2 0x32C4 JUMP JUMPDEST SWAP3 POP SWAP3 POP POP SWAP3 POP SWAP3 SWAP1 POP JUMP JUMPDEST PUSH1 0x0 DUP1 PUSH1 0x0 PUSH1 0x60 DUP5 DUP7 SUB SLT ISZERO PUSH2 0x3380 JUMPI PUSH2 0x337F PUSH2 0x3013 JUMP JUMPDEST JUMPDEST PUSH1 0x0 PUSH2 0x338E DUP7 DUP3 DUP8 ADD PUSH2 0x3260 JUMP JUMPDEST SWAP4 POP POP PUSH1 0x20 PUSH2 0x339F DUP7 DUP3 DUP8 ADD PUSH2 0x3260 JUMP JUMPDEST SWAP3 POP POP PUSH1 0x40 PUSH2 0x33B0 DUP7 DUP3 DUP8 ADD PUSH2 0x31AB JUMP JUMPDEST SWAP2 POP POP SWAP3 POP SWAP3 POP SWAP3 JUMP JUMPDEST PUSH1 0x0 DUP1 REVERT JUMPDEST PUSH32 0x4E487B7100000000000000000000000000000000000000000000000000000000 PUSH1 0x0 MSTORE PUSH1 0x41 PUSH1 0x4 MSTORE PUSH1 0x24 PUSH1 0x0 REVERT JUMPDEST PUSH2 0x33F7 DUP3 PUSH2 0x311E JUMP JUMPDEST DUP2 ADD DUP2 DUP2 LT PUSH8 0xFFFFFFFFFFFFFFFF DUP3 GT OR ISZERO PUSH2 0x3416 JUMPI PUSH2 0x3415 PUSH2 0x33BF JUMP JUMPDEST JUMPDEST DUP1 PUSH1 0x40 MSTORE POP POP POP JUMP JUMPDEST PUSH1 0x0 PUSH2 0x3429 PUSH2 0x3009 JUMP JUMPDEST SWAP1 POP PUSH2 0x3435 DUP3 DUP3 PUSH2 0x33EE JUMP JUMPDEST SWAP2 SWAP1 POP JUMP JUMPDEST PUSH1 0x0 PUSH8 0xFFFFFFFFFFFFFFFF DUP3 GT ISZERO PUSH2 0x3455 JUMPI PUSH2 0x3454 PUSH2 0x33BF JUMP JUMPDEST JUMPDEST PUSH2 0x345E DUP3 PUSH2 0x311E JUMP JUMPDEST SWAP1 POP PUSH1 0x20 DUP2 ADD SWAP1 POP SWAP2 SWAP1 POP JUMP JUMPDEST DUP3 DUP2 DUP4 CALLDATACOPY PUSH1 0x0 DUP4 DUP4 ADD MSTORE POP POP POP JUMP JUMPDEST PUSH1 0x0 PUSH2 0x348D PUSH2 0x3488 DUP5 PUSH2 0x343A JUMP JUMPDEST PUSH2 0x341F JUMP JUMPDEST SWAP1 POP DUP3 DUP2 MSTORE PUSH1 0x20 DUP2 ADD DUP5 DUP5 DUP5 ADD GT ISZERO PUSH2 0x34A9 JUMPI PUSH2 0x34A8 PUSH2 0x33BA JUMP JUMPDEST JUMPDEST PUSH2 0x34B4 DUP5 DUP3 DUP6 PUSH2 0x346B JUMP JUMPDEST POP SWAP4 SWAP3 POP POP POP JUMP JUMPDEST PUSH1 0x0 DUP3 PUSH1 0x1F DUP4 ADD SLT PUSH2 0x34D1 JUMPI PUSH2 0x34D0 PUSH2 0x32B5 JUMP JUMPDEST JUMPDEST DUP2 CALLDATALOAD PUSH2 0x34E1 DUP5 DUP3 PUSH1 0x20 DUP7 ADD PUSH2 0x347A JUMP JUMPDEST SWAP2 POP POP SWAP3 SWAP2 POP POP JUMP JUMPDEST PUSH1 0x0 PUSH1 0x20 DUP3 DUP5 SUB SLT ISZERO PUSH2 0x3500 JUMPI PUSH2 0x34FF PUSH2 0x3013 JUMP JUMPDEST JUMPDEST PUSH1 0x0 DUP3 ADD CALLDATALOAD PUSH8 0xFFFFFFFFFFFFFFFF DUP2 GT ISZERO PUSH2 0x351E JUMPI PUSH2 0x351D PUSH2 0x3018 JUMP JUMPDEST JUMPDEST PUSH2 0x352A DUP5 DUP3 DUP6 ADD PUSH2 0x34BC JUMP JUMPDEST SWAP2 POP POP SWAP3 SWAP2 POP POP JUMP JUMPDEST PUSH1 0x0 PUSH1 0x20 DUP3 DUP5 SUB SLT ISZERO PUSH2 0x3549 JUMPI PUSH2 0x3548 PUSH2 0x3013 JUMP JUMPDEST JUMPDEST PUSH1 0x0 PUSH2 0x3557 DUP5 DUP3 DUP6 ADD PUSH2 0x3260 JUMP JUMPDEST SWAP2 POP POP SWAP3 SWAP2 POP POP JUMP JUMPDEST PUSH2 0x3569 DUP2 PUSH2 0x318A JUMP JUMPDEST DUP3 MSTORE POP POP JUMP JUMPDEST PUSH1 0x0 PUSH1 0x20 DUP3 ADD SWAP1 POP PUSH2 0x3584 PUSH1 0x0 DUP4 ADD DUP5 PUSH2 0x3560 JUMP JUMPDEST SWAP3 SWAP2 POP POP JUMP JUMPDEST PUSH2 0x3593 DUP2 PUSH2 0x30A2 JUMP JUMPDEST DUP2 EQ PUSH2 0x359E JUMPI PUSH1 0x0 DUP1 REVERT JUMPDEST POP JUMP JUMPDEST PUSH1 0x0 DUP2 CALLDATALOAD SWAP1 POP PUSH2 0x35B0 DUP2 PUSH2 0x358A JUMP JUMPDEST SWAP3 SWAP2 POP POP JUMP JUMPDEST PUSH1 0x0 DUP1 PUSH1 0x40 DUP4 DUP6 SUB SLT ISZERO PUSH2 0x35CD JUMPI PUSH2 0x35CC PUSH2 0x3013 JUMP JUMPDEST JUMPDEST PUSH1 0x0 PUSH2 0x35DB DUP6 DUP3 DUP7 ADD PUSH2 0x3260 JUMP JUMPDEST SWAP3 POP POP PUSH1 0x20 PUSH2 0x35EC DUP6 DUP3 DUP7 ADD PUSH2 0x35A1 JUMP JUMPDEST SWAP2 POP POP SWAP3 POP SWAP3 SWAP1 POP JUMP JUMPDEST PUSH1 0x0 PUSH8 0xFFFFFFFFFFFFFFFF DUP3 GT ISZERO PUSH2 0x3611 JUMPI PUSH2 0x3610 PUSH2 0x33BF JUMP JUMPDEST JUMPDEST PUSH2 0x361A DUP3 PUSH2 0x311E JUMP JUMPDEST SWAP1 POP PUSH1 0x20 DUP2 ADD SWAP1 POP SWAP2 SWAP1 POP JUMP JUMPDEST PUSH1 0x0 PUSH2 0x363A PUSH2 0x3635 DUP5 PUSH2 0x35F6 JUMP JUMPDEST PUSH2 0x341F JUMP JUMPDEST SWAP1 POP DUP3 DUP2 MSTORE PUSH1 0x20 DUP2 ADD DUP5 DUP5 DUP5 ADD GT ISZERO PUSH2 0x3656 JUMPI PUSH2 0x3655 PUSH2 0x33BA JUMP JUMPDEST JUMPDEST PUSH2 0x3661 DUP5 DUP3 DUP6 PUSH2 0x346B JUMP JUMPDEST POP SWAP4 SWAP3 POP POP POP JUMP JUMPDEST PUSH1 0x0 DUP3 PUSH1 0x1F DUP4 ADD SLT PUSH2 0x367E JUMPI PUSH2 0x367D PUSH2 0x32B5 JUMP JUMPDEST JUMPDEST DUP2 CALLDATALOAD PUSH2 0x368E DUP5 DUP3 PUSH1 0x20 DUP7 ADD PUSH2 0x3627 JUMP JUMPDEST SWAP2 POP POP SWAP3 SWAP2 POP POP JUMP JUMPDEST PUSH1 0x0 DUP1 PUSH1 0x0 DUP1 PUSH1 0x80 DUP6 DUP8 SUB SLT ISZERO PUSH2 0x36B1 JUMPI PUSH2 0x36B0 PUSH2 0x3013 JUMP JUMPDEST JUMPDEST PUSH1 0x0 PUSH2 0x36BF DUP8 DUP3 DUP9 ADD PUSH2 0x3260 JUMP JUMPDEST SWAP5 POP POP PUSH1 0x20 PUSH2 0x36D0 DUP8 DUP3 DUP9 ADD PUSH2 0x3260 JUMP JUMPDEST SWAP4 POP POP PUSH1 0x40 PUSH2 0x36E1 DUP8 DUP3 DUP9 ADD PUSH2 0x31AB JUMP JUMPDEST SWAP3 POP POP PUSH1 0x60 DUP6 ADD CALLDATALOAD PUSH8 0xFFFFFFFFFFFFFFFF DUP2 GT ISZERO PUSH2 0x3702 JUMPI PUSH2 0x3701 PUSH2 0x3018 JUMP JUMPDEST JUMPDEST PUSH2 0x370E DUP8 DUP3 DUP9 ADD PUSH2 0x3669 JUMP JUMPDEST SWAP2 POP POP SWAP3 SWAP6 SWAP2 SWAP5 POP SWAP3 POP JUMP JUMPDEST PUSH1 0x0 DUP1 PUSH1 0x0 DUP1 PUSH1 0x40 DUP6 DUP8 SUB SLT ISZERO PUSH2 0x3734 JUMPI PUSH2 0x3733 PUSH2 0x3013 JUMP JUMPDEST JUMPDEST PUSH1 0x0 DUP6 ADD CALLDATALOAD PUSH8 0xFFFFFFFFFFFFFFFF DUP2 GT ISZERO PUSH2 0x3752 JUMPI PUSH2 0x3751 PUSH2 0x3018 JUMP JUMPDEST JUMPDEST PUSH2 0x375E DUP8 DUP3 DUP9 ADD PUSH2 0x32C4 JUMP JUMPDEST SWAP5 POP SWAP5 POP POP PUSH1 0x20 DUP6 ADD CALLDATALOAD PUSH8 0xFFFFFFFFFFFFFFFF DUP2 GT ISZERO PUSH2 0x3781 JUMPI PUSH2 0x3780 PUSH2 0x3018 JUMP JUMPDEST JUMPDEST PUSH2 0x378D DUP8 DUP3 DUP9 ADD PUSH2 0x32C4 JUMP JUMPDEST SWAP3 POP SWAP3 POP POP SWAP3 SWAP6 SWAP2 SWAP5 POP SWAP3 POP JUMP JUMPDEST PUSH1 0x0 DUP1 PUSH1 0x0 PUSH1 0x40 DUP5 DUP7 SUB SLT ISZERO PUSH2 0x37B4 JUMPI PUSH2 0x37B3 PUSH2 0x3013 JUMP JUMPDEST JUMPDEST PUSH1 0x0 DUP5 ADD CALLDATALOAD PUSH8 0xFFFFFFFFFFFFFFFF DUP2 GT ISZERO PUSH2 0x37D2 JUMPI PUSH2 0x37D1 PUSH2 0x3018 JUMP JUMPDEST JUMPDEST PUSH2 0x37DE DUP7 DUP3 DUP8 ADD PUSH2 0x32C4 JUMP JUMPDEST SWAP4 POP SWAP4 POP POP PUSH1 0x20 PUSH2 0x37F1 DUP7 DUP3 DUP8 ADD PUSH2 0x31AB JUMP JUMPDEST SWAP2 POP POP SWAP3 POP SWAP3 POP SWAP3 JUMP JUMPDEST PUSH1 0x0 DUP1 PUSH1 0x40 DUP4 DUP6 SUB SLT ISZERO PUSH2 0x3812 JUMPI PUSH2 0x3811 PUSH2 0x3013 JUMP JUMPDEST JUMPDEST PUSH1 0x0 PUSH2 0x3820 DUP6 DUP3 DUP7 ADD PUSH2 0x3260 JUMP JUMPDEST SWAP3 POP POP PUSH1 0x20 PUSH2 0x3831 DUP6 DUP3 DUP7 ADD PUSH2 0x3260 JUMP JUMPDEST SWAP2 POP POP SWAP3 POP SWAP3 SWAP1 POP JUMP JUMPDEST PUSH1 0x0 DUP2 MLOAD SWAP1 POP SWAP2 SWAP1 POP JUMP JUMPDEST PUSH1 0x0 DUP3 DUP3 MSTORE PUSH1 0x20 DUP3 ADD SWAP1 POP SWAP3 SWAP2 POP POP JUMP JUMPDEST PUSH1 0x0 DUP2 SWAP1 POP PUSH1 0x20 DUP3 ADD SWAP1 POP SWAP2 SWAP1 POP JUMP JUMPDEST PUSH1 0x0 DUP3 DUP3 MSTORE PUSH1 0x20 DUP3 ADD SWAP1 POP SWAP3 SWAP2 POP POP JUMP JUMPDEST PUSH1 0x0 PUSH2 0x3883 DUP3 PUSH2 0x30D8 JUMP JUMPDEST PUSH2 0x388D DUP2 DUP6 PUSH2 0x3867 JUMP JUMPDEST SWAP4 POP PUSH2 0x389D DUP2 DUP6 PUSH1 0x20 DUP7 ADD PUSH2 0x30F4 JUMP JUMPDEST PUSH2 0x38A6 DUP2 PUSH2 0x311E JUMP JUMPDEST DUP5 ADD SWAP2 POP POP SWAP3 SWAP2 POP POP JUMP JUMPDEST PUSH1 0x0 PUSH2 0x38BD DUP4 DUP4 PUSH2 0x3878 JUMP JUMPDEST SWAP1 POP SWAP3 SWAP2 POP POP JUMP JUMPDEST PUSH1 0x0 PUSH1 0x20 DUP3 ADD SWAP1 POP SWAP2 SWAP1 POP JUMP JUMPDEST PUSH1 0x0 PUSH2 0x38DD DUP3 PUSH2 0x383B JUMP JUMPDEST PUSH2 0x38E7 DUP2 DUP6 PUSH2 0x3846 JUMP JUMPDEST SWAP4 POP DUP4 PUSH1 0x20 DUP3 MUL DUP6 ADD PUSH2 0x38F9 DUP6 PUSH2 0x3857 JUMP JUMPDEST DUP1 PUSH1 0x0 JUMPDEST DUP6 DUP2 LT ISZERO PUSH2 0x3935 JUMPI DUP5 DUP5 SUB DUP10 MSTORE DUP2 MLOAD PUSH2 0x3916 DUP6 DUP3 PUSH2 0x38B1 JUMP JUMPDEST SWAP5 POP PUSH2 0x3921 DUP4 PUSH2 0x38C5 JUMP JUMPDEST SWAP3 POP PUSH1 0x20 DUP11 ADD SWAP10 POP POP PUSH1 0x1 DUP2 ADD SWAP1 POP PUSH2 0x38FD JUMP JUMPDEST POP DUP3 SWAP8 POP DUP8 SWAP6 POP POP POP POP POP POP SWAP3 SWAP2 POP POP JUMP JUMPDEST PUSH1 0x0 PUSH1 0x20 DUP3 ADD SWAP1 POP DUP2 DUP2 SUB PUSH1 0x0 DUP4 ADD MSTORE PUSH2 0x3961 DUP2 DUP5 PUSH2 0x38D2 JUMP JUMPDEST SWAP1 POP SWAP3 SWAP2 POP POP JUMP JUMPDEST PUSH32 0x4E487B7100000000000000000000000000000000000000000000000000000000 PUSH1 0x0 MSTORE PUSH1 0x22 PUSH1 0x4 MSTORE PUSH1 0x24 PUSH1 0x0 REVERT JUMPDEST PUSH1 0x0 PUSH1 0x2 DUP3 DIV SWAP1 POP PUSH1 0x1 DUP3 AND DUP1 PUSH2 0x39B0 JUMPI PUSH1 0x7F DUP3 AND SWAP2 POP JUMPDEST PUSH1 0x20 DUP3 LT DUP2 SUB PUSH2 0x39C3 JUMPI PUSH2 0x39C2 PUSH2 0x3969 JUMP JUMPDEST JUMPDEST POP SWAP2 SWAP1 POP JUMP JUMPDEST PUSH32 0x4552433732313A20617070726F76616C20746F2063757272656E74206F776E65 PUSH1 0x0 DUP3 ADD MSTORE PUSH32 0x7200000000000000000000000000000000000000000000000000000000000000 PUSH1 0x20 DUP3 ADD MSTORE POP JUMP JUMPDEST PUSH1 0x0 PUSH2 0x3A25 PUSH1 0x21 DUP4 PUSH2 0x30E3 JUMP JUMPDEST SWAP2 POP PUSH2 0x3A30 DUP3 PUSH2 0x39C9 JUMP JUMPDEST PUSH1 0x40 DUP3 ADD SWAP1 POP SWAP2 SWAP1 POP JUMP JUMPDEST PUSH1 0x0 PUSH1 0x20 DUP3 ADD SWAP1 POP DUP2 DUP2 SUB PUSH1 0x0 DUP4 ADD MSTORE PUSH2 0x3A54 DUP2 PUSH2 0x3A18 JUMP JUMPDEST SWAP1 POP SWAP2 SWAP1 POP JUMP JUMPDEST PUSH32 0x4552433732313A20617070726F76652063616C6C6572206973206E6F7420746F PUSH1 0x0 DUP3 ADD MSTORE PUSH32 0x6B656E206F776E6572206E6F7220617070726F76656420666F7220616C6C0000 PUSH1 0x20 DUP3 ADD MSTORE POP JUMP JUMPDEST PUSH1 0x0 PUSH2 0x3AB7 PUSH1 0x3E DUP4 PUSH2 0x30E3 JUMP JUMPDEST SWAP2 POP PUSH2 0x3AC2 DUP3 PUSH2 0x3A5B JUMP JUMPDEST PUSH1 0x40 DUP3 ADD SWAP1 POP SWAP2 SWAP1 POP JUMP JUMPDEST PUSH1 0x0 PUSH1 0x20 DUP3 ADD SWAP1 POP DUP2 DUP2 SUB PUSH1 0x0 DUP4 ADD MSTORE PUSH2 0x3AE6 DUP2 PUSH2 0x3AAA JUMP JUMPDEST SWAP1 POP SWAP2 SWAP1 POP JUMP JUMPDEST PUSH1 0x0 DUP2 SWAP1 POP SWAP3 SWAP2 POP POP JUMP JUMPDEST PUSH1 0x0 PUSH2 0x3B04 DUP4 DUP6 PUSH2 0x3AED JUMP JUMPDEST SWAP4 POP PUSH2 0x3B11 DUP4 DUP6 DUP5 PUSH2 0x346B JUMP JUMPDEST DUP3 DUP5 ADD SWAP1 POP SWAP4 SWAP3 POP POP POP JUMP JUMPDEST PUSH1 0x0 PUSH2 0x3B2A DUP3 DUP5 DUP7 PUSH2 0x3AF8 JUMP JUMPDEST SWAP2 POP DUP2 SWAP1 POP SWAP4 SWAP3 POP POP POP JUMP JUMPDEST PUSH32 0x4552433732313A2063616C6C6572206973206E6F7420746F6B656E206F776E65 PUSH1 0x0 DUP3 ADD MSTORE PUSH32 0x72206E6F7220617070726F766564000000000000000000000000000000000000 PUSH1 0x20 DUP3 ADD MSTORE POP JUMP JUMPDEST PUSH1 0x0 PUSH2 0x3B92 PUSH1 0x2E DUP4 PUSH2 0x30E3 JUMP JUMPDEST SWAP2 POP PUSH2 0x3B9D DUP3 PUSH2 0x3B36 JUMP JUMPDEST PUSH1 0x40 DUP3 ADD SWAP1 POP SWAP2 SWAP1 POP JUMP JUMPDEST PUSH1 0x0 PUSH1 0x20 DUP3 ADD SWAP1 POP DUP2 DUP2 SUB PUSH1 0x0 DUP4 ADD MSTORE PUSH2 0x3BC1 DUP2 PUSH2 0x3B85 JUMP JUMPDEST SWAP1 POP SWAP2 SWAP1 POP JUMP JUMPDEST PUSH1 0x0 DUP2 SWAP1 POP SWAP3 SWAP2 POP POP JUMP JUMPDEST POP JUMP JUMPDEST PUSH1 0x0 PUSH2 0x3BE3 PUSH1 0x0 DUP4 PUSH2 0x3BC8 JUMP JUMPDEST SWAP2 POP PUSH2 0x3BEE DUP3 PUSH2 0x3BD3 JUMP JUMPDEST PUSH1 0x0 DUP3 ADD SWAP1 POP SWAP2 SWAP1 POP JUMP JUMPDEST PUSH1 0x0 PUSH2 0x3C04 DUP3 PUSH2 0x3BD6 JUMP JUMPDEST SWAP2 POP DUP2 SWAP1 POP SWAP2 SWAP1 POP JUMP JUMPDEST PUSH32 0x4661696C656420746F207769746864726177204D617469630000000000000000 PUSH1 0x0 DUP3 ADD MSTORE POP JUMP JUMPDEST PUSH1 0x0 PUSH2 0x3C44 PUSH1 0x18 DUP4 PUSH2 0x30E3 JUMP JUMPDEST SWAP2 POP PUSH2 0x3C4F DUP3 PUSH2 0x3C0E JUMP JUMPDEST PUSH1 0x20 DUP3 ADD SWAP1 POP SWAP2 SWAP1 POP JUMP JUMPDEST PUSH1 0x0 PUSH1 0x20 DUP3 ADD SWAP1 POP DUP2 DUP2 SUB PUSH1 0x0 DUP4 ADD MSTORE PUSH2 0x3C73 DUP2 PUSH2 0x3C37 JUMP JUMPDEST SWAP1 POP SWAP2 SWAP1 POP JUMP JUMPDEST PUSH32 0x4552433732313A20696E76616C696420746F6B656E2049440000000000000000 PUSH1 0x0 DUP3 ADD MSTORE POP JUMP JUMPDEST PUSH1 0x0 PUSH2 0x3CB0 PUSH1 0x18 DUP4 PUSH2 0x30E3 JUMP JUMPDEST SWAP2 POP PUSH2 0x3CBB DUP3 PUSH2 0x3C7A JUMP JUMPDEST PUSH1 0x20 DUP3 ADD SWAP1 POP SWAP2 SWAP1 POP JUMP JUMPDEST PUSH1 0x0 PUSH1 0x20 DUP3 ADD SWAP1 POP DUP2 DUP2 SUB PUSH1 0x0 DUP4 ADD MSTORE PUSH2 0x3CDF DUP2 PUSH2 0x3CA3 JUMP JUMPDEST SWAP1 POP SWAP2 SWAP1 POP JUMP JUMPDEST PUSH32 0x4552433732313A2061646472657373207A65726F206973206E6F742061207661 PUSH1 0x0 DUP3 ADD MSTORE PUSH32 0x6C6964206F776E65720000000000000000000000000000000000000000000000 PUSH1 0x20 DUP3 ADD MSTORE POP JUMP JUMPDEST PUSH1 0x0 PUSH2 0x3D42 PUSH1 0x29 DUP4 PUSH2 0x30E3 JUMP JUMPDEST SWAP2 POP PUSH2 0x3D4D DUP3 PUSH2 0x3CE6 JUMP JUMPDEST PUSH1 0x40 DUP3 ADD SWAP1 POP SWAP2 SWAP1 POP JUMP JUMPDEST PUSH1 0x0 PUSH1 0x20 DUP3 ADD SWAP1 POP DUP2 DUP2 SUB PUSH1 0x0 DUP4 ADD MSTORE PUSH2 0x3D71 DUP2 PUSH2 0x3D35 JUMP JUMPDEST SWAP1 POP SWAP2 SWAP1 POP JUMP JUMPDEST PUSH32 0x4E6F207065726D697373696F6E20746F206D6F6469667920746865207265636F PUSH1 0x0 DUP3 ADD MSTORE PUSH32 0x7264000000000000000000000000000000000000000000000000000000000000 PUSH1 0x20 DUP3 ADD MSTORE POP JUMP JUMPDEST PUSH1 0x0 PUSH2 0x3DD4 PUSH1 0x22 DUP4 PUSH2 0x30E3 JUMP JUMPDEST SWAP2 POP PUSH2 0x3DDF DUP3 PUSH2 0x3D78 JUMP JUMPDEST PUSH1 0x40 DUP3 ADD SWAP1 POP SWAP2 SWAP1 POP JUMP JUMPDEST PUSH1 0x0 PUSH1 0x20 DUP3 ADD SWAP1 POP DUP2 DUP2 SUB PUSH1 0x0 DUP4 ADD MSTORE PUSH2 0x3E03 DUP2 PUSH2 0x3DC7 JUMP JUMPDEST SWAP1 POP SWAP2 SWAP1 POP JUMP JUMPDEST PUSH1 0x0 DUP3 SWAP1 POP SWAP3 SWAP2 POP POP JUMP JUMPDEST PUSH1 0x0 DUP2 SWAP1 POP DUP2 PUSH1 0x0 MSTORE PUSH1 0x20 PUSH1 0x0 KECCAK256 SWAP1 POP SWAP2 SWAP1 POP JUMP JUMPDEST PUSH1 0x0 PUSH1 0x20 PUSH1 0x1F DUP4 ADD DIV SWAP1 POP SWAP2 SWAP1 POP JUMP JUMPDEST PUSH1 0x0 DUP3 DUP3 SHL SWAP1 POP SWAP3 SWAP2 POP POP JUMP JUMPDEST PUSH1 0x0 PUSH1 0x8 DUP4 MUL PUSH2 0x3E77 PUSH32 0xFFFFFFFFFFFFFFFFFFFFFFFFFFFFFFFFFFFFFFFFFFFFFFFFFFFFFFFFFFFFFFFF DUP3 PUSH2 0x3E3A JUMP JUMPDEST PUSH2 0x3E81 DUP7 DUP4 PUSH2 0x3E3A JUMP JUMPDEST SWAP6 POP DUP1 NOT DUP5 AND SWAP4 POP DUP1 DUP7 AND DUP5 OR SWAP3 POP POP POP SWAP4 SWAP3 POP POP POP JUMP JUMPDEST PUSH1 0x0 DUP2 SWAP1 POP SWAP2 SWAP1 POP JUMP JUMPDEST PUSH1 0x0 PUSH2 0x3EBE PUSH2 0x3EB9 PUSH2 0x3EB4 DUP5 PUSH2 0x318A JUMP JUMPDEST PUSH2 0x3E99 JUMP JUMPDEST PUSH2 0x318A JUMP JUMPDEST SWAP1 POP SWAP2 SWAP1 POP JUMP JUMPDEST PUSH1 0x0 DUP2 SWAP1 POP SWAP2 SWAP1 POP JUMP JUMPDEST PUSH2 0x3ED8 DUP4 PUSH2 0x3EA3 JUMP JUMPDEST PUSH2 0x3EEC PUSH2 0x3EE4 DUP3 PUSH2 0x3EC5 JUMP JUMPDEST DUP5 DUP5 SLOAD PUSH2 0x3E47 JUMP JUMPDEST DUP3 SSTORE POP POP POP POP JUMP JUMPDEST PUSH1 0x0 SWAP1 JUMP JUMPDEST PUSH2 0x3F01 PUSH2 0x3EF4 JUMP JUMPDEST PUSH2 0x3F0C DUP2 DUP5 DUP5 PUSH2 0x3ECF JUMP JUMPDEST POP POP POP JUMP JUMPDEST JUMPDEST DUP2 DUP2 LT ISZERO PUSH2 0x3F30 JUMPI PUSH2 0x3F25 PUSH1 0x0 DUP3 PUSH2 0x3EF9 JUMP JUMPDEST PUSH1 0x1 DUP2 ADD SWAP1 POP PUSH2 0x3F12 JUMP JUMPDEST POP POP JUMP JUMPDEST PUSH1 0x1F DUP3 GT ISZERO PUSH2 0x3F75 JUMPI PUSH2 0x3F46 DUP2 PUSH2 0x3E15 JUMP JUMPDEST PUSH2 0x3F4F DUP5 PUSH2 0x3E2A JUMP JUMPDEST DUP2 ADD PUSH1 0x20 DUP6 LT ISZERO PUSH2 0x3F5E JUMPI DUP2 SWAP1 POP JUMPDEST PUSH2 0x3F72 PUSH2 0x3F6A DUP6 PUSH2 0x3E2A JUMP JUMPDEST DUP4 ADD DUP3 PUSH2 0x3F11 JUMP JUMPDEST POP POP JUMPDEST POP POP POP JUMP JUMPDEST PUSH1 0x0 DUP3 DUP3 SHR SWAP1 POP SWAP3 SWAP2 POP POP JUMP JUMPDEST PUSH1 0x0 PUSH2 0x3F98 PUSH1 0x0 NOT DUP5 PUSH1 0x8 MUL PUSH2 0x3F7A JUMP JUMPDEST NOT DUP1 DUP4 AND SWAP2 POP POP SWAP3 SWAP2 POP POP JUMP JUMPDEST PUSH1 0x0 PUSH2 0x3FB1 DUP4 DUP4 PUSH2 0x3F87 JUMP JUMPDEST SWAP2 POP DUP3 PUSH1 0x2 MUL DUP3 OR SWAP1 POP SWAP3 SWAP2 POP POP JUMP JUMPDEST PUSH2 0x3FCB DUP4 DUP4 PUSH2 0x3E0A JUMP JUMPDEST PUSH8 0xFFFFFFFFFFFFFFFF DUP2 GT ISZERO PUSH2 0x3FE4 JUMPI PUSH2 0x3FE3 PUSH2 0x33BF JUMP JUMPDEST JUMPDEST PUSH2 0x3FEE DUP3 SLOAD PUSH2 0x3998 JUMP JUMPDEST PUSH2 0x3FF9 DUP3 DUP3 DUP6 PUSH2 0x3F34 JUMP JUMPDEST PUSH1 0x0 PUSH1 0x1F DUP4 GT PUSH1 0x1 DUP2 EQ PUSH2 0x4028 JUMPI PUSH1 0x0 DUP5 ISZERO PUSH2 0x4016 JUMPI DUP3 DUP8 ADD CALLDATALOAD SWAP1 POP JUMPDEST PUSH2 0x4020 DUP6 DUP3 PUSH2 0x3FA5 JUMP JUMPDEST DUP7 SSTORE POP PUSH2 0x4088 JUMP JUMPDEST PUSH1 0x1F NOT DUP5 AND PUSH2 0x4036 DUP7 PUSH2 0x3E15 JUMP JUMPDEST PUSH1 0x0 JUMPDEST DUP3 DUP2 LT ISZERO PUSH2 0x405E JUMPI DUP5 DUP10 ADD CALLDATALOAD DUP3 SSTORE PUSH1 0x1 DUP3 ADD SWAP2 POP PUSH1 0x20 DUP6 ADD SWAP5 POP PUSH1 0x20 DUP2 ADD SWAP1 POP PUSH2 0x4039 JUMP JUMPDEST DUP7 DUP4 LT ISZERO PUSH2 0x407B JUMPI DUP5 DUP10 ADD CALLDATALOAD PUSH2 0x4077 PUSH1 0x1F DUP10 AND DUP3 PUSH2 0x3F87 JUMP JUMPDEST DUP4 SSTORE POP JUMPDEST PUSH1 0x1 PUSH1 0x2 DUP9 MUL ADD DUP9 SSTORE POP POP POP JUMPDEST POP POP POP POP POP POP POP JUMP JUMPDEST PUSH32 0x4E616D6520616C72656164792065786973747300000000000000000000000000 PUSH1 0x0 DUP3 ADD MSTORE POP JUMP JUMPDEST PUSH1 0x0 PUSH2 0x40C7 PUSH1 0x13 DUP4 PUSH2 0x30E3 JUMP JUMPDEST SWAP2 POP PUSH2 0x40D2 DUP3 PUSH2 0x4091 JUMP JUMPDEST PUSH1 0x20 DUP3 ADD SWAP1 POP SWAP2 SWAP1 POP JUMP JUMPDEST PUSH1 0x0 PUSH1 0x20 DUP3 ADD SWAP1 POP DUP2 DUP2 SUB PUSH1 0x0 DUP4 ADD MSTORE PUSH2 0x40F6 DUP2 PUSH2 0x40BA JUMP JUMPDEST SWAP1 POP SWAP2 SWAP1 POP JUMP JUMPDEST PUSH32 0x496E76616C6964206E616D650000000000000000000000000000000000000000 PUSH1 0x0 DUP3 ADD MSTORE POP JUMP JUMPDEST PUSH1 0x0 PUSH2 0x4133 PUSH1 0xC DUP4 PUSH2 0x30E3 JUMP JUMPDEST SWAP2 POP PUSH2 0x413E DUP3 PUSH2 0x40FD JUMP JUMPDEST PUSH1 0x20 DUP3 ADD SWAP1 POP SWAP2 SWAP1 POP JUMP JUMPDEST PUSH1 0x0 PUSH1 0x20 DUP3 ADD SWAP1 POP DUP2 DUP2 SUB PUSH1 0x0 DUP4 ADD MSTORE PUSH2 0x4162 DUP2 PUSH2 0x4126 JUMP JUMPDEST SWAP1 POP SWAP2 SWAP1 POP JUMP JUMPDEST PUSH32 0x4164647265737320616C7265616479206170706C696564000000000000000000 PUSH1 0x0 DUP3 ADD MSTORE POP JUMP JUMPDEST PUSH1 0x0 PUSH2 0x419F PUSH1 0x17 DUP4 PUSH2 0x30E3 JUMP JUMPDEST SWAP2 POP PUSH2 0x41AA DUP3 PUSH2 0x4169 JUMP JUMPDEST PUSH1 0x20 DUP3 ADD SWAP1 POP SWAP2 SWAP1 POP JUMP JUMPDEST PUSH1 0x0 PUSH1 0x20 DUP3 ADD SWAP1 POP DUP2 DUP2 SUB PUSH1 0x0 DUP4 ADD MSTORE PUSH2 0x41CE DUP2 PUSH2 0x4192 JUMP JUMPDEST SWAP1 POP SWAP2 SWAP1 POP JUMP JUMPDEST PUSH32 0x4E6F7420656E6F756768204D6174696320706169640000000000000000000000 PUSH1 0x0 DUP3 ADD MSTORE POP JUMP JUMPDEST PUSH1 0x0 PUSH2 0x420B PUSH1 0x15 DUP4 PUSH2 0x30E3 JUMP JUMPDEST SWAP2 POP PUSH2 0x4216 DUP3 PUSH2 0x41D5 JUMP JUMPDEST PUSH1 0x20 DUP3 ADD SWAP1 POP SWAP2 SWAP1 POP JUMP JUMPDEST PUSH1 0x0 PUSH1 0x20 DUP3 ADD SWAP1 POP DUP2 DUP2 SUB PUSH1 0x0 DUP4 ADD MSTORE PUSH2 0x423A DUP2 PUSH2 0x41FE JUMP JUMPDEST SWAP1 POP SWAP2 SWAP1 POP JUMP JUMPDEST PUSH32 0x2E00000000000000000000000000000000000000000000000000000000000000 PUSH1 0x0 DUP3 ADD MSTORE POP JUMP JUMPDEST PUSH1 0x0 PUSH2 0x4277 PUSH1 0x1 DUP4 PUSH2 0x3AED JUMP JUMPDEST SWAP2 POP PUSH2 0x4282 DUP3 PUSH2 0x4241 JUMP JUMPDEST PUSH1 0x1 DUP3 ADD SWAP1 POP SWAP2 SWAP1 POP JUMP JUMPDEST PUSH1 0x0 PUSH2 0x4298 DUP3 PUSH2 0x30D8 JUMP JUMPDEST PUSH2 0x42A2 DUP2 DUP6 PUSH2 0x3AED JUMP JUMPDEST SWAP4 POP PUSH2 0x42B2 DUP2 DUP6 PUSH1 0x20 DUP7 ADD PUSH2 0x30F4 JUMP JUMPDEST DUP1 DUP5 ADD SWAP2 POP POP SWAP3 SWAP2 POP POP JUMP JUMPDEST PUSH1 0x0 PUSH2 0x42CB DUP3 DUP7 DUP9 PUSH2 0x3AF8 JUMP JUMPDEST SWAP2 POP PUSH2 0x42D6 DUP3 PUSH2 0x426A JUMP JUMPDEST SWAP2 POP PUSH2 0x42E2 DUP3 DUP6 PUSH2 0x428D JUMP JUMPDEST SWAP2 POP PUSH2 0x42ED DUP3 PUSH2 0x426A JUMP JUMPDEST SWAP2 POP PUSH2 0x42F9 DUP3 DUP5 PUSH2 0x428D JUMP JUMPDEST SWAP2 POP DUP2 SWAP1 POP SWAP6 SWAP5 POP POP POP POP POP JUMP JUMPDEST PUSH1 0x0 DUP2 SLOAD PUSH2 0x4314 DUP2 PUSH2 0x3998 JUMP JUMPDEST PUSH2 0x431E DUP2 DUP7 PUSH2 0x3AED JUMP JUMPDEST SWAP5 POP PUSH1 0x1 DUP3 AND PUSH1 0x0 DUP2 EQ PUSH2 0x4339 JUMPI PUSH1 0x1 DUP2 EQ PUSH2 0x434E JUMPI PUSH2 0x4381 JUMP JUMPDEST PUSH1 0xFF NOT DUP4 AND DUP7 MSTORE DUP2 ISZERO ISZERO DUP3 MUL DUP7 ADD SWAP4 POP PUSH2 0x4381 JUMP JUMPDEST PUSH2 0x4357 DUP6 PUSH2 0x3E15 JUMP JUMPDEST PUSH1 0x0 JUMPDEST DUP4 DUP2 LT ISZERO PUSH2 0x4379 JUMPI DUP2 SLOAD DUP2 DUP10 ADD MSTORE PUSH1 0x1 DUP3 ADD SWAP2 POP PUSH1 0x20 DUP2 ADD SWAP1 POP PUSH2 0x435A JUMP JUMPDEST DUP4 DUP9 ADD SWAP6 POP POP POP JUMPDEST POP POP POP SWAP3 SWAP2 POP POP JUMP JUMPDEST PUSH1 0x0 PUSH2 0x4396 DUP3 DUP9 PUSH2 0x4307 JUMP JUMPDEST SWAP2 POP PUSH2 0x43A2 DUP3 DUP8 PUSH2 0x428D JUMP JUMPDEST SWAP2 POP PUSH2 0x43AE DUP3 DUP7 PUSH2 0x4307 JUMP JUMPDEST SWAP2 POP PUSH2 0x43BA DUP3 DUP6 PUSH2 0x428D JUMP JUMPDEST SWAP2 POP PUSH2 0x43C6 DUP3 DUP5 PUSH2 0x4307 JUMP JUMPDEST SWAP2 POP DUP2 SWAP1 POP SWAP7 SWAP6 POP POP POP POP POP POP JUMP JUMPDEST PUSH32 0x7B226E616D65223A202200000000000000000000000000000000000000000000 PUSH1 0x0 DUP3 ADD MSTORE POP JUMP JUMPDEST PUSH1 0x0 PUSH2 0x440B PUSH1 0xA DUP4 PUSH2 0x3AED JUMP JUMPDEST SWAP2 POP PUSH2 0x4416 DUP3 PUSH2 0x43D5 JUMP JUMPDEST PUSH1 0xA DUP3 ADD SWAP1 POP SWAP2 SWAP1 POP JUMP JUMPDEST PUSH32 0x222C20226465736372697074696F6E223A2022412073747564656E7420617420 PUSH1 0x0 DUP3 ADD MSTORE PUSH32 0x486F677761727473222C2022696D616765223A2022646174613A696D6167652F PUSH1 0x20 DUP3 ADD MSTORE PUSH32 0x7376672B786D6C3B6261736536342C0000000000000000000000000000000000 PUSH1 0x40 DUP3 ADD MSTORE POP JUMP JUMPDEST PUSH1 0x0 PUSH2 0x44A3 PUSH1 0x4F DUP4 PUSH2 0x3AED JUMP JUMPDEST SWAP2 POP PUSH2 0x44AE DUP3 PUSH2 0x4421 JUMP JUMPDEST PUSH1 0x4F DUP3 ADD SWAP1 POP SWAP2 SWAP1 POP JUMP JUMPDEST PUSH32 0x222C226C656E677468223A220000000000000000000000000000000000000000 PUSH1 0x0 DUP3 ADD MSTORE POP JUMP JUMPDEST PUSH1 0x0 PUSH2 0x44EF PUSH1 0xC DUP4 PUSH2 0x3AED JUMP JUMPDEST SWAP2 POP PUSH2 0x44FA DUP3 PUSH2 0x44B9 JUMP JUMPDEST PUSH1 0xC DUP3 ADD SWAP1 POP SWAP2 SWAP1 POP JUMP JUMPDEST PUSH32 0x227D000000000000000000000000000000000000000000000000000000000000 PUSH1 0x0 DUP3 ADD MSTORE POP JUMP JUMPDEST PUSH1 0x0 PUSH2 0x453B PUSH1 0x2 DUP4 PUSH2 0x3AED JUMP JUMPDEST SWAP2 POP PUSH2 0x4546 DUP3 PUSH2 0x4505 JUMP JUMPDEST PUSH1 0x2 DUP3 ADD SWAP1 POP SWAP2 SWAP1 POP JUMP JUMPDEST PUSH1 0x0 PUSH2 0x455C DUP3 PUSH2 0x43FE JUMP JUMPDEST SWAP2 POP PUSH2 0x4568 DUP3 DUP7 PUSH2 0x428D JUMP JUMPDEST SWAP2 POP PUSH2 0x4573 DUP3 PUSH2 0x4496 JUMP JUMPDEST SWAP2 POP PUSH2 0x457F DUP3 DUP6 PUSH2 0x428D JUMP JUMPDEST SWAP2 POP PUSH2 0x458A DUP3 PUSH2 0x44E2 JUMP JUMPDEST SWAP2 POP PUSH2 0x4596 DUP3 DUP5 PUSH2 0x428D JUMP JUMPDEST SWAP2 POP PUSH2 0x45A1 DUP3 PUSH2 0x452E JUMP JUMPDEST SWAP2 POP DUP2 SWAP1 POP SWAP5 SWAP4 POP POP POP POP JUMP JUMPDEST PUSH32 0x646174613A6170706C69636174696F6E2F6A736F6E3B6261736536342C000000 PUSH1 0x0 DUP3 ADD MSTORE POP JUMP JUMPDEST PUSH1 0x0 PUSH2 0x45E4 PUSH1 0x1D DUP4 PUSH2 0x3AED JUMP JUMPDEST SWAP2 POP PUSH2 0x45EF DUP3 PUSH2 0x45AE JUMP JUMPDEST PUSH1 0x1D DUP3 ADD SWAP1 POP SWAP2 SWAP1 POP JUMP JUMPDEST PUSH1 0x0 PUSH2 0x4605 DUP3 PUSH2 0x45D7 JUMP JUMPDEST SWAP2 POP PUSH2 0x4611 DUP3 DUP5 PUSH2 0x428D JUMP JUMPDEST SWAP2 POP DUP2 SWAP1 POP SWAP3 SWAP2 POP POP JUMP JUMPDEST PUSH2 0x4625 DUP3 PUSH2 0x30D8 JUMP JUMPDEST PUSH8 0xFFFFFFFFFFFFFFFF DUP2 GT ISZERO PUSH2 0x463E JUMPI PUSH2 0x463D PUSH2 0x33BF JUMP JUMPDEST JUMPDEST PUSH2 0x4648 DUP3 SLOAD PUSH2 0x3998 JUMP JUMPDEST PUSH2 0x4653 DUP3 DUP3 DUP6 PUSH2 0x3F34 JUMP JUMPDEST PUSH1 0x0 PUSH1 0x20 SWAP1 POP PUSH1 0x1F DUP4 GT PUSH1 0x1 DUP2 EQ PUSH2 0x4686 JUMPI PUSH1 0x0 DUP5 ISZERO PUSH2 0x4674 JUMPI DUP3 DUP8 ADD MLOAD SWAP1 POP JUMPDEST PUSH2 0x467E DUP6 DUP3 PUSH2 0x3FA5 JUMP JUMPDEST DUP7 SSTORE POP PUSH2 0x46E6 JUMP JUMPDEST PUSH1 0x1F NOT DUP5 AND PUSH2 0x4694 DUP7 PUSH2 0x3E15 JUMP JUMPDEST PUSH1 0x0 JUMPDEST DUP3 DUP2 LT ISZERO PUSH2 0x46BC JUMPI DUP5 DUP10 ADD MLOAD DUP3 SSTORE PUSH1 0x1 DUP3 ADD SWAP2 POP PUSH1 0x20 DUP6 ADD SWAP5 POP PUSH1 0x20 DUP2 ADD SWAP1 POP PUSH2 0x4697 JUMP JUMPDEST DUP7 DUP4 LT ISZERO PUSH2 0x46D9 JUMPI DUP5 DUP10 ADD MLOAD PUSH2 0x46D5 PUSH1 0x1F DUP10 AND DUP3 PUSH2 0x3F87 JUMP JUMPDEST DUP4 SSTORE POP JUMPDEST PUSH1 0x1 PUSH1 0x2 DUP9 MUL ADD DUP9 SSTORE POP POP POP JUMPDEST POP POP POP POP POP POP JUMP JUMPDEST PUSH1 0x0 PUSH2 0x46FA DUP4 DUP6 PUSH2 0x30E3 JUMP JUMPDEST SWAP4 POP PUSH2 0x4707 DUP4 DUP6 DUP5 PUSH2 0x346B JUMP JUMPDEST PUSH2 0x4710 DUP4 PUSH2 0x311E JUMP JUMPDEST DUP5 ADD SWAP1 POP SWAP4 SWAP3 POP POP POP JUMP JUMPDEST PUSH1 0x0 PUSH1 0x40 DUP3 ADD SWAP1 POP DUP2 DUP2 SUB PUSH1 0x0 DUP4 ADD MSTORE PUSH2 0x4736 DUP2 DUP6 DUP8 PUSH2 0x46EE JUMP JUMPDEST SWAP1 POP DUP2 DUP2 SUB PUSH1 0x20 DUP4 ADD MSTORE PUSH2 0x474A DUP2 DUP5 PUSH2 0x312F JUMP JUMPDEST SWAP1 POP SWAP5 SWAP4 POP POP POP POP JUMP JUMPDEST PUSH1 0x0 PUSH2 0x4760 DUP3 DUP6 PUSH2 0x428D JUMP JUMPDEST SWAP2 POP PUSH2 0x476C DUP3 DUP5 PUSH2 0x428D JUMP JUMPDEST SWAP2 POP DUP2 SWAP1 POP SWAP4 SWAP3 POP POP POP JUMP JUMPDEST PUSH32 0x4E487B7100000000000000000000000000000000000000000000000000000000 PUSH1 0x0 MSTORE PUSH1 0x32 PUSH1 0x4 MSTORE PUSH1 0x24 PUSH1 0x0 REVERT JUMPDEST PUSH32 0x4E487B7100000000000000000000000000000000000000000000000000000000 PUSH1 0x0 MSTORE PUSH1 0x11 PUSH1 0x4 MSTORE PUSH1 0x24 PUSH1 0x0 REVERT JUMPDEST PUSH1 0x0 PUSH2 0x47E1 DUP3 PUSH2 0x318A JUMP JUMPDEST SWAP2 POP PUSH32 0xFFFFFFFFFFFFFFFFFFFFFFFFFFFFFFFFFFFFFFFFFFFFFFFFFFFFFFFFFFFFFFFF DUP3 SUB PUSH2 0x4813 JUMPI PUSH2 0x4812 PUSH2 0x47A7 JUMP JUMPDEST JUMPDEST PUSH1 0x1 DUP3 ADD SWAP1 POP SWAP2 SWAP1 POP JUMP JUMPDEST PUSH32 0x4552433732313A207472616E736665722066726F6D20696E636F727265637420 PUSH1 0x0 DUP3 ADD MSTORE PUSH32 0x6F776E6572000000000000000000000000000000000000000000000000000000 PUSH1 0x20 DUP3 ADD MSTORE POP JUMP JUMPDEST PUSH1 0x0 PUSH2 0x487A PUSH1 0x25 DUP4 PUSH2 0x30E3 JUMP JUMPDEST SWAP2 POP PUSH2 0x4885 DUP3 PUSH2 0x481E JUMP JUMPDEST PUSH1 0x40 DUP3 ADD SWAP1 POP SWAP2 SWAP1 POP JUMP JUMPDEST PUSH1 0x0 PUSH1 0x20 DUP3 ADD SWAP1 POP DUP2 DUP2 SUB PUSH1 0x0 DUP4 ADD MSTORE PUSH2 0x48A9 DUP2 PUSH2 0x486D JUMP JUMPDEST SWAP1 POP SWAP2 SWAP1 POP JUMP JUMPDEST PUSH32 0x4552433732313A207472616E7366657220746F20746865207A65726F20616464 PUSH1 0x0 DUP3 ADD MSTORE PUSH32 0x7265737300000000000000000000000000000000000000000000000000000000 PUSH1 0x20 DUP3 ADD MSTORE POP JUMP JUMPDEST PUSH1 0x0 PUSH2 0x490C PUSH1 0x24 DUP4 PUSH2 0x30E3 JUMP JUMPDEST SWAP2 POP PUSH2 0x4917 DUP3 PUSH2 0x48B0 JUMP JUMPDEST PUSH1 0x40 DUP3 ADD SWAP1 POP SWAP2 SWAP1 POP JUMP JUMPDEST PUSH1 0x0 PUSH1 0x20 DUP3 ADD SWAP1 POP DUP2 DUP2 SUB PUSH1 0x0 DUP4 ADD MSTORE PUSH2 0x493B DUP2 PUSH2 0x48FF JUMP JUMPDEST SWAP1 POP SWAP2 SWAP1 POP JUMP JUMPDEST PUSH1 0x0 PUSH2 0x494D DUP3 PUSH2 0x318A JUMP JUMPDEST SWAP2 POP PUSH2 0x4958 DUP4 PUSH2 0x318A JUMP JUMPDEST SWAP3 POP DUP3 DUP3 SUB SWAP1 POP DUP2 DUP2 GT ISZERO PUSH2 0x4970 JUMPI PUSH2 0x496F PUSH2 0x47A7 JUMP JUMPDEST JUMPDEST SWAP3 SWAP2 POP POP JUMP JUMPDEST PUSH1 0x0 PUSH2 0x4981 DUP3 PUSH2 0x318A JUMP JUMPDEST SWAP2 POP PUSH2 0x498C DUP4 PUSH2 0x318A JUMP JUMPDEST SWAP3 POP DUP3 DUP3 ADD SWAP1 POP DUP1 DUP3 GT ISZERO PUSH2 0x49A4 JUMPI PUSH2 0x49A3 PUSH2 0x47A7 JUMP JUMPDEST JUMPDEST SWAP3 SWAP2 POP POP JUMP JUMPDEST PUSH32 0x4552433732313A20617070726F766520746F2063616C6C657200000000000000 PUSH1 0x0 DUP3 ADD MSTORE POP JUMP JUMPDEST PUSH1 0x0 PUSH2 0x49E0 PUSH1 0x19 DUP4 PUSH2 0x30E3 JUMP JUMPDEST SWAP2 POP PUSH2 0x49EB DUP3 PUSH2 0x49AA JUMP JUMPDEST PUSH1 0x20 DUP3 ADD SWAP1 POP SWAP2 SWAP1 POP JUMP JUMPDEST PUSH1 0x0 PUSH1 0x20 DUP3 ADD SWAP1 POP DUP2 DUP2 SUB PUSH1 0x0 DUP4 ADD MSTORE PUSH2 0x4A0F DUP2 PUSH2 0x49D3 JUMP JUMPDEST SWAP1 POP SWAP2 SWAP1 POP JUMP JUMPDEST PUSH32 0x4552433732313A207472616E7366657220746F206E6F6E204552433732315265 PUSH1 0x0 DUP3 ADD MSTORE PUSH32 0x63656976657220696D706C656D656E7465720000000000000000000000000000 PUSH1 0x20 DUP3 ADD MSTORE POP JUMP JUMPDEST PUSH1 0x0 PUSH2 0x4A72 PUSH1 0x32 DUP4 PUSH2 0x30E3 JUMP JUMPDEST SWAP2 POP PUSH2 0x4A7D DUP3 PUSH2 0x4A16 JUMP JUMPDEST PUSH1 0x40 DUP3 ADD SWAP1 POP SWAP2 SWAP1 POP JUMP JUMPDEST PUSH1 0x0 PUSH1 0x20 DUP3 ADD SWAP1 POP DUP2 DUP2 SUB PUSH1 0x0 DUP4 ADD MSTORE PUSH2 0x4AA1 DUP2 PUSH2 0x4A65 JUMP JUMPDEST SWAP1 POP SWAP2 SWAP1 POP JUMP JUMPDEST PUSH1 0x0 DUP2 SWAP1 POP SWAP2 SWAP1 POP JUMP JUMPDEST PUSH2 0x4AC3 PUSH2 0x4ABE DUP3 PUSH2 0x318A JUMP JUMPDEST PUSH2 0x4AA8 JUMP JUMPDEST DUP3 MSTORE POP POP JUMP JUMPDEST PUSH1 0x0 DUP2 PUSH1 0x60 SHL SWAP1 POP SWAP2 SWAP1 POP JUMP JUMPDEST PUSH1 0x0 PUSH2 0x4AE1 DUP3 PUSH2 0x4AC9 JUMP JUMPDEST SWAP1 POP SWAP2 SWAP1 POP JUMP JUMPDEST PUSH1 0x0 PUSH2 0x4AF3 DUP3 PUSH2 0x4AD6 JUMP JUMPDEST SWAP1 POP SWAP2 SWAP1 POP JUMP JUMPDEST PUSH2 0x4B0B PUSH2 0x4B06 DUP3 PUSH2 0x320D JUMP JUMPDEST PUSH2 0x4AE8 JUMP JUMPDEST DUP3 MSTORE POP POP JUMP JUMPDEST PUSH1 0x0 PUSH2 0x4B1D DUP3 DUP8 PUSH2 0x4AB2 JUMP JUMPDEST PUSH1 0x20 DUP3 ADD SWAP2 POP PUSH2 0x4B2D DUP3 DUP7 PUSH2 0x4AB2 JUMP JUMPDEST PUSH1 0x20 DUP3 ADD SWAP2 POP PUSH2 0x4B3D DUP3 DUP6 PUSH2 0x4AB2 JUMP JUMPDEST PUSH1 0x20 DUP3 ADD SWAP2 POP PUSH2 0x4B4D DUP3 DUP5 PUSH2 0x4AFA JUMP JUMPDEST PUSH1 0x14 DUP3 ADD SWAP2 POP DUP2 SWAP1 POP SWAP6 SWAP5 POP POP POP POP POP JUMP JUMPDEST PUSH32 0x4E487B7100000000000000000000000000000000000000000000000000000000 PUSH1 0x0 MSTORE PUSH1 0x12 PUSH1 0x4 MSTORE PUSH1 0x24 PUSH1 0x0 REVERT JUMPDEST PUSH1 0x0 PUSH2 0x4B99 DUP3 PUSH2 0x318A JUMP JUMPDEST SWAP2 POP PUSH2 0x4BA4 DUP4 PUSH2 0x318A JUMP JUMPDEST SWAP3 POP DUP3 PUSH2 0x4BB4 JUMPI PUSH2 0x4BB3 PUSH2 0x4B5F JUMP JUMPDEST JUMPDEST DUP3 DUP3 MOD SWAP1 POP SWAP3 SWAP2 POP POP JUMP JUMPDEST PUSH1 0x0 PUSH2 0x4BCA DUP3 PUSH2 0x318A JUMP JUMPDEST SWAP2 POP PUSH2 0x4BD5 DUP4 PUSH2 0x318A JUMP JUMPDEST SWAP3 POP DUP3 PUSH2 0x4BE5 JUMPI PUSH2 0x4BE4 PUSH2 0x4B5F JUMP JUMPDEST JUMPDEST DUP3 DUP3 DIV SWAP1 POP SWAP3 SWAP2 POP POP JUMP JUMPDEST PUSH1 0x0 PUSH2 0x4BFB DUP3 PUSH2 0x318A JUMP JUMPDEST SWAP2 POP PUSH2 0x4C06 DUP4 PUSH2 0x318A JUMP JUMPDEST SWAP3 POP DUP3 DUP3 MUL PUSH2 0x4C14 DUP2 PUSH2 0x318A JUMP JUMPDEST SWAP2 POP DUP3 DUP3 DIV DUP5 EQ DUP4 ISZERO OR PUSH2 0x4C2B JUMPI PUSH2 0x4C2A PUSH2 0x47A7 JUMP JUMPDEST JUMPDEST POP SWAP3 SWAP2 POP POP JUMP JUMPDEST PUSH32 0x45524337323155524953746F726167653A2055524920736574206F66206E6F6E PUSH1 0x0 DUP3 ADD MSTORE PUSH32 0x6578697374656E7420746F6B656E000000000000000000000000000000000000 PUSH1 0x20 DUP3 ADD MSTORE POP JUMP JUMPDEST PUSH1 0x0 PUSH2 0x4C8E PUSH1 0x2E DUP4 PUSH2 0x30E3 JUMP JUMPDEST SWAP2 POP PUSH2 0x4C99 DUP3 PUSH2 0x4C32 JUMP JUMPDEST PUSH1 0x40 DUP3 ADD SWAP1 POP SWAP2 SWAP1 POP JUMP JUMPDEST PUSH1 0x0 PUSH1 0x20 DUP3 ADD SWAP1 POP DUP2 DUP2 SUB PUSH1 0x0 DUP4 ADD MSTORE PUSH2 0x4CBD DUP2 PUSH2 0x4C81 JUMP JUMPDEST SWAP1 POP SWAP2 SWAP1 POP JUMP JUMPDEST PUSH1 0x0 DUP2 MLOAD SWAP1 POP SWAP2 SWAP1 POP JUMP JUMPDEST PUSH1 0x0 DUP3 DUP3 MSTORE PUSH1 0x20 DUP3 ADD SWAP1 POP SWAP3 SWAP2 POP POP JUMP JUMPDEST PUSH1 0x0 PUSH2 0x4CEB DUP3 PUSH2 0x4CC4 JUMP JUMPDEST PUSH2 0x4CF5 DUP2 DUP6 PUSH2 0x4CCF JUMP JUMPDEST SWAP4 POP PUSH2 0x4D05 DUP2 DUP6 PUSH1 0x20 DUP7 ADD PUSH2 0x30F4 JUMP JUMPDEST PUSH2 0x4D0E DUP2 PUSH2 0x311E JUMP JUMPDEST DUP5 ADD SWAP2 POP POP SWAP3 SWAP2 POP POP JUMP JUMPDEST PUSH1 0x0 PUSH1 0x80 DUP3 ADD SWAP1 POP PUSH2 0x4D2E PUSH1 0x0 DUP4 ADD DUP8 PUSH2 0x321F JUMP JUMPDEST PUSH2 0x4D3B PUSH1 0x20 DUP4 ADD DUP7 PUSH2 0x321F JUMP JUMPDEST PUSH2 0x4D48 PUSH1 0x40 DUP4 ADD DUP6 PUSH2 0x3560 JUMP JUMPDEST DUP2 DUP2 SUB PUSH1 0x60 DUP4 ADD MSTORE PUSH2 0x4D5A DUP2 DUP5 PUSH2 0x4CE0 JUMP JUMPDEST SWAP1 POP SWAP6 SWAP5 POP POP POP POP POP JUMP JUMPDEST PUSH1 0x0 DUP2 MLOAD SWAP1 POP PUSH2 0x4D74 DUP2 PUSH2 0x3049 JUMP JUMPDEST SWAP3 SWAP2 POP POP JUMP JUMPDEST PUSH1 0x0 PUSH1 0x20 DUP3 DUP5 SUB SLT ISZERO PUSH2 0x4D90 JUMPI PUSH2 0x4D8F PUSH2 0x3013 JUMP JUMPDEST JUMPDEST PUSH1 0x0 PUSH2 0x4D9E DUP5 DUP3 DUP6 ADD PUSH2 0x4D65 JUMP JUMPDEST SWAP2 POP POP SWAP3 SWAP2 POP POP JUMP JUMPDEST PUSH32 0x4552433732313A206D696E7420746F20746865207A65726F2061646472657373 PUSH1 0x0 DUP3 ADD MSTORE POP JUMP JUMPDEST PUSH1 0x0 PUSH2 0x4DDD PUSH1 0x20 DUP4 PUSH2 0x30E3 JUMP JUMPDEST SWAP2 POP PUSH2 0x4DE8 DUP3 PUSH2 0x4DA7 JUMP JUMPDEST PUSH1 0x20 DUP3 ADD SWAP1 POP SWAP2 SWAP1 POP JUMP JUMPDEST PUSH1 0x0 PUSH1 0x20 DUP3 ADD SWAP1 POP DUP2 DUP2 SUB PUSH1 0x0 DUP4 ADD MSTORE PUSH2 0x4E0C DUP2 PUSH2 0x4DD0 JUMP JUMPDEST SWAP1 POP SWAP2 SWAP1 POP JUMP JUMPDEST PUSH32 0x4552433732313A20746F6B656E20616C7265616479206D696E74656400000000 PUSH1 0x0 DUP3 ADD MSTORE POP JUMP JUMPDEST PUSH1 0x0 PUSH2 0x4E49 PUSH1 0x1C DUP4 PUSH2 0x30E3 JUMP JUMPDEST SWAP2 POP PUSH2 0x4E54 DUP3 PUSH2 0x4E13 JUMP JUMPDEST PUSH1 0x20 DUP3 ADD SWAP1 POP SWAP2 SWAP1 POP JUMP JUMPDEST PUSH1 0x0 PUSH1 0x20 DUP3 ADD SWAP1 POP DUP2 DUP2 SUB PUSH1 0x0 DUP4 ADD MSTORE PUSH2 0x4E78 DUP2 PUSH2 0x4E3C JUMP JUMPDEST SWAP1 POP SWAP2 SWAP1 POP JUMP INVALID COINBASE TIMESTAMP NUMBER DIFFICULTY GASLIMIT CHAINID SELFBALANCE BASEFEE 0x49 0x4A 0x4B 0x4C 0x4D 0x4E 0x4F POP MLOAD MSTORE MSTORE8 SLOAD SSTORE JUMP JUMPI PC MSIZE GAS PUSH2 0x6263 PUSH5 0x6566676869 PUSH11 0x6B6C6D6E6F707172737475 PUSH23 0x7778797A303132333435363738392B2FA2646970667358 0x22 SLT KECCAK256 0x26 EXTCODESIZE SAR 0xA6 0xBD SLOAD 0xD5 LOG1 0xF6 0xE2 0xB0 SWAP7 PUSH11 0x7EA51D164381EAFA259809 0xA5 BALANCE PUSH12 0x520105EE3B64736F6C634300 ADDMOD GT STOP CALLER EXTCODECOPY PUSH20 0x766720786D6C6E733D22687474703A2F2F777777 0x2E PUSH24 0x332E6F72672F323030302F737667222077696474683D2232 CALLDATACOPY ADDRESS 0x22 KECCAK256 PUSH9 0x65696768743D223237 ADDRESS 0x22 KECCAK256 PUSH7 0x696C6C3D226E6F PUSH15 0x65223E3C6720636C69702D70617468 RETURNDATASIZE 0x22 PUSH22 0x726C2823636C6970305F325F3429223E3C7265637420 PUSH24 0x696474683D2232373022206865696768743D223237302220 PUSH7 0x696C6C3D227768 PUSH10 0x7465222F3E3C72656374 KECCAK256 PUSH24 0x696474683D2232373022206865696768743D223237302220 PUSH7 0x696C6C3D22222F RETURNDATACOPY EXTCODECOPY PUSH19 0x65637420783D223131332220793D2231323722 KECCAK256 PUSH24 0x696474683D22353722206865696768743D22343622206669 PUSH13 0x6C3D2275726C28237061747465 PUSH19 0x6E3029222F3E3C7265637420783D2239392220 PUSH26 0x3D223937222077696474683D22353422206865696768743D2234 CODESIZE 0x22 KECCAK256 PUSH7 0x696C6C3D227572 PUSH13 0x28237061747465726E3129222F RETURNDATACOPY EXTCODECOPY 0x2F PUSH8 0x3E3C646566733E3C PUSH17 0x61747465726E2069643D22706174746572 PUSH15 0x3022207061747465726E436F6E7465 PUSH15 0x74556E6974733D226F626A65637442 PUSH16 0x756E64696E67426F7822207769647468 RETURNDATASIZE 0x22 BALANCE 0x22 KECCAK256 PUSH9 0x65696768743D223122 RETURNDATACOPY EXTCODECOPY PUSH22 0x736520687265663D2223696D616765305F325F342220 PUSH21 0x72616E73666F726D3D227472616E736C6174652830 0x2E ADDRESS CODECOPY CALLDATASIZE CALLVALUE CODECOPY BALANCE ORIGIN 0x29 KECCAK256 PUSH20 0x63616C6528302E303038343036343320302E3031 ADDRESS CALLVALUE BALANCE CALLDATASIZE CALLDATACOPY 0x29 0x22 0x2F RETURNDATACOPY EXTCODECOPY 0x2F PUSH17 0x61747465726E3E3C7061747465726E2069 PUSH5 0x3D22706174 PUSH21 0x65726E3122207061747465726E436F6E74656E7455 PUSH15 0x6974733D226F626A656374426F756E PUSH5 0x696E67426F PUSH25 0x222077696474683D223122206865696768743D2231223E3C75 PUSH20 0x6520687265663D2223696D616765315F325F3422 KECCAK256 PUSH21 0x72616E73666F726D3D227472616E736C6174652830 0x2E ADDRESS CALLDATALOAD CALLDATALOAD CALLDATALOAD CALLDATALOAD CALLDATALOAD CALLDATASIZE 0x29 KECCAK256 PUSH20 0x63616C6528302E303039323539323620302E3031 ADDRESS CALLVALUE BALANCE CALLDATASIZE CALLDATACOPY 0x29 0x22 0x2F RETURNDATACOPY EXTCODECOPY 0x2F PUSH17 0x61747465726E3E3C636C69705061746820 PUSH10 0x643D22636C6970305F32 0x5F CALLVALUE 0x22 RETURNDATACOPY EXTCODECOPY PUSH19 0x6563742077696474683D223237302220686569 PUSH8 0x68743D2232373022 KECCAK256 PUSH7 0x696C6C3D227768 PUSH10 0x7465222F3E3C2F636C69 PUSH17 0x506174683E3C696D6167652069643D2269 PUSH14 0x616765305F325F34222077696474 PUSH9 0x3D2239362220686569 PUSH8 0x68743D2239362220 PUSH9 0x7265663D2264617461 GASPRICE PUSH10 0x6D6167652F706E673B62 PUSH2 0x7365 CALLDATASIZE CALLVALUE 0x2C PUSH10 0x56424F5277304B47676F COINBASE COINBASE COINBASE COINBASE 0x4E MSTORE8 SSTORE PUSH9 0x455567414141474141 COINBASE COINBASE TIMESTAMP PUSH8 0x4341594141414469 PUSH14 0x48633441414141426D4A4C523051 COINBASE 0x2F PUSH24 0x442F41502B67766165544141414471456C45515652346E4F ORIGIN PUSH5 0x4F57675655 MSTORE MSTORE COINBASE PUSH27 0x385445445156525551524249316A45526B456842446455304D4A57 GASLIMIT 0x4A PUSH21 0x3042745465306C3054437773334247307346525573 TIMESTAMP COINBASE SSTORE PUSH13 0x6C596970684943464161305355 CODESIZE JUMPI PUSH7 0x54534A69484975 PC PUSH11 0x7A484F2F374F2B64326535 TIMESTAMP ORIGIN CALLDATACOPY BALANCE MSIZE PUSH6 0x626563796476 0x4A PUSH22 0x2B3950783855463351417A34467859415A3442577758 PUSH27 0x616843644149317746385155326754724E4F4A75656F5879712F48 MSTORE8 CALLDATACOPY PUSH15 0x55796B2B596642387A48436B576943 0x4C PUSH7 0x4237354C4A5668 PUSH14 0x6F737233675764434F5A61574F50 0x4A PUSH19 0x7742615A4E4D764A5475416230655350593571 PUSH13 0x5A49544B4630546C43364C7942 JUMP BASEFEE CALLDATALOAD PUSH8 0x7168385156532B49 NUMBER PUSH17 0x66454A5576694D6F58524F554C6F764946 SSTORE PUSH7 0x6D437148784274 PUSH9 0x4B3868717679486645 MLOAD PUSH13 0x532F4B454370666C416C557669 PUSH9 0x684464676A6C316F31 PUSH14 0x4B4A3541315A6B65624B574C4139 JUMPI GASLIMIT PUSH19 0x79517A2F30735436594E2B4A38774A3739646E PUSH18 0x794B36462B414D453462304A726C77517041 0x4B CALLDATACOPY NUMBER PUSH26 0x77576531694D6649744146565952746D542F34766F7632583279 PUSH27 0x61484F6465654F4A73463477536939796D58327A697A4770476A62 TIMESTAMP CALLDATACOPY PUSH9 0x444B4844666B362F6B PUSH4 0x6B363247 PUSH15 0x48684D75697967717475543777464F BASEFEE PUSH5 0x5251536D2F 0x4C BASEFEE 0x4D 0x49 PUSH20 0x315367506979502B4A75542F556F396B4533446A PUSH24 0x474E6A6F727054696F577534677168385156532B51355944 PUSH6 0x7A4553323467 CALLER CALLDATALOAD PUSH18 0x76386C505141302F77564F6B4C343071484B PUSH27 0x34674C4A48393056506B7055666D4356454B2B79356D397063412B CALLVALUE NUMBER PUSH11 0x6D36575539734748757336 CODECOPY PUSH27 0x38525A34417877417A6955387A775277424268496B32795A574176 ADDRESS COINBASE PUSH17 0x50596D53496F354A5876676862674C4F48 CALLDATACOPY PUSH3 0x4C4B4D GASLIMIT PUSH2 0x7133 PUSH27 0x4272494F7377536F43767838324F58672F70797A57466746426E35 POP PUSH19 0x4462666F6E355A416C7741374E785355722B4A 0x4C DIFFICULTY 0x4D PUSH5 0x7146357041 POP CALLVALUE PUSH8 0x4A7A346570793058 JUMPI PUSH8 0x653665626661514B PUSH17 0x4F472B37304C7978436E69457650684B79 PUSH11 0x384944434D76766E4C7946 PUSH24 0x505867566E6B786676415262766C356F7432344233793075 PUSH7 0x48667173564F79 DIFFICULTY PUSH18 0x377568755942446F7370684C4567354A4A32 NUMBER PUSH3 0x316341 SLOAD CALLDATALOAD 0x4B 0x2F ADDRESS MSTORE PUSH21 0x467672335235756F417679457475466B5057716866 GASLIMIT PUSH24 0x7A785A354F56473279796D4C446B51355254795971504774 NUMBER SSTORE BASEFEE PUSH16 0x6E7843586D7A552B477A4A67544F436E PUSH16 0x4C616E5765526E464870424E49533149 COINBASE PUSH10 0x33646A65537965516C71 COINBASE SELFBALANCE CODECOPY DIFFICULTY PUSH15 0x50496A6D7670524F777852586B782F PUSH6 0x77474B506B63 0x2F 0x2B PC PUSH12 0x5A66634C436F784433514E65 PUSH5 0x46424D5931 GAS PUSH5 0x3634456552 PUSH26 0x4F7A6C69744F49663049532B3948763155394B75695635475858 PUSH24 0x4D32325334307A306A66453437624C7A482F534458686E6F PUSH23 0x69696B49766275562F7848784452706D487179624D6F44 CODECOPY CALLDATASIZE ORIGIN MSTORE COINBASE PC SLOAD ADDRESS PUSH6 0x6E6E56565451 DIFFICULTY PUSH27 0x674A76626B763643696A357878734E57455957434E777A6F4B6A51 PUSH7 0x63496A76357335 PUSH11 0x4E58306F4D736D7A434A63 PUSH6 0x356C77595075 GASLIMIT ADDRESS CALLDATASIZE 0x2B MLOAD POP PUSH16 0x65396C53345146335343612F426D7832 PUSH15 0x334C35534E714545784C4A6C685550 PUSH22 0x4574302B66646C30697733555A7377524D5A764A5666 0x2B GASLIMIT PUSH21 0x61454838414F7365777151677677674F414739416A PUSH14 0x56536B387A464C69494F5A314176 CALLER COINBASE 0x4D PUSH5 0x474D464556 MSTORE CHAINID GASLIMIT JUMPI MLOAD POP CALLDATASIZE PUSH24 0x7566744F6569446E744141414141456C46546B5375516D43 NUMBER 0x22 0x2F RETURNDATACOPY EXTCODECOPY PUSH10 0x6D6167652069643D2269 PUSH14 0x616765315F325F34222077696474 PUSH9 0x3D2239362220686569 PUSH8 0x68743D2239362220 PUSH9 0x7265663D2264617461 GASPRICE PUSH10 0x6D6167652F706E673B62 PUSH2 0x7365 CALLDATASIZE CALLVALUE 0x2C PUSH10 0x56424F5277304B47676F COINBASE COINBASE COINBASE COINBASE 0x4E MSTORE8 SSTORE PUSH9 0x455567414141474141 COINBASE COINBASE TIMESTAMP PUSH8 0x4341594141414469 PUSH14 0x48633441414141426D4A4C523051 COINBASE 0x2F PUSH24 0x442F41502B67766165544141414556306C45515652346E4F ORIGIN PUSH5 0x5359735653 MSTORE NUMBER COINBASE POP ORIGIN ORIGIN PUSH15 0x7355456432745A78785630504B7134 PUSH8 0x36726A67306E7231 0x49 PUSH11 0x4E6531482F67306173694B 0x4D CALLDATALOAD PUSH9 0x3844427A6D46386771 0x4F DIFFICULTY PUSH5 0x4255565150 COINBASE PUSH26 0x6F7543414B436F4A4C69394274747A497933646F653468574939 PUSH23 0x4B364B6A4D6A71696F2B4342343072374D694D696F694D PUSH26 0x4F7A366F486A4F49376A4F49376A4F45353439674E7667634641 CODESIZE PUSH8 0x4634414A77425669 PUSH2 0x306F CODECOPY MSTORE 0x4D TIMESTAMP CODESIZE CALLVALUE MSTORE PUSH27 0x676D5A6641622B426C72546D564A75516B64444A6C64784A7A524E PUSH19 0x476A344B365552565342304E4177414B354A61 SSTORE COINBASE BASEFEE PUSH2 0x6758 CODESIZE 0x49 CALLDATALOAD CALLVALUE MLOAD 0x2F ADDRESS CALLDATASIZE PUSH17 0x6648554A46772F3355696C654A454E4851 PUSH14 0x317A72436C49304368616C567A6B 0x2F CALLVALUE CALLDATACOPY SSTORE JUMP PUSH10 0x4D427562515847516855 PUSH5 0x7345746267 PUSH3 0x4A544E COINBASE JUMPI CODECOPY PUSH16 0x356F33566A4B4F5574774A36354E726E GAS 0x4D JUMPI PUSH3 0x515747 CALLVALUE NUMBER PUSH3 0x776957 0x4B CALLDATALOAD 0x2F CHAINID PUSH14 0x6A4861634152534C686B6F4B2B6C MSTORE8 MSTORE8 PUSH23 0x452F34443268543072527A7A79423846705A694F577038 PUSH21 0x2F467267663073784861327941306F524164613551 0x2F CALLVALUE SSTORE CODECOPY TIMESTAMP PUSH14 0x596C6C376C366A415A7166455857 MLOAD 0x2F PUSH20 0x54363731474C4763676A5A52664A316966687977 CALLDATACOPY 0x49 COINBASE PUSH10 0x2B54396A623441326173 PUSH20 0x566970636B7A4A656E72555A4143374168554675 PUSH14 0x5A304E5748624161475952445948 PUSH16 0x63734F714145506B2F59786432375453 PUSH19 0x574567486441427241375958464B734F324279 CALLVALUE POP PUSH5 0x506A674457 0x4B CHAINID 0x4F NUMBER CODESIZE POP TIMESTAMP ORIGIN COINBASE COINBASE CALLVALUE MSTORE CALLER PUSH8 0x4E6E79744D555546 DIFFICULTY 0x4C 0x2F GAS ADDRESS PUSH26 0x4D314735684C4470675336523254553948725443463467573434 PUSH6 0x546668486155 PUSH13 0x6A33453658797A35576C724B53 PUSH9 0x6D6E68345037496A59 PUSH7 0x69377135414477 PUSH4 0x57424557 PUSH17 0x44547A62465330434477504A6B314A5751 PUSH5 0x6354732F45 BALANCE POP PUSH13 0x615573704B4E55383356525A6F PUSH16 0x344F38484667474636514A6758353665 PUSH12 0x686D452B617A732F457A4F6C PUSH17 0x4B336443366A714E6D5848414865414163 0x4A PUSH6 0x304B63687365 JUMP PUSH18 0x446D4157346B635245464668495152765265 JUMP 0x4C BASEFEE PUSH25 0x48545567674F304E6B6F366C6135726A6C416E344D59714A73 PUSH19 0x543268455138675463574446526E745A327742 PUSH19 0x436E59444C672F6F346F4F3041375931793964 POP SLOAD PUSH5 0x5866414170 SLOAD 0x4C ADDRESS CODECOPY PUSH16 0x4F434830434C672B713677464E423877 BASEFEE CALLDATALOAD PUSH10 0x706550364F324474424F POP PUSH25 0x6B375565794843516D764E524E353065704B354F5636366A4F MLOAD TIMESTAMP PUSH9 0x334162654165385041 PUSH3 0x655A58 PUSH10 0x34754D69745473423265 POP PUSH5 0x4447784637 PUSH23 0x595A6B61345669396649437A3975417265515232623756 SLOAD SSTORE PUSH2 0x6851 CALLDATACOPY PUSH8 0x4948414236454E6E PUSH5 0x527454656F BASEFEE PUSH27 0x445276565639415A72634476794A74724E537161576A4B416C4642 0x2B MLOAD 0x2B PUSH14 0x4E76644F41553042584538705758 PUSH3 0x71416B ADDRESS PUSH8 0x4769453472634154 PUSH16 0x546D52636D6151504F4562456A5A366C PUSH26 0x4F784132314472386868596E724F506836555465472F41754C4A 0x49 DIFFICULTY PUSH24 0x4558654D756F3571776D7476514353334C3039772F45654E JUMP CODESIZE PC PUSH6 0x5473614A3362 PUSH27 0x454B73422F6935696538355039494E544233704338335551503450 PUSH16 0x3073744758586C334977444C67645170 0x4B CALLVALUE GASLIMIT PUSH6 0x5435354B5434 DIFFICULTY PUSH26 0x694D39774F49632F54306B6E636A5052326B625652627049304B BALANCE PUSH5 0x7A58773149 TIMESTAMP PUSH25 0x3175554A7343706E4834394B473341432B476A415547767945 SLOAD PUSH10 0x4F504A55666E562B4150 0x2F NUMBER PUSH2 0x3047 NUMBER PUSH11 0x443034332B695135626342 PUSH9 0x344472314B30646641 PUSH24 0x355273506757636B64734A7241504762433359576A544968 DIFFICULTY PUSH23 0x6742764974507769556F5975544B77747958484976752F ORIGIN PUSH9 0x6D796A664675536235 COINBASE 0x4F PUSH23 0x3446452B43506B3767394B4C41634D5254747943476F46 SSTORE PUSH18 0x374E5068636D31754E377570484F66666A4E CALLDATALOAD CALLDATACOPY 0x4F SELFBALANCE MSTORE GASLIMIT PUSH7 0x5438497A4A7742 PUSH25 0x6B454A754E524D6F4D5946626A622B3349527442454A4E2F2B TIMESTAMP GASLIMIT PUSH25 0x435676465A6A656F393841565A712F516A5438423851736F6F CALLER PUSH4 0x6950784C BALANCE SELFBALANCE ADDRESS PUSH12 0x595863754C684C6641536D62 0x4D CALLDATACOPY PUSH11 0x754D346A754D346A754D6B CALLVALUE PUSH26 0x75514732742B35696D54536741414141424A52553545726B4A67 PUSH8 0x673D3D222F3E3C2F PUSH5 0x6566733E3C PUSH21 0x65787420783D223530252220793D22383025222064 PUSH16 0x6D696E616E742D626173656C696E653D 0x22 PUSH14 0x6964646C652220746578742D616E PUSH4 0x686F723D 0x22 PUSH14 0x6964646C652220666F6E742D7369 PUSH27 0x653D223135222066696C6C3D22626C61636B2220666F6E742D6661 PUSH14 0x696C793D22506C7573204A616B61 PUSH19 0x74612053616E732C44656A6156752053616E73 0x2C 0x4E PUSH16 0x746F20436F6C6F7220456D6F6A692C41 PUSH17 0x706C6520436F6C6F7220456D6F6A692C73 PUSH2 0x6E73 0x2D PUSH20 0x657269662220666F6E742D7765696768743D2262 PUSH16 0x6C64223E000000000000000000000000 "},"methodIdentifiers":{"applyToHogwarts(string,uint256)":"c60ce348","approve(address,uint256)":"095ea7b3","balanceOf(address)":"70a08231","domainTracker(address)":"abe50fa6","domains(string)":"26449235","getAddress(string)":"bf40fac1","getAllNames()":"fb825e5f","getApproved(uint256)":"081812fc","getRecord(string)":"11dd8845","gryffindorColor()":"79137275","gryffindorSld()":"fa626f6b","hufflepuffColor()":"b5140057","hufflepuffSld()":"08b13a1d","isApprovedForAll(address,address)":"e985e9c5","isOwner()":"8f32d59b","name()":"06fdde03","names(uint256)":"4622ab03","ownerOf(uint256)":"6352211e","ravenclawColor()":"d3cbcfea","ravenclawSld()":"7ddd5dd8","records(string)":"541e771d","safeTransferFrom(address,address,uint256)":"42842e0e","safeTransferFrom(address,address,uint256,bytes)":"b88d4fde","setApprovalForAll(address,bool)":"a22cb465","setRecord(string,string)":"c1880a98","slytherinColor()":"0b912301","slytherinSld()":"73eea211","supportsInterface(bytes4)":"01ffc9a7","symbol()":"95d89b41","tld()":"2d551432","tokenURI(uint256)":"c87b56dd","transferFrom(address,address,uint256)":"23b872dd","valid(string)":"9791c097","withdraw()":"3ccfd60b"}}}}}