{
  "_format": "hh-sol-artifact-1",
  "contractName": "HogwartsStudentsService",
  "sourceName": "contracts/HogwartsStudentsService.sol",
  "abi": [
    {
      "inputs": [],
      "stateMutability": "payable",
      "type": "constructor"
    },
    {
      "anonymous": false,
      "inputs": [
        {
          "indexed": true,
          "internalType": "address",
          "name": "owner",
          "type": "address"
        },
        {
          "indexed": true,
          "internalType": "address",
          "name": "approved",
          "type": "address"
        },
        {
          "indexed": true,
          "internalType": "uint256",
          "name": "tokenId",
          "type": "uint256"
        }
      ],
      "name": "Approval",
      "type": "event"
    },
    {
      "anonymous": false,
      "inputs": [
        {
          "indexed": true,
          "internalType": "address",
          "name": "owner",
          "type": "address"
        },
        {
          "indexed": true,
          "internalType": "address",
          "name": "operator",
          "type": "address"
        },
        {
          "indexed": false,
          "internalType": "bool",
          "name": "approved",
          "type": "bool"
        }
      ],
      "name": "ApprovalForAll",
      "type": "event"
    },
    {
      "anonymous": false,
      "inputs": [
        {
          "indexed": true,
          "internalType": "address",
          "name": "from",
          "type": "address"
        },
        {
          "indexed": true,
          "internalType": "address",
          "name": "to",
          "type": "address"
        },
        {
          "indexed": true,
          "internalType": "uint256",
          "name": "tokenId",
          "type": "uint256"
        }
      ],
      "name": "Transfer",
      "type": "event"
    },
    {
      "anonymous": false,
      "inputs": [
        {
          "indexed": true,
          "internalType": "address",
          "name": "newcomer",
          "type": "address"
        },
        {
          "indexed": false,
          "internalType": "string",
          "name": "name",
          "type": "string"
        },
        {
          "indexed": false,
          "internalType": "string",
          "name": "faculty",
          "type": "string"
        }
      ],
      "name": "WelcomeToHogwarts",
      "type": "event"
    },
    {
      "inputs": [
        {
          "internalType": "string",
          "name": "name",
          "type": "string"
        },
        {
          "internalType": "string",
          "name": "patronus",
          "type": "string"
        },
        {
          "internalType": "uint256",
          "name": "nonce",
          "type": "uint256"
        }
      ],
      "name": "applyToHogwarts",
      "outputs": [],
      "stateMutability": "payable",
      "type": "function"
    },
    {
      "inputs": [
        {
          "internalType": "address",
          "name": "to",
          "type": "address"
        },
        {
          "internalType": "uint256",
          "name": "tokenId",
          "type": "uint256"
        }
      ],
      "name": "approve",
      "outputs": [],
      "stateMutability": "nonpayable",
      "type": "function"
    },
    {
      "inputs": [
        {
          "internalType": "address",
          "name": "owner",
          "type": "address"
        }
      ],
      "name": "balanceOf",
      "outputs": [
        {
          "internalType": "uint256",
          "name": "",
          "type": "uint256"
        }
      ],
      "stateMutability": "view",
      "type": "function"
    },
    {
      "inputs": [
        {
          "internalType": "address",
          "name": "",
          "type": "address"
        }
      ],
      "name": "domainTracker",
      "outputs": [
        {
          "internalType": "bool",
          "name": "",
          "type": "bool"
        }
      ],
      "stateMutability": "view",
      "type": "function"
    },
    {
      "inputs": [
        {
          "internalType": "string",
          "name": "",
          "type": "string"
        }
      ],
      "name": "domains",
      "outputs": [
        {
          "internalType": "address",
          "name": "",
          "type": "address"
        }
      ],
      "stateMutability": "view",
      "type": "function"
    },
    {
      "inputs": [
        {
          "internalType": "string",
          "name": "name",
          "type": "string"
        }
      ],
      "name": "getAddress",
      "outputs": [
        {
          "internalType": "address",
          "name": "",
          "type": "address"
        }
      ],
      "stateMutability": "view",
      "type": "function"
    },
    {
      "inputs": [],
      "name": "getAllNames",
      "outputs": [
        {
          "internalType": "string[]",
          "name": "",
          "type": "string[]"
        }
      ],
      "stateMutability": "view",
      "type": "function"
    },
    {
      "inputs": [
        {
          "internalType": "uint256",
          "name": "tokenId",
          "type": "uint256"
        }
      ],
      "name": "getApproved",
      "outputs": [
        {
          "internalType": "address",
          "name": "",
          "type": "address"
        }
      ],
      "stateMutability": "view",
      "type": "function"
    },
    {
      "inputs": [
        {
          "internalType": "string",
          "name": "name",
          "type": "string"
        }
      ],
      "name": "getRecord",
      "outputs": [
        {
          "components": [
            {
              "internalType": "string",
              "name": "domain",
              "type": "string"
            },
            {
              "internalType": "uint256",
              "name": "applicationDate",
              "type": "uint256"
            },
            {
              "internalType": "string",
              "name": "faculty",
              "type": "string"
            },
            {
              "internalType": "string",
              "name": "patronus",
              "type": "string"
            },
            {
              "internalType": "address",
              "name": "applicant",
              "type": "address"
            }
          ],
          "internalType": "struct HogwartsStudentsService.HogwartsStudent",
          "name": "",
          "type": "tuple"
        }
      ],
      "stateMutability": "view",
      "type": "function"
    },
    {
      "inputs": [],
      "name": "gryffindorID",
      "outputs": [
        {
          "internalType": "string",
          "name": "",
          "type": "string"
        }
      ],
      "stateMutability": "view",
      "type": "function"
    },
    {
      "inputs": [],
      "name": "gryffindorSld",
      "outputs": [
        {
          "internalType": "string",
          "name": "",
          "type": "string"
        }
      ],
      "stateMutability": "view",
      "type": "function"
    },
    {
      "inputs": [],
      "name": "hufflepuffID",
      "outputs": [
        {
          "internalType": "string",
          "name": "",
          "type": "string"
        }
      ],
      "stateMutability": "view",
      "type": "function"
    },
    {
      "inputs": [],
      "name": "hufflepuffSld",
      "outputs": [
        {
          "internalType": "string",
          "name": "",
          "type": "string"
        }
      ],
      "stateMutability": "view",
      "type": "function"
    },
    {
      "inputs": [
        {
          "internalType": "address",
          "name": "owner",
          "type": "address"
        },
        {
          "internalType": "address",
          "name": "operator",
          "type": "address"
        }
      ],
      "name": "isApprovedForAll",
      "outputs": [
        {
          "internalType": "bool",
          "name": "",
          "type": "bool"
        }
      ],
      "stateMutability": "view",
      "type": "function"
    },
    {
      "inputs": [],
      "name": "isOwner",
      "outputs": [
        {
          "internalType": "bool",
          "name": "",
          "type": "bool"
        }
      ],
      "stateMutability": "view",
      "type": "function"
    },
    {
      "inputs": [],
      "name": "name",
      "outputs": [
        {
          "internalType": "string",
          "name": "",
          "type": "string"
        }
      ],
      "stateMutability": "view",
      "type": "function"
    },
    {
      "inputs": [
        {
          "internalType": "uint256",
          "name": "",
          "type": "uint256"
        }
      ],
      "name": "names",
      "outputs": [
        {
          "internalType": "string",
          "name": "",
          "type": "string"
        }
      ],
      "stateMutability": "view",
      "type": "function"
    },
    {
      "inputs": [
        {
          "internalType": "uint256",
          "name": "tokenId",
          "type": "uint256"
        }
      ],
      "name": "ownerOf",
      "outputs": [
        {
          "internalType": "address",
          "name": "",
          "type": "address"
        }
      ],
      "stateMutability": "view",
      "type": "function"
    },
    {
      "inputs": [],
      "name": "ravenclawID",
      "outputs": [
        {
          "internalType": "string",
          "name": "",
          "type": "string"
        }
      ],
      "stateMutability": "view",
      "type": "function"
    },
    {
      "inputs": [],
      "name": "ravenclawSld",
      "outputs": [
        {
          "internalType": "string",
          "name": "",
          "type": "string"
        }
      ],
      "stateMutability": "view",
      "type": "function"
    },
    {
      "inputs": [
        {
          "internalType": "string",
          "name": "",
          "type": "string"
        }
      ],
      "name": "records",
      "outputs": [
        {
          "internalType": "string",
          "name": "domain",
          "type": "string"
        },
        {
          "internalType": "uint256",
          "name": "applicationDate",
          "type": "uint256"
        },
        {
          "internalType": "string",
          "name": "faculty",
          "type": "string"
        },
        {
          "internalType": "string",
          "name": "patronus",
          "type": "string"
        },
        {
          "internalType": "address",
          "name": "applicant",
          "type": "address"
        }
      ],
      "stateMutability": "view",
      "type": "function"
    },
    {
      "inputs": [
        {
          "internalType": "address",
          "name": "from",
          "type": "address"
        },
        {
          "internalType": "address",
          "name": "to",
          "type": "address"
        },
        {
          "internalType": "uint256",
          "name": "tokenId",
          "type": "uint256"
        }
      ],
      "name": "safeTransferFrom",
      "outputs": [],
      "stateMutability": "nonpayable",
      "type": "function"
    },
    {
      "inputs": [
        {
          "internalType": "address",
          "name": "from",
          "type": "address"
        },
        {
          "internalType": "address",
          "name": "to",
          "type": "address"
        },
        {
          "internalType": "uint256",
          "name": "tokenId",
          "type": "uint256"
        },
        {
          "internalType": "bytes",
          "name": "data",
          "type": "bytes"
        }
      ],
      "name": "safeTransferFrom",
      "outputs": [],
      "stateMutability": "nonpayable",
      "type": "function"
    },
    {
      "inputs": [
        {
          "internalType": "address",
          "name": "operator",
          "type": "address"
        },
        {
          "internalType": "bool",
          "name": "approved",
          "type": "bool"
        }
      ],
      "name": "setApprovalForAll",
      "outputs": [],
      "stateMutability": "nonpayable",
      "type": "function"
    },
    {
      "inputs": [],
      "name": "slytherinID",
      "outputs": [
        {
          "internalType": "string",
          "name": "",
          "type": "string"
        }
      ],
      "stateMutability": "view",
      "type": "function"
    },
    {
      "inputs": [],
      "name": "slytherinSld",
      "outputs": [
        {
          "internalType": "string",
          "name": "",
          "type": "string"
        }
      ],
      "stateMutability": "view",
      "type": "function"
    },
    {
      "inputs": [
        {
          "internalType": "bytes4",
          "name": "interfaceId",
          "type": "bytes4"
        }
      ],
      "name": "supportsInterface",
      "outputs": [
        {
          "internalType": "bool",
          "name": "",
          "type": "bool"
        }
      ],
      "stateMutability": "view",
      "type": "function"
    },
    {
      "inputs": [],
      "name": "symbol",
      "outputs": [
        {
          "internalType": "string",
          "name": "",
          "type": "string"
        }
      ],
      "stateMutability": "view",
      "type": "function"
    },
    {
      "inputs": [],
      "name": "tld",
      "outputs": [
        {
          "internalType": "string",
          "name": "",
          "type": "string"
        }
      ],
      "stateMutability": "view",
      "type": "function"
    },
    {
      "inputs": [
        {
          "internalType": "uint256",
          "name": "tokenId",
          "type": "uint256"
        }
      ],
      "name": "tokenURI",
      "outputs": [
        {
          "internalType": "string",
          "name": "",
          "type": "string"
        }
      ],
      "stateMutability": "view",
      "type": "function"
    },
    {
      "inputs": [
        {
          "internalType": "address",
          "name": "from",
          "type": "address"
        },
        {
          "internalType": "address",
          "name": "to",
          "type": "address"
        },
        {
          "internalType": "uint256",
          "name": "tokenId",
          "type": "uint256"
        }
      ],
      "name": "transferFrom",
      "outputs": [],
      "stateMutability": "nonpayable",
      "type": "function"
    },
    {
      "inputs": [
        {
          "internalType": "string",
          "name": "name",
          "type": "string"
        }
      ],
      "name": "valid",
      "outputs": [
        {
          "internalType": "bool",
          "name": "",
          "type": "bool"
        }
      ],
      "stateMutability": "pure",
      "type": "function"
    },
    {
      "inputs": [],
      "name": "withdraw",
      "outputs": [],
      "stateMutability": "nonpayable",
      "type": "function"
    }
  ],
  "bytecode": "0x608060405266038d7ea4c680006008556040518060400160405280601981526020017f486f6777617274732053747564656e74732053657276696365000000000000008152506040518060400160405280600381526020017f485353000000000000000000000000000000000000000000000000000000000081525081600090816200008c919062000362565b5080600190816200009e919062000362565b50505033600960006101000a81548173ffffffffffffffffffffffffffffffffffffffff021916908373ffffffffffffffffffffffffffffffffffffffff16021790555062000449565b600081519050919050565b7f4e487b7100000000000000000000000000000000000000000000000000000000600052604160045260246000fd5b7f4e487b7100000000000000000000000000000000000000000000000000000000600052602260045260246000fd5b600060028204905060018216806200016a57607f821691505b60208210810362000180576200017f62000122565b5b50919050565b60008190508160005260206000209050919050565b60006020601f8301049050919050565b600082821b905092915050565b600060088302620001ea7fffffffffffffffffffffffffffffffffffffffffffffffffffffffffffffffff82620001ab565b620001f68683620001ab565b95508019841693508086168417925050509392505050565b6000819050919050565b6000819050919050565b6000620002436200023d62000237846200020e565b62000218565b6200020e565b9050919050565b6000819050919050565b6200025f8362000222565b620002776200026e826200024a565b848454620001b8565b825550505050565b600090565b6200028e6200027f565b6200029b81848462000254565b505050565b5b81811015620002c357620002b760008262000284565b600181019050620002a1565b5050565b601f8211156200031257620002dc8162000186565b620002e7846200019b565b81016020851015620002f7578190505b6200030f62000306856200019b565b830182620002a0565b50505b505050565b600082821c905092915050565b6000620003376000198460080262000317565b1980831691505092915050565b600062000352838362000324565b9150826002028217905092915050565b6200036d82620000e8565b67ffffffffffffffff811115620003895762000388620000f3565b5b62000395825462000151565b620003a2828285620002c7565b600060209050601f831160018114620003da5760008415620003c5578287015190505b620003d1858262000344565b86555062000441565b601f198416620003ea8662000186565b60005b828110156200041457848901518255600182019150602085019450602081019050620003ed565b8683101562000434578489015162000430601f89168262000324565b8355505b6001600288020188555050505b505050505050565b614d6280620004596000396000f3fe6080604052600436106101ee5760003560e01c806368bd026c1161010d578063abe50fa6116100a0578063c9b4c1601161006f578063c9b4c16014610756578063e985e9c514610781578063f61722dc146107be578063fa626f6b146107e9578063fb825e5f14610814576101ee565b8063abe50fa614610676578063b88d4fde146106b3578063bf40fac1146106dc578063c87b56dd14610719576101ee565b80638f32d59b116100dc5780638f32d59b146105ba57806395d89b41146105e55780639791c09714610610578063a22cb4651461064d576101ee565b806368bd026c1461050b57806370a082311461052757806373eea211146105645780637ddd5dd81461058f576101ee565b80632d55143211610185578063537bd37111610154578063537bd37114610437578063541e771d146104625780635bf1d9dc146104a35780636352211e146104ce576101ee565b80632d5514321461038f5780633ccfd60b146103ba57806342842e0e146103d15780634622ab03146103fa576101ee565b8063095ea7b3116101c1578063095ea7b3146102c357806311dd8845146102ec57806323b872dd146103295780632644923514610352576101ee565b806301ffc9a7146101f357806306fdde0314610230578063081812fc1461025b57806308b13a1d14610298575b600080fd5b3480156101ff57600080fd5b5061021a60048036038101906102159190613137565b61083f565b604051610227919061317f565b60405180910390f35b34801561023c57600080fd5b50610245610921565b604051610252919061322a565b60405180910390f35b34801561026757600080fd5b50610282600480360381019061027d9190613282565b6109b3565b60405161028f91906132f0565b60405180910390f35b3480156102a457600080fd5b506102ad6109f9565b6040516102ba919061322a565b60405180910390f35b3480156102cf57600080fd5b506102ea60048036038101906102e59190613337565b610a32565b005b3480156102f857600080fd5b50610313600480360381019061030e91906133dc565b610b49565b6040516103209190613515565b60405180910390f35b34801561033557600080fd5b50610350600480360381019061034b9190613537565b610d9a565b005b34801561035e57600080fd5b50610379600480360381019061037491906136ba565b610dfa565b60405161038691906132f0565b60405180910390f35b34801561039b57600080fd5b506103a4610e43565b6040516103b1919061322a565b60405180910390f35b3480156103c657600080fd5b506103cf610e7c565b005b3480156103dd57600080fd5b506103f860048036038101906103f39190613537565b610f42565b005b34801561040657600080fd5b50610421600480360381019061041c9190613282565b610f62565b60405161042e919061322a565b60405180910390f35b34801561044357600080fd5b5061044c611002565b604051610459919061322a565b60405180910390f35b34801561046e57600080fd5b50610489600480360381019061048491906136ba565b61101e565b60405161049a959493929190613712565b60405180910390f35b3480156104af57600080fd5b506104b8611222565b6040516104c5919061322a565b60405180910390f35b3480156104da57600080fd5b506104f560048036038101906104f09190613282565b61123e565b60405161050291906132f0565b60405180910390f35b6105256004803603810190610520919061377a565b6112ef565b005b34801561053357600080fd5b5061054e6004803603810190610549919061380f565b6116c0565b60405161055b919061383c565b60405180910390f35b34801561057057600080fd5b50610579611777565b604051610586919061322a565b60405180910390f35b34801561059b57600080fd5b506105a46117b0565b6040516105b1919061322a565b60405180910390f35b3480156105c657600080fd5b506105cf6117e9565b6040516105dc919061317f565b60405180910390f35b3480156105f157600080fd5b506105fa611841565b604051610607919061322a565b60405180910390f35b34801561061c57600080fd5b50610637600480360381019061063291906133dc565b6118d3565b604051610644919061317f565b60405180910390f35b34801561065957600080fd5b50610674600480360381019061066f9190613883565b611987565b005b34801561068257600080fd5b5061069d6004803603810190610698919061380f565b61199d565b6040516106aa919061317f565b60405180910390f35b3480156106bf57600080fd5b506106da60048036038101906106d59190613964565b6119bd565b005b3480156106e857600080fd5b5061070360048036038101906106fe91906133dc565b611a1f565b60405161071091906132f0565b60405180910390f35b34801561072557600080fd5b50610740600480360381019061073b9190613282565b611a6a565b60405161074d919061322a565b60405180910390f35b34801561076257600080fd5b5061076b611b7c565b604051610778919061322a565b60405180910390f35b34801561078d57600080fd5b506107a860048036038101906107a391906139e7565b611b98565b6040516107b5919061317f565b60405180910390f35b3480156107ca57600080fd5b506107d3611c2c565b6040516107e0919061322a565b60405180910390f35b3480156107f557600080fd5b506107fe611c48565b60405161080b919061322a565b60405180910390f35b34801561082057600080fd5b50610829611c81565b6040516108369190613ae9565b60405180910390f35b60007f80ac58cd000000000000000000000000000000000000000000000000000000007bffffffffffffffffffffffffffffffffffffffffffffffffffffffff1916827bffffffffffffffffffffffffffffffffffffffffffffffffffffffff1916148061090a57507f5b5e139f000000000000000000000000000000000000000000000000000000007bffffffffffffffffffffffffffffffffffffffffffffffffffffffff1916827bffffffffffffffffffffffffffffffffffffffffffffffffffffffff1916145b8061091a575061091982611dc7565b5b9050919050565b60606000805461093090613b3a565b80601f016020809104026020016040519081016040528092919081815260200182805461095c90613b3a565b80156109a95780601f1061097e576101008083540402835291602001916109a9565b820191906000526020600020905b81548152906001019060200180831161098c57829003601f168201915b5050505050905090565b60006109be82611e31565b6004600083815260200190815260200160002060009054906101000a900473ffffffffffffffffffffffffffffffffffffffff169050919050565b6040518060400160405280600a81526020017f687566666c65707566660000000000000000000000000000000000000000000081525081565b6000610a3d8261123e565b90508073ffffffffffffffffffffffffffffffffffffffff168373ffffffffffffffffffffffffffffffffffffffff1603610aad576040517f08c379a0000000000000000000000000000000000000000000000000000000008152600401610aa490613bdd565b60405180910390fd5b8073ffffffffffffffffffffffffffffffffffffffff16610acc611e7c565b73ffffffffffffffffffffffffffffffffffffffff161480610afb5750610afa81610af5611e7c565b611b98565b5b610b3a576040517f08c379a0000000000000000000000000000000000000000000000000000000008152600401610b3190613c6f565b60405180910390fd5b610b448383611e84565b505050565b610b51613086565b600b8383604051610b63929190613cbf565b90815260200160405180910390206040518060a0016040529081600082018054610b8c90613b3a565b80601f0160208091040260200160405190810160405280929190818152602001828054610bb890613b3a565b8015610c055780601f10610bda57610100808354040283529160200191610c05565b820191906000526020600020905b815481529060010190602001808311610be857829003601f168201915b5050505050815260200160018201548152602001600282018054610c2890613b3a565b80601f0160208091040260200160405190810160405280929190818152602001828054610c5490613b3a565b8015610ca15780601f10610c7657610100808354040283529160200191610ca1565b820191906000526020600020905b815481529060010190602001808311610c8457829003601f168201915b50505050508152602001600382018054610cba90613b3a565b80601f0160208091040260200160405190810160405280929190818152602001828054610ce690613b3a565b8015610d335780601f10610d0857610100808354040283529160200191610d33565b820191906000526020600020905b815481529060010190602001808311610d1657829003601f168201915b505050505081526020016004820160009054906101000a900473ffffffffffffffffffffffffffffffffffffffff1673ffffffffffffffffffffffffffffffffffffffff1673ffffffffffffffffffffffffffffffffffffffff1681525050905092915050565b610dab610da5611e7c565b82611f3d565b610dea576040517f08c379a0000000000000000000000000000000000000000000000000000000008152600401610de190613d4a565b60405180910390fd5b610df5838383611fd2565b505050565b600a818051602081018201805184825260208301602085012081835280955050505050506000915054906101000a900473ffffffffffffffffffffffffffffffffffffffff1681565b6040518060400160405280600681526020017f686777727473000000000000000000000000000000000000000000000000000081525081565b610e846117e9565b610e8d57600080fd5b600047905060003373ffffffffffffffffffffffffffffffffffffffff1682604051610eb890613d9b565b60006040518083038185875af1925050503d8060008114610ef5576040519150601f19603f3d011682016040523d82523d6000602084013e610efa565b606091505b5050905080610f3e576040517f08c379a0000000000000000000000000000000000000000000000000000000008152600401610f3590613dfc565b60405180910390fd5b5050565b610f5d838383604051806020016040528060008152506119bd565b505050565b600d6020528060005260406000206000915090508054610f8190613b3a565b80601f0160208091040260200160405190810160405280929190818152602001828054610fad90613b3a565b8015610ffa5780601f10610fcf57610100808354040283529160200191610ffa565b820191906000526020600020905b815481529060010190602001808311610fdd57829003601f168201915b505050505081565b6040518060600160405280602e8152602001614c75602e913981565b600b8180516020810182018051848252602083016020850120818352809550505050505060009150905080600001805461105790613b3a565b80601f016020809104026020016040519081016040528092919081815260200182805461108390613b3a565b80156110d05780601f106110a5576101008083540402835291602001916110d0565b820191906000526020600020905b8154815290600101906020018083116110b357829003601f168201915b5050505050908060010154908060020180546110eb90613b3a565b80601f016020809104026020016040519081016040528092919081815260200182805461111790613b3a565b80156111645780601f1061113957610100808354040283529160200191611164565b820191906000526020600020905b81548152906001019060200180831161114757829003601f168201915b50505050509080600301805461117990613b3a565b80601f01602080910402602001604051908101604052809291908181526020018280546111a590613b3a565b80156111f25780601f106111c7576101008083540402835291602001916111f2565b820191906000526020600020905b8154815290600101906020018083116111d557829003601f168201915b5050505050908060040160009054906101000a900473ffffffffffffffffffffffffffffffffffffffff16905085565b6040518060600160405280602e8152602001614cd1602e913981565b6000806002600084815260200190815260200160002060009054906101000a900473ffffffffffffffffffffffffffffffffffffffff169050600073ffffffffffffffffffffffffffffffffffffffff168173ffffffffffffffffffffffffffffffffffffffff16036112e6576040517f08c379a00000000000000000000000000000000000000000000000000000000081526004016112dd90613e68565b60405180910390fd5b80915050919050565b600073ffffffffffffffffffffffffffffffffffffffff16600a8686604051611319929190613cbf565b908152602001604051809103902060009054906101000a900473ffffffffffffffffffffffffffffffffffffffff1673ffffffffffffffffffffffffffffffffffffffff161461139e576040517f08c379a000000000000000000000000000000000000000000000000000000000815260040161139590613ed4565b60405180910390fd5b6113a885856118d3565b6113e7576040517f08c379a00000000000000000000000000000000000000000000000000000000081526004016113de90613f40565b60405180910390fd5b600c60003373ffffffffffffffffffffffffffffffffffffffff1673ffffffffffffffffffffffffffffffffffffffff16815260200190815260200160002060009054906101000a900460ff1615611474576040517f08c379a000000000000000000000000000000000000000000000000000000000815260040161146b90613fac565b60405180910390fd5b6008543410156114b9576040517f08c379a00000000000000000000000000000000000000000000000000000000081526004016114b090614018565b60405180910390fd5b60006114c482612238565b90506000806114d28361227d565b9150915060008888846040518060400160405280600681526020017f686777727473000000000000000000000000000000000000000000000000000081525060405160200161152494939291906140b5565b604051602081830303815290604052905060006115416007612440565b905061154d338261244e565b6115768184604051602001611562919061414a565b60405160208183030381529060405261246c565b33600a83604051611587919061416c565b908152602001604051809103902060006101000a81548173ffffffffffffffffffffffffffffffffffffffff021916908373ffffffffffffffffffffffffffffffffffffffff1602179055506001600c60003373ffffffffffffffffffffffffffffffffffffffff1673ffffffffffffffffffffffffffffffffffffffff16815260200190815260200160002060006101000a81548160ff02191690831515021790555081600d6000838152602001908152602001600020908161164b919061432f565b50611658828989876124d9565b61166260076126c0565b3373ffffffffffffffffffffffffffffffffffffffff167f78fc4bd5049206a33e22e356ba7ae0cff1f598eef8b69790fde01de4562a95da8b8b876040516116ac9392919061442e565b60405180910390a250505050505050505050565b60008073ffffffffffffffffffffffffffffffffffffffff168273ffffffffffffffffffffffffffffffffffffffff1603611730576040517f08c379a0000000000000000000000000000000000000000000000000000000008152600401611727906144d9565b60405180910390fd5b600360008373ffffffffffffffffffffffffffffffffffffffff1673ffffffffffffffffffffffffffffffffffffffff168152602001908152602001600020549050919050565b6040518060400160405280600981526020017f736c7974686572696e000000000000000000000000000000000000000000000081525081565b6040518060400160405280600981526020017f726176656e636c6177000000000000000000000000000000000000000000000081525081565b6000600960009054906101000a900473ffffffffffffffffffffffffffffffffffffffff1673ffffffffffffffffffffffffffffffffffffffff163373ffffffffffffffffffffffffffffffffffffffff1614905090565b60606001805461185090613b3a565b80601f016020809104026020016040519081016040528092919081815260200182805461187c90613b3a565b80156118c95780601f1061189e576101008083540402835291602001916118c9565b820191906000526020600020905b8154815290600101906020018083116118ac57829003601f168201915b5050505050905090565b6000600361192484848080601f016020809104026020016040519081016040528093929190818152602001838380828437600081840152601f19601f820116905080830192505050505050506126d6565b1015801561197f5750601461197c84848080601f016020809104026020016040519081016040528093929190818152602001838380828437600081840152601f19601f820116905080830192505050505050506126d6565b11155b905092915050565b611999611992611e7c565b838361288b565b5050565b600c6020528060005260406000206000915054906101000a900460ff1681565b6119ce6119c8611e7c565b83611f3d565b611a0d576040517f08c379a0000000000000000000000000000000000000000000000000000000008152600401611a0490613d4a565b60405180910390fd5b611a19848484846129f7565b50505050565b6000600a8383604051611a33929190613cbf565b908152602001604051809103902060009054906101000a900473ffffffffffffffffffffffffffffffffffffffff16905092915050565b6060611a7582611e31565b6000600660008481526020019081526020016000208054611a9590613b3a565b80601f0160208091040260200160405190810160405280929190818152602001828054611ac190613b3a565b8015611b0e5780601f10611ae357610100808354040283529160200191611b0e565b820191906000526020600020905b815481529060010190602001808311611af157829003601f168201915b505050505090506000611b1f612a53565b90506000815103611b34578192505050611b77565b600082511115611b69578082604051602001611b519291906144f9565b60405160208183030381529060405292505050611b77565b611b7284612a6a565b925050505b919050565b6040518060600160405280602e8152602001614ca3602e913981565b6000600560008473ffffffffffffffffffffffffffffffffffffffff1673ffffffffffffffffffffffffffffffffffffffff16815260200190815260200160002060008373ffffffffffffffffffffffffffffffffffffffff1673ffffffffffffffffffffffffffffffffffffffff16815260200190815260200160002060009054906101000a900460ff16905092915050565b6040518060600160405280602e8152602001614cff602e913981565b6040518060400160405280600a81526020017f6772796666696e646f720000000000000000000000000000000000000000000081525081565b60606000611c8f6007612440565b67ffffffffffffffff811115611ca857611ca761358f565b5b604051908082528060200260200182016040528015611cdb57816020015b6060815260200190600190039081611cc65790505b50905060005b611ceb6007612440565b811015611dbf57600d60008281526020019081526020016000208054611d1090613b3a565b80601f0160208091040260200160405190810160405280929190818152602001828054611d3c90613b3a565b8015611d895780601f10611d5e57610100808354040283529160200191611d89565b820191906000526020600020905b815481529060010190602001808311611d6c57829003601f168201915b5050505050828281518110611da157611da061451d565b5b60200260200101819052508080611db79061457b565b915050611ce1565b508091505090565b60007f01ffc9a7000000000000000000000000000000000000000000000000000000007bffffffffffffffffffffffffffffffffffffffffffffffffffffffff1916827bffffffffffffffffffffffffffffffffffffffffffffffffffffffff1916149050919050565b611e3a81612ad2565b611e79576040517f08c379a0000000000000000000000000000000000000000000000000000000008152600401611e7090613e68565b60405180910390fd5b50565b600033905090565b816004600083815260200190815260200160002060006101000a81548173ffffffffffffffffffffffffffffffffffffffff021916908373ffffffffffffffffffffffffffffffffffffffff160217905550808273ffffffffffffffffffffffffffffffffffffffff16611ef78361123e565b73ffffffffffffffffffffffffffffffffffffffff167f8c5be1e5ebec7d5bd14f71427d1e84f3dd0314c0f7b2291e5b200ac8c7c3b92560405160405180910390a45050565b600080611f498361123e565b90508073ffffffffffffffffffffffffffffffffffffffff168473ffffffffffffffffffffffffffffffffffffffff161480611f8b5750611f8a8185611b98565b5b80611fc957508373ffffffffffffffffffffffffffffffffffffffff16611fb1846109b3565b73ffffffffffffffffffffffffffffffffffffffff16145b91505092915050565b8273ffffffffffffffffffffffffffffffffffffffff16611ff28261123e565b73ffffffffffffffffffffffffffffffffffffffff1614612048576040517f08c379a000000000000000000000000000000000000000000000000000000000815260040161203f90614635565b60405180910390fd5b600073ffffffffffffffffffffffffffffffffffffffff168273ffffffffffffffffffffffffffffffffffffffff16036120b7576040517f08c379a00000000000000000000000000000000000000000000000000000000081526004016120ae906146c7565b60405180910390fd5b6120c2838383612b3e565b6120cd600082611e84565b6001600360008573ffffffffffffffffffffffffffffffffffffffff1673ffffffffffffffffffffffffffffffffffffffff168152602001908152602001600020600082825461211d91906146e7565b925050819055506001600360008473ffffffffffffffffffffffffffffffffffffffff1673ffffffffffffffffffffffffffffffffffffffff1681526020019081526020016000206000828254612174919061471b565b92505081905550816002600083815260200190815260200160002060006101000a81548173ffffffffffffffffffffffffffffffffffffffff021916908373ffffffffffffffffffffffffffffffffffffffff160217905550808273ffffffffffffffffffffffffffffffffffffffff168473ffffffffffffffffffffffffffffffffffffffff167fddf252ad1be2c89b69c2b068fc378daa952ba7f163c4a11628f55a4df523b3ef60405160405180910390a4612233838383612b43565b505050565b600060644283443360405160200161225394939291906147b8565b6040516020818303038152906040528051906020012060001c6122769190614835565b9050919050565b60608060008310158015612292575060198311155b156122ef576040518060400160405280600a81526020017f6772796666696e646f720000000000000000000000000000000000000000000081525091506040518060600160405280602e8152602001614cd1602e9139905061243b565b601a8310158015612301575060328311155b1561235e576040518060400160405280600981526020017f736c7974686572696e000000000000000000000000000000000000000000000081525091506040518060600160405280602e8152602001614cff602e9139905061243a565b603383101580156123705750604b8311155b156123cd576040518060400160405280600a81526020017f687566666c65707566660000000000000000000000000000000000000000000081525091506040518060600160405280602e8152602001614ca3602e91399050612439565b604c83101580156123df575060648311155b15612438576040518060400160405280600981526020017f726176656e636c6177000000000000000000000000000000000000000000000081525091506040518060600160405280602e8152602001614c75602e913990505b5b5b5b915091565b600081600001549050919050565b612468828260405180602001604052806000815250612b48565b5050565b61247582612ad2565b6124b4576040517f08c379a00000000000000000000000000000000000000000000000000000000081526004016124ab906148d8565b60405180910390fd5b806006600084815260200190815260200160002090816124d4919061432f565b505050565b600a846040516124e9919061416c565b908152602001604051809103902060009054906101000a900473ffffffffffffffffffffffffffffffffffffffff1673ffffffffffffffffffffffffffffffffffffffff163373ffffffffffffffffffffffffffffffffffffffff1614612585576040517f08c379a000000000000000000000000000000000000000000000000000000000815260040161257c9061496a565b60405180910390fd5b6040518060a0016040528085815260200142815260200182815260200184848080601f016020809104026020016040519081016040528093929190818152602001838380828437600081840152601f19601f8201169050808301925050505050505081526020013373ffffffffffffffffffffffffffffffffffffffff16815250600b85604051612616919061416c565b90815260200160405180910390206000820151816000019081612639919061432f565b50602082015181600101556040820151816002019081612659919061432f565b50606082015181600301908161266f919061432f565b5060808201518160040160006101000a81548173ffffffffffffffffffffffffffffffffffffffff021916908373ffffffffffffffffffffffffffffffffffffffff16021790555090505050505050565b6001816000016000828254019250508190555050565b60008060008084519050600092505b808210156128805760008583815181106127025761270161451d565b5b602001015160f81c60f81b9050608060f81b817effffffffffffffffffffffffffffffffffffffffffffffffffffffffffffff191610156127515760018361274a919061471b565b925061286c565b60e060f81b817effffffffffffffffffffffffffffffffffffffffffffffffffffffffffffff191610156127935760028361278c919061471b565b925061286b565b60f060f81b817effffffffffffffffffffffffffffffffffffffffffffffffffffffffffffff191610156127d5576003836127ce919061471b565b925061286a565b60f8801b817effffffffffffffffffffffffffffffffffffffffffffffffffffffffffffff191610156128165760048361280f919061471b565b9250612869565b60fc60f81b817effffffffffffffffffffffffffffffffffffffffffffffffffffffffffffff1916101561285857600583612851919061471b565b9250612868565b600683612865919061471b565b92505b5b5b5b5b5082806128789061457b565b9350506126e5565b829350505050919050565b8173ffffffffffffffffffffffffffffffffffffffff168373ffffffffffffffffffffffffffffffffffffffff16036128f9576040517f08c379a00000000000000000000000000000000000000000000000000000000081526004016128f0906149d6565b60405180910390fd5b80600560008573ffffffffffffffffffffffffffffffffffffffff1673ffffffffffffffffffffffffffffffffffffffff16815260200190815260200160002060008473ffffffffffffffffffffffffffffffffffffffff1673ffffffffffffffffffffffffffffffffffffffff16815260200190815260200160002060006101000a81548160ff0219169083151502179055508173ffffffffffffffffffffffffffffffffffffffff168373ffffffffffffffffffffffffffffffffffffffff167f17307eab39ab6107e8899845ad3d59bd9653f200f220920489ca2b5937696c31836040516129ea919061317f565b60405180910390a3505050565b612a02848484611fd2565b612a0e84848484612ba3565b612a4d576040517f08c379a0000000000000000000000000000000000000000000000000000000008152600401612a4490614a68565b60405180910390fd5b50505050565b606060405180602001604052806000815250905090565b6060612a7582611e31565b6000612a7f612a53565b90506000815111612a9f5760405180602001604052806000815250612aca565b80612aa984612d2a565b604051602001612aba9291906144f9565b6040516020818303038152906040525b915050919050565b60008073ffffffffffffffffffffffffffffffffffffffff166002600084815260200190815260200160002060009054906101000a900473ffffffffffffffffffffffffffffffffffffffff1673ffffffffffffffffffffffffffffffffffffffff1614159050919050565b505050565b505050565b612b528383612e8a565b612b5f6000848484612ba3565b612b9e576040517f08c379a0000000000000000000000000000000000000000000000000000000008152600401612b9590614a68565b60405180910390fd5b505050565b6000612bc48473ffffffffffffffffffffffffffffffffffffffff16613063565b15612d1d578373ffffffffffffffffffffffffffffffffffffffff1663150b7a02612bed611e7c565b8786866040518563ffffffff1660e01b8152600401612c0f9493929190614add565b6020604051808303816000875af1925050508015612c4b57506040513d601f19601f82011682018060405250810190612c489190614b3e565b60015b612ccd573d8060008114612c7b576040519150601f19603f3d011682016040523d82523d6000602084013e612c80565b606091505b506000815103612cc5576040517f08c379a0000000000000000000000000000000000000000000000000000000008152600401612cbc90614a68565b60405180910390fd5b805181602001fd5b63150b7a0260e01b7bffffffffffffffffffffffffffffffffffffffffffffffffffffffff1916817bffffffffffffffffffffffffffffffffffffffffffffffffffffffff191614915050612d22565b600190505b949350505050565b606060008203612d71576040518060400160405280600181526020017f30000000000000000000000000000000000000000000000000000000000000008152509050612e85565b600082905060005b60008214612da3578080612d8c9061457b565b915050600a82612d9c9190614b6b565b9150612d79565b60008167ffffffffffffffff811115612dbf57612dbe61358f565b5b6040519080825280601f01601f191660200182016040528015612df15781602001600182028036833780820191505090505b5090505b60008514612e7e57600182612e0a91906146e7565b9150600a85612e199190614835565b6030612e25919061471b565b60f81b818381518110612e3b57612e3a61451d565b5b60200101907effffffffffffffffffffffffffffffffffffffffffffffffffffffffffffff1916908160001a905350600a85612e779190614b6b565b9450612df5565b8093505050505b919050565b600073ffffffffffffffffffffffffffffffffffffffff168273ffffffffffffffffffffffffffffffffffffffff1603612ef9576040517f08c379a0000000000000000000000000000000000000000000000000000000008152600401612ef090614be8565b60405180910390fd5b612f0281612ad2565b15612f42576040517f08c379a0000000000000000000000000000000000000000000000000000000008152600401612f3990614c54565b60405180910390fd5b612f4e60008383612b3e565b6001600360008473ffffffffffffffffffffffffffffffffffffffff1673ffffffffffffffffffffffffffffffffffffffff1681526020019081526020016000206000828254612f9e919061471b565b92505081905550816002600083815260200190815260200160002060006101000a81548173ffffffffffffffffffffffffffffffffffffffff021916908373ffffffffffffffffffffffffffffffffffffffff160217905550808273ffffffffffffffffffffffffffffffffffffffff16600073ffffffffffffffffffffffffffffffffffffffff167fddf252ad1be2c89b69c2b068fc378daa952ba7f163c4a11628f55a4df523b3ef60405160405180910390a461305f60008383612b43565b5050565b6000808273ffffffffffffffffffffffffffffffffffffffff163b119050919050565b6040518060a0016040528060608152602001600081526020016060815260200160608152602001600073ffffffffffffffffffffffffffffffffffffffff1681525090565b6000604051905090565b600080fd5b600080fd5b60007fffffffff0000000000000000000000000000000000000000000000000000000082169050919050565b613114816130df565b811461311f57600080fd5b50565b6000813590506131318161310b565b92915050565b60006020828403121561314d5761314c6130d5565b5b600061315b84828501613122565b91505092915050565b60008115159050919050565b61317981613164565b82525050565b60006020820190506131946000830184613170565b92915050565b600081519050919050565b600082825260208201905092915050565b60005b838110156131d45780820151818401526020810190506131b9565b60008484015250505050565b6000601f19601f8301169050919050565b60006131fc8261319a565b61320681856131a5565b93506132168185602086016131b6565b61321f816131e0565b840191505092915050565b6000602082019050818103600083015261324481846131f1565b905092915050565b6000819050919050565b61325f8161324c565b811461326a57600080fd5b50565b60008135905061327c81613256565b92915050565b600060208284031215613298576132976130d5565b5b60006132a68482850161326d565b91505092915050565b600073ffffffffffffffffffffffffffffffffffffffff82169050919050565b60006132da826132af565b9050919050565b6132ea816132cf565b82525050565b600060208201905061330560008301846132e1565b92915050565b613314816132cf565b811461331f57600080fd5b50565b6000813590506133318161330b565b92915050565b6000806040838503121561334e5761334d6130d5565b5b600061335c85828601613322565b925050602061336d8582860161326d565b9150509250929050565b600080fd5b600080fd5b600080fd5b60008083601f84011261339c5761339b613377565b5b8235905067ffffffffffffffff8111156133b9576133b861337c565b5b6020830191508360018202830111156133d5576133d4613381565b5b9250929050565b600080602083850312156133f3576133f26130d5565b5b600083013567ffffffffffffffff811115613411576134106130da565b5b61341d85828601613386565b92509250509250929050565b600082825260208201905092915050565b60006134458261319a565b61344f8185613429565b935061345f8185602086016131b6565b613468816131e0565b840191505092915050565b61347c8161324c565b82525050565b61348b816132cf565b82525050565b600060a08301600083015184820360008601526134ae828261343a565b91505060208301516134c36020860182613473565b50604083015184820360408601526134db828261343a565b915050606083015184820360608601526134f5828261343a565b915050608083015161350a6080860182613482565b508091505092915050565b6000602082019050818103600083015261352f8184613491565b905092915050565b6000806000606084860312156135505761354f6130d5565b5b600061355e86828701613322565b935050602061356f86828701613322565b92505060406135808682870161326d565b9150509250925092565b600080fd5b7f4e487b7100000000000000000000000000000000000000000000000000000000600052604160045260246000fd5b6135c7826131e0565b810181811067ffffffffffffffff821117156135e6576135e561358f565b5b80604052505050565b60006135f96130cb565b905061360582826135be565b919050565b600067ffffffffffffffff8211156136255761362461358f565b5b61362e826131e0565b9050602081019050919050565b82818337600083830152505050565b600061365d6136588461360a565b6135ef565b9050828152602081018484840111156136795761367861358a565b5b61368484828561363b565b509392505050565b600082601f8301126136a1576136a0613377565b5b81356136b184826020860161364a565b91505092915050565b6000602082840312156136d0576136cf6130d5565b5b600082013567ffffffffffffffff8111156136ee576136ed6130da565b5b6136fa8482850161368c565b91505092915050565b61370c8161324c565b82525050565b600060a082019050818103600083015261372c81886131f1565b905061373b6020830187613703565b818103604083015261374d81866131f1565b9050818103606083015261376181856131f1565b905061377060808301846132e1565b9695505050505050565b600080600080600060608688031215613796576137956130d5565b5b600086013567ffffffffffffffff8111156137b4576137b36130da565b5b6137c088828901613386565b9550955050602086013567ffffffffffffffff8111156137e3576137e26130da565b5b6137ef88828901613386565b935093505060406138028882890161326d565b9150509295509295909350565b600060208284031215613825576138246130d5565b5b600061383384828501613322565b91505092915050565b60006020820190506138516000830184613703565b92915050565b61386081613164565b811461386b57600080fd5b50565b60008135905061387d81613857565b92915050565b6000806040838503121561389a576138996130d5565b5b60006138a885828601613322565b92505060206138b98582860161386e565b9150509250929050565b600067ffffffffffffffff8211156138de576138dd61358f565b5b6138e7826131e0565b9050602081019050919050565b6000613907613902846138c3565b6135ef565b9050828152602081018484840111156139235761392261358a565b5b61392e84828561363b565b509392505050565b600082601f83011261394b5761394a613377565b5b813561395b8482602086016138f4565b91505092915050565b6000806000806080858703121561397e5761397d6130d5565b5b600061398c87828801613322565b945050602061399d87828801613322565b93505060406139ae8782880161326d565b925050606085013567ffffffffffffffff8111156139cf576139ce6130da565b5b6139db87828801613936565b91505092959194509250565b600080604083850312156139fe576139fd6130d5565b5b6000613a0c85828601613322565b9250506020613a1d85828601613322565b9150509250929050565b600081519050919050565b600082825260208201905092915050565b6000819050602082019050919050565b6000613a5f838361343a565b905092915050565b6000602082019050919050565b6000613a7f82613a27565b613a898185613a32565b935083602082028501613a9b85613a43565b8060005b85811015613ad75784840389528151613ab88582613a53565b9450613ac383613a67565b925060208a01995050600181019050613a9f565b50829750879550505050505092915050565b60006020820190508181036000830152613b038184613a74565b905092915050565b7f4e487b7100000000000000000000000000000000000000000000000000000000600052602260045260246000fd5b60006002820490506001821680613b5257607f821691505b602082108103613b6557613b64613b0b565b5b50919050565b7f4552433732313a20617070726f76616c20746f2063757272656e74206f776e6560008201527f7200000000000000000000000000000000000000000000000000000000000000602082015250565b6000613bc76021836131a5565b9150613bd282613b6b565b604082019050919050565b60006020820190508181036000830152613bf681613bba565b9050919050565b7f4552433732313a20617070726f76652063616c6c6572206973206e6f7420746f60008201527f6b656e206f776e6572206e6f7220617070726f76656420666f7220616c6c0000602082015250565b6000613c59603e836131a5565b9150613c6482613bfd565b604082019050919050565b60006020820190508181036000830152613c8881613c4c565b9050919050565b600081905092915050565b6000613ca68385613c8f565b9350613cb383858461363b565b82840190509392505050565b6000613ccc828486613c9a565b91508190509392505050565b7f4552433732313a2063616c6c6572206973206e6f7420746f6b656e206f776e6560008201527f72206e6f7220617070726f766564000000000000000000000000000000000000602082015250565b6000613d34602e836131a5565b9150613d3f82613cd8565b604082019050919050565b60006020820190508181036000830152613d6381613d27565b9050919050565b600081905092915050565b50565b6000613d85600083613d6a565b9150613d9082613d75565b600082019050919050565b6000613da682613d78565b9150819050919050565b7f4661696c656420746f207769746864726177204d617469630000000000000000600082015250565b6000613de66018836131a5565b9150613df182613db0565b602082019050919050565b60006020820190508181036000830152613e1581613dd9565b9050919050565b7f4552433732313a20696e76616c696420746f6b656e2049440000000000000000600082015250565b6000613e526018836131a5565b9150613e5d82613e1c565b602082019050919050565b60006020820190508181036000830152613e8181613e45565b9050919050565b7f4e616d6520616c72656164792065786973747300000000000000000000000000600082015250565b6000613ebe6013836131a5565b9150613ec982613e88565b602082019050919050565b60006020820190508181036000830152613eed81613eb1565b9050919050565b7f496e76616c6964206e616d650000000000000000000000000000000000000000600082015250565b6000613f2a600c836131a5565b9150613f3582613ef4565b602082019050919050565b60006020820190508181036000830152613f5981613f1d565b9050919050565b7f4164647265737320616c7265616479206170706c696564000000000000000000600082015250565b6000613f966017836131a5565b9150613fa182613f60565b602082019050919050565b60006020820190508181036000830152613fc581613f89565b9050919050565b7f4e6f7420656e6f756768204d6174696320706169640000000000000000000000600082015250565b60006140026015836131a5565b915061400d82613fcc565b602082019050919050565b6000602082019050818103600083015261403181613ff5565b9050919050565b7f2e00000000000000000000000000000000000000000000000000000000000000600082015250565b600061406e600183613c8f565b915061407982614038565b600182019050919050565b600061408f8261319a565b6140998185613c8f565b93506140a98185602086016131b6565b80840191505092915050565b60006140c2828688613c9a565b91506140cd82614061565b91506140d98285614084565b91506140e482614061565b91506140f08284614084565b915081905095945050505050565b7f697066733a2f2f00000000000000000000000000000000000000000000000000600082015250565b6000614134600783613c8f565b915061413f826140fe565b600782019050919050565b600061415582614127565b91506141618284614084565b915081905092915050565b60006141788284614084565b915081905092915050565b60008190508160005260206000209050919050565b60006020601f8301049050919050565b600082821b905092915050565b6000600883026141e57fffffffffffffffffffffffffffffffffffffffffffffffffffffffffffffffff826141a8565b6141ef86836141a8565b95508019841693508086168417925050509392505050565b6000819050919050565b600061422c6142276142228461324c565b614207565b61324c565b9050919050565b6000819050919050565b61424683614211565b61425a61425282614233565b8484546141b5565b825550505050565b600090565b61426f614262565b61427a81848461423d565b505050565b5b8181101561429e57614293600082614267565b600181019050614280565b5050565b601f8211156142e3576142b481614183565b6142bd84614198565b810160208510156142cc578190505b6142e06142d885614198565b83018261427f565b50505b505050565b600082821c905092915050565b6000614306600019846008026142e8565b1980831691505092915050565b600061431f83836142f5565b9150826002028217905092915050565b6143388261319a565b67ffffffffffffffff8111156143515761435061358f565b5b61435b8254613b3a565b6143668282856142a2565b600060209050601f8311600181146143995760008415614387578287015190505b6143918582614313565b8655506143f9565b601f1984166143a786614183565b60005b828110156143cf578489015182556001820191506020850194506020810190506143aa565b868310156143ec57848901516143e8601f8916826142f5565b8355505b6001600288020188555050505b505050505050565b600061440d83856131a5565b935061441a83858461363b565b614423836131e0565b840190509392505050565b60006040820190508181036000830152614449818587614401565b9050818103602083015261445d81846131f1565b9050949350505050565b7f4552433732313a2061646472657373207a65726f206973206e6f74206120766160008201527f6c6964206f776e65720000000000000000000000000000000000000000000000602082015250565b60006144c36029836131a5565b91506144ce82614467565b604082019050919050565b600060208201905081810360008301526144f2816144b6565b9050919050565b60006145058285614084565b91506145118284614084565b91508190509392505050565b7f4e487b7100000000000000000000000000000000000000000000000000000000600052603260045260246000fd5b7f4e487b7100000000000000000000000000000000000000000000000000000000600052601160045260246000fd5b60006145868261324c565b91507fffffffffffffffffffffffffffffffffffffffffffffffffffffffffffffffff82036145b8576145b761454c565b5b600182019050919050565b7f4552433732313a207472616e736665722066726f6d20696e636f72726563742060008201527f6f776e6572000000000000000000000000000000000000000000000000000000602082015250565b600061461f6025836131a5565b915061462a826145c3565b604082019050919050565b6000602082019050818103600083015261464e81614612565b9050919050565b7f4552433732313a207472616e7366657220746f20746865207a65726f2061646460008201527f7265737300000000000000000000000000000000000000000000000000000000602082015250565b60006146b16024836131a5565b91506146bc82614655565b604082019050919050565b600060208201905081810360008301526146e0816146a4565b9050919050565b60006146f28261324c565b91506146fd8361324c565b92508282039050818111156147155761471461454c565b5b92915050565b60006147268261324c565b91506147318361324c565b92508282019050808211156147495761474861454c565b5b92915050565b6000819050919050565b61476a6147658261324c565b61474f565b82525050565b60008160601b9050919050565b600061478882614770565b9050919050565b600061479a8261477d565b9050919050565b6147b26147ad826132cf565b61478f565b82525050565b60006147c48287614759565b6020820191506147d48286614759565b6020820191506147e48285614759565b6020820191506147f482846147a1565b60148201915081905095945050505050565b7f4e487b7100000000000000000000000000000000000000000000000000000000600052601260045260246000fd5b60006148408261324c565b915061484b8361324c565b92508261485b5761485a614806565b5b828206905092915050565b7f45524337323155524953746f726167653a2055524920736574206f66206e6f6e60008201527f6578697374656e7420746f6b656e000000000000000000000000000000000000602082015250565b60006148c2602e836131a5565b91506148cd82614866565b604082019050919050565b600060208201905081810360008301526148f1816148b5565b9050919050565b7f4e6f207065726d697373696f6e20746f206d6f6469667920746865207265636f60008201527f7264000000000000000000000000000000000000000000000000000000000000602082015250565b60006149546022836131a5565b915061495f826148f8565b604082019050919050565b6000602082019050818103600083015261498381614947565b9050919050565b7f4552433732313a20617070726f766520746f2063616c6c657200000000000000600082015250565b60006149c06019836131a5565b91506149cb8261498a565b602082019050919050565b600060208201905081810360008301526149ef816149b3565b9050919050565b7f4552433732313a207472616e7366657220746f206e6f6e20455243373231526560008201527f63656976657220696d706c656d656e7465720000000000000000000000000000602082015250565b6000614a526032836131a5565b9150614a5d826149f6565b604082019050919050565b60006020820190508181036000830152614a8181614a45565b9050919050565b600081519050919050565b600082825260208201905092915050565b6000614aaf82614a88565b614ab98185614a93565b9350614ac98185602086016131b6565b614ad2816131e0565b840191505092915050565b6000608082019050614af260008301876132e1565b614aff60208301866132e1565b614b0c6040830185613703565b8181036060830152614b1e8184614aa4565b905095945050505050565b600081519050614b388161310b565b92915050565b600060208284031215614b5457614b536130d5565b5b6000614b6284828501614b29565b91505092915050565b6000614b768261324c565b9150614b818361324c565b925082614b9157614b90614806565b5b828204905092915050565b7f4552433732313a206d696e7420746f20746865207a65726f2061646472657373600082015250565b6000614bd26020836131a5565b9150614bdd82614b9c565b602082019050919050565b60006020820190508181036000830152614c0181614bc5565b9050919050565b7f4552433732313a20746f6b656e20616c7265616479206d696e74656400000000600082015250565b6000614c3e601c836131a5565b9150614c4982614c08565b602082019050919050565b60006020820190508181036000830152614c6d81614c31565b905091905056fe516d5a455a31457035776743556b567a33314133474c54526b524b34576670416e335a43585a664d367673414868516d5a4c77724d707a55417534674a453972595a53727331374e767548324539695859655279584465416144444d516d6275357756583479726d7854384650477042767456624762344a71644d76715747596d623131314541557675516d6445765177527741685a456d57615955656777634a73357479565557513345617a4b7831435436646135557aa2646970667358221220a21f73cc125e9e00ad758d860ed99ce8a030fb95e445cbfc37d48af91398575b64736f6c63430008110033",
  "linkReferences": {},
  "deployedLinkReferences": {}
}