{
  "_format": "hh-sol-artifact-1",
  "contractName": "HogwartsStudentsService",
  "sourceName": "contracts/HogwartsStudentsService.sol",
  "abi": [
    {
      "inputs": [],
      "stateMutability": "payable",
      "type": "constructor"
    },
    {
      "inputs": [],
      "name": "AlreadyRegistered",
      "type": "error"
    },
    {
      "inputs": [
        {
          "internalType": "string",
          "name": "name",
          "type": "string"
        }
      ],
      "name": "InvalidName",
      "type": "error"
    },
    {
      "inputs": [],
      "name": "Unauthorized",
      "type": "error"
    },
    {
      "anonymous": false,
      "inputs": [
        {
          "indexed": true,
          "internalType": "address",
          "name": "owner",
          "type": "address"
        },
        {
          "indexed": true,
          "internalType": "address",
          "name": "approved",
          "type": "address"
        },
        {
          "indexed": true,
          "internalType": "uint256",
          "name": "tokenId",
          "type": "uint256"
        }
      ],
      "name": "Approval",
      "type": "event"
    },
    {
      "anonymous": false,
      "inputs": [
        {
          "indexed": true,
          "internalType": "address",
          "name": "owner",
          "type": "address"
        },
        {
          "indexed": true,
          "internalType": "address",
          "name": "operator",
          "type": "address"
        },
        {
          "indexed": false,
          "internalType": "bool",
          "name": "approved",
          "type": "bool"
        }
      ],
      "name": "ApprovalForAll",
      "type": "event"
    },
    {
      "anonymous": false,
      "inputs": [
        {
          "indexed": true,
          "internalType": "address",
          "name": "from",
          "type": "address"
        },
        {
          "indexed": true,
          "internalType": "address",
          "name": "to",
          "type": "address"
        },
        {
          "indexed": true,
          "internalType": "uint256",
          "name": "tokenId",
          "type": "uint256"
        }
      ],
      "name": "Transfer",
      "type": "event"
    },
    {
      "inputs": [
        {
          "internalType": "address",
          "name": "to",
          "type": "address"
        },
        {
          "internalType": "uint256",
          "name": "tokenId",
          "type": "uint256"
        }
      ],
      "name": "approve",
      "outputs": [],
      "stateMutability": "nonpayable",
      "type": "function"
    },
    {
      "inputs": [
        {
          "internalType": "address",
          "name": "owner",
          "type": "address"
        }
      ],
      "name": "balanceOf",
      "outputs": [
        {
          "internalType": "uint256",
          "name": "",
          "type": "uint256"
        }
      ],
      "stateMutability": "view",
      "type": "function"
    },
    {
      "inputs": [
        {
          "internalType": "string",
          "name": "",
          "type": "string"
        }
      ],
      "name": "domains",
      "outputs": [
        {
          "internalType": "address",
          "name": "",
          "type": "address"
        }
      ],
      "stateMutability": "view",
      "type": "function"
    },
    {
      "inputs": [
        {
          "internalType": "string",
          "name": "name",
          "type": "string"
        }
      ],
      "name": "getAddress",
      "outputs": [
        {
          "internalType": "address",
          "name": "",
          "type": "address"
        }
      ],
      "stateMutability": "view",
      "type": "function"
    },
    {
      "inputs": [],
      "name": "getAllNames",
      "outputs": [
        {
          "internalType": "string[]",
          "name": "",
          "type": "string[]"
        }
      ],
      "stateMutability": "view",
      "type": "function"
    },
    {
      "inputs": [
        {
          "internalType": "uint256",
          "name": "tokenId",
          "type": "uint256"
        }
      ],
      "name": "getApproved",
      "outputs": [
        {
          "internalType": "address",
          "name": "",
          "type": "address"
        }
      ],
      "stateMutability": "view",
      "type": "function"
    },
    {
      "inputs": [
        {
          "internalType": "string",
          "name": "name",
          "type": "string"
        }
      ],
      "name": "getRecord",
      "outputs": [
        {
          "internalType": "string",
          "name": "",
          "type": "string"
        }
      ],
      "stateMutability": "view",
      "type": "function"
    },
    {
      "inputs": [],
      "name": "gryffindorColor",
      "outputs": [
        {
          "internalType": "string",
          "name": "",
          "type": "string"
        }
      ],
      "stateMutability": "view",
      "type": "function"
    },
    {
      "inputs": [],
      "name": "gryffindorSld",
      "outputs": [
        {
          "internalType": "string",
          "name": "",
          "type": "string"
        }
      ],
      "stateMutability": "view",
      "type": "function"
    },
    {
      "inputs": [],
      "name": "hufflepuffColor",
      "outputs": [
        {
          "internalType": "string",
          "name": "",
          "type": "string"
        }
      ],
      "stateMutability": "view",
      "type": "function"
    },
    {
      "inputs": [],
      "name": "hufflepuffSld",
      "outputs": [
        {
          "internalType": "string",
          "name": "",
          "type": "string"
        }
      ],
      "stateMutability": "view",
      "type": "function"
    },
    {
      "inputs": [
        {
          "internalType": "address",
          "name": "owner",
          "type": "address"
        },
        {
          "internalType": "address",
          "name": "operator",
          "type": "address"
        }
      ],
      "name": "isApprovedForAll",
      "outputs": [
        {
          "internalType": "bool",
          "name": "",
          "type": "bool"
        }
      ],
      "stateMutability": "view",
      "type": "function"
    },
    {
      "inputs": [],
      "name": "isOwner",
      "outputs": [
        {
          "internalType": "bool",
          "name": "",
          "type": "bool"
        }
      ],
      "stateMutability": "view",
      "type": "function"
    },
    {
      "inputs": [],
      "name": "name",
      "outputs": [
        {
          "internalType": "string",
          "name": "",
          "type": "string"
        }
      ],
      "stateMutability": "view",
      "type": "function"
    },
    {
      "inputs": [
        {
          "internalType": "uint256",
          "name": "",
          "type": "uint256"
        }
      ],
      "name": "names",
      "outputs": [
        {
          "internalType": "string",
          "name": "",
          "type": "string"
        }
      ],
      "stateMutability": "view",
      "type": "function"
    },
    {
      "inputs": [
        {
          "internalType": "uint256",
          "name": "tokenId",
          "type": "uint256"
        }
      ],
      "name": "ownerOf",
      "outputs": [
        {
          "internalType": "address",
          "name": "",
          "type": "address"
        }
      ],
      "stateMutability": "view",
      "type": "function"
    },
    {
      "inputs": [],
      "name": "ravenclawColor",
      "outputs": [
        {
          "internalType": "string",
          "name": "",
          "type": "string"
        }
      ],
      "stateMutability": "view",
      "type": "function"
    },
    {
      "inputs": [],
      "name": "ravenclawSld",
      "outputs": [
        {
          "internalType": "string",
          "name": "",
          "type": "string"
        }
      ],
      "stateMutability": "view",
      "type": "function"
    },
    {
      "inputs": [
        {
          "internalType": "string",
          "name": "",
          "type": "string"
        }
      ],
      "name": "records",
      "outputs": [
        {
          "internalType": "string",
          "name": "",
          "type": "string"
        }
      ],
      "stateMutability": "view",
      "type": "function"
    },
    {
      "inputs": [
        {
          "internalType": "string",
          "name": "name",
          "type": "string"
        },
        {
          "internalType": "uint256",
          "name": "nonce",
          "type": "uint256"
        }
      ],
      "name": "register",
      "outputs": [],
      "stateMutability": "payable",
      "type": "function"
    },
    {
      "inputs": [
        {
          "internalType": "address",
          "name": "from",
          "type": "address"
        },
        {
          "internalType": "address",
          "name": "to",
          "type": "address"
        },
        {
          "internalType": "uint256",
          "name": "tokenId",
          "type": "uint256"
        }
      ],
      "name": "safeTransferFrom",
      "outputs": [],
      "stateMutability": "nonpayable",
      "type": "function"
    },
    {
      "inputs": [
        {
          "internalType": "address",
          "name": "from",
          "type": "address"
        },
        {
          "internalType": "address",
          "name": "to",
          "type": "address"
        },
        {
          "internalType": "uint256",
          "name": "tokenId",
          "type": "uint256"
        },
        {
          "internalType": "bytes",
          "name": "data",
          "type": "bytes"
        }
      ],
      "name": "safeTransferFrom",
      "outputs": [],
      "stateMutability": "nonpayable",
      "type": "function"
    },
    {
      "inputs": [
        {
          "internalType": "address",
          "name": "operator",
          "type": "address"
        },
        {
          "internalType": "bool",
          "name": "approved",
          "type": "bool"
        }
      ],
      "name": "setApprovalForAll",
      "outputs": [],
      "stateMutability": "nonpayable",
      "type": "function"
    },
    {
      "inputs": [
        {
          "internalType": "string",
          "name": "name",
          "type": "string"
        },
        {
          "internalType": "string",
          "name": "record",
          "type": "string"
        }
      ],
      "name": "setRecord",
      "outputs": [],
      "stateMutability": "nonpayable",
      "type": "function"
    },
    {
      "inputs": [],
      "name": "slytherinColor",
      "outputs": [
        {
          "internalType": "string",
          "name": "",
          "type": "string"
        }
      ],
      "stateMutability": "view",
      "type": "function"
    },
    {
      "inputs": [],
      "name": "slytherinSld",
      "outputs": [
        {
          "internalType": "string",
          "name": "",
          "type": "string"
        }
      ],
      "stateMutability": "view",
      "type": "function"
    },
    {
      "inputs": [
        {
          "internalType": "bytes4",
          "name": "interfaceId",
          "type": "bytes4"
        }
      ],
      "name": "supportsInterface",
      "outputs": [
        {
          "internalType": "bool",
          "name": "",
          "type": "bool"
        }
      ],
      "stateMutability": "view",
      "type": "function"
    },
    {
      "inputs": [],
      "name": "symbol",
      "outputs": [
        {
          "internalType": "string",
          "name": "",
          "type": "string"
        }
      ],
      "stateMutability": "view",
      "type": "function"
    },
    {
      "inputs": [],
      "name": "tld",
      "outputs": [
        {
          "internalType": "string",
          "name": "",
          "type": "string"
        }
      ],
      "stateMutability": "view",
      "type": "function"
    },
    {
      "inputs": [
        {
          "internalType": "uint256",
          "name": "tokenId",
          "type": "uint256"
        }
      ],
      "name": "tokenURI",
      "outputs": [
        {
          "internalType": "string",
          "name": "",
          "type": "string"
        }
      ],
      "stateMutability": "view",
      "type": "function"
    },
    {
      "inputs": [
        {
          "internalType": "address",
          "name": "from",
          "type": "address"
        },
        {
          "internalType": "address",
          "name": "to",
          "type": "address"
        },
        {
          "internalType": "uint256",
          "name": "tokenId",
          "type": "uint256"
        }
      ],
      "name": "transferFrom",
      "outputs": [],
      "stateMutability": "nonpayable",
      "type": "function"
    },
    {
      "inputs": [
        {
          "internalType": "string",
          "name": "name",
          "type": "string"
        }
      ],
      "name": "valid",
      "outputs": [
        {
          "internalType": "bool",
          "name": "",
          "type": "bool"
        }
      ],
      "stateMutability": "pure",
      "type": "function"
    },
    {
      "inputs": [],
      "name": "withdraw",
      "outputs": [],
      "stateMutability": "nonpayable",
      "type": "function"
    }
  ],
  "bytecode": "0x60806040526040518060e0016040528060be8152602001620054a860be9139600890816200002e919062000402565b5060405180610f600160405280610f30815260200162005566610f309139600990816200005c919062000402565b506040518060400160405280600d81526020017f3c2f746578743e3c2f7376673e00000000000000000000000000000000000000815250600a9081620000a3919062000402565b5066038d7ea4c68000600b556040518060400160405280601981526020017f486f6777617274732053747564656e74732053657276696365000000000000008152506040518060400160405280600381526020017f485353000000000000000000000000000000000000000000000000000000000081525081600090816200012c919062000402565b5080600190816200013e919062000402565b50505033600c60006101000a81548173ffffffffffffffffffffffffffffffffffffffff021916908373ffffffffffffffffffffffffffffffffffffffff160217905550620004e9565b600081519050919050565b7f4e487b7100000000000000000000000000000000000000000000000000000000600052604160045260246000fd5b7f4e487b7100000000000000000000000000000000000000000000000000000000600052602260045260246000fd5b600060028204905060018216806200020a57607f821691505b60208210810362000220576200021f620001c2565b5b50919050565b60008190508160005260206000209050919050565b60006020601f8301049050919050565b600082821b905092915050565b6000600883026200028a7fffffffffffffffffffffffffffffffffffffffffffffffffffffffffffffffff826200024b565b6200029686836200024b565b95508019841693508086168417925050509392505050565b6000819050919050565b6000819050919050565b6000620002e3620002dd620002d784620002ae565b620002b8565b620002ae565b9050919050565b6000819050919050565b620002ff83620002c2565b620003176200030e82620002ea565b84845462000258565b825550505050565b600090565b6200032e6200031f565b6200033b818484620002f4565b505050565b5b8181101562000363576200035760008262000324565b60018101905062000341565b5050565b601f821115620003b2576200037c8162000226565b62000387846200023b565b8101602085101562000397578190505b620003af620003a6856200023b565b83018262000340565b50505b505050565b600082821c905092915050565b6000620003d760001984600802620003b7565b1980831691505092915050565b6000620003f28383620003c4565b9150826002028217905092915050565b6200040d8262000188565b67ffffffffffffffff81111562000429576200042862000193565b5b620004358254620001f1565b6200044282828562000367565b600060209050601f8311600181146200047a576000841562000465578287015190505b620004718582620003e4565b865550620004e1565b601f1984166200048a8662000226565b60005b82811015620004b4578489015182556001820191506020850194506020810190506200048d565b86831015620004d45784890151620004d0601f891682620003c4565b8355505b6001600288020188555050505b505050505050565b614faf80620004f96000396000f3fe6080604052600436106101ee5760003560e01c806373eea2111161010d578063b88d4fde116100a0578063d3cbcfea1161006f578063d3cbcfea1461074d578063e985e9c514610778578063ea87152b146107b5578063fa626f6b146107d1578063fb825e5f146107fc576101ee565b8063b88d4fde14610681578063bf40fac1146106aa578063c1880a98146106e7578063c87b56dd14610710576101ee565b806395d89b41116100dc57806395d89b41146105c55780639791c097146105f0578063a22cb4651461062d578063b514005714610656576101ee565b806373eea2111461051957806379137275146105445780637ddd5dd81461056f5780638f32d59b1461059a576101ee565b806326449235116101855780634622ab03116101545780634622ab0314610425578063541e771d146104625780636352211e1461049f57806370a08231146104dc576101ee565b8063264492351461037d5780632d551432146103ba5780633ccfd60b146103e557806342842e0e146103fc576101ee565b8063095ea7b3116101c1578063095ea7b3146102c35780630b912301146102ec57806311dd88451461031757806323b872dd14610354576101ee565b806301ffc9a7146101f357806306fdde0314610230578063081812fc1461025b57806308b13a1d14610298575b600080fd5b3480156101ff57600080fd5b5061021a600480360381019061021591906131e6565b610827565b604051610227919061322e565b60405180910390f35b34801561023c57600080fd5b50610245610909565b60405161025291906132d9565b60405180910390f35b34801561026757600080fd5b50610282600480360381019061027d9190613331565b61099b565b60405161028f919061339f565b60405180910390f35b3480156102a457600080fd5b506102ad6109e1565b6040516102ba91906132d9565b60405180910390f35b3480156102cf57600080fd5b506102ea60048036038101906102e591906133e6565b610a1a565b005b3480156102f857600080fd5b50610301610b31565b60405161030e91906132d9565b60405180910390f35b34801561032357600080fd5b5061033e6004803603810190610339919061348b565b610b6a565b60405161034b91906132d9565b60405180910390f35b34801561036057600080fd5b5061037b600480360381019061037691906134d8565b610c1d565b005b34801561038957600080fd5b506103a4600480360381019061039f919061365b565b610c7d565b6040516103b1919061339f565b60405180910390f35b3480156103c657600080fd5b506103cf610cc6565b6040516103dc91906132d9565b60405180910390f35b3480156103f157600080fd5b506103fa610cff565b005b34801561040857600080fd5b50610423600480360381019061041e91906134d8565b610dc5565b005b34801561043157600080fd5b5061044c60048036038101906104479190613331565b610de5565b60405161045991906132d9565b60405180910390f35b34801561046e57600080fd5b506104896004803603810190610484919061365b565b610e85565b60405161049691906132d9565b60405180910390f35b3480156104ab57600080fd5b506104c660048036038101906104c19190613331565b610f3b565b6040516104d3919061339f565b60405180910390f35b3480156104e857600080fd5b5061050360048036038101906104fe91906136a4565b610fec565b60405161051091906136e0565b60405180910390f35b34801561052557600080fd5b5061052e6110a3565b60405161053b91906132d9565b60405180910390f35b34801561055057600080fd5b506105596110dc565b60405161056691906132d9565b60405180910390f35b34801561057b57600080fd5b50610584611115565b60405161059191906132d9565b60405180910390f35b3480156105a657600080fd5b506105af61114e565b6040516105bc919061322e565b60405180910390f35b3480156105d157600080fd5b506105da6111a6565b6040516105e791906132d9565b60405180910390f35b3480156105fc57600080fd5b506106176004803603810190610612919061348b565b611238565b604051610624919061322e565b60405180910390f35b34801561063957600080fd5b50610654600480360381019061064f9190613727565b6112ec565b005b34801561066257600080fd5b5061066b611302565b60405161067891906132d9565b60405180910390f35b34801561068d57600080fd5b506106a860048036038101906106a39190613808565b61133b565b005b3480156106b657600080fd5b506106d160048036038101906106cc919061348b565b61139d565b6040516106de919061339f565b60405180910390f35b3480156106f357600080fd5b5061070e6004803603810190610709919061388b565b6113e8565b005b34801561071c57600080fd5b5061073760048036038101906107329190613331565b6114c3565b60405161074491906132d9565b60405180910390f35b34801561075957600080fd5b506107626115d5565b60405161076f91906132d9565b60405180910390f35b34801561078457600080fd5b5061079f600480360381019061079a919061390c565b61160e565b6040516107ac919061322e565b60405180910390f35b6107cf60048036038101906107ca919061394c565b6116a2565b005b3480156107dd57600080fd5b506107e6611b18565b6040516107f391906132d9565b60405180910390f35b34801561080857600080fd5b50610811611b51565b60405161081e9190613ab8565b60405180910390f35b60007f80ac58cd000000000000000000000000000000000000000000000000000000007bffffffffffffffffffffffffffffffffffffffffffffffffffffffff1916827bffffffffffffffffffffffffffffffffffffffffffffffffffffffff191614806108f257507f5b5e139f000000000000000000000000000000000000000000000000000000007bffffffffffffffffffffffffffffffffffffffffffffffffffffffff1916827bffffffffffffffffffffffffffffffffffffffffffffffffffffffff1916145b80610902575061090182611c97565b5b9050919050565b60606000805461091890613b09565b80601f016020809104026020016040519081016040528092919081815260200182805461094490613b09565b80156109915780601f1061096657610100808354040283529160200191610991565b820191906000526020600020905b81548152906001019060200180831161097457829003601f168201915b5050505050905090565b60006109a682611d01565b6004600083815260200190815260200160002060009054906101000a900473ffffffffffffffffffffffffffffffffffffffff169050919050565b6040518060400160405280600a81526020017f687566666c65707566660000000000000000000000000000000000000000000081525081565b6000610a2582610f3b565b90508073ffffffffffffffffffffffffffffffffffffffff168373ffffffffffffffffffffffffffffffffffffffff1603610a95576040517f08c379a0000000000000000000000000000000000000000000000000000000008152600401610a8c90613bac565b60405180910390fd5b8073ffffffffffffffffffffffffffffffffffffffff16610ab4611d4c565b73ffffffffffffffffffffffffffffffffffffffff161480610ae35750610ae281610add611d4c565b61160e565b5b610b22576040517f08c379a0000000000000000000000000000000000000000000000000000000008152600401610b1990613c3e565b60405180910390fd5b610b2c8383611d54565b505050565b6040518060400160405280600781526020017f233843464642330000000000000000000000000000000000000000000000000081525081565b6060600e8383604051610b7e929190613c8e565b90815260200160405180910390208054610b9790613b09565b80601f0160208091040260200160405190810160405280929190818152602001828054610bc390613b09565b8015610c105780601f10610be557610100808354040283529160200191610c10565b820191906000526020600020905b815481529060010190602001808311610bf357829003601f168201915b5050505050905092915050565b610c2e610c28611d4c565b82611e0d565b610c6d576040517f08c379a0000000000000000000000000000000000000000000000000000000008152600401610c6490613d19565b60405180910390fd5b610c78838383611ea2565b505050565b600d818051602081018201805184825260208301602085012081835280955050505050506000915054906101000a900473ffffffffffffffffffffffffffffffffffffffff1681565b6040518060400160405280600681526020017f686777727473000000000000000000000000000000000000000000000000000081525081565b610d0761114e565b610d1057600080fd5b600047905060003373ffffffffffffffffffffffffffffffffffffffff1682604051610d3b90613d6a565b60006040518083038185875af1925050503d8060008114610d78576040519150601f19603f3d011682016040523d82523d6000602084013e610d7d565b606091505b5050905080610dc1576040517f08c379a0000000000000000000000000000000000000000000000000000000008152600401610db890613dcb565b60405180910390fd5b5050565b610de08383836040518060200160405280600081525061133b565b505050565b600f6020528060005260406000206000915090508054610e0490613b09565b80601f0160208091040260200160405190810160405280929190818152602001828054610e3090613b09565b8015610e7d5780601f10610e5257610100808354040283529160200191610e7d565b820191906000526020600020905b815481529060010190602001808311610e6057829003601f168201915b505050505081565b600e818051602081018201805184825260208301602085012081835280955050505050506000915090508054610eba90613b09565b80601f0160208091040260200160405190810160405280929190818152602001828054610ee690613b09565b8015610f335780601f10610f0857610100808354040283529160200191610f33565b820191906000526020600020905b815481529060010190602001808311610f1657829003601f168201915b505050505081565b6000806002600084815260200190815260200160002060009054906101000a900473ffffffffffffffffffffffffffffffffffffffff169050600073ffffffffffffffffffffffffffffffffffffffff168173ffffffffffffffffffffffffffffffffffffffff1603610fe3576040517f08c379a0000000000000000000000000000000000000000000000000000000008152600401610fda90613e37565b60405180910390fd5b80915050919050565b60008073ffffffffffffffffffffffffffffffffffffffff168273ffffffffffffffffffffffffffffffffffffffff160361105c576040517f08c379a000000000000000000000000000000000000000000000000000000000815260040161105390613ec9565b60405180910390fd5b600360008373ffffffffffffffffffffffffffffffffffffffff1673ffffffffffffffffffffffffffffffffffffffff168152602001908152602001600020549050919050565b6040518060400160405280600981526020017f736c7974686572696e000000000000000000000000000000000000000000000081525081565b6040518060400160405280600781526020017f234646384338430000000000000000000000000000000000000000000000000081525081565b6040518060400160405280600981526020017f726176656e636c6177000000000000000000000000000000000000000000000081525081565b6000600c60009054906101000a900473ffffffffffffffffffffffffffffffffffffffff1673ffffffffffffffffffffffffffffffffffffffff163373ffffffffffffffffffffffffffffffffffffffff1614905090565b6060600180546111b590613b09565b80601f01602080910402602001604051908101604052809291908181526020018280546111e190613b09565b801561122e5780601f106112035761010080835404028352916020019161122e565b820191906000526020600020905b81548152906001019060200180831161121157829003601f168201915b5050505050905090565b6000600361128984848080601f016020809104026020016040519081016040528093929190818152602001838380828437600081840152601f19601f82011690508083019250505050505050612108565b101580156112e45750600a6112e184848080601f016020809104026020016040519081016040528093929190818152602001838380828437600081840152601f19601f82011690508083019250505050505050612108565b11155b905092915050565b6112fe6112f7611d4c565b83836122bd565b5050565b6040518060400160405280600781526020017f234644464638430000000000000000000000000000000000000000000000000081525081565b61134c611346611d4c565b83611e0d565b61138b576040517f08c379a000000000000000000000000000000000000000000000000000000000815260040161138290613d19565b60405180910390fd5b61139784848484612429565b50505050565b6000600d83836040516113b1929190613c8e565b908152602001604051809103902060009054906101000a900473ffffffffffffffffffffffffffffffffffffffff16905092915050565b600d84846040516113fa929190613c8e565b908152602001604051809103902060009054906101000a900473ffffffffffffffffffffffffffffffffffffffff1673ffffffffffffffffffffffffffffffffffffffff163373ffffffffffffffffffffffffffffffffffffffff161461148d576040517f82b4290000000000000000000000000000000000000000000000000000000000815260040160405180910390fd5b8181600e86866040516114a1929190613c8e565b908152602001604051809103902091826114bc9291906140a0565b5050505050565b60606114ce82611d01565b60006006600084815260200190815260200160002080546114ee90613b09565b80601f016020809104026020016040519081016040528092919081815260200182805461151a90613b09565b80156115675780601f1061153c57610100808354040283529160200191611567565b820191906000526020600020905b81548152906001019060200180831161154a57829003601f168201915b505050505090506000611578612485565b9050600081510361158d5781925050506115d0565b6000825111156115c25780826040516020016115aa9291906141a1565b604051602081830303815290604052925050506115d0565b6115cb8461249c565b925050505b919050565b6040518060400160405280600781526020017f233843424146460000000000000000000000000000000000000000000000000081525081565b6000600560008473ffffffffffffffffffffffffffffffffffffffff1673ffffffffffffffffffffffffffffffffffffffff16815260200190815260200160002060008373ffffffffffffffffffffffffffffffffffffffff1673ffffffffffffffffffffffffffffffffffffffff16815260200190815260200160002060009054906101000a900460ff16905092915050565b600073ffffffffffffffffffffffffffffffffffffffff16600d84846040516116cc929190613c8e565b908152602001604051809103902060009054906101000a900473ffffffffffffffffffffffffffffffffffffffff1673ffffffffffffffffffffffffffffffffffffffff1614611748576040517f3a81d6fc00000000000000000000000000000000000000000000000000000000815260040160405180910390fd5b6117528383611238565b6117955782826040517f7f19f48d00000000000000000000000000000000000000000000000000000000815260040161178c9291906141f2565b60405180910390fd5b600b543410156117da576040517f08c379a00000000000000000000000000000000000000000000000000000000081526004016117d190614262565b60405180910390fd5b60006117e582612504565b90506000806117f383612549565b9150915060008686846040518060400160405280600681526020017f686777727473000000000000000000000000000000000000000000000000000081525060405160200161184594939291906142ce565b60405160208183030381529060405290506000600883600984600a60405160200161187495949392919061439a565b604051602081830303815290604052905060006118916007612780565b905060006118e28a8a8080601f016020809104026020016040519081016040528093929190818152602001838380828437600081840152601f19601f82011690508083019250505050505050612108565b905060006118ef8261278e565b905061198e604051806060016040528060318152602001614ed0603191398c8c8080601f016020809104026020016040519081016040528093929190818152602001838380828437600081840152601f19601f820116905080830192505050505050506040518060400160405280600681526020017f6867777274730000000000000000000000000000000000000000000000000000815250866128ee565b60006119c48661199d87612990565b846040516020016119b093929190614561565b604051602081830303815290604052612990565b90506000816040516020016119d9919061460a565b6040516020818303038152906040529050611a0b604051806060016040528060398152602001614e9760399139612b27565b611a4a6040518060400160405280600e81526020017f46696e616c20746f6b656e55524900000000000000000000000000000000000081525082612bc0565b611a6b604051806060016040528060398152602001614f0160399139612b27565b611a753386612c5c565b611a7f8582612c7a565b33600d8e8e604051611a92929190613c8e565b908152602001604051809103902060006101000a81548173ffffffffffffffffffffffffffffffffffffffff021916908373ffffffffffffffffffffffffffffffffffffffff16021790555086600f60008781526020019081526020016000209081611afe919061462c565b50611b096007612ce7565b50505050505050505050505050565b6040518060400160405280600a81526020017f6772796666696e646f720000000000000000000000000000000000000000000081525081565b60606000611b5f6007612780565b67ffffffffffffffff811115611b7857611b77613530565b5b604051908082528060200260200182016040528015611bab57816020015b6060815260200190600190039081611b965790505b50905060005b611bbb6007612780565b811015611c8f57600f60008281526020019081526020016000208054611be090613b09565b80601f0160208091040260200160405190810160405280929190818152602001828054611c0c90613b09565b8015611c595780601f10611c2e57610100808354040283529160200191611c59565b820191906000526020600020905b815481529060010190602001808311611c3c57829003601f168201915b5050505050828281518110611c7157611c706146fe565b5b60200260200101819052508080611c879061475c565b915050611bb1565b508091505090565b60007f01ffc9a7000000000000000000000000000000000000000000000000000000007bffffffffffffffffffffffffffffffffffffffffffffffffffffffff1916827bffffffffffffffffffffffffffffffffffffffffffffffffffffffff1916149050919050565b611d0a81612cfd565b611d49576040517f08c379a0000000000000000000000000000000000000000000000000000000008152600401611d4090613e37565b60405180910390fd5b50565b600033905090565b816004600083815260200190815260200160002060006101000a81548173ffffffffffffffffffffffffffffffffffffffff021916908373ffffffffffffffffffffffffffffffffffffffff160217905550808273ffffffffffffffffffffffffffffffffffffffff16611dc783610f3b565b73ffffffffffffffffffffffffffffffffffffffff167f8c5be1e5ebec7d5bd14f71427d1e84f3dd0314c0f7b2291e5b200ac8c7c3b92560405160405180910390a45050565b600080611e1983610f3b565b90508073ffffffffffffffffffffffffffffffffffffffff168473ffffffffffffffffffffffffffffffffffffffff161480611e5b5750611e5a818561160e565b5b80611e9957508373ffffffffffffffffffffffffffffffffffffffff16611e818461099b565b73ffffffffffffffffffffffffffffffffffffffff16145b91505092915050565b8273ffffffffffffffffffffffffffffffffffffffff16611ec282610f3b565b73ffffffffffffffffffffffffffffffffffffffff1614611f18576040517f08c379a0000000000000000000000000000000000000000000000000000000008152600401611f0f90614816565b60405180910390fd5b600073ffffffffffffffffffffffffffffffffffffffff168273ffffffffffffffffffffffffffffffffffffffff1603611f87576040517f08c379a0000000000000000000000000000000000000000000000000000000008152600401611f7e906148a8565b60405180910390fd5b611f92838383612d69565b611f9d600082611d54565b6001600360008573ffffffffffffffffffffffffffffffffffffffff1673ffffffffffffffffffffffffffffffffffffffff1681526020019081526020016000206000828254611fed91906148c8565b925050819055506001600360008473ffffffffffffffffffffffffffffffffffffffff1673ffffffffffffffffffffffffffffffffffffffff168152602001908152602001600020600082825461204491906148fc565b92505081905550816002600083815260200190815260200160002060006101000a81548173ffffffffffffffffffffffffffffffffffffffff021916908373ffffffffffffffffffffffffffffffffffffffff160217905550808273ffffffffffffffffffffffffffffffffffffffff168473ffffffffffffffffffffffffffffffffffffffff167fddf252ad1be2c89b69c2b068fc378daa952ba7f163c4a11628f55a4df523b3ef60405160405180910390a4612103838383612d6e565b505050565b60008060008084519050600092505b808210156122b2576000858381518110612134576121336146fe565b5b602001015160f81c60f81b9050608060f81b817effffffffffffffffffffffffffffffffffffffffffffffffffffffffffffff191610156121835760018361217c91906148fc565b925061229e565b60e060f81b817effffffffffffffffffffffffffffffffffffffffffffffffffffffffffffff191610156121c5576002836121be91906148fc565b925061229d565b60f060f81b817effffffffffffffffffffffffffffffffffffffffffffffffffffffffffffff191610156122075760038361220091906148fc565b925061229c565b60f8801b817effffffffffffffffffffffffffffffffffffffffffffffffffffffffffffff191610156122485760048361224191906148fc565b925061229b565b60fc60f81b817effffffffffffffffffffffffffffffffffffffffffffffffffffffffffffff1916101561228a5760058361228391906148fc565b925061229a565b60068361229791906148fc565b92505b5b5b5b5b5082806122aa9061475c565b935050612117565b829350505050919050565b8173ffffffffffffffffffffffffffffffffffffffff168373ffffffffffffffffffffffffffffffffffffffff160361232b576040517f08c379a00000000000000000000000000000000000000000000000000000000081526004016123229061497c565b60405180910390fd5b80600560008573ffffffffffffffffffffffffffffffffffffffff1673ffffffffffffffffffffffffffffffffffffffff16815260200190815260200160002060008473ffffffffffffffffffffffffffffffffffffffff1673ffffffffffffffffffffffffffffffffffffffff16815260200190815260200160002060006101000a81548160ff0219169083151502179055508173ffffffffffffffffffffffffffffffffffffffff168373ffffffffffffffffffffffffffffffffffffffff167f17307eab39ab6107e8899845ad3d59bd9653f200f220920489ca2b5937696c318360405161241c919061322e565b60405180910390a3505050565b612434848484611ea2565b61244084848484612d73565b61247f576040517f08c379a000000000000000000000000000000000000000000000000000000000815260040161247690614a0e565b60405180910390fd5b50505050565b606060405180602001604052806000815250905090565b60606124a782611d01565b60006124b1612485565b905060008151116124d157604051806020016040528060008152506124fc565b806124db8461278e565b6040516020016124ec9291906141a1565b6040516020818303038152906040525b915050919050565b600060644283443360405160200161251f9493929190614a97565b6040516020818303038152906040528051906020012060001c6125429190614b14565b9050919050565b6060806000831015801561255e575060198311155b156125d8576040518060400160405280600a81526020017f6772796666696e646f720000000000000000000000000000000000000000000081525091506040518060400160405280600781526020017f2346463843384300000000000000000000000000000000000000000000000000815250905061277b565b601a83101580156125ea575060328311155b15612664576040518060400160405280600981526020017f736c7974686572696e000000000000000000000000000000000000000000000081525091506040518060400160405280600781526020017f2338434646423300000000000000000000000000000000000000000000000000815250905061277a565b603383101580156126765750604b8311155b156126f0576040518060400160405280600a81526020017f687566666c65707566660000000000000000000000000000000000000000000081525091506040518060400160405280600781526020017f23464446463843000000000000000000000000000000000000000000000000008152509050612779565b604c8310158015612702575060648311155b15612778576040518060400160405280600981526020017f726176656e636c6177000000000000000000000000000000000000000000000081525091506040518060400160405280600781526020017f233843424146460000000000000000000000000000000000000000000000000081525090505b5b5b5b915091565b600081600001549050919050565b6060600082036127d5576040518060400160405280600181526020017f300000000000000000000000000000000000000000000000000000000000000081525090506128e9565b600082905060005b600082146128075780806127f09061475c565b915050600a826128009190614b45565b91506127dd565b60008167ffffffffffffffff81111561282357612822613530565b5b6040519080825280601f01601f1916602001820160405280156128555781602001600182028036833780820191505090505b5090505b600085146128e25760018261286e91906148c8565b9150600a8561287d9190614b14565b603061288991906148fc565b60f81b81838151811061289f5761289e6146fe565b5b60200101907effffffffffffffffffffffffffffffffffffffffffffffffffffffffffffff1916908160001a905350600a856128db9190614b45565b9450612859565b8093505050505b919050565b61298a848484846040516024016129089493929190614b76565b6040516020818303038152906040527f8eafb02b000000000000000000000000000000000000000000000000000000007bffffffffffffffffffffffffffffffffffffffffffffffffffffffff19166020820180517bffffffffffffffffffffffffffffffffffffffffffffffffffffffff8381831617835250505050612efa565b50505050565b6060600082519050600081036129b85760405180602001604052806000815250915050612b22565b600060036002836129c991906148fc565b6129d39190614b45565b60046129df9190614bd0565b905060006020826129f091906148fc565b67ffffffffffffffff811115612a0957612a08613530565b5b6040519080825280601f01601f191660200182016040528015612a3b5781602001600182028036833780820191505090505b5090506000604051806060016040528060408152602001614f3a604091399050600181016020830160005b86811015612adf5760038101905062ffffff818a015116603f8160121c168401518060081b905060ff603f83600c1c1686015116810190508060081b905060ff603f8360061c1686015116810190508060081b905060ff603f831686015116810190508060e01b90508084526004840193505050612a66565b506003860660018114612af95760028114612b0957612b14565b613d3d60f01b6002830352612b14565b603d60f81b60018303525b508484525050819450505050505b919050565b612bbd81604051602401612b3b91906132d9565b6040516020818303038152906040527f41304fac000000000000000000000000000000000000000000000000000000007bffffffffffffffffffffffffffffffffffffffffffffffffffffffff19166020820180517bffffffffffffffffffffffffffffffffffffffffffffffffffffffff8381831617835250505050612efa565b50565b612c588282604051602401612bd6929190614c12565b6040516020818303038152906040527f4b5c4277000000000000000000000000000000000000000000000000000000007bffffffffffffffffffffffffffffffffffffffffffffffffffffffff19166020820180517bffffffffffffffffffffffffffffffffffffffffffffffffffffffff8381831617835250505050612efa565b5050565b612c76828260405180602001604052806000815250612f23565b5050565b612c8382612cfd565b612cc2576040517f08c379a0000000000000000000000000000000000000000000000000000000008152600401612cb990614cbb565b60405180910390fd5b80600660008481526020019081526020016000209081612ce2919061462c565b505050565b6001816000016000828254019250508190555050565b60008073ffffffffffffffffffffffffffffffffffffffff166002600084815260200190815260200160002060009054906101000a900473ffffffffffffffffffffffffffffffffffffffff1673ffffffffffffffffffffffffffffffffffffffff1614159050919050565b505050565b505050565b6000612d948473ffffffffffffffffffffffffffffffffffffffff16612f7e565b15612eed578373ffffffffffffffffffffffffffffffffffffffff1663150b7a02612dbd611d4c565b8786866040518563ffffffff1660e01b8152600401612ddf9493929190614d30565b6020604051808303816000875af1925050508015612e1b57506040513d601f19601f82011682018060405250810190612e189190614d91565b60015b612e9d573d8060008114612e4b576040519150601f19603f3d011682016040523d82523d6000602084013e612e50565b606091505b506000815103612e95576040517f08c379a0000000000000000000000000000000000000000000000000000000008152600401612e8c90614a0e565b60405180910390fd5b805181602001fd5b63150b7a0260e01b7bffffffffffffffffffffffffffffffffffffffffffffffffffffffff1916817bffffffffffffffffffffffffffffffffffffffffffffffffffffffff191614915050612ef2565b600190505b949350505050565b60008151905060006a636f6e736f6c652e6c6f679050602083016000808483855afa5050505050565b612f2d8383612fa1565b612f3a6000848484612d73565b612f79576040517f08c379a0000000000000000000000000000000000000000000000000000000008152600401612f7090614a0e565b60405180910390fd5b505050565b6000808273ffffffffffffffffffffffffffffffffffffffff163b119050919050565b600073ffffffffffffffffffffffffffffffffffffffff168273ffffffffffffffffffffffffffffffffffffffff1603613010576040517f08c379a000000000000000000000000000000000000000000000000000000000815260040161300790614e0a565b60405180910390fd5b61301981612cfd565b15613059576040517f08c379a000000000000000000000000000000000000000000000000000000000815260040161305090614e76565b60405180910390fd5b61306560008383612d69565b6001600360008473ffffffffffffffffffffffffffffffffffffffff1673ffffffffffffffffffffffffffffffffffffffff16815260200190815260200160002060008282546130b591906148fc565b92505081905550816002600083815260200190815260200160002060006101000a81548173ffffffffffffffffffffffffffffffffffffffff021916908373ffffffffffffffffffffffffffffffffffffffff160217905550808273ffffffffffffffffffffffffffffffffffffffff16600073ffffffffffffffffffffffffffffffffffffffff167fddf252ad1be2c89b69c2b068fc378daa952ba7f163c4a11628f55a4df523b3ef60405160405180910390a461317660008383612d6e565b5050565b6000604051905090565b600080fd5b600080fd5b60007fffffffff0000000000000000000000000000000000000000000000000000000082169050919050565b6131c38161318e565b81146131ce57600080fd5b50565b6000813590506131e0816131ba565b92915050565b6000602082840312156131fc576131fb613184565b5b600061320a848285016131d1565b91505092915050565b60008115159050919050565b61322881613213565b82525050565b6000602082019050613243600083018461321f565b92915050565b600081519050919050565b600082825260208201905092915050565b60005b83811015613283578082015181840152602081019050613268565b60008484015250505050565b6000601f19601f8301169050919050565b60006132ab82613249565b6132b58185613254565b93506132c5818560208601613265565b6132ce8161328f565b840191505092915050565b600060208201905081810360008301526132f381846132a0565b905092915050565b6000819050919050565b61330e816132fb565b811461331957600080fd5b50565b60008135905061332b81613305565b92915050565b60006020828403121561334757613346613184565b5b60006133558482850161331c565b91505092915050565b600073ffffffffffffffffffffffffffffffffffffffff82169050919050565b60006133898261335e565b9050919050565b6133998161337e565b82525050565b60006020820190506133b46000830184613390565b92915050565b6133c38161337e565b81146133ce57600080fd5b50565b6000813590506133e0816133ba565b92915050565b600080604083850312156133fd576133fc613184565b5b600061340b858286016133d1565b925050602061341c8582860161331c565b9150509250929050565b600080fd5b600080fd5b600080fd5b60008083601f84011261344b5761344a613426565b5b8235905067ffffffffffffffff8111156134685761346761342b565b5b60208301915083600182028301111561348457613483613430565b5b9250929050565b600080602083850312156134a2576134a1613184565b5b600083013567ffffffffffffffff8111156134c0576134bf613189565b5b6134cc85828601613435565b92509250509250929050565b6000806000606084860312156134f1576134f0613184565b5b60006134ff868287016133d1565b9350506020613510868287016133d1565b92505060406135218682870161331c565b9150509250925092565b600080fd5b7f4e487b7100000000000000000000000000000000000000000000000000000000600052604160045260246000fd5b6135688261328f565b810181811067ffffffffffffffff8211171561358757613586613530565b5b80604052505050565b600061359a61317a565b90506135a6828261355f565b919050565b600067ffffffffffffffff8211156135c6576135c5613530565b5b6135cf8261328f565b9050602081019050919050565b82818337600083830152505050565b60006135fe6135f9846135ab565b613590565b90508281526020810184848401111561361a5761361961352b565b5b6136258482856135dc565b509392505050565b600082601f83011261364257613641613426565b5b81356136528482602086016135eb565b91505092915050565b60006020828403121561367157613670613184565b5b600082013567ffffffffffffffff81111561368f5761368e613189565b5b61369b8482850161362d565b91505092915050565b6000602082840312156136ba576136b9613184565b5b60006136c8848285016133d1565b91505092915050565b6136da816132fb565b82525050565b60006020820190506136f560008301846136d1565b92915050565b61370481613213565b811461370f57600080fd5b50565b600081359050613721816136fb565b92915050565b6000806040838503121561373e5761373d613184565b5b600061374c858286016133d1565b925050602061375d85828601613712565b9150509250929050565b600067ffffffffffffffff82111561378257613781613530565b5b61378b8261328f565b9050602081019050919050565b60006137ab6137a684613767565b613590565b9050828152602081018484840111156137c7576137c661352b565b5b6137d28482856135dc565b509392505050565b600082601f8301126137ef576137ee613426565b5b81356137ff848260208601613798565b91505092915050565b6000806000806080858703121561382257613821613184565b5b6000613830878288016133d1565b9450506020613841878288016133d1565b93505060406138528782880161331c565b925050606085013567ffffffffffffffff81111561387357613872613189565b5b61387f878288016137da565b91505092959194509250565b600080600080604085870312156138a5576138a4613184565b5b600085013567ffffffffffffffff8111156138c3576138c2613189565b5b6138cf87828801613435565b9450945050602085013567ffffffffffffffff8111156138f2576138f1613189565b5b6138fe87828801613435565b925092505092959194509250565b6000806040838503121561392357613922613184565b5b6000613931858286016133d1565b9250506020613942858286016133d1565b9150509250929050565b60008060006040848603121561396557613964613184565b5b600084013567ffffffffffffffff81111561398357613982613189565b5b61398f86828701613435565b935093505060206139a28682870161331c565b9150509250925092565b600081519050919050565b600082825260208201905092915050565b6000819050602082019050919050565b600082825260208201905092915050565b60006139f482613249565b6139fe81856139d8565b9350613a0e818560208601613265565b613a178161328f565b840191505092915050565b6000613a2e83836139e9565b905092915050565b6000602082019050919050565b6000613a4e826139ac565b613a5881856139b7565b935083602082028501613a6a856139c8565b8060005b85811015613aa65784840389528151613a878582613a22565b9450613a9283613a36565b925060208a01995050600181019050613a6e565b50829750879550505050505092915050565b60006020820190508181036000830152613ad28184613a43565b905092915050565b7f4e487b7100000000000000000000000000000000000000000000000000000000600052602260045260246000fd5b60006002820490506001821680613b2157607f821691505b602082108103613b3457613b33613ada565b5b50919050565b7f4552433732313a20617070726f76616c20746f2063757272656e74206f776e6560008201527f7200000000000000000000000000000000000000000000000000000000000000602082015250565b6000613b96602183613254565b9150613ba182613b3a565b604082019050919050565b60006020820190508181036000830152613bc581613b89565b9050919050565b7f4552433732313a20617070726f76652063616c6c6572206973206e6f7420746f60008201527f6b656e206f776e6572206e6f7220617070726f76656420666f7220616c6c0000602082015250565b6000613c28603e83613254565b9150613c3382613bcc565b604082019050919050565b60006020820190508181036000830152613c5781613c1b565b9050919050565b600081905092915050565b6000613c758385613c5e565b9350613c828385846135dc565b82840190509392505050565b6000613c9b828486613c69565b91508190509392505050565b7f4552433732313a2063616c6c6572206973206e6f7420746f6b656e206f776e6560008201527f72206e6f7220617070726f766564000000000000000000000000000000000000602082015250565b6000613d03602e83613254565b9150613d0e82613ca7565b604082019050919050565b60006020820190508181036000830152613d3281613cf6565b9050919050565b600081905092915050565b50565b6000613d54600083613d39565b9150613d5f82613d44565b600082019050919050565b6000613d7582613d47565b9150819050919050565b7f4661696c656420746f207769746864726177204d617469630000000000000000600082015250565b6000613db5601883613254565b9150613dc082613d7f565b602082019050919050565b60006020820190508181036000830152613de481613da8565b9050919050565b7f4552433732313a20696e76616c696420746f6b656e2049440000000000000000600082015250565b6000613e21601883613254565b9150613e2c82613deb565b602082019050919050565b60006020820190508181036000830152613e5081613e14565b9050919050565b7f4552433732313a2061646472657373207a65726f206973206e6f74206120766160008201527f6c6964206f776e65720000000000000000000000000000000000000000000000602082015250565b6000613eb3602983613254565b9150613ebe82613e57565b604082019050919050565b60006020820190508181036000830152613ee281613ea6565b9050919050565b600082905092915050565b60008190508160005260206000209050919050565b60006020601f8301049050919050565b600082821b905092915050565b600060088302613f567fffffffffffffffffffffffffffffffffffffffffffffffffffffffffffffffff82613f19565b613f608683613f19565b95508019841693508086168417925050509392505050565b6000819050919050565b6000613f9d613f98613f93846132fb565b613f78565b6132fb565b9050919050565b6000819050919050565b613fb783613f82565b613fcb613fc382613fa4565b848454613f26565b825550505050565b600090565b613fe0613fd3565b613feb818484613fae565b505050565b5b8181101561400f57614004600082613fd8565b600181019050613ff1565b5050565b601f8211156140545761402581613ef4565b61402e84613f09565b8101602085101561403d578190505b61405161404985613f09565b830182613ff0565b50505b505050565b600082821c905092915050565b600061407760001984600802614059565b1980831691505092915050565b60006140908383614066565b9150826002028217905092915050565b6140aa8383613ee9565b67ffffffffffffffff8111156140c3576140c2613530565b5b6140cd8254613b09565b6140d8828285614013565b6000601f83116001811461410757600084156140f5578287013590505b6140ff8582614084565b865550614167565b601f19841661411586613ef4565b60005b8281101561413d57848901358255600182019150602085019450602081019050614118565b8683101561415a5784890135614156601f891682614066565b8355505b6001600288020188555050505b50505050505050565b600061417b82613249565b6141858185613c5e565b9350614195818560208601613265565b80840191505092915050565b60006141ad8285614170565b91506141b98284614170565b91508190509392505050565b60006141d18385613254565b93506141de8385846135dc565b6141e78361328f565b840190509392505050565b6000602082019050818103600083015261420d8184866141c5565b90509392505050565b7f4e6f7420656e6f756768204d6174696320706169640000000000000000000000600082015250565b600061424c601583613254565b915061425782614216565b602082019050919050565b6000602082019050818103600083015261427b8161423f565b9050919050565b7f2e00000000000000000000000000000000000000000000000000000000000000600082015250565b60006142b8600183613c5e565b91506142c382614282565b600182019050919050565b60006142db828688613c69565b91506142e6826142ab565b91506142f28285614170565b91506142fd826142ab565b91506143098284614170565b915081905095945050505050565b6000815461432481613b09565b61432e8186613c5e565b94506001821660008114614349576001811461435e57614391565b60ff1983168652811515820286019350614391565b61436785613ef4565b60005b838110156143895781548189015260018201915060208101905061436a565b838801955050505b50505092915050565b60006143a68288614317565b91506143b28287614170565b91506143be8286614317565b91506143ca8285614170565b91506143d68284614317565b91508190509695505050505050565b7f7b226e616d65223a202200000000000000000000000000000000000000000000600082015250565b600061441b600a83613c5e565b9150614426826143e5565b600a82019050919050565b7f222c20226465736372697074696f6e223a2022412073747564656e742061742060008201527f486f677761727473222c2022696d616765223a2022646174613a696d6167652f60208201527f7376672b786d6c3b6261736536342c0000000000000000000000000000000000604082015250565b60006144b3604f83613c5e565b91506144be82614431565b604f82019050919050565b7f222c226c656e677468223a220000000000000000000000000000000000000000600082015250565b60006144ff600c83613c5e565b915061450a826144c9565b600c82019050919050565b7f227d000000000000000000000000000000000000000000000000000000000000600082015250565b600061454b600283613c5e565b915061455682614515565b600282019050919050565b600061456c8261440e565b91506145788286614170565b9150614583826144a6565b915061458f8285614170565b915061459a826144f2565b91506145a68284614170565b91506145b18261453e565b9150819050949350505050565b7f646174613a6170706c69636174696f6e2f6a736f6e3b6261736536342c000000600082015250565b60006145f4601d83613c5e565b91506145ff826145be565b601d82019050919050565b6000614615826145e7565b91506146218284614170565b915081905092915050565b61463582613249565b67ffffffffffffffff81111561464e5761464d613530565b5b6146588254613b09565b614663828285614013565b600060209050601f8311600181146146965760008415614684578287015190505b61468e8582614084565b8655506146f6565b601f1984166146a486613ef4565b60005b828110156146cc578489015182556001820191506020850194506020810190506146a7565b868310156146e957848901516146e5601f891682614066565b8355505b6001600288020188555050505b505050505050565b7f4e487b7100000000000000000000000000000000000000000000000000000000600052603260045260246000fd5b7f4e487b7100000000000000000000000000000000000000000000000000000000600052601160045260246000fd5b6000614767826132fb565b91507fffffffffffffffffffffffffffffffffffffffffffffffffffffffffffffffff82036147995761479861472d565b5b600182019050919050565b7f4552433732313a207472616e736665722066726f6d20696e636f72726563742060008201527f6f776e6572000000000000000000000000000000000000000000000000000000602082015250565b6000614800602583613254565b915061480b826147a4565b604082019050919050565b6000602082019050818103600083015261482f816147f3565b9050919050565b7f4552433732313a207472616e7366657220746f20746865207a65726f2061646460008201527f7265737300000000000000000000000000000000000000000000000000000000602082015250565b6000614892602483613254565b915061489d82614836565b604082019050919050565b600060208201905081810360008301526148c181614885565b9050919050565b60006148d3826132fb565b91506148de836132fb565b92508282039050818111156148f6576148f561472d565b5b92915050565b6000614907826132fb565b9150614912836132fb565b925082820190508082111561492a5761492961472d565b5b92915050565b7f4552433732313a20617070726f766520746f2063616c6c657200000000000000600082015250565b6000614966601983613254565b915061497182614930565b602082019050919050565b6000602082019050818103600083015261499581614959565b9050919050565b7f4552433732313a207472616e7366657220746f206e6f6e20455243373231526560008201527f63656976657220696d706c656d656e7465720000000000000000000000000000602082015250565b60006149f8603283613254565b9150614a038261499c565b604082019050919050565b60006020820190508181036000830152614a27816149eb565b9050919050565b6000819050919050565b614a49614a44826132fb565b614a2e565b82525050565b60008160601b9050919050565b6000614a6782614a4f565b9050919050565b6000614a7982614a5c565b9050919050565b614a91614a8c8261337e565b614a6e565b82525050565b6000614aa38287614a38565b602082019150614ab38286614a38565b602082019150614ac38285614a38565b602082019150614ad38284614a80565b60148201915081905095945050505050565b7f4e487b7100000000000000000000000000000000000000000000000000000000600052601260045260246000fd5b6000614b1f826132fb565b9150614b2a836132fb565b925082614b3a57614b39614ae5565b5b828206905092915050565b6000614b50826132fb565b9150614b5b836132fb565b925082614b6b57614b6a614ae5565b5b828204905092915050565b60006080820190508181036000830152614b9081876132a0565b90508181036020830152614ba481866132a0565b90508181036040830152614bb881856132a0565b9050614bc760608301846136d1565b95945050505050565b6000614bdb826132fb565b9150614be6836132fb565b9250828202614bf4816132fb565b91508282048414831517614c0b57614c0a61472d565b5b5092915050565b60006040820190508181036000830152614c2c81856132a0565b90508181036020830152614c4081846132a0565b90509392505050565b7f45524337323155524953746f726167653a2055524920736574206f66206e6f6e60008201527f6578697374656e7420746f6b656e000000000000000000000000000000000000602082015250565b6000614ca5602e83613254565b9150614cb082614c49565b604082019050919050565b60006020820190508181036000830152614cd481614c98565b9050919050565b600081519050919050565b600082825260208201905092915050565b6000614d0282614cdb565b614d0c8185614ce6565b9350614d1c818560208601613265565b614d258161328f565b840191505092915050565b6000608082019050614d456000830187613390565b614d526020830186613390565b614d5f60408301856136d1565b8181036060830152614d718184614cf7565b905095945050505050565b600081519050614d8b816131ba565b92915050565b600060208284031215614da757614da6613184565b5b6000614db584828501614d7c565b91505092915050565b7f4552433732313a206d696e7420746f20746865207a65726f2061646472657373600082015250565b6000614df4602083613254565b9150614dff82614dbe565b602082019050919050565b60006020820190508181036000830152614e2381614de7565b9050919050565b7f4552433732313a20746f6b656e20616c7265616479206d696e74656400000000600082015250565b6000614e60601c83613254565b9150614e6b82614e2a565b602082019050919050565b60006020820190508181036000830152614e8f81614e53565b905091905056fe0a2d2d2d2d2d2d2d2d2d2d2d2d2d2d2d2d2d2d2d2d2d2d2d2d2d2d2d2d2d2d2d2d2d2d2d2d2d2d2d2d2d2d2d2d2d2d2d2d2d2d2d2d2d2d2d2d5265676973746572696e672025732e2573206f6e2074686520636f6e7472616374207769746820746f6b656e49442025642d2d2d2d2d2d2d2d2d2d2d2d2d2d2d2d2d2d2d2d2d2d2d2d2d2d2d2d2d2d2d2d2d2d2d2d2d2d2d2d2d2d2d2d2d2d2d2d2d2d2d2d2d2d2d2d0a4142434445464748494a4b4c4d4e4f505152535455565758595a6162636465666768696a6b6c6d6e6f707172737475767778797a303132333435363738392b2fa2646970667358221220ab31c089da1471b6ccd2f99f34173233104f5cc29639a51291f9e938b90ee12964736f6c634300081100333c73766720786d6c6e733d22687474703a2f2f7777772e77332e6f72672f323030302f737667222077696474683d2232373022206865696768743d22323730222066696c6c3d226e6f6e65223e3c6720636c69702d706174683d2275726c2823636c6970305f325f3429223e3c726563742077696474683d2232373022206865696768743d22323730222066696c6c3d227768697465222f3e3c726563742077696474683d2232373022206865696768743d22323730222066696c6c3d22222f3e3c7265637420783d223131332220793d22313237222077696474683d22353722206865696768743d223436222066696c6c3d2275726c28237061747465726e3029222f3e3c7265637420783d2239392220793d223937222077696474683d22353422206865696768743d223438222066696c6c3d2275726c28237061747465726e3129222f3e3c2f673e3c646566733e3c7061747465726e2069643d227061747465726e3022207061747465726e436f6e74656e74556e6974733d226f626a656374426f756e64696e67426f78222077696474683d223122206865696768743d2231223e3c75736520687265663d2223696d616765305f325f3422207472616e73666f726d3d227472616e736c61746528302e3039363439313229207363616c6528302e303038343036343320302e3031303431363729222f3e3c2f7061747465726e3e3c7061747465726e2069643d227061747465726e3122207061747465726e436f6e74656e74556e6974733d226f626a656374426f756e64696e67426f78222077696474683d223122206865696768743d2231223e3c75736520687265663d2223696d616765315f325f3422207472616e73666f726d3d227472616e736c61746528302e3035353535353629207363616c6528302e303039323539323620302e3031303431363729222f3e3c2f7061747465726e3e3c636c6970506174682069643d22636c6970305f325f34223e3c726563742077696474683d2232373022206865696768743d22323730222066696c6c3d227768697465222f3e3c2f636c6970506174683e3c696d6167652069643d22696d616765305f325f34222077696474683d22393622206865696768743d2239362220687265663d22646174613a696d6167652f706e673b6261736536342c6956424f5277304b47676f414141414e5355684555674141414741414141426743415941414144696d48633441414141426d4a4c523051412f77442f41502b67766165544141414471456c45515652346e4f32644f576756555252417a385445445156525551524249316a45526b456842446455304d4a57454a743042745465306c30544377733342473073465255734241556c6c59697068494346416130535538576654534a69484975586a7a484f2f374f2b643265354232373159656265637964764a752b3950783855463351417a34467859415a34425777587a616843644149317746385155326754724e4f4a75656f5879712f4853376e55796b2b596642387a48436b5769434c664237354c4a56686d6f737233675764434f5a61574f504a727742615a4e4d764a54754162306553505935716c5a49544b4630546c43364c7942564835677168385156532b49437066454a5576694d6f58524f554c6f76494655666d437148784274684b3868717679486645516c532f4b454370666c416c55766968684464676a6c316f316d4b4a3541315a6b65624b574c413957457279517a2f30735436594e2b4a38774a3739646e71794b36462b414d453462304a726c775170414b37437977576531694d6649744146565952746d542f34766f76325832797a61484f6465654f4a73463477536939796d58327a697a4770476a62423768444b4844666b362f6b636b3632476e48684d75697967717475543777464f48645251536d2f4c484d4973315367506979502b4a75542f556f396b4533446a77474e6a6f727054696f577534677168385156532b51355944657a455332346733357176386c505141302f77564f6b4c343071484b7a34674c4a48393056506b7055666d4356454b2b79356d397063412b34436a6d36575539734748757336397a38525a34417877417a6955387a775277424268496b32795a57417630417050596d53496f354a5876676862674c4f4837624c4b4d456171337a4272494f7377536f43767838324f58672f70797a57466746426e3550724462666f6e355a416c7741374e785355722b4a4c444d6471463570415034674a7a3465707930585767653665626661514b704f472b37304c7978436e69457650684b796a384944434d76766e4c794677505867566e6b786676415262766c356f74323442337930756648667173564f794471377568755942446f7370684c4567354a4a32436231634154354b2f305274467672335235756f417679457475466b505771686645777a785a354f56473279796d4c446b513552547959715047744355486f6e7843586d7a552b477a4a67544f436e6f4c616e5765526e464870424e49533149416933646a65537965516c71414739446e50496a6d7670524f777852586b782f6577474b506b632f2b586b5a66634c436f784433514e656446424d59315a643634456552794f7a6c69744f49663049532b3948763155394b75695635475858774d32325334307a306a66453437624c7a482f534458686e6f7669696b49766275562f7848784452706d487179624d6f443936325241585430656e6e56565451447a674a76626b763643696a357878734e57455957434e777a6f4b6a516663496a763573356a4e58306f4d736d7a434a6365356c775950754530362b51506f65396c53345146335343612f426d78326e334c35534e714545784c4a6c685550754574302b66646c30697733555a7377524d5a764a56662b457461454838414f7365777151677677674f414739416a6d56536b387a464c69494f5a31417633414d64474d46455652464557515036777566744f6569446e744141414141456c46546b5375516d4343222f3e3c696d6167652069643d22696d616765315f325f34222077696474683d22393622206865696768743d2239362220687265663d22646174613a696d6167652f706e673b6261736536342c6956424f5277304b47676f414141414e5355684555674141414741414141426743415941414144696d48633441414141426d4a4c523051412f77442f41502b67766165544141414556306c45515652346e4f326453597356535243415032326e7355456432745a78785630504b71346736726a67306e7231496a4e6531482f67306173694b4d35683844427a6d463867714f4464425556515041796f7543414b436f4a4c69394274747a497933646f653468574939764b364b6a4d6a71696f2b4342343072374d694d696f694d794f7a366f486a4f49376a4f49376a4f45353439674e766763464138674634414a7742566961306f39524d423834527a676d5a6641622b426c72546d564a75516b64444a6c64784a7a524e72476a344b365552565342304e4177414b354a6155414861675838493534512f3036706648554a46772f3355696c654a454e48516d317a72436c49304368616c567a6b2f34375556694d427562515847516855647345746267624a544e4157396f356f33566a4b4f5574774a36354e726e5a4d57625157473443627769574b352f466d6a4861634152534c686b6f4b2b6c535376452f34443268543072527a7a79423846705a694f577038742f467267663073784861327941306f5241646135512f345539426d596c6c376c366a415a7166455857512f7354363731474c4763676a5a52664a316966687977374941692b54396a62344132617373566970636b7a4a656e72555a41433741685546756d5a304e57486241614759524459486f63734f714145506b2f5978643237545372574567486441427241375958464b734f324279345064506a6744574b464f43385042324141345233674e6e79744d555546444c2f5a30794d314735684c4470675336523254553948725443463467573434655466684861556c6a33453658797a35576c724b53686d6e68345037496a59666937713541447763574245577044547a62465330434477504a6b314a5751646354732f4531506c615573704b4e55383356525a6f6f344f38484667474636514a67583536656b686d452b617a732f457a4f6c704b336443366a714e6d58484148654141634a65304b636873655671446d4157346b635245464668495152765265564c487848545567674f304e6b6f366c6135726a6c416e344d59714a7372543268455138675463574446526e745a32774272436e59444c672f6f346f4f30413759317939645054645866414170544c30396f4f434830434c672b713677464e423877483569706550364f324474424f50786b375565794843516d764e524e353065704b354f5636366a4f51426833416265416538504162655a586934754d697454734232655064444778463776595a6b61345669396649437a3975417265515232623756545561685137674948414236454e6e64527454656f487a445276565639415a72634476794a74724e537161576a4b416c46422b512b6d4e76644f415530425845387057586271416b306747694534726341546f546d52636d6151504f4562456a5a366c794f784132314472386868596e724f506836555465472f41754c4a4944774558654d756f3571776d7476514353334c3039772f45654e563858655473614a33627a454b73422f6935696538355039494e5442337043383355515034506f3073744758586c334977444c676451704b3445655435354b54344479694d39774f49632f54306b6e636a5052326b625652627049304b31647a5877314942783175554a7343706e4834394b473341432b476a41554776794554694f504a55666e562b41502f43613047436a443034332b69513562634268344472314b3064664177355273506757636b64734a7241504762433359576a54496844766742764974507769556f5975544b77747958484976752f32686d796a664675536235414f763446452b43506b3767394b4c41634d5254747943476f465571374e5068636d31754e377570484f66666a4e35374f475245665438497a4a7742786b454a754e524d6f4d5946626a622b3349527442454a4e2f2b424578435676465a6a656f393841565a712f516a5438423851736f6f33636950784c3147306b595863754c684c6641536d624d376a754d346a754d346a754d6b347975514732742b35696d54536741414141424a52553545726b4a6767673d3d222f3e3c2f646566733e3c7465787420783d223530252220793d223830252220646f6d696e616e742d626173656c696e653d226d6964646c652220746578742d616e63686f723d226d6964646c652220666f6e742d73697a653d223135222066696c6c3d22626c61636b2220666f6e742d66616d696c793d22506c7573204a616b617274612053616e732c44656a6156752053616e732c4e6f746f20436f6c6f7220456d6f6a692c4170706c6520436f6c6f7220456d6f6a692c73616e732d73657269662220666f6e742d7765696768743d22626f6c64223e",
  "linkReferences": {},
  "deployedLinkReferences": {}
}